{
  "_format": "hh-sol-artifact-1",
  "contractName": "ERC721Collections",
  "sourceName": "contracts/ERC721Collections.sol",
  "abi": [
    {
      "inputs": [
        {
          "internalType": "string",
          "name": "publicCollectionURI",
          "type": "string"
        }
      ],
      "stateMutability": "nonpayable",
      "type": "constructor"
    },
    {
      "anonymous": false,
      "inputs": [
        {
          "indexed": true,
          "internalType": "address",
          "name": "owner",
          "type": "address"
        },
        {
          "indexed": true,
          "internalType": "address",
          "name": "approved",
          "type": "address"
        },
        {
          "indexed": true,
          "internalType": "uint256",
          "name": "tokenId",
          "type": "uint256"
        }
      ],
      "name": "Approval",
      "type": "event"
    },
    {
      "anonymous": false,
      "inputs": [
        {
          "indexed": true,
          "internalType": "address",
          "name": "owner",
          "type": "address"
        },
        {
          "indexed": true,
          "internalType": "address",
          "name": "operator",
          "type": "address"
        },
        {
          "indexed": false,
          "internalType": "bool",
          "name": "approved",
          "type": "bool"
        }
      ],
      "name": "ApprovalForAll",
      "type": "event"
    },
    {
      "anonymous": false,
      "inputs": [
        {
          "indexed": false,
          "internalType": "uint256",
          "name": "_fromTokenId",
          "type": "uint256"
        },
        {
          "indexed": false,
          "internalType": "uint256",
          "name": "_toTokenId",
          "type": "uint256"
        }
      ],
      "name": "BatchMetadataUpdate",
      "type": "event"
    },
    {
      "anonymous": false,
      "inputs": [
        {
          "indexed": false,
          "internalType": "uint256",
          "name": "id",
          "type": "uint256"
        },
        {
          "indexed": false,
          "internalType": "string",
          "name": "uri",
          "type": "string"
        }
      ],
      "name": "CollectionCreated",
      "type": "event"
    },
    {
      "anonymous": false,
      "inputs": [
        {
          "indexed": false,
          "internalType": "uint256",
          "name": "_tokenId",
          "type": "uint256"
        }
      ],
      "name": "MetadataUpdate",
      "type": "event"
    },
    {
      "anonymous": false,
      "inputs": [
        {
          "indexed": true,
          "internalType": "address",
          "name": "previousOwner",
          "type": "address"
        },
        {
          "indexed": true,
          "internalType": "address",
          "name": "newOwner",
          "type": "address"
        }
      ],
      "name": "OwnershipTransferred",
      "type": "event"
    },
    {
      "anonymous": false,
      "inputs": [
        {
          "indexed": false,
          "internalType": "uint256",
          "name": "tokenId",
          "type": "uint256"
        },
        {
          "indexed": false,
          "internalType": "uint256",
          "name": "price",
          "type": "uint256"
        }
      ],
      "name": "PriceSet",
      "type": "event"
    },
    {
      "anonymous": false,
      "inputs": [
        {
          "indexed": false,
          "internalType": "uint256",
          "name": "tokenId",
          "type": "uint256"
        },
        {
          "indexed": false,
          "internalType": "uint256",
          "name": "collectionId",
          "type": "uint256"
        }
      ],
      "name": "TokenMinted",
      "type": "event"
    },
    {
      "anonymous": false,
      "inputs": [
        {
          "indexed": true,
          "internalType": "address",
          "name": "from",
          "type": "address"
        },
        {
          "indexed": true,
          "internalType": "address",
          "name": "to",
          "type": "address"
        },
        {
          "indexed": true,
          "internalType": "uint256",
          "name": "tokenId",
          "type": "uint256"
        }
      ],
      "name": "Transfer",
      "type": "event"
    },
    {
      "inputs": [],
      "name": "MIN_PRICE",
      "outputs": [
        {
          "internalType": "uint256",
          "name": "",
          "type": "uint256"
        }
      ],
      "stateMutability": "view",
      "type": "function"
    },
    {
      "inputs": [
        {
          "internalType": "address",
          "name": "to",
          "type": "address"
        },
        {
          "internalType": "uint256",
          "name": "tokenId",
          "type": "uint256"
        }
      ],
      "name": "approve",
      "outputs": [],
      "stateMutability": "nonpayable",
      "type": "function"
    },
    {
      "inputs": [
        {
          "internalType": "address",
          "name": "owner",
          "type": "address"
        }
      ],
      "name": "balanceOf",
      "outputs": [
        {
          "internalType": "uint256",
          "name": "",
          "type": "uint256"
        }
      ],
      "stateMutability": "view",
      "type": "function"
    },
    {
      "inputs": [
        {
          "internalType": "address",
          "name": "",
          "type": "address"
        }
      ],
      "name": "collectionsCreated",
      "outputs": [
        {
          "internalType": "uint256",
          "name": "",
          "type": "uint256"
        }
      ],
      "stateMutability": "view",
      "type": "function"
    },
    {
      "inputs": [
        {
          "internalType": "string",
          "name": "uri",
          "type": "string"
        },
        {
          "internalType": "uint256",
          "name": "mintDate",
          "type": "uint256"
        }
      ],
      "name": "createCollection",
      "outputs": [
        {
          "internalType": "uint256",
          "name": "",
          "type": "uint256"
        }
      ],
      "stateMutability": "nonpayable",
      "type": "function"
    },
    {
      "inputs": [
        {
          "internalType": "uint256",
          "name": "tokenId",
          "type": "uint256"
        }
      ],
      "name": "getApproved",
      "outputs": [
        {
          "internalType": "address",
          "name": "",
          "type": "address"
        }
      ],
      "stateMutability": "view",
      "type": "function"
    },
    {
      "inputs": [
        {
          "internalType": "uint256",
          "name": "id",
          "type": "uint256"
        }
      ],
      "name": "getCollection",
      "outputs": [
        {
          "components": [
            {
              "internalType": "string",
              "name": "uri",
              "type": "string"
            },
            {
              "internalType": "uint256",
              "name": "id",
              "type": "uint256"
            },
            {
              "internalType": "address",
              "name": "owner",
              "type": "address"
            },
            {
              "internalType": "uint256",
              "name": "mintDate",
              "type": "uint256"
            }
          ],
          "internalType": "struct ERC721Collections.Collection",
          "name": "",
          "type": "tuple"
        }
      ],
      "stateMutability": "view",
      "type": "function"
    },
    {
      "inputs": [
        {
          "internalType": "uint256",
          "name": "tokenId",
          "type": "uint256"
        }
      ],
      "name": "getCollectionOfToken",
      "outputs": [
        {
          "components": [
            {
              "internalType": "string",
              "name": "uri",
              "type": "string"
            },
            {
              "internalType": "uint256",
              "name": "id",
              "type": "uint256"
            },
            {
              "internalType": "address",
              "name": "owner",
              "type": "address"
            },
            {
              "internalType": "uint256",
              "name": "mintDate",
              "type": "uint256"
            }
          ],
          "internalType": "struct ERC721Collections.Collection",
          "name": "",
          "type": "tuple"
        }
      ],
      "stateMutability": "view",
      "type": "function"
    },
    {
      "inputs": [
        {
          "internalType": "uint256",
          "name": "collectionId",
          "type": "uint256"
        }
      ],
      "name": "getCollectionOwner",
      "outputs": [
        {
          "internalType": "address",
          "name": "",
          "type": "address"
        }
      ],
      "stateMutability": "view",
      "type": "function"
    },
    {
      "inputs": [
        {
          "internalType": "uint256",
          "name": "collectionId",
          "type": "uint256"
        },
        {
          "internalType": "uint256",
          "name": "startIndex",
          "type": "uint256"
        },
        {
          "internalType": "uint256",
          "name": "pageSize",
          "type": "uint256"
        }
      ],
      "name": "getNFTsInCollection",
      "outputs": [
        {
          "internalType": "uint256[]",
          "name": "",
          "type": "uint256[]"
        }
      ],
      "stateMutability": "view",
      "type": "function"
    },
    {
      "inputs": [
        {
          "internalType": "address",
          "name": "owner",
          "type": "address"
        },
        {
          "internalType": "address",
          "name": "operator",
          "type": "address"
        }
      ],
      "name": "isApprovedForAll",
      "outputs": [
        {
          "internalType": "bool",
          "name": "",
          "type": "bool"
        }
      ],
      "stateMutability": "view",
      "type": "function"
    },
    {
      "inputs": [
        {
          "internalType": "address",
          "name": "",
          "type": "address"
        }
      ],
      "name": "lastCollectionTimestamp",
      "outputs": [
        {
          "internalType": "uint256",
          "name": "",
          "type": "uint256"
        }
      ],
      "stateMutability": "view",
      "type": "function"
    },
    {
      "inputs": [
        {
          "internalType": "uint256",
          "name": "collectionId",
          "type": "uint256"
        },
        {
          "internalType": "string",
          "name": "tokenURI",
          "type": "string"
        },
        {
          "internalType": "uint256",
          "name": "price",
          "type": "uint256"
        },
        {
          "internalType": "uint256",
          "name": "royaltyPercentage",
          "type": "uint256"
        },
        {
          "internalType": "bool",
          "name": "isMintToMarketplace",
          "type": "bool"
        }
      ],
      "name": "mint",
      "outputs": [
        {
          "internalType": "uint256",
          "name": "",
          "type": "uint256"
        }
      ],
      "stateMutability": "nonpayable",
      "type": "function"
    },
    {
      "inputs": [],
      "name": "name",
      "outputs": [
        {
          "internalType": "string",
          "name": "",
          "type": "string"
        }
      ],
      "stateMutability": "view",
      "type": "function"
    },
    {
      "inputs": [],
      "name": "owner",
      "outputs": [
        {
          "internalType": "address",
          "name": "",
          "type": "address"
        }
      ],
      "stateMutability": "view",
      "type": "function"
    },
    {
      "inputs": [
        {
          "internalType": "uint256",
          "name": "tokenId",
          "type": "uint256"
        }
      ],
      "name": "ownerOf",
      "outputs": [
        {
          "internalType": "address",
          "name": "",
          "type": "address"
        }
      ],
      "stateMutability": "view",
      "type": "function"
    },
    {
      "inputs": [],
      "name": "renounceOwnership",
      "outputs": [],
      "stateMutability": "nonpayable",
      "type": "function"
    },
    {
      "inputs": [
        {
          "internalType": "uint256",
          "name": "_tokenId",
          "type": "uint256"
        },
        {
          "internalType": "uint256",
          "name": "_salePrice",
          "type": "uint256"
        }
      ],
      "name": "royaltyInfo",
      "outputs": [
        {
          "internalType": "address",
          "name": "receiver",
          "type": "address"
        },
        {
          "internalType": "uint256",
          "name": "royaltyAmount",
          "type": "uint256"
        }
      ],
      "stateMutability": "view",
      "type": "function"
    },
    {
      "inputs": [
        {
          "internalType": "address",
          "name": "from",
          "type": "address"
        },
        {
          "internalType": "address",
          "name": "to",
          "type": "address"
        },
        {
          "internalType": "uint256",
          "name": "tokenId",
          "type": "uint256"
        }
      ],
      "name": "safeTransferFrom",
      "outputs": [],
      "stateMutability": "nonpayable",
      "type": "function"
    },
    {
      "inputs": [
        {
          "internalType": "address",
          "name": "from",
          "type": "address"
        },
        {
          "internalType": "address",
          "name": "to",
          "type": "address"
        },
        {
          "internalType": "uint256",
          "name": "tokenId",
          "type": "uint256"
        },
        {
          "internalType": "bytes",
          "name": "data",
          "type": "bytes"
        }
      ],
      "name": "safeTransferFrom",
      "outputs": [],
      "stateMutability": "nonpayable",
      "type": "function"
    },
    {
      "inputs": [
        {
          "internalType": "address",
          "name": "operator",
          "type": "address"
        },
        {
          "internalType": "bool",
          "name": "approved",
          "type": "bool"
        }
      ],
      "name": "setApprovalForAll",
      "outputs": [],
      "stateMutability": "nonpayable",
      "type": "function"
    },
    {
      "inputs": [
        {
          "internalType": "address payable",
          "name": "marketplaceAddress",
          "type": "address"
        }
      ],
      "name": "setMarketplace",
      "outputs": [],
      "stateMutability": "nonpayable",
      "type": "function"
    },
    {
      "inputs": [
        {
          "internalType": "bytes4",
          "name": "interfaceId",
          "type": "bytes4"
        }
      ],
      "name": "supportsInterface",
      "outputs": [
        {
          "internalType": "bool",
          "name": "",
          "type": "bool"
        }
      ],
      "stateMutability": "view",
      "type": "function"
    },
    {
      "inputs": [],
      "name": "symbol",
      "outputs": [
        {
          "internalType": "string",
          "name": "",
          "type": "string"
        }
      ],
      "stateMutability": "view",
      "type": "function"
    },
    {
      "inputs": [
        {
          "internalType": "uint256",
          "name": "tokenId",
          "type": "uint256"
        }
      ],
      "name": "tokenURI",
      "outputs": [
        {
          "internalType": "string",
          "name": "",
          "type": "string"
        }
      ],
      "stateMutability": "view",
      "type": "function"
    },
    {
      "inputs": [
        {
          "internalType": "address",
          "name": "from",
          "type": "address"
        },
        {
          "internalType": "address",
          "name": "to",
          "type": "address"
        },
        {
          "internalType": "uint256",
          "name": "tokenId",
          "type": "uint256"
        }
      ],
      "name": "transferFrom",
      "outputs": [],
      "stateMutability": "nonpayable",
      "type": "function"
    },
    {
      "inputs": [
        {
          "internalType": "address",
          "name": "newOwner",
          "type": "address"
        }
      ],
      "name": "transferOwnership",
      "outputs": [],
      "stateMutability": "nonpayable",
      "type": "function"
    }
  ],
  "bytecode": "0x60806040523480156200001157600080fd5b50604051620053413803806200534183398181016040528101906200003791906200066c565b6040518060400160405280601181526020017f455243373231436f6c6c656374696f6e730000000000000000000000000000008152506040518060400160405280600381526020017f53545200000000000000000000000000000000000000000000000000000000008152508160009080519060200190620000bb9291906200054a565b508060019080519060200190620000d49291906200054a565b505050620000f7620000eb6200012860201b60201c565b6200013060201b60201c565b620001098142620001f660201b60201c565b506200012160086200052660201b62001b721760201c565b5062000ab1565b600033905090565b6000600760009054906101000a900473ffffffffffffffffffffffffffffffffffffffff16905081600760006101000a81548173ffffffffffffffffffffffffffffffffffffffff021916908373ffffffffffffffffffffffffffffffffffffffff1602179055508173ffffffffffffffffffffffffffffffffffffffff168173ffffffffffffffffffffffffffffffffffffffff167f8be0079c531659141344cd1fd0a4f28419497f9722a3daafe3b4186f6b6457e060405160405180910390a35050565b60006103e7601060003373ffffffffffffffffffffffffffffffffffffffff1673ffffffffffffffffffffffffffffffffffffffff16815260200190815260200160002054106200027e576040517f08c379a0000000000000000000000000000000000000000000000000000000008152600401620002759062000773565b60405180910390fd5b42603c601160003373ffffffffffffffffffffffffffffffffffffffff1673ffffffffffffffffffffffffffffffffffffffff16815260200190815260200160002054620002cd919062000844565b111562000311576040517f08c379a0000000000000000000000000000000000000000000000000000000008152600401620003089062000751565b60405180910390fd5b6200032860096200052660201b62001b721760201c565b60405180608001604052808481526020016200035060096200053c60201b62001b881760201c565b81526020013373ffffffffffffffffffffffffffffffffffffffff16815260200183815250600d60006200039060096200053c60201b62001b881760201c565b81526020019081526020016000206000820151816000019080519060200190620003bc9291906200054a565b506020820151816001015560408201518160020160006101000a81548173ffffffffffffffffffffffffffffffffffffffff021916908373ffffffffffffffffffffffffffffffffffffffff16021790555060608201518160030155905050601060003373ffffffffffffffffffffffffffffffffffffffff1673ffffffffffffffffffffffffffffffffffffffff16815260200190815260200160002060008154809291906200046d906200094d565b919050555042601160003373ffffffffffffffffffffffffffffffffffffffff1673ffffffffffffffffffffffffffffffffffffffff168152602001908152602001600020819055507f62b7b5ba11bfc95430fab0460fdf99b9c8fbc2b3a6a48caf79c3ee1b591c0336620004ee60096200053c60201b62001b881760201c565b84604051620004ff92919062000795565b60405180910390a16200051e60096200053c60201b62001b881760201c565b905092915050565b6001816000016000828254019250508190555050565b600081600001549050919050565b8280546200055890620008e1565b90600052602060002090601f0160209004810192826200057c5760008555620005c8565b82601f106200059757805160ff1916838001178555620005c8565b82800160010185558215620005c8579182015b82811115620005c7578251825591602001919060010190620005aa565b5b509050620005d79190620005db565b5090565b5b80821115620005f6576000816000905550600101620005dc565b5090565b6000620006116200060b84620007f2565b620007c9565b9050828152602081018484840111156200062a57600080fd5b62000637848285620008ab565b509392505050565b600082601f8301126200065157600080fd5b815162000663848260208601620005fa565b91505092915050565b6000602082840312156200067f57600080fd5b600082015167ffffffffffffffff8111156200069a57600080fd5b620006a8848285016200063f565b91505092915050565b6000620006be8262000828565b620006ca818562000833565b9350620006dc818560208601620008ab565b620006e78162000a28565b840191505092915050565b600062000701602c8362000833565b91506200070e8262000a39565b604082019050919050565b60006200072860178362000833565b9150620007358262000a88565b602082019050919050565b6200074b81620008a1565b82525050565b600060208201905081810360008301526200076c81620006f2565b9050919050565b600060208201905081810360008301526200078e8162000719565b9050919050565b6000604082019050620007ac600083018562000740565b8181036020830152620007c08184620006b1565b90509392505050565b6000620007d5620007e8565b9050620007e3828262000917565b919050565b6000604051905090565b600067ffffffffffffffff82111562000810576200080f620009f9565b5b6200081b8262000a28565b9050602081019050919050565b600081519050919050565b600082825260208201905092915050565b60006200085182620008a1565b91506200085e83620008a1565b9250827fffffffffffffffffffffffffffffffffffffffffffffffffffffffffffffffff038211156200089657620008956200099b565b5b828201905092915050565b6000819050919050565b60005b83811015620008cb578082015181840152602081019050620008ae565b83811115620008db576000848401525b50505050565b60006002820490506001821680620008fa57607f821691505b60208210811415620009115762000910620009ca565b5b50919050565b620009228262000a28565b810181811067ffffffffffffffff82111715620009445762000943620009f9565b5b80604052505050565b60006200095a82620008a1565b91507fffffffffffffffffffffffffffffffffffffffffffffffffffffffffffffffff82141562000990576200098f6200099b565b5b600182019050919050565b7f4e487b7100000000000000000000000000000000000000000000000000000000600052601160045260246000fd5b7f4e487b7100000000000000000000000000000000000000000000000000000000600052602260045260246000fd5b7f4e487b7100000000000000000000000000000000000000000000000000000000600052604160045260246000fd5b6000601f19601f8301169050919050565b7f4d7573742077616974206265666f7265206372656174696e6720616e6f74686560008201527f7220636f6c6c656374696f6e0000000000000000000000000000000000000000602082015250565b7f4d617820636f6c6c656374696f6e732072656163686564000000000000000000600082015250565b6148808062000ac16000396000f3fe608060405234801561001057600080fd5b50600436106101a95760003560e01c806373ad6c2d116100f9578063b88d4fde11610097578063d08b28ea11610071578063d08b28ea14610519578063da0277fd14610549578063e985e9c514610579578063f2fde38b146105a9576101a9565b8063b88d4fde1461049d578063bd6fbad9146104b9578063c87b56dd146104e9576101a9565b80638da5cb5b116100d35780638da5cb5b1461042757806395d89b4114610445578063a22cb46514610463578063ad9f20a61461047f576101a9565b806373ad6c2d146103ab57806382a17cdb146103c757806382abfbd6146103f7576101a9565b8063394120c0116101665780636352211e116101405780636352211e1461031157806364d541511461034157806370a0823114610371578063715018a6146103a1576101a9565b8063394120c01461029557806342842e0e146102c55780635a1f3c28146102e1576101a9565b806301ffc9a7146101ae57806306fdde03146101de578063081812fc146101fc578063095ea7b31461022c57806323b872dd146102485780632a55205a14610264575b600080fd5b6101c860048036038101906101c39190613170565b6105c5565b6040516101d59190613977565b60405180910390f35b6101e6610626565b6040516101f39190613992565b60405180910390f35b61021660048036038101906102119190613216565b6106b8565b60405161022391906138c5565b60405180910390f35b61024660048036038101906102419190613134565b6106fe565b005b610262600480360381019061025d919061302e565b610816565b005b61027e600480360381019061027991906132ce565b610876565b60405161028c92919061392c565b60405180910390f35b6102af60048036038101906102aa9190613216565b6108ef565b6040516102bc91906138c5565b60405180910390f35b6102df60048036038101906102da919061302e565b61092f565b005b6102fb60048036038101906102f69190613216565b61094f565b6040516103089190613cb4565b60405180910390f35b61032b60048036038101906103269190613216565b610a78565b60405161033891906138c5565b60405180910390f35b61035b600480360381019061035691906131c2565b610aff565b6040516103689190613cd6565b60405180910390f35b61038b60048036038101906103869190612fa0565b610de0565b6040516103989190613cd6565b60405180910390f35b6103a9610e98565b005b6103c560048036038101906103c09190612fc9565b610eac565b005b6103e160048036038101906103dc9190612fa0565b610ff9565b6040516103ee9190613cd6565b60405180910390f35b610411600480360381019061040c919061323f565b611011565b60405161041e9190613cd6565b60405180910390f35b61042f6113f6565b60405161043c91906138c5565b60405180910390f35b61044d611420565b60405161045a9190613992565b60405180910390f35b61047d600480360381019061047891906130f8565b6114b2565b005b6104876114c8565b6040516104949190613cd6565b60405180910390f35b6104b760048036038101906104b2919061307d565b6114d3565b005b6104d360048036038101906104ce9190612fa0565b611535565b6040516104e09190613cd6565b60405180910390f35b61050360048036038101906104fe9190613216565b61154d565b6040516105109190613992565b60405180910390f35b610533600480360381019061052e919061330a565b611660565b6040516105409190613955565b60405180910390f35b610563600480360381019061055e9190613216565b6118c1565b6040516105709190613cb4565b60405180910390f35b610593600480360381019061058e9190612ff2565b611a5a565b6040516105a09190613977565b60405180910390f35b6105c360048036038101906105be9190612fa0565b611aee565b005b6000634906490660e01b7bffffffffffffffffffffffffffffffffffffffffffffffffffffffff1916827bffffffffffffffffffffffffffffffffffffffffffffffffffffffff1916148061061f575061061e82611b96565b5b9050919050565b60606000805461063590614072565b80601f016020809104026020016040519081016040528092919081815260200182805461066190614072565b80156106ae5780601f10610683576101008083540402835291602001916106ae565b820191906000526020600020905b81548152906001019060200180831161069157829003601f168201915b5050505050905090565b60006106c382611c78565b6004600083815260200190815260200160002060009054906101000a900473ffffffffffffffffffffffffffffffffffffffff169050919050565b600061070982610a78565b90508073ffffffffffffffffffffffffffffffffffffffff168373ffffffffffffffffffffffffffffffffffffffff16141561077a576040517f08c379a000000000000000000000000000000000000000000000000000000000815260040161077190613c54565b60405180910390fd5b8073ffffffffffffffffffffffffffffffffffffffff16610799611cc3565b73ffffffffffffffffffffffffffffffffffffffff1614806107c857506107c7816107c2611cc3565b611a5a565b5b610807576040517f08c379a00000000000000000000000000000000000000000000000000000000081526004016107fe90613c74565b60405180910390fd5b6108118383611ccb565b505050565b610827610821611cc3565b82611d84565b610866576040517f08c379a000000000000000000000000000000000000000000000000000000000815260040161085d906139b4565b60405180910390fd5b610871838383611e19565b505050565b6000806000600b60008681526020019081526020016000205490506000606482866108a19190613f1c565b6108ab9190613eeb565b9050600a600087815260200190815260200160002060009054906101000a900473ffffffffffffffffffffffffffffffffffffffff16819350935050509250929050565b6000600d600083815260200190815260200160002060020160009054906101000a900473ffffffffffffffffffffffffffffffffffffffff169050919050565b61094a838383604051806020016040528060008152506114d3565b505050565b610957612d71565b600d600083815260200190815260200160002060405180608001604052908160008201805461098590614072565b80601f01602080910402602001604051908101604052809291908181526020018280546109b190614072565b80156109fe5780601f106109d3576101008083540402835291602001916109fe565b820191906000526020600020905b8154815290600101906020018083116109e157829003601f168201915b50505050508152602001600182015481526020016002820160009054906101000a900473ffffffffffffffffffffffffffffffffffffffff1673ffffffffffffffffffffffffffffffffffffffff1673ffffffffffffffffffffffffffffffffffffffff1681526020016003820154815250509050919050565b600080610a8483612113565b9050600073ffffffffffffffffffffffffffffffffffffffff168173ffffffffffffffffffffffffffffffffffffffff161415610af6576040517f08c379a0000000000000000000000000000000000000000000000000000000008152600401610aed90613c34565b60405180910390fd5b80915050919050565b60006103e7601060003373ffffffffffffffffffffffffffffffffffffffff1673ffffffffffffffffffffffffffffffffffffffff1681526020019081526020016000205410610b84576040517f08c379a0000000000000000000000000000000000000000000000000000000008152600401610b7b90613b74565b60405180910390fd5b42603c601160003373ffffffffffffffffffffffffffffffffffffffff1673ffffffffffffffffffffffffffffffffffffffff16815260200190815260200160002054610bd19190613e95565b1115610c12576040517f08c379a0000000000000000000000000000000000000000000000000000000008152600401610c09906139f4565b60405180910390fd5b610c1c6009611b72565b6040518060800160405280848152602001610c376009611b88565b81526020013373ffffffffffffffffffffffffffffffffffffffff16815260200183815250600d6000610c6a6009611b88565b81526020019081526020016000206000820151816000019080519060200190610c94929190612daf565b506020820151816001015560408201518160020160006101000a81548173ffffffffffffffffffffffffffffffffffffffff021916908373ffffffffffffffffffffffffffffffffffffffff16021790555060608201518160030155905050601060003373ffffffffffffffffffffffffffffffffffffffff1673ffffffffffffffffffffffffffffffffffffffff1681526020019081526020016000206000815480929190610d43906140d5565b919050555042601160003373ffffffffffffffffffffffffffffffffffffffff1673ffffffffffffffffffffffffffffffffffffffff168152602001908152602001600020819055507f62b7b5ba11bfc95430fab0460fdf99b9c8fbc2b3a6a48caf79c3ee1b591c0336610db76009611b88565b84604051610dc6929190613cf1565b60405180910390a1610dd86009611b88565b905092915050565b60008073ffffffffffffffffffffffffffffffffffffffff168273ffffffffffffffffffffffffffffffffffffffff161415610e51576040517f08c379a0000000000000000000000000000000000000000000000000000000008152600401610e4890613b94565b60405180910390fd5b600360008373ffffffffffffffffffffffffffffffffffffffff1673ffffffffffffffffffffffffffffffffffffffff168152602001908152602001600020549050919050565b610ea0612150565b610eaa60006121ce565b565b610eb4612150565b600073ffffffffffffffffffffffffffffffffffffffff16600c60009054906101000a900473ffffffffffffffffffffffffffffffffffffffff1673ffffffffffffffffffffffffffffffffffffffff1614610f45576040517f08c379a0000000000000000000000000000000000000000000000000000000008152600401610f3c90613c14565b60405180910390fd5b600073ffffffffffffffffffffffffffffffffffffffff168173ffffffffffffffffffffffffffffffffffffffff161415610fb5576040517f08c379a0000000000000000000000000000000000000000000000000000000008152600401610fac906139d4565b60405180910390fd5b80600c60006101000a81548173ffffffffffffffffffffffffffffffffffffffff021916908373ffffffffffffffffffffffffffffffffffffffff16021790555050565b60116020528060005260406000206000915090505481565b6000600d60008781526020019081526020016000206003015442101561106c576040517f08c379a000000000000000000000000000000000000000000000000000000000815260040161106390613c94565b60405180910390fd5b662386f26fc100008410156110b6576040517f08c379a00000000000000000000000000000000000000000000000000000000081526004016110ad90613a34565b60405180910390fd5b6000600d6000888152602001908152602001600020600101541415611110576040517f08c379a000000000000000000000000000000000000000000000000000000000815260040161110790613ab4565b60405180910390fd5b6064831115611154576040517f08c379a000000000000000000000000000000000000000000000000000000000815260040161114b90613ad4565b60405180910390fd5b60018614806111c457503373ffffffffffffffffffffffffffffffffffffffff16600d600088815260200190815260200160002060020160009054906101000a900473ffffffffffffffffffffffffffffffffffffffff1673ffffffffffffffffffffffffffffffffffffffff16145b611203576040517f08c379a00000000000000000000000000000000000000000000000000000000081526004016111fa90613af4565b60405180910390fd5b611230600c60009054906101000a900473ffffffffffffffffffffffffffffffffffffffff1660016114b2565b600061123c6008611b88565b90506112486008611b72565b6112523382612294565b61125c81876124b2565b86600f600083815260200190815260200160002081905550600e600088815260200190815260200160002081908060018154018082558091505060019003906000526020600020016000909190919091505533600a600083815260200190815260200160002060006101000a81548173ffffffffffffffffffffffffffffffffffffffff021916908373ffffffffffffffffffffffffffffffffffffffff16021790555083600b60008381526020019081526020016000208190555082156113b057600c60009054906101000a900473ffffffffffffffffffffffffffffffffffffffff1673ffffffffffffffffffffffffffffffffffffffff166302998cf38287306040518463ffffffff1660e01b815260040161137d93929190613d4a565b600060405180830381600087803b15801561139757600080fd5b505af11580156113ab573d6000803e3d6000fd5b505050505b7f5f7666687319b40936f33c188908d86aea154abd3f4127b4fa0a3f04f303c7da81886040516113e1929190613d21565b60405180910390a18091505095945050505050565b6000600760009054906101000a900473ffffffffffffffffffffffffffffffffffffffff16905090565b60606001805461142f90614072565b80601f016020809104026020016040519081016040528092919081815260200182805461145b90614072565b80156114a85780601f1061147d576101008083540402835291602001916114a8565b820191906000526020600020905b81548152906001019060200180831161148b57829003601f168201915b5050505050905090565b6114c46114bd611cc3565b838361255d565b5050565b662386f26fc1000081565b6114e46114de611cc3565b83611d84565b611523576040517f08c379a000000000000000000000000000000000000000000000000000000000815260040161151a906139b4565b60405180910390fd5b61152f848484846126ca565b50505050565b60106020528060005260406000206000915090505481565b606061155882611c78565b600060066000848152602001908152602001600020805461157890614072565b80601f01602080910402602001604051908101604052809291908181526020018280546115a490614072565b80156115f15780601f106115c6576101008083540402835291602001916115f1565b820191906000526020600020905b8154815290600101906020018083116115d457829003601f168201915b505050505090506000611602612726565b905060008151141561161857819250505061165b565b60008251111561164d5780826040516020016116359291906138a1565b6040516020818303038152906040529250505061165b565b6116568461273d565b925050505b919050565b60606000600e60008681526020019081526020016000208054806020026020016040519081016040528092919081815260200182805480156116c157602002820191906000526020600020905b8154815260200190600101908083116116ad575b505050505090506000815114806116d9575080518410155b1561175657600067ffffffffffffffff81111561171f577f4e487b7100000000000000000000000000000000000000000000000000000000600052604160045260246000fd5b60405190808252806020026020018201604052801561174d5781602001602082028036833780820191505090505b509150506118ba565b606483111561176457606492505b600083856117729190613e95565b9050815181111561178257815190505b600085826117909190613f76565b67ffffffffffffffff8111156117cf577f4e487b7100000000000000000000000000000000000000000000000000000000600052604160045260246000fd5b6040519080825280602002602001820160405280156117fd5781602001602082028036833780820191505090505b50905060008690505b828110156118b257838181518110611847577f4e487b7100000000000000000000000000000000000000000000000000000000600052603260045260246000fd5b602002602001015182888361185c9190613f76565b81518110611893577f4e487b7100000000000000000000000000000000000000000000000000000000600052603260045260246000fd5b60200260200101818152505080806118aa906140d5565b915050611806565b508093505050505b9392505050565b6118c9612d71565b6000600f6000848152602001908152602001600020541415611920576040517f08c379a000000000000000000000000000000000000000000000000000000000815260040161191790613b54565b60405180910390fd5b6000600f6000848152602001908152602001600020549050600d600082815260200190815260200160002060405180608001604052908160008201805461196690614072565b80601f016020809104026020016040519081016040528092919081815260200182805461199290614072565b80156119df5780601f106119b4576101008083540402835291602001916119df565b820191906000526020600020905b8154815290600101906020018083116119c257829003601f168201915b50505050508152602001600182015481526020016002820160009054906101000a900473ffffffffffffffffffffffffffffffffffffffff1673ffffffffffffffffffffffffffffffffffffffff1673ffffffffffffffffffffffffffffffffffffffff168152602001600382015481525050915050919050565b6000600560008473ffffffffffffffffffffffffffffffffffffffff1673ffffffffffffffffffffffffffffffffffffffff16815260200190815260200160002060008373ffffffffffffffffffffffffffffffffffffffff1673ffffffffffffffffffffffffffffffffffffffff16815260200190815260200160002060009054906101000a900460ff16905092915050565b611af6612150565b600073ffffffffffffffffffffffffffffffffffffffff168173ffffffffffffffffffffffffffffffffffffffff161415611b66576040517f08c379a0000000000000000000000000000000000000000000000000000000008152600401611b5d90613a54565b60405180910390fd5b611b6f816121ce565b50565b6001816000016000828254019250508190555050565b600081600001549050919050565b60007f80ac58cd000000000000000000000000000000000000000000000000000000007bffffffffffffffffffffffffffffffffffffffffffffffffffffffff1916827bffffffffffffffffffffffffffffffffffffffffffffffffffffffff19161480611c6157507f5b5e139f000000000000000000000000000000000000000000000000000000007bffffffffffffffffffffffffffffffffffffffffffffffffffffffff1916827bffffffffffffffffffffffffffffffffffffffffffffffffffffffff1916145b80611c715750611c70826127a5565b5b9050919050565b611c818161280f565b611cc0576040517f08c379a0000000000000000000000000000000000000000000000000000000008152600401611cb790613c34565b60405180910390fd5b50565b600033905090565b816004600083815260200190815260200160002060006101000a81548173ffffffffffffffffffffffffffffffffffffffff021916908373ffffffffffffffffffffffffffffffffffffffff160217905550808273ffffffffffffffffffffffffffffffffffffffff16611d3e83610a78565b73ffffffffffffffffffffffffffffffffffffffff167f8c5be1e5ebec7d5bd14f71427d1e84f3dd0314c0f7b2291e5b200ac8c7c3b92560405160405180910390a45050565b600080611d9083610a78565b90508073ffffffffffffffffffffffffffffffffffffffff168473ffffffffffffffffffffffffffffffffffffffff161480611dd25750611dd18185611a5a565b5b80611e1057508373ffffffffffffffffffffffffffffffffffffffff16611df8846106b8565b73ffffffffffffffffffffffffffffffffffffffff16145b91505092915050565b8273ffffffffffffffffffffffffffffffffffffffff16611e3982610a78565b73ffffffffffffffffffffffffffffffffffffffff1614611e8f576040517f08c379a0000000000000000000000000000000000000000000000000000000008152600401611e8690613a74565b60405180910390fd5b600073ffffffffffffffffffffffffffffffffffffffff168273ffffffffffffffffffffffffffffffffffffffff161415611eff576040517f08c379a0000000000000000000000000000000000000000000000000000000008152600401611ef690613b14565b60405180910390fd5b611f0c8383836001612850565b8273ffffffffffffffffffffffffffffffffffffffff16611f2c82610a78565b73ffffffffffffffffffffffffffffffffffffffff1614611f82576040517f08c379a0000000000000000000000000000000000000000000000000000000008152600401611f7990613a74565b60405180910390fd5b6004600082815260200190815260200160002060006101000a81549073ffffffffffffffffffffffffffffffffffffffff02191690556001600360008573ffffffffffffffffffffffffffffffffffffffff1673ffffffffffffffffffffffffffffffffffffffff168152602001908152602001600020600082825403925050819055506001600360008473ffffffffffffffffffffffffffffffffffffffff1673ffffffffffffffffffffffffffffffffffffffff16815260200190815260200160002060008282540192505081905550816002600083815260200190815260200160002060006101000a81548173ffffffffffffffffffffffffffffffffffffffff021916908373ffffffffffffffffffffffffffffffffffffffff160217905550808273ffffffffffffffffffffffffffffffffffffffff168473ffffffffffffffffffffffffffffffffffffffff167fddf252ad1be2c89b69c2b068fc378daa952ba7f163c4a11628f55a4df523b3ef60405160405180910390a461210e8383836001612856565b505050565b60006002600083815260200190815260200160002060009054906101000a900473ffffffffffffffffffffffffffffffffffffffff169050919050565b612158611cc3565b73ffffffffffffffffffffffffffffffffffffffff166121766113f6565b73ffffffffffffffffffffffffffffffffffffffff16146121cc576040517f08c379a00000000000000000000000000000000000000000000000000000000081526004016121c390613bf4565b60405180910390fd5b565b6000600760009054906101000a900473ffffffffffffffffffffffffffffffffffffffff16905081600760006101000a81548173ffffffffffffffffffffffffffffffffffffffff021916908373ffffffffffffffffffffffffffffffffffffffff1602179055508173ffffffffffffffffffffffffffffffffffffffff168173ffffffffffffffffffffffffffffffffffffffff167f8be0079c531659141344cd1fd0a4f28419497f9722a3daafe3b4186f6b6457e060405160405180910390a35050565b600073ffffffffffffffffffffffffffffffffffffffff168273ffffffffffffffffffffffffffffffffffffffff161415612304576040517f08c379a00000000000000000000000000000000000000000000000000000000081526004016122fb90613bd4565b60405180910390fd5b61230d8161280f565b1561234d576040517f08c379a000000000000000000000000000000000000000000000000000000000815260040161234490613a94565b60405180910390fd5b61235b600083836001612850565b6123648161280f565b156123a4576040517f08c379a000000000000000000000000000000000000000000000000000000000815260040161239b90613a94565b60405180910390fd5b6001600360008473ffffffffffffffffffffffffffffffffffffffff1673ffffffffffffffffffffffffffffffffffffffff16815260200190815260200160002060008282540192505081905550816002600083815260200190815260200160002060006101000a81548173ffffffffffffffffffffffffffffffffffffffff021916908373ffffffffffffffffffffffffffffffffffffffff160217905550808273ffffffffffffffffffffffffffffffffffffffff16600073ffffffffffffffffffffffffffffffffffffffff167fddf252ad1be2c89b69c2b068fc378daa952ba7f163c4a11628f55a4df523b3ef60405160405180910390a46124ae600083836001612856565b5050565b6124bb8261280f565b6124fa576040517f08c379a00000000000000000000000000000000000000000000000000000000081526004016124f190613bb4565b60405180910390fd5b80600660008481526020019081526020016000209080519060200190612521929190612daf565b507ff8e1a15aba9398e019f0b49df1a4fde98ee17ae345cb5f6b5e2c27f5033e8ce7826040516125519190613cd6565b60405180910390a15050565b8173ffffffffffffffffffffffffffffffffffffffff168373ffffffffffffffffffffffffffffffffffffffff1614156125cc576040517f08c379a00000000000000000000000000000000000000000000000000000000081526004016125c390613b34565b60405180910390fd5b80600560008573ffffffffffffffffffffffffffffffffffffffff1673ffffffffffffffffffffffffffffffffffffffff16815260200190815260200160002060008473ffffffffffffffffffffffffffffffffffffffff1673ffffffffffffffffffffffffffffffffffffffff16815260200190815260200160002060006101000a81548160ff0219169083151502179055508173ffffffffffffffffffffffffffffffffffffffff168373ffffffffffffffffffffffffffffffffffffffff167f17307eab39ab6107e8899845ad3d59bd9653f200f220920489ca2b5937696c31836040516126bd9190613977565b60405180910390a3505050565b6126d5848484611e19565b6126e18484848461285c565b612720576040517f08c379a000000000000000000000000000000000000000000000000000000000815260040161271790613a14565b60405180910390fd5b50505050565b606060405180602001604052806000815250905090565b606061274882611c78565b6000612752612726565b90506000815111612772576040518060200160405280600081525061279d565b8061277c846129f3565b60405160200161278d9291906138a1565b6040516020818303038152906040525b915050919050565b60007f01ffc9a7000000000000000000000000000000000000000000000000000000007bffffffffffffffffffffffffffffffffffffffffffffffffffffffff1916827bffffffffffffffffffffffffffffffffffffffffffffffffffffffff1916149050919050565b60008073ffffffffffffffffffffffffffffffffffffffff1661283183612113565b73ffffffffffffffffffffffffffffffffffffffff1614159050919050565b50505050565b50505050565b600061287d8473ffffffffffffffffffffffffffffffffffffffff16612b17565b156129e6578373ffffffffffffffffffffffffffffffffffffffff1663150b7a026128a6611cc3565b8786866040518563ffffffff1660e01b81526004016128c894939291906138e0565b602060405180830381600087803b1580156128e257600080fd5b505af192505050801561291357506040513d601f19601f820116820180604052508101906129109190613199565b60015b612996573d8060008114612943576040519150601f19603f3d011682016040523d82523d6000602084013e612948565b606091505b5060008151141561298e576040517f08c379a000000000000000000000000000000000000000000000000000000000815260040161298590613a14565b60405180910390fd5b805181602001fd5b63150b7a0260e01b7bffffffffffffffffffffffffffffffffffffffffffffffffffffffff1916817bffffffffffffffffffffffffffffffffffffffffffffffffffffffff1916149150506129eb565b600190505b949350505050565b606060006001612a0284612b3a565b01905060008167ffffffffffffffff811115612a47577f4e487b7100000000000000000000000000000000000000000000000000000000600052604160045260246000fd5b6040519080825280601f01601f191660200182016040528015612a795781602001600182028036833780820191505090505b509050600082602001820190505b600115612b0c578080600190039150507f3031323334353637383961626364656600000000000000000000000000000000600a86061a8153600a8581612af6577f4e487b7100000000000000000000000000000000000000000000000000000000600052601260045260246000fd5b0494506000851415612b0757612b0c565b612a87565b819350505050919050565b6000808273ffffffffffffffffffffffffffffffffffffffff163b119050919050565b600080600090507a184f03e93ff9f4daa797ed6e38ed64bf6a1f0100000000000000008310612bbe577a184f03e93ff9f4daa797ed6e38ed64bf6a1f0100000000000000008381612bb4577f4e487b7100000000000000000000000000000000000000000000000000000000600052601260045260246000fd5b0492506040810190505b6d04ee2d6d415b85acef81000000008310612c21576d04ee2d6d415b85acef81000000008381612c17577f4e487b7100000000000000000000000000000000000000000000000000000000600052601260045260246000fd5b0492506020810190505b662386f26fc100008310612c7657662386f26fc100008381612c6c577f4e487b7100000000000000000000000000000000000000000000000000000000600052601260045260246000fd5b0492506010810190505b6305f5e1008310612cc5576305f5e1008381612cbb577f4e487b7100000000000000000000000000000000000000000000000000000000600052601260045260246000fd5b0492506008810190505b6127108310612d10576127108381612d06577f4e487b7100000000000000000000000000000000000000000000000000000000600052601260045260246000fd5b0492506004810190505b60648310612d595760648381612d4f577f4e487b7100000000000000000000000000000000000000000000000000000000600052601260045260246000fd5b0492506002810190505b600a8310612d68576001810190505b80915050919050565b60405180608001604052806060815260200160008152602001600073ffffffffffffffffffffffffffffffffffffffff168152602001600081525090565b828054612dbb90614072565b90600052602060002090601f016020900481019282612ddd5760008555612e24565b82601f10612df657805160ff1916838001178555612e24565b82800160010185558215612e24579182015b82811115612e23578251825591602001919060010190612e08565b5b509050612e319190612e35565b5090565b5b80821115612e4e576000816000905550600101612e36565b5090565b6000612e65612e6084613da6565b613d81565b905082815260208101848484011115612e7d57600080fd5b612e88848285614030565b509392505050565b6000612ea3612e9e84613dd7565b613d81565b905082815260208101848484011115612ebb57600080fd5b612ec6848285614030565b509392505050565b600081359050612edd816147d7565b92915050565b600081359050612ef2816147ee565b92915050565b600081359050612f0781614805565b92915050565b600081359050612f1c8161481c565b92915050565b600081519050612f318161481c565b92915050565b600082601f830112612f4857600080fd5b8135612f58848260208601612e52565b91505092915050565b600082601f830112612f7257600080fd5b8135612f82848260208601612e90565b91505092915050565b600081359050612f9a81614833565b92915050565b600060208284031215612fb257600080fd5b6000612fc084828501612ece565b91505092915050565b600060208284031215612fdb57600080fd5b6000612fe984828501612ee3565b91505092915050565b6000806040838503121561300557600080fd5b600061301385828601612ece565b925050602061302485828601612ece565b9150509250929050565b60008060006060848603121561304357600080fd5b600061305186828701612ece565b935050602061306286828701612ece565b925050604061307386828701612f8b565b9150509250925092565b6000806000806080858703121561309357600080fd5b60006130a187828801612ece565b94505060206130b287828801612ece565b93505060406130c387828801612f8b565b925050606085013567ffffffffffffffff8111156130e057600080fd5b6130ec87828801612f37565b91505092959194509250565b6000806040838503121561310b57600080fd5b600061311985828601612ece565b925050602061312a85828601612ef8565b9150509250929050565b6000806040838503121561314757600080fd5b600061315585828601612ece565b925050602061316685828601612f8b565b9150509250929050565b60006020828403121561318257600080fd5b600061319084828501612f0d565b91505092915050565b6000602082840312156131ab57600080fd5b60006131b984828501612f22565b91505092915050565b600080604083850312156131d557600080fd5b600083013567ffffffffffffffff8111156131ef57600080fd5b6131fb85828601612f61565b925050602061320c85828601612f8b565b9150509250929050565b60006020828403121561322857600080fd5b600061323684828501612f8b565b91505092915050565b600080600080600060a0868803121561325757600080fd5b600061326588828901612f8b565b955050602086013567ffffffffffffffff81111561328257600080fd5b61328e88828901612f61565b945050604061329f88828901612f8b565b93505060606132b088828901612f8b565b92505060806132c188828901612ef8565b9150509295509295909350565b600080604083850312156132e157600080fd5b60006132ef85828601612f8b565b925050602061330085828601612f8b565b9150509250929050565b60008060006060848603121561331f57600080fd5b600061332d86828701612f8b565b935050602061333e86828701612f8b565b925050604061334f86828701612f8b565b9150509250925092565b60006133658383613883565b60208301905092915050565b61337a81613faa565b82525050565b61338981613faa565b82525050565b600061339a82613e18565b6133a48185613e46565b93506133af83613e08565b8060005b838110156133e05781516133c78882613359565b97506133d283613e39565b9250506001810190506133b3565b5085935050505092915050565b6133f681613fce565b82525050565b600061340782613e23565b6134118185613e57565b935061342181856020860161403f565b61342a816141da565b840191505092915050565b600061344082613e2e565b61344a8185613e68565b935061345a81856020860161403f565b613463816141da565b840191505092915050565b600061347982613e2e565b6134838185613e79565b935061349381856020860161403f565b61349c816141da565b840191505092915050565b60006134b282613e2e565b6134bc8185613e8a565b93506134cc81856020860161403f565b80840191505092915050565b60006134e5602d83613e79565b91506134f0826141eb565b604082019050919050565b6000613508600f83613e79565b91506135138261423a565b602082019050919050565b600061352b602c83613e79565b915061353682614263565b604082019050919050565b600061354e603283613e79565b9150613559826142b2565b604082019050919050565b6000613571602083613e79565b915061357c82614301565b602082019050919050565b6000613594602683613e79565b915061359f8261432a565b604082019050919050565b60006135b7602583613e79565b91506135c282614379565b604082019050919050565b60006135da601c83613e79565b91506135e5826143c8565b602082019050919050565b60006135fd601983613e79565b9150613608826143f1565b602082019050919050565b6000613620602c83613e79565b915061362b8261441a565b604082019050919050565b6000613643601f83613e79565b915061364e82614469565b602082019050919050565b6000613666602483613e79565b915061367182614492565b604082019050919050565b6000613689601983613e79565b9150613694826144e1565b602082019050919050565b60006136ac602783613e79565b91506136b78261450a565b604082019050919050565b60006136cf601783613e79565b91506136da82614559565b602082019050919050565b60006136f2602983613e79565b91506136fd82614582565b604082019050919050565b6000613715602e83613e79565b9150613720826145d1565b604082019050919050565b6000613738602083613e79565b915061374382614620565b602082019050919050565b600061375b602083613e79565b915061376682614649565b602082019050919050565b600061377e602883613e79565b915061378982614672565b604082019050919050565b60006137a1601883613e79565b91506137ac826146c1565b602082019050919050565b60006137c4602183613e79565b91506137cf826146ea565b604082019050919050565b60006137e7603d83613e79565b91506137f282614739565b604082019050919050565b600061380a602b83613e79565b915061381582614788565b604082019050919050565b6000608083016000830151848203600086015261383d8282613435565b91505060208301516138526020860182613883565b5060408301516138656040860182613371565b5060608301516138786060860182613883565b508091505092915050565b61388c81614026565b82525050565b61389b81614026565b82525050565b60006138ad82856134a7565b91506138b982846134a7565b91508190509392505050565b60006020820190506138da6000830184613380565b92915050565b60006080820190506138f56000830187613380565b6139026020830186613380565b61390f6040830185613892565b818103606083015261392181846133fc565b905095945050505050565b60006040820190506139416000830185613380565b61394e6020830184613892565b9392505050565b6000602082019050818103600083015261396f818461338f565b905092915050565b600060208201905061398c60008301846133ed565b92915050565b600060208201905081810360008301526139ac818461346e565b905092915050565b600060208201905081810360008301526139cd816134d8565b9050919050565b600060208201905081810360008301526139ed816134fb565b9050919050565b60006020820190508181036000830152613a0d8161351e565b9050919050565b60006020820190508181036000830152613a2d81613541565b9050919050565b60006020820190508181036000830152613a4d81613564565b9050919050565b60006020820190508181036000830152613a6d81613587565b9050919050565b60006020820190508181036000830152613a8d816135aa565b9050919050565b60006020820190508181036000830152613aad816135cd565b9050919050565b60006020820190508181036000830152613acd816135f0565b9050919050565b60006020820190508181036000830152613aed81613613565b9050919050565b60006020820190508181036000830152613b0d81613636565b9050919050565b60006020820190508181036000830152613b2d81613659565b9050919050565b60006020820190508181036000830152613b4d8161367c565b9050919050565b60006020820190508181036000830152613b6d8161369f565b9050919050565b60006020820190508181036000830152613b8d816136c2565b9050919050565b60006020820190508181036000830152613bad816136e5565b9050919050565b60006020820190508181036000830152613bcd81613708565b9050919050565b60006020820190508181036000830152613bed8161372b565b9050919050565b60006020820190508181036000830152613c0d8161374e565b9050919050565b60006020820190508181036000830152613c2d81613771565b9050919050565b60006020820190508181036000830152613c4d81613794565b9050919050565b60006020820190508181036000830152613c6d816137b7565b9050919050565b60006020820190508181036000830152613c8d816137da565b9050919050565b60006020820190508181036000830152613cad816137fd565b9050919050565b60006020820190508181036000830152613cce8184613820565b905092915050565b6000602082019050613ceb6000830184613892565b92915050565b6000604082019050613d066000830185613892565b8181036020830152613d18818461346e565b90509392505050565b6000604082019050613d366000830185613892565b613d436020830184613892565b9392505050565b6000606082019050613d5f6000830186613892565b613d6c6020830185613892565b613d796040830184613380565b949350505050565b6000613d8b613d9c565b9050613d9782826140a4565b919050565b6000604051905090565b600067ffffffffffffffff821115613dc157613dc06141ab565b5b613dca826141da565b9050602081019050919050565b600067ffffffffffffffff821115613df257613df16141ab565b5b613dfb826141da565b9050602081019050919050565b6000819050602082019050919050565b600081519050919050565b600081519050919050565b600081519050919050565b6000602082019050919050565b600082825260208201905092915050565b600082825260208201905092915050565b600082825260208201905092915050565b600082825260208201905092915050565b600081905092915050565b6000613ea082614026565b9150613eab83614026565b9250827fffffffffffffffffffffffffffffffffffffffffffffffffffffffffffffffff03821115613ee057613edf61411e565b5b828201905092915050565b6000613ef682614026565b9150613f0183614026565b925082613f1157613f1061414d565b5b828204905092915050565b6000613f2782614026565b9150613f3283614026565b9250817fffffffffffffffffffffffffffffffffffffffffffffffffffffffffffffffff0483118215151615613f6b57613f6a61411e565b5b828202905092915050565b6000613f8182614026565b9150613f8c83614026565b925082821015613f9f57613f9e61411e565b5b828203905092915050565b6000613fb582614006565b9050919050565b6000613fc782614006565b9050919050565b60008115159050919050565b60007fffffffff0000000000000000000000000000000000000000000000000000000082169050919050565b600073ffffffffffffffffffffffffffffffffffffffff82169050919050565b6000819050919050565b82818337600083830152505050565b60005b8381101561405d578082015181840152602081019050614042565b8381111561406c576000848401525b50505050565b6000600282049050600182168061408a57607f821691505b6020821081141561409e5761409d61417c565b5b50919050565b6140ad826141da565b810181811067ffffffffffffffff821117156140cc576140cb6141ab565b5b80604052505050565b60006140e082614026565b91507fffffffffffffffffffffffffffffffffffffffffffffffffffffffffffffffff8214156141135761411261411e565b5b600182019050919050565b7f4e487b7100000000000000000000000000000000000000000000000000000000600052601160045260246000fd5b7f4e487b7100000000000000000000000000000000000000000000000000000000600052601260045260246000fd5b7f4e487b7100000000000000000000000000000000000000000000000000000000600052602260045260246000fd5b7f4e487b7100000000000000000000000000000000000000000000000000000000600052604160045260246000fd5b6000601f19601f8301169050919050565b7f4552433732313a2063616c6c6572206973206e6f7420746f6b656e206f776e6560008201527f72206f7220617070726f76656400000000000000000000000000000000000000602082015250565b7f496e76616c696420616464726573730000000000000000000000000000000000600082015250565b7f4d7573742077616974206265666f7265206372656174696e6720616e6f74686560008201527f7220636f6c6c656374696f6e0000000000000000000000000000000000000000602082015250565b7f4552433732313a207472616e7366657220746f206e6f6e20455243373231526560008201527f63656976657220696d706c656d656e7465720000000000000000000000000000602082015250565b7f5072696365206d757374206265206174206c65617374204d494e5f5052494345600082015250565b7f4f776e61626c653a206e6577206f776e657220697320746865207a65726f206160008201527f6464726573730000000000000000000000000000000000000000000000000000602082015250565b7f4552433732313a207472616e736665722066726f6d20696e636f72726563742060008201527f6f776e6572000000000000000000000000000000000000000000000000000000602082015250565b7f4552433732313a20746f6b656e20616c7265616479206d696e74656400000000600082015250565b7f436f6c6c656374696f6e20646f6573206e6f7420657869737400000000000000600082015250565b7f526f79616c746965732070657263656e746167652073686f756c64206265206c60008201527f657373207468616e203130300000000000000000000000000000000000000000602082015250565b7f4e6f7420746865206f776e6572206f662074686520636f6c6c656374696f6e00600082015250565b7f4552433732313a207472616e7366657220746f20746865207a65726f2061646460008201527f7265737300000000000000000000000000000000000000000000000000000000602082015250565b7f4552433732313a20617070726f766520746f2063616c6c657200000000000000600082015250565b7f546f6b656e20646f6573206e6f742062656c6f6e6720746f20616e7920636f6c60008201527f6c656374696f6e00000000000000000000000000000000000000000000000000602082015250565b7f4d617820636f6c6c656374696f6e732072656163686564000000000000000000600082015250565b7f4552433732313a2061646472657373207a65726f206973206e6f74206120766160008201527f6c6964206f776e65720000000000000000000000000000000000000000000000602082015250565b7f45524337323155524953746f726167653a2055524920736574206f66206e6f6e60008201527f6578697374656e7420746f6b656e000000000000000000000000000000000000602082015250565b7f4552433732313a206d696e7420746f20746865207a65726f2061646472657373600082015250565b7f4f776e61626c653a2063616c6c6572206973206e6f7420746865206f776e6572600082015250565b7f4d61726b6574706c61636520616464726573732068617320616c72656164792060008201527f6265656e20736574000000000000000000000000000000000000000000000000602082015250565b7f4552433732313a20696e76616c696420746f6b656e2049440000000000000000600082015250565b7f4552433732313a20617070726f76616c20746f2063757272656e74206f776e6560008201527f7200000000000000000000000000000000000000000000000000000000000000602082015250565b7f4552433732313a20617070726f76652063616c6c6572206973206e6f7420746f60008201527f6b656e206f776e6572206f7220617070726f76656420666f7220616c6c000000602082015250565b7f436f6c6c656374696f6e206973206e6f742079657420617661696c61626c652060008201527f666f72206d696e74696e67000000000000000000000000000000000000000000602082015250565b6147e081613faa565b81146147eb57600080fd5b50565b6147f781613fbc565b811461480257600080fd5b50565b61480e81613fce565b811461481957600080fd5b50565b61482581613fda565b811461483057600080fd5b50565b61483c81614026565b811461484757600080fd5b5056fea2646970667358221220f5d69b9d3cec526376f8b8aac34069441577b63d5e3b297e1a5b6e766c2f08d264736f6c63430008010033",
  "linkReferences": {},
  "deployedLinkReferences": {}
}