{
  "_format": "hh-sol-artifact-1",
  "contractName": "ERC721Collections",
  "sourceName": "contracts/ERC721Collections.sol",
  "abi": [
    {
      "inputs": [],
      "stateMutability": "nonpayable",
      "type": "constructor"
    },
    {
      "anonymous": false,
      "inputs": [
        {
          "indexed": true,
          "internalType": "address",
          "name": "owner",
          "type": "address"
        },
        {
          "indexed": true,
          "internalType": "address",
          "name": "approved",
          "type": "address"
        },
        {
          "indexed": true,
          "internalType": "uint256",
          "name": "tokenId",
          "type": "uint256"
        }
      ],
      "name": "Approval",
      "type": "event"
    },
    {
      "anonymous": false,
      "inputs": [
        {
          "indexed": true,
          "internalType": "address",
          "name": "owner",
          "type": "address"
        },
        {
          "indexed": true,
          "internalType": "address",
          "name": "operator",
          "type": "address"
        },
        {
          "indexed": false,
          "internalType": "bool",
          "name": "approved",
          "type": "bool"
        }
      ],
      "name": "ApprovalForAll",
      "type": "event"
    },
    {
      "anonymous": false,
      "inputs": [
        {
          "indexed": false,
          "internalType": "uint256",
          "name": "_fromTokenId",
          "type": "uint256"
        },
        {
          "indexed": false,
          "internalType": "uint256",
          "name": "_toTokenId",
          "type": "uint256"
        }
      ],
      "name": "BatchMetadataUpdate",
      "type": "event"
    },
    {
      "anonymous": false,
      "inputs": [
        {
          "indexed": false,
          "internalType": "uint256",
          "name": "id",
          "type": "uint256"
        },
        {
          "indexed": false,
          "internalType": "string",
          "name": "name",
          "type": "string"
        }
      ],
      "name": "CollectionCreated",
      "type": "event"
    },
    {
      "anonymous": false,
      "inputs": [
        {
          "indexed": false,
          "internalType": "uint256",
          "name": "_tokenId",
          "type": "uint256"
        }
      ],
      "name": "MetadataUpdate",
      "type": "event"
    },
    {
      "anonymous": false,
      "inputs": [
        {
          "indexed": true,
          "internalType": "address",
          "name": "previousOwner",
          "type": "address"
        },
        {
          "indexed": true,
          "internalType": "address",
          "name": "newOwner",
          "type": "address"
        }
      ],
      "name": "OwnershipTransferred",
      "type": "event"
    },
    {
      "anonymous": false,
      "inputs": [
        {
          "indexed": false,
          "internalType": "uint256",
          "name": "tokenId",
          "type": "uint256"
        },
        {
          "indexed": false,
          "internalType": "uint256",
          "name": "price",
          "type": "uint256"
        }
      ],
      "name": "PriceSet",
      "type": "event"
    },
    {
      "anonymous": false,
      "inputs": [
        {
          "indexed": false,
          "internalType": "uint256",
          "name": "tokenId",
          "type": "uint256"
        },
        {
          "indexed": false,
          "internalType": "uint256",
          "name": "collectionId",
          "type": "uint256"
        }
      ],
      "name": "TokenMinted",
      "type": "event"
    },
    {
      "anonymous": false,
      "inputs": [
        {
          "indexed": true,
          "internalType": "address",
          "name": "from",
          "type": "address"
        },
        {
          "indexed": true,
          "internalType": "address",
          "name": "to",
          "type": "address"
        },
        {
          "indexed": true,
          "internalType": "uint256",
          "name": "tokenId",
          "type": "uint256"
        }
      ],
      "name": "Transfer",
      "type": "event"
    },
    {
      "inputs": [],
      "name": "MAX_PRICE",
      "outputs": [
        {
          "internalType": "uint256",
          "name": "",
          "type": "uint256"
        }
      ],
      "stateMutability": "view",
      "type": "function"
    },
    {
      "inputs": [],
      "name": "MIN_PRICE",
      "outputs": [
        {
          "internalType": "uint256",
          "name": "",
          "type": "uint256"
        }
      ],
      "stateMutability": "view",
      "type": "function"
    },
    {
      "inputs": [
        {
          "internalType": "address",
          "name": "to",
          "type": "address"
        },
        {
          "internalType": "uint256",
          "name": "tokenId",
          "type": "uint256"
        }
      ],
      "name": "approve",
      "outputs": [],
      "stateMutability": "nonpayable",
      "type": "function"
    },
    {
      "inputs": [
        {
          "internalType": "address",
          "name": "owner",
          "type": "address"
        }
      ],
      "name": "balanceOf",
      "outputs": [
        {
          "internalType": "uint256",
          "name": "",
          "type": "uint256"
        }
      ],
      "stateMutability": "view",
      "type": "function"
    },
    {
      "inputs": [
        {
          "internalType": "address",
          "name": "",
          "type": "address"
        }
      ],
      "name": "collectionsCreated",
      "outputs": [
        {
          "internalType": "uint256",
          "name": "",
          "type": "uint256"
        }
      ],
      "stateMutability": "view",
      "type": "function"
    },
    {
      "inputs": [
        {
          "internalType": "string",
          "name": "name",
          "type": "string"
        }
      ],
      "name": "createCollection",
      "outputs": [
        {
          "internalType": "uint256",
          "name": "",
          "type": "uint256"
        }
      ],
      "stateMutability": "nonpayable",
      "type": "function"
    },
    {
      "inputs": [
        {
          "internalType": "uint256",
          "name": "tokenId",
          "type": "uint256"
        }
      ],
      "name": "getApproved",
      "outputs": [
        {
          "internalType": "address",
          "name": "",
          "type": "address"
        }
      ],
      "stateMutability": "view",
      "type": "function"
    },
    {
      "inputs": [
        {
          "internalType": "uint256",
          "name": "id",
          "type": "uint256"
        }
      ],
      "name": "getCollection",
      "outputs": [
        {
          "components": [
            {
              "internalType": "string",
              "name": "name",
              "type": "string"
            },
            {
              "internalType": "uint256",
              "name": "id",
              "type": "uint256"
            },
            {
              "internalType": "address",
              "name": "owner",
              "type": "address"
            }
          ],
          "internalType": "struct ERC721Collections.Collection",
          "name": "",
          "type": "tuple"
        }
      ],
      "stateMutability": "view",
      "type": "function"
    },
    {
      "inputs": [
        {
          "internalType": "uint256",
          "name": "tokenId",
          "type": "uint256"
        }
      ],
      "name": "getCollectionOfToken",
      "outputs": [
        {
          "internalType": "uint256",
          "name": "",
          "type": "uint256"
        }
      ],
      "stateMutability": "view",
      "type": "function"
    },
    {
      "inputs": [
        {
          "internalType": "uint256",
          "name": "collectionId",
          "type": "uint256"
        }
      ],
      "name": "getNFTsInCollection",
      "outputs": [
        {
          "internalType": "uint256[]",
          "name": "",
          "type": "uint256[]"
        }
      ],
      "stateMutability": "view",
      "type": "function"
    },
    {
      "inputs": [
        {
          "internalType": "uint256",
          "name": "tokenId",
          "type": "uint256"
        }
      ],
      "name": "getPrice",
      "outputs": [
        {
          "internalType": "uint256",
          "name": "",
          "type": "uint256"
        }
      ],
      "stateMutability": "view",
      "type": "function"
    },
    {
      "inputs": [
        {
          "internalType": "address",
          "name": "owner",
          "type": "address"
        },
        {
          "internalType": "address",
          "name": "operator",
          "type": "address"
        }
      ],
      "name": "isApprovedForAll",
      "outputs": [
        {
          "internalType": "bool",
          "name": "",
          "type": "bool"
        }
      ],
      "stateMutability": "view",
      "type": "function"
    },
    {
      "inputs": [
        {
          "internalType": "address",
          "name": "",
          "type": "address"
        }
      ],
      "name": "lastCollectionTimestamp",
      "outputs": [
        {
          "internalType": "uint256",
          "name": "",
          "type": "uint256"
        }
      ],
      "stateMutability": "view",
      "type": "function"
    },
    {
      "inputs": [
        {
          "internalType": "uint256",
          "name": "collectionId",
          "type": "uint256"
        },
        {
          "internalType": "string",
          "name": "tokenURI",
          "type": "string"
        },
        {
          "internalType": "uint256",
          "name": "price",
          "type": "uint256"
        }
      ],
      "name": "mint",
      "outputs": [
        {
          "internalType": "uint256",
          "name": "",
          "type": "uint256"
        }
      ],
      "stateMutability": "nonpayable",
      "type": "function"
    },
    {
      "inputs": [],
      "name": "name",
      "outputs": [
        {
          "internalType": "string",
          "name": "",
          "type": "string"
        }
      ],
      "stateMutability": "view",
      "type": "function"
    },
    {
      "inputs": [],
      "name": "owner",
      "outputs": [
        {
          "internalType": "address",
          "name": "",
          "type": "address"
        }
      ],
      "stateMutability": "view",
      "type": "function"
    },
    {
      "inputs": [
        {
          "internalType": "uint256",
          "name": "tokenId",
          "type": "uint256"
        }
      ],
      "name": "ownerOf",
      "outputs": [
        {
          "internalType": "address",
          "name": "",
          "type": "address"
        }
      ],
      "stateMutability": "view",
      "type": "function"
    },
    {
      "inputs": [],
      "name": "renounceOwnership",
      "outputs": [],
      "stateMutability": "nonpayable",
      "type": "function"
    },
    {
      "inputs": [
        {
          "internalType": "address",
          "name": "from",
          "type": "address"
        },
        {
          "internalType": "address",
          "name": "to",
          "type": "address"
        },
        {
          "internalType": "uint256",
          "name": "tokenId",
          "type": "uint256"
        }
      ],
      "name": "safeTransferFrom",
      "outputs": [],
      "stateMutability": "nonpayable",
      "type": "function"
    },
    {
      "inputs": [
        {
          "internalType": "address",
          "name": "from",
          "type": "address"
        },
        {
          "internalType": "address",
          "name": "to",
          "type": "address"
        },
        {
          "internalType": "uint256",
          "name": "tokenId",
          "type": "uint256"
        },
        {
          "internalType": "bytes",
          "name": "data",
          "type": "bytes"
        }
      ],
      "name": "safeTransferFrom",
      "outputs": [],
      "stateMutability": "nonpayable",
      "type": "function"
    },
    {
      "inputs": [
        {
          "internalType": "address",
          "name": "operator",
          "type": "address"
        },
        {
          "internalType": "bool",
          "name": "approved",
          "type": "bool"
        }
      ],
      "name": "setApprovalForAll",
      "outputs": [],
      "stateMutability": "nonpayable",
      "type": "function"
    },
    {
      "inputs": [
        {
          "internalType": "address payable",
          "name": "marketplaceAddress",
          "type": "address"
        }
      ],
      "name": "setMarketplace",
      "outputs": [],
      "stateMutability": "nonpayable",
      "type": "function"
    },
    {
      "inputs": [
        {
          "internalType": "uint256",
          "name": "tokenId",
          "type": "uint256"
        },
        {
          "internalType": "uint256",
          "name": "price",
          "type": "uint256"
        }
      ],
      "name": "setPrice",
      "outputs": [
        {
          "internalType": "uint256",
          "name": "",
          "type": "uint256"
        }
      ],
      "stateMutability": "nonpayable",
      "type": "function"
    },
    {
      "inputs": [
        {
          "internalType": "bytes4",
          "name": "interfaceId",
          "type": "bytes4"
        }
      ],
      "name": "supportsInterface",
      "outputs": [
        {
          "internalType": "bool",
          "name": "",
          "type": "bool"
        }
      ],
      "stateMutability": "view",
      "type": "function"
    },
    {
      "inputs": [],
      "name": "symbol",
      "outputs": [
        {
          "internalType": "string",
          "name": "",
          "type": "string"
        }
      ],
      "stateMutability": "view",
      "type": "function"
    },
    {
      "inputs": [
        {
          "internalType": "uint256",
          "name": "tokenId",
          "type": "uint256"
        }
      ],
      "name": "tokenURI",
      "outputs": [
        {
          "internalType": "string",
          "name": "",
          "type": "string"
        }
      ],
      "stateMutability": "view",
      "type": "function"
    },
    {
      "inputs": [
        {
          "internalType": "address",
          "name": "from",
          "type": "address"
        },
        {
          "internalType": "address",
          "name": "to",
          "type": "address"
        },
        {
          "internalType": "uint256",
          "name": "tokenId",
          "type": "uint256"
        }
      ],
      "name": "transferFrom",
      "outputs": [],
      "stateMutability": "nonpayable",
      "type": "function"
    },
    {
      "inputs": [
        {
          "internalType": "address",
          "name": "newOwner",
          "type": "address"
        }
      ],
      "name": "transferOwnership",
      "outputs": [],
      "stateMutability": "nonpayable",
      "type": "function"
    }
  ],
  "bytecode": "0x60806040523480156200001157600080fd5b506040518060400160405280601181526020017f455243373231436f6c6c656374696f6e730000000000000000000000000000008152506040518060400160405280600381526020017f535452000000000000000000000000000000000000000000000000000000000081525081600090805190602001906200009692919062000530565b508060019080519060200190620000af92919062000530565b505050620000d2620000c66200011f60201b60201c565b6200012760201b60201c565b620001186040518060400160405280600681526020017f5075626c69630000000000000000000000000000000000000000000000000000815250620001ed60201b60201c565b506200091c565b600033905090565b6000600760009054906101000a900473ffffffffffffffffffffffffffffffffffffffff16905081600760006101000a81548173ffffffffffffffffffffffffffffffffffffffff021916908373ffffffffffffffffffffffffffffffffffffffff1602179055508173ffffffffffffffffffffffffffffffffffffffff168173ffffffffffffffffffffffffffffffffffffffff167f8be0079c531659141344cd1fd0a4f28419497f9722a3daafe3b4186f6b6457e060405160405180910390a35050565b60006103e7600f60003373ffffffffffffffffffffffffffffffffffffffff1673ffffffffffffffffffffffffffffffffffffffff168152602001908152602001600020541062000275576040517f08c379a00000000000000000000000000000000000000000000000000000000081526004016200026c90620006a2565b60405180910390fd5b42603c601060003373ffffffffffffffffffffffffffffffffffffffff1673ffffffffffffffffffffffffffffffffffffffff16815260200190815260200160002054620002c4919062000714565b111562000308576040517f08c379a0000000000000000000000000000000000000000000000000000000008152600401620002ff9062000680565b60405180910390fd5b6200031f60096200050c60201b620018671760201c565b60405180606001604052808381526020016200034760096200052260201b6200187d1760201c565b81526020013373ffffffffffffffffffffffffffffffffffffffff16815250600b60006200038160096200052260201b6200187d1760201c565b81526020019081526020016000206000820151816000019080519060200190620003ad92919062000530565b506020820151816001015560408201518160020160006101000a81548173ffffffffffffffffffffffffffffffffffffffff021916908373ffffffffffffffffffffffffffffffffffffffff160217905550905050600f60003373ffffffffffffffffffffffffffffffffffffffff1673ffffffffffffffffffffffffffffffffffffffff16815260200190815260200160002060008154809291906200045490620007e7565b919050555042601060003373ffffffffffffffffffffffffffffffffffffffff1673ffffffffffffffffffffffffffffffffffffffff168152602001908152602001600020819055507f62b7b5ba11bfc95430fab0460fdf99b9c8fbc2b3a6a48caf79c3ee1b591c0336620004d560096200052260201b6200187d1760201c565b83604051620004e6929190620006c4565b60405180910390a16200050560096200052260201b6200187d1760201c565b9050919050565b6001816000016000828254019250508190555050565b600081600001549050919050565b8280546200053e90620007b1565b90600052602060002090601f016020900481019282620005625760008555620005ae565b82601f106200057d57805160ff1916838001178555620005ae565b82800160010185558215620005ae579182015b82811115620005ad57825182559160200191906001019062000590565b5b509050620005bd9190620005c1565b5090565b5b80821115620005dc576000816000905550600101620005c2565b5090565b6000620005ed82620006f8565b620005f9818562000703565b93506200060b8185602086016200077b565b620006168162000893565b840191505092915050565b600062000630602c8362000703565b91506200063d82620008a4565b604082019050919050565b60006200065760178362000703565b91506200066482620008f3565b602082019050919050565b6200067a8162000771565b82525050565b600060208201905081810360008301526200069b8162000621565b9050919050565b60006020820190508181036000830152620006bd8162000648565b9050919050565b6000604082019050620006db60008301856200066f565b8181036020830152620006ef8184620005e0565b90509392505050565b600081519050919050565b600082825260208201905092915050565b6000620007218262000771565b91506200072e8362000771565b9250827fffffffffffffffffffffffffffffffffffffffffffffffffffffffffffffffff0382111562000766576200076562000835565b5b828201905092915050565b6000819050919050565b60005b838110156200079b5780820151818401526020810190506200077e565b83811115620007ab576000848401525b50505050565b60006002820490506001821680620007ca57607f821691505b60208210811415620007e157620007e062000864565b5b50919050565b6000620007f48262000771565b91507fffffffffffffffffffffffffffffffffffffffffffffffffffffffffffffffff8214156200082a576200082962000835565b5b600182019050919050565b7f4e487b7100000000000000000000000000000000000000000000000000000000600052601160045260246000fd5b7f4e487b7100000000000000000000000000000000000000000000000000000000600052602260045260246000fd5b6000601f19601f8301169050919050565b7f4d7573742077616974206265666f7265206372656174696e6720616e6f74686560008201527f7220636f6c6c656374696f6e0000000000000000000000000000000000000000602082015250565b7f4d617820636f6c6c656374696f6e732072656163686564000000000000000000600082015250565b61439b806200092c6000396000f3fe608060405234801561001057600080fd5b50600436106101c45760003560e01c80638da5cb5b116100f9578063c87b56dd11610097578063e757223011610071578063e757223014610551578063e985e9c514610581578063f2fde38b146105b1578063f7d97577146105cd576101c4565b8063c87b56dd146104c1578063cae98f2b146104f1578063da0277fd14610521576101c4565b8063acca6b31116100d3578063acca6b3114610427578063ad9f20a614610457578063b88d4fde14610475578063bd6fbad914610491576101c4565b80638da5cb5b146103cf57806395d89b41146103ed578063a22cb4651461040b576101c4565b806342842e0e1161016657806370a082311161014057806370a0823114610349578063715018a61461037957806373ad6c2d1461038357806382a17cdb1461039f576101c4565b806342842e0e146102cd5780635a1f3c28146102e95780636352211e14610319576101c4565b806306fdde03116101a257806306fdde0314610247578063081812fc14610265578063095ea7b31461029557806323b872dd146102b1576101c4565b806301c11d96146101c957806301ffc9a7146101e7578063059dfe1314610217575b600080fd5b6101d16105fd565b6040516101de919061393c565b60405180910390f35b61020160048036038101906101fc9190612e9c565b61060b565b60405161020e91906135dd565b60405180910390f35b610231600480360381019061022c9190612eee565b61066c565b60405161023e919061393c565b60405180910390f35b61024f61093c565b60405161025c91906135f8565b60405180910390f35b61027f600480360381019061027a9190612f2f565b6109ce565b60405161028c9190613554565b60405180910390f35b6102af60048036038101906102aa9190612e37565b610a14565b005b6102cb60048036038101906102c69190612d31565b610b2c565b005b6102e760048036038101906102e29190612d31565b610b8c565b005b61030360048036038101906102fe9190612f2f565b610bac565b604051610310919061391a565b60405180910390f35b610333600480360381019061032e9190612f2f565b610ccb565b6040516103409190613554565b60405180910390f35b610363600480360381019061035e9190612ca3565b610d52565b604051610370919061393c565b60405180910390f35b610381610e0a565b005b61039d60048036038101906103989190612ccc565b610e1e565b005b6103b960048036038101906103b49190612ca3565b610f6b565b6040516103c6919061393c565b60405180910390f35b6103d7610f83565b6040516103e49190613554565b60405180910390f35b6103f5610fad565b60405161040291906135f8565b60405180910390f35b61042560048036038101906104209190612dfb565b61103f565b005b610441600480360381019061043c9190612f58565b611055565b60405161044e919061393c565b60405180910390f35b61045f6112d1565b60405161046c919061393c565b60405180910390f35b61048f600480360381019061048a9190612d80565b6112dc565b005b6104ab60048036038101906104a69190612ca3565b61133e565b6040516104b8919061393c565b60405180910390f35b6104db60048036038101906104d69190612f2f565b611356565b6040516104e891906135f8565b60405180910390f35b61050b60048036038101906105069190612f2f565b611469565b60405161051891906135bb565b60405180910390f35b61053b60048036038101906105369190612f2f565b6114d4565b604051610548919061393c565b60405180910390f35b61056b60048036038101906105669190612f2f565b6114f1565b604051610578919061393c565b60405180910390f35b61059b60048036038101906105969190612cf5565b61150e565b6040516105a891906135dd565b60405180910390f35b6105cb60048036038101906105c69190612ca3565b6115a2565b005b6105e760048036038101906105e29190612fbf565b611626565b6040516105f4919061393c565b60405180910390f35b69021e19e0c9bab240000081565b6000634906490660e01b7bffffffffffffffffffffffffffffffffffffffffffffffffffffffff1916827bffffffffffffffffffffffffffffffffffffffffffffffffffffffff1916148061066557506106648261188b565b5b9050919050565b60006103e7600f60003373ffffffffffffffffffffffffffffffffffffffff1673ffffffffffffffffffffffffffffffffffffffff16815260200190815260200160002054106106f1576040517f08c379a00000000000000000000000000000000000000000000000000000000081526004016106e89061379a565b60405180910390fd5b42603c601060003373ffffffffffffffffffffffffffffffffffffffff1673ffffffffffffffffffffffffffffffffffffffff1681526020019081526020016000205461073e9190613ac4565b111561077f576040517f08c379a00000000000000000000000000000000000000000000000000000000081526004016107769061365a565b60405180910390fd5b6107896009611867565b60405180606001604052808381526020016107a4600961187d565b81526020013373ffffffffffffffffffffffffffffffffffffffff16815250600b60006107d1600961187d565b815260200190815260200160002060008201518160000190805190602001906107fb929190612a66565b506020820151816001015560408201518160020160006101000a81548173ffffffffffffffffffffffffffffffffffffffff021916908373ffffffffffffffffffffffffffffffffffffffff160217905550905050600f60003373ffffffffffffffffffffffffffffffffffffffff1673ffffffffffffffffffffffffffffffffffffffff16815260200190815260200160002060008154809291906108a090613c45565b919050555042601060003373ffffffffffffffffffffffffffffffffffffffff1673ffffffffffffffffffffffffffffffffffffffff168152602001908152602001600020819055507f62b7b5ba11bfc95430fab0460fdf99b9c8fbc2b3a6a48caf79c3ee1b591c0336610914600961187d565b83604051610923929190613957565b60405180910390a1610935600961187d565b9050919050565b60606000805461094b90613be2565b80601f016020809104026020016040519081016040528092919081815260200182805461097790613be2565b80156109c45780601f10610999576101008083540402835291602001916109c4565b820191906000526020600020905b8154815290600101906020018083116109a757829003601f168201915b5050505050905090565b60006109d98261196d565b6004600083815260200190815260200160002060009054906101000a900473ffffffffffffffffffffffffffffffffffffffff169050919050565b6000610a1f82610ccb565b90508073ffffffffffffffffffffffffffffffffffffffff168373ffffffffffffffffffffffffffffffffffffffff161415610a90576040517f08c379a0000000000000000000000000000000000000000000000000000000008152600401610a87906138ba565b60405180910390fd5b8073ffffffffffffffffffffffffffffffffffffffff16610aaf6119b8565b73ffffffffffffffffffffffffffffffffffffffff161480610ade5750610add81610ad86119b8565b61150e565b5b610b1d576040517f08c379a0000000000000000000000000000000000000000000000000000000008152600401610b14906138da565b60405180910390fd5b610b2783836119c0565b505050565b610b3d610b376119b8565b82611a79565b610b7c576040517f08c379a0000000000000000000000000000000000000000000000000000000008152600401610b739061361a565b60405180910390fd5b610b87838383611b0e565b505050565b610ba7838383604051806020016040528060008152506112dc565b505050565b610bb4612aec565b600b6000838152602001908152602001600020604051806060016040529081600082018054610be290613be2565b80601f0160208091040260200160405190810160405280929190818152602001828054610c0e90613be2565b8015610c5b5780601f10610c3057610100808354040283529160200191610c5b565b820191906000526020600020905b815481529060010190602001808311610c3e57829003601f168201915b50505050508152602001600182015481526020016002820160009054906101000a900473ffffffffffffffffffffffffffffffffffffffff1673ffffffffffffffffffffffffffffffffffffffff1673ffffffffffffffffffffffffffffffffffffffff16815250509050919050565b600080610cd783611e08565b9050600073ffffffffffffffffffffffffffffffffffffffff168173ffffffffffffffffffffffffffffffffffffffff161415610d49576040517f08c379a0000000000000000000000000000000000000000000000000000000008152600401610d409061389a565b60405180910390fd5b80915050919050565b60008073ffffffffffffffffffffffffffffffffffffffff168273ffffffffffffffffffffffffffffffffffffffff161415610dc3576040517f08c379a0000000000000000000000000000000000000000000000000000000008152600401610dba906137da565b60405180910390fd5b600360008373ffffffffffffffffffffffffffffffffffffffff1673ffffffffffffffffffffffffffffffffffffffff168152602001908152602001600020549050919050565b610e12611e45565b610e1c6000611ec3565b565b610e26611e45565b600073ffffffffffffffffffffffffffffffffffffffff16600a60009054906101000a900473ffffffffffffffffffffffffffffffffffffffff1673ffffffffffffffffffffffffffffffffffffffff1614610eb7576040517f08c379a0000000000000000000000000000000000000000000000000000000008152600401610eae9061387a565b60405180910390fd5b600073ffffffffffffffffffffffffffffffffffffffff168173ffffffffffffffffffffffffffffffffffffffff161415610f27576040517f08c379a0000000000000000000000000000000000000000000000000000000008152600401610f1e9061363a565b60405180910390fd5b80600a60006101000a81548173ffffffffffffffffffffffffffffffffffffffff021916908373ffffffffffffffffffffffffffffffffffffffff16021790555050565b60106020528060005260406000206000915090505481565b6000600760009054906101000a900473ffffffffffffffffffffffffffffffffffffffff16905090565b606060018054610fbc90613be2565b80601f0160208091040260200160405190810160405280929190818152602001828054610fe890613be2565b80156110355780601f1061100a57610100808354040283529160200191611035565b820191906000526020600020905b81548152906001019060200180831161101857829003601f168201915b5050505050905090565b61105161104a6119b8565b8383611f89565b5050565b6000662386f26fc100008210156110a1576040517f08c379a00000000000000000000000000000000000000000000000000000000081526004016110989061369a565b60405180910390fd5b69021e19e0c9bab24000008211156110ee576040517f08c379a00000000000000000000000000000000000000000000000000000000081526004016110e59061381a565b60405180910390fd5b6000600b6000868152602001908152602001600020600101541415611148576040517f08c379a000000000000000000000000000000000000000000000000000000000815260040161113f9061371a565b60405180910390fd5b60018414806111b857503373ffffffffffffffffffffffffffffffffffffffff16600b600086815260200190815260200160002060020160009054906101000a900473ffffffffffffffffffffffffffffffffffffffff1673ffffffffffffffffffffffffffffffffffffffff16145b6111f7576040517f08c379a00000000000000000000000000000000000000000000000000000000081526004016111ee9061373a565b60405180910390fd5b6000611203600861187d565b905061120f6008611867565b61121933826120f6565b6112238185612314565b84600d600083815260200190815260200160002081905550600c600086815260200190815260200160002081908060018154018082558091505060019003906000526020600020016000909190919091505582600e6000838152602001908152602001600020819055507f5f7666687319b40936f33c188908d86aea154abd3f4127b4fa0a3f04f303c7da81866040516112be929190613987565b60405180910390a1809150509392505050565b662386f26fc1000081565b6112ed6112e76119b8565b83611a79565b61132c576040517f08c379a00000000000000000000000000000000000000000000000000000000081526004016113239061361a565b60405180910390fd5b611338848484846123bf565b50505050565b600f6020528060005260406000206000915090505481565b60606113618261196d565b600060066000848152602001908152602001600020805461138190613be2565b80601f01602080910402602001604051908101604052809291908181526020018280546113ad90613be2565b80156113fa5780601f106113cf576101008083540402835291602001916113fa565b820191906000526020600020905b8154815290600101906020018083116113dd57829003601f168201915b50505050509050600061140b61241b565b9050600081511415611421578192505050611464565b60008251111561145657808260405160200161143e929190613530565b60405160208183030381529060405292505050611464565b61145f84612432565b925050505b919050565b6060600c60008381526020019081526020016000208054806020026020016040519081016040528092919081815260200182805480156114c857602002820191906000526020600020905b8154815260200190600101908083116114b4575b50505050509050919050565b6000600d6000838152602001908152602001600020549050919050565b6000600e6000838152602001908152602001600020549050919050565b6000600560008473ffffffffffffffffffffffffffffffffffffffff1673ffffffffffffffffffffffffffffffffffffffff16815260200190815260200160002060008373ffffffffffffffffffffffffffffffffffffffff1673ffffffffffffffffffffffffffffffffffffffff16815260200190815260200160002060009054906101000a900460ff16905092915050565b6115aa611e45565b600073ffffffffffffffffffffffffffffffffffffffff168173ffffffffffffffffffffffffffffffffffffffff16141561161a576040517f08c379a0000000000000000000000000000000000000000000000000000000008152600401611611906136ba565b60405180910390fd5b61162381611ec3565b50565b6000662386f26fc10000821015611672576040517f08c379a00000000000000000000000000000000000000000000000000000000081526004016116699061369a565b60405180910390fd5b69021e19e0c9bab24000008211156116bf576040517f08c379a00000000000000000000000000000000000000000000000000000000081526004016116b69061381a565b60405180910390fd5b6116d06116ca6119b8565b84611a79565b61170f576040517f08c379a0000000000000000000000000000000000000000000000000000000008152600401611706906138fa565b60405180910390fd5b600a60009054906101000a900473ffffffffffffffffffffffffffffffffffffffff1673ffffffffffffffffffffffffffffffffffffffff16639b83cddc846040518263ffffffff1660e01b815260040161176a919061393c565b60206040518083038186803b15801561178257600080fd5b505afa158015611796573d6000803e3d6000fd5b505050506040513d601f19601f820116820180604052508101906117ba9190612e73565b156117fa576040517f08c379a00000000000000000000000000000000000000000000000000000000081526004016117f1906137ba565b60405180910390fd5b81600e6000858152602001908152602001600020819055507fa0f1665b7b659537b52deec61ea64d134a3bccda74c7f4e79f2246e7a8187a8a8383604051611843929190613987565b60405180910390a1600e600084815260200190815260200160002054905092915050565b6001816000016000828254019250508190555050565b600081600001549050919050565b60007f80ac58cd000000000000000000000000000000000000000000000000000000007bffffffffffffffffffffffffffffffffffffffffffffffffffffffff1916827bffffffffffffffffffffffffffffffffffffffffffffffffffffffff1916148061195657507f5b5e139f000000000000000000000000000000000000000000000000000000007bffffffffffffffffffffffffffffffffffffffffffffffffffffffff1916827bffffffffffffffffffffffffffffffffffffffffffffffffffffffff1916145b8061196657506119658261249a565b5b9050919050565b61197681612504565b6119b5576040517f08c379a00000000000000000000000000000000000000000000000000000000081526004016119ac9061389a565b60405180910390fd5b50565b600033905090565b816004600083815260200190815260200160002060006101000a81548173ffffffffffffffffffffffffffffffffffffffff021916908373ffffffffffffffffffffffffffffffffffffffff160217905550808273ffffffffffffffffffffffffffffffffffffffff16611a3383610ccb565b73ffffffffffffffffffffffffffffffffffffffff167f8c5be1e5ebec7d5bd14f71427d1e84f3dd0314c0f7b2291e5b200ac8c7c3b92560405160405180910390a45050565b600080611a8583610ccb565b90508073ffffffffffffffffffffffffffffffffffffffff168473ffffffffffffffffffffffffffffffffffffffff161480611ac75750611ac6818561150e565b5b80611b0557508373ffffffffffffffffffffffffffffffffffffffff16611aed846109ce565b73ffffffffffffffffffffffffffffffffffffffff16145b91505092915050565b8273ffffffffffffffffffffffffffffffffffffffff16611b2e82610ccb565b73ffffffffffffffffffffffffffffffffffffffff1614611b84576040517f08c379a0000000000000000000000000000000000000000000000000000000008152600401611b7b906136da565b60405180910390fd5b600073ffffffffffffffffffffffffffffffffffffffff168273ffffffffffffffffffffffffffffffffffffffff161415611bf4576040517f08c379a0000000000000000000000000000000000000000000000000000000008152600401611beb9061375a565b60405180910390fd5b611c018383836001612545565b8273ffffffffffffffffffffffffffffffffffffffff16611c2182610ccb565b73ffffffffffffffffffffffffffffffffffffffff1614611c77576040517f08c379a0000000000000000000000000000000000000000000000000000000008152600401611c6e906136da565b60405180910390fd5b6004600082815260200190815260200160002060006101000a81549073ffffffffffffffffffffffffffffffffffffffff02191690556001600360008573ffffffffffffffffffffffffffffffffffffffff1673ffffffffffffffffffffffffffffffffffffffff168152602001908152602001600020600082825403925050819055506001600360008473ffffffffffffffffffffffffffffffffffffffff1673ffffffffffffffffffffffffffffffffffffffff16815260200190815260200160002060008282540192505081905550816002600083815260200190815260200160002060006101000a81548173ffffffffffffffffffffffffffffffffffffffff021916908373ffffffffffffffffffffffffffffffffffffffff160217905550808273ffffffffffffffffffffffffffffffffffffffff168473ffffffffffffffffffffffffffffffffffffffff167fddf252ad1be2c89b69c2b068fc378daa952ba7f163c4a11628f55a4df523b3ef60405160405180910390a4611e03838383600161254b565b505050565b60006002600083815260200190815260200160002060009054906101000a900473ffffffffffffffffffffffffffffffffffffffff169050919050565b611e4d6119b8565b73ffffffffffffffffffffffffffffffffffffffff16611e6b610f83565b73ffffffffffffffffffffffffffffffffffffffff1614611ec1576040517f08c379a0000000000000000000000000000000000000000000000000000000008152600401611eb89061385a565b60405180910390fd5b565b6000600760009054906101000a900473ffffffffffffffffffffffffffffffffffffffff16905081600760006101000a81548173ffffffffffffffffffffffffffffffffffffffff021916908373ffffffffffffffffffffffffffffffffffffffff1602179055508173ffffffffffffffffffffffffffffffffffffffff168173ffffffffffffffffffffffffffffffffffffffff167f8be0079c531659141344cd1fd0a4f28419497f9722a3daafe3b4186f6b6457e060405160405180910390a35050565b8173ffffffffffffffffffffffffffffffffffffffff168373ffffffffffffffffffffffffffffffffffffffff161415611ff8576040517f08c379a0000000000000000000000000000000000000000000000000000000008152600401611fef9061377a565b60405180910390fd5b80600560008573ffffffffffffffffffffffffffffffffffffffff1673ffffffffffffffffffffffffffffffffffffffff16815260200190815260200160002060008473ffffffffffffffffffffffffffffffffffffffff1673ffffffffffffffffffffffffffffffffffffffff16815260200190815260200160002060006101000a81548160ff0219169083151502179055508173ffffffffffffffffffffffffffffffffffffffff168373ffffffffffffffffffffffffffffffffffffffff167f17307eab39ab6107e8899845ad3d59bd9653f200f220920489ca2b5937696c31836040516120e991906135dd565b60405180910390a3505050565b600073ffffffffffffffffffffffffffffffffffffffff168273ffffffffffffffffffffffffffffffffffffffff161415612166576040517f08c379a000000000000000000000000000000000000000000000000000000000815260040161215d9061383a565b60405180910390fd5b61216f81612504565b156121af576040517f08c379a00000000000000000000000000000000000000000000000000000000081526004016121a6906136fa565b60405180910390fd5b6121bd600083836001612545565b6121c681612504565b15612206576040517f08c379a00000000000000000000000000000000000000000000000000000000081526004016121fd906136fa565b60405180910390fd5b6001600360008473ffffffffffffffffffffffffffffffffffffffff1673ffffffffffffffffffffffffffffffffffffffff16815260200190815260200160002060008282540192505081905550816002600083815260200190815260200160002060006101000a81548173ffffffffffffffffffffffffffffffffffffffff021916908373ffffffffffffffffffffffffffffffffffffffff160217905550808273ffffffffffffffffffffffffffffffffffffffff16600073ffffffffffffffffffffffffffffffffffffffff167fddf252ad1be2c89b69c2b068fc378daa952ba7f163c4a11628f55a4df523b3ef60405160405180910390a461231060008383600161254b565b5050565b61231d82612504565b61235c576040517f08c379a0000000000000000000000000000000000000000000000000000000008152600401612353906137fa565b60405180910390fd5b80600660008481526020019081526020016000209080519060200190612383929190612a66565b507ff8e1a15aba9398e019f0b49df1a4fde98ee17ae345cb5f6b5e2c27f5033e8ce7826040516123b3919061393c565b60405180910390a15050565b6123ca848484611b0e565b6123d684848484612551565b612415576040517f08c379a000000000000000000000000000000000000000000000000000000000815260040161240c9061367a565b60405180910390fd5b50505050565b606060405180602001604052806000815250905090565b606061243d8261196d565b600061244761241b565b905060008151116124675760405180602001604052806000815250612492565b80612471846126e8565b604051602001612482929190613530565b6040516020818303038152906040525b915050919050565b60007f01ffc9a7000000000000000000000000000000000000000000000000000000007bffffffffffffffffffffffffffffffffffffffffffffffffffffffff1916827bffffffffffffffffffffffffffffffffffffffffffffffffffffffff1916149050919050565b60008073ffffffffffffffffffffffffffffffffffffffff1661252683611e08565b73ffffffffffffffffffffffffffffffffffffffff1614159050919050565b50505050565b50505050565b60006125728473ffffffffffffffffffffffffffffffffffffffff1661280c565b156126db578373ffffffffffffffffffffffffffffffffffffffff1663150b7a0261259b6119b8565b8786866040518563ffffffff1660e01b81526004016125bd949392919061356f565b602060405180830381600087803b1580156125d757600080fd5b505af192505050801561260857506040513d601f19601f820116820180604052508101906126059190612ec5565b60015b61268b573d8060008114612638576040519150601f19603f3d011682016040523d82523d6000602084013e61263d565b606091505b50600081511415612683576040517f08c379a000000000000000000000000000000000000000000000000000000000815260040161267a9061367a565b60405180910390fd5b805181602001fd5b63150b7a0260e01b7bffffffffffffffffffffffffffffffffffffffffffffffffffffffff1916817bffffffffffffffffffffffffffffffffffffffffffffffffffffffff1916149150506126e0565b600190505b949350505050565b6060600060016126f78461282f565b01905060008167ffffffffffffffff81111561273c577f4e487b7100000000000000000000000000000000000000000000000000000000600052604160045260246000fd5b6040519080825280601f01601f19166020018201604052801561276e5781602001600182028036833780820191505090505b509050600082602001820190505b600115612801578080600190039150507f3031323334353637383961626364656600000000000000000000000000000000600a86061a8153600a85816127eb577f4e487b7100000000000000000000000000000000000000000000000000000000600052601260045260246000fd5b04945060008514156127fc57612801565b61277c565b819350505050919050565b6000808273ffffffffffffffffffffffffffffffffffffffff163b119050919050565b600080600090507a184f03e93ff9f4daa797ed6e38ed64bf6a1f01000000000000000083106128b3577a184f03e93ff9f4daa797ed6e38ed64bf6a1f01000000000000000083816128a9577f4e487b7100000000000000000000000000000000000000000000000000000000600052601260045260246000fd5b0492506040810190505b6d04ee2d6d415b85acef81000000008310612916576d04ee2d6d415b85acef8100000000838161290c577f4e487b7100000000000000000000000000000000000000000000000000000000600052601260045260246000fd5b0492506020810190505b662386f26fc10000831061296b57662386f26fc100008381612961577f4e487b7100000000000000000000000000000000000000000000000000000000600052601260045260246000fd5b0492506010810190505b6305f5e10083106129ba576305f5e10083816129b0577f4e487b7100000000000000000000000000000000000000000000000000000000600052601260045260246000fd5b0492506008810190505b6127108310612a055761271083816129fb577f4e487b7100000000000000000000000000000000000000000000000000000000600052601260045260246000fd5b0492506004810190505b60648310612a4e5760648381612a44577f4e487b7100000000000000000000000000000000000000000000000000000000600052601260045260246000fd5b0492506002810190505b600a8310612a5d576001810190505b80915050919050565b828054612a7290613be2565b90600052602060002090601f016020900481019282612a945760008555612adb565b82601f10612aad57805160ff1916838001178555612adb565b82800160010185558215612adb579182015b82811115612ada578251825591602001919060010190612abf565b5b509050612ae89190612b23565b5090565b60405180606001604052806060815260200160008152602001600073ffffffffffffffffffffffffffffffffffffffff1681525090565b5b80821115612b3c576000816000905550600101612b24565b5090565b6000612b53612b4e846139d5565b6139b0565b905082815260208101848484011115612b6b57600080fd5b612b76848285613ba0565b509392505050565b6000612b91612b8c84613a06565b6139b0565b905082815260208101848484011115612ba957600080fd5b612bb4848285613ba0565b509392505050565b600081359050612bcb816142f2565b92915050565b600081359050612be081614309565b92915050565b600081359050612bf581614320565b92915050565b600081519050612c0a81614320565b92915050565b600081359050612c1f81614337565b92915050565b600081519050612c3481614337565b92915050565b600082601f830112612c4b57600080fd5b8135612c5b848260208601612b40565b91505092915050565b600082601f830112612c7557600080fd5b8135612c85848260208601612b7e565b91505092915050565b600081359050612c9d8161434e565b92915050565b600060208284031215612cb557600080fd5b6000612cc384828501612bbc565b91505092915050565b600060208284031215612cde57600080fd5b6000612cec84828501612bd1565b91505092915050565b60008060408385031215612d0857600080fd5b6000612d1685828601612bbc565b9250506020612d2785828601612bbc565b9150509250929050565b600080600060608486031215612d4657600080fd5b6000612d5486828701612bbc565b9350506020612d6586828701612bbc565b9250506040612d7686828701612c8e565b9150509250925092565b60008060008060808587031215612d9657600080fd5b6000612da487828801612bbc565b9450506020612db587828801612bbc565b9350506040612dc687828801612c8e565b925050606085013567ffffffffffffffff811115612de357600080fd5b612def87828801612c3a565b91505092959194509250565b60008060408385031215612e0e57600080fd5b6000612e1c85828601612bbc565b9250506020612e2d85828601612be6565b9150509250929050565b60008060408385031215612e4a57600080fd5b6000612e5885828601612bbc565b9250506020612e6985828601612c8e565b9150509250929050565b600060208284031215612e8557600080fd5b6000612e9384828501612bfb565b91505092915050565b600060208284031215612eae57600080fd5b6000612ebc84828501612c10565b91505092915050565b600060208284031215612ed757600080fd5b6000612ee584828501612c25565b91505092915050565b600060208284031215612f0057600080fd5b600082013567ffffffffffffffff811115612f1a57600080fd5b612f2684828501612c64565b91505092915050565b600060208284031215612f4157600080fd5b6000612f4f84828501612c8e565b91505092915050565b600080600060608486031215612f6d57600080fd5b6000612f7b86828701612c8e565b935050602084013567ffffffffffffffff811115612f9857600080fd5b612fa486828701612c64565b9250506040612fb586828701612c8e565b9150509250925092565b60008060408385031215612fd257600080fd5b6000612fe085828601612c8e565b9250506020612ff185828601612c8e565b9150509250929050565b60006130078383613512565b60208301905092915050565b61301c81613b1a565b82525050565b61302b81613b1a565b82525050565b600061303c82613a47565b6130468185613a75565b935061305183613a37565b8060005b838110156130825781516130698882612ffb565b975061307483613a68565b925050600181019050613055565b5085935050505092915050565b61309881613b3e565b82525050565b60006130a982613a52565b6130b38185613a86565b93506130c3818560208601613baf565b6130cc81613d1b565b840191505092915050565b60006130e282613a5d565b6130ec8185613a97565b93506130fc818560208601613baf565b61310581613d1b565b840191505092915050565b600061311b82613a5d565b6131258185613aa8565b9350613135818560208601613baf565b61313e81613d1b565b840191505092915050565b600061315482613a5d565b61315e8185613ab9565b935061316e818560208601613baf565b80840191505092915050565b6000613187602d83613aa8565b915061319282613d2c565b604082019050919050565b60006131aa600f83613aa8565b91506131b582613d7b565b602082019050919050565b60006131cd602c83613aa8565b91506131d882613da4565b604082019050919050565b60006131f0603283613aa8565b91506131fb82613df3565b604082019050919050565b6000613213602083613aa8565b915061321e82613e42565b602082019050919050565b6000613236602683613aa8565b915061324182613e6b565b604082019050919050565b6000613259602583613aa8565b915061326482613eba565b604082019050919050565b600061327c601c83613aa8565b915061328782613f09565b602082019050919050565b600061329f601983613aa8565b91506132aa82613f32565b602082019050919050565b60006132c2601f83613aa8565b91506132cd82613f5b565b602082019050919050565b60006132e5602483613aa8565b91506132f082613f84565b604082019050919050565b6000613308601983613aa8565b915061331382613fd3565b602082019050919050565b600061332b601783613aa8565b915061333682613ffc565b602082019050919050565b600061334e602283613aa8565b915061335982614025565b604082019050919050565b6000613371602983613aa8565b915061337c82614074565b604082019050919050565b6000613394602e83613aa8565b915061339f826140c3565b604082019050919050565b60006133b7601f83613aa8565b91506133c282614112565b602082019050919050565b60006133da602083613aa8565b91506133e58261413b565b602082019050919050565b60006133fd602083613aa8565b915061340882614164565b602082019050919050565b6000613420602883613aa8565b915061342b8261418d565b604082019050919050565b6000613443601883613aa8565b915061344e826141dc565b602082019050919050565b6000613466602183613aa8565b915061347182614205565b604082019050919050565b6000613489603d83613aa8565b915061349482614254565b604082019050919050565b60006134ac603183613aa8565b91506134b7826142a3565b604082019050919050565b600060608301600083015184820360008601526134df82826130d7565b91505060208301516134f46020860182613512565b5060408301516135076040860182613013565b508091505092915050565b61351b81613b96565b82525050565b61352a81613b96565b82525050565b600061353c8285613149565b91506135488284613149565b91508190509392505050565b60006020820190506135696000830184613022565b92915050565b60006080820190506135846000830187613022565b6135916020830186613022565b61359e6040830185613521565b81810360608301526135b0818461309e565b905095945050505050565b600060208201905081810360008301526135d58184613031565b905092915050565b60006020820190506135f2600083018461308f565b92915050565b600060208201905081810360008301526136128184613110565b905092915050565b600060208201905081810360008301526136338161317a565b9050919050565b600060208201905081810360008301526136538161319d565b9050919050565b60006020820190508181036000830152613673816131c0565b9050919050565b60006020820190508181036000830152613693816131e3565b9050919050565b600060208201905081810360008301526136b381613206565b9050919050565b600060208201905081810360008301526136d381613229565b9050919050565b600060208201905081810360008301526136f38161324c565b9050919050565b600060208201905081810360008301526137138161326f565b9050919050565b6000602082019050818103600083015261373381613292565b9050919050565b60006020820190508181036000830152613753816132b5565b9050919050565b60006020820190508181036000830152613773816132d8565b9050919050565b60006020820190508181036000830152613793816132fb565b9050919050565b600060208201905081810360008301526137b38161331e565b9050919050565b600060208201905081810360008301526137d381613341565b9050919050565b600060208201905081810360008301526137f381613364565b9050919050565b6000602082019050818103600083015261381381613387565b9050919050565b60006020820190508181036000830152613833816133aa565b9050919050565b60006020820190508181036000830152613853816133cd565b9050919050565b60006020820190508181036000830152613873816133f0565b9050919050565b6000602082019050818103600083015261389381613413565b9050919050565b600060208201905081810360008301526138b381613436565b9050919050565b600060208201905081810360008301526138d381613459565b9050919050565b600060208201905081810360008301526138f38161347c565b9050919050565b600060208201905081810360008301526139138161349f565b9050919050565b6000602082019050818103600083015261393481846134c2565b905092915050565b60006020820190506139516000830184613521565b92915050565b600060408201905061396c6000830185613521565b818103602083015261397e8184613110565b90509392505050565b600060408201905061399c6000830185613521565b6139a96020830184613521565b9392505050565b60006139ba6139cb565b90506139c68282613c14565b919050565b6000604051905090565b600067ffffffffffffffff8211156139f0576139ef613cec565b5b6139f982613d1b565b9050602081019050919050565b600067ffffffffffffffff821115613a2157613a20613cec565b5b613a2a82613d1b565b9050602081019050919050565b6000819050602082019050919050565b600081519050919050565b600081519050919050565b600081519050919050565b6000602082019050919050565b600082825260208201905092915050565b600082825260208201905092915050565b600082825260208201905092915050565b600082825260208201905092915050565b600081905092915050565b6000613acf82613b96565b9150613ada83613b96565b9250827fffffffffffffffffffffffffffffffffffffffffffffffffffffffffffffffff03821115613b0f57613b0e613c8e565b5b828201905092915050565b6000613b2582613b76565b9050919050565b6000613b3782613b76565b9050919050565b60008115159050919050565b60007fffffffff0000000000000000000000000000000000000000000000000000000082169050919050565b600073ffffffffffffffffffffffffffffffffffffffff82169050919050565b6000819050919050565b82818337600083830152505050565b60005b83811015613bcd578082015181840152602081019050613bb2565b83811115613bdc576000848401525b50505050565b60006002820490506001821680613bfa57607f821691505b60208210811415613c0e57613c0d613cbd565b5b50919050565b613c1d82613d1b565b810181811067ffffffffffffffff82111715613c3c57613c3b613cec565b5b80604052505050565b6000613c5082613b96565b91507fffffffffffffffffffffffffffffffffffffffffffffffffffffffffffffffff821415613c8357613c82613c8e565b5b600182019050919050565b7f4e487b7100000000000000000000000000000000000000000000000000000000600052601160045260246000fd5b7f4e487b7100000000000000000000000000000000000000000000000000000000600052602260045260246000fd5b7f4e487b7100000000000000000000000000000000000000000000000000000000600052604160045260246000fd5b6000601f19601f8301169050919050565b7f4552433732313a2063616c6c6572206973206e6f7420746f6b656e206f776e6560008201527f72206f7220617070726f76656400000000000000000000000000000000000000602082015250565b7f496e76616c696420616464726573730000000000000000000000000000000000600082015250565b7f4d7573742077616974206265666f7265206372656174696e6720616e6f74686560008201527f7220636f6c6c656374696f6e0000000000000000000000000000000000000000602082015250565b7f4552433732313a207472616e7366657220746f206e6f6e20455243373231526560008201527f63656976657220696d706c656d656e7465720000000000000000000000000000602082015250565b7f5072696365206d757374206265206174206c65617374204d494e5f5052494345600082015250565b7f4f776e61626c653a206e6577206f776e657220697320746865207a65726f206160008201527f6464726573730000000000000000000000000000000000000000000000000000602082015250565b7f4552433732313a207472616e736665722066726f6d20696e636f72726563742060008201527f6f776e6572000000000000000000000000000000000000000000000000000000602082015250565b7f4552433732313a20746f6b656e20616c7265616479206d696e74656400000000600082015250565b7f436f6c6c656374696f6e20646f6573206e6f7420657869737400000000000000600082015250565b7f4e6f7420746865206f776e6572206f662074686520636f6c6c656374696f6e00600082015250565b7f4552433732313a207472616e7366657220746f20746865207a65726f2061646460008201527f7265737300000000000000000000000000000000000000000000000000000000602082015250565b7f4552433732313a20617070726f766520746f2063616c6c657200000000000000600082015250565b7f4d617820636f6c6c656374696f6e732072656163686564000000000000000000600082015250565b7f546f6b656e2069732063757272656e746c79206c697374656420666f7220736160008201527f6c65000000000000000000000000000000000000000000000000000000000000602082015250565b7f4552433732313a2061646472657373207a65726f206973206e6f74206120766160008201527f6c6964206f776e65720000000000000000000000000000000000000000000000602082015250565b7f45524337323155524953746f726167653a2055524920736574206f66206e6f6e60008201527f6578697374656e7420746f6b656e000000000000000000000000000000000000602082015250565b7f5072696365206d757374206e6f7420657863656564204d41585f505249434500600082015250565b7f4552433732313a206d696e7420746f20746865207a65726f2061646472657373600082015250565b7f4f776e61626c653a2063616c6c6572206973206e6f7420746865206f776e6572600082015250565b7f4d61726b6574706c61636520616464726573732068617320616c72656164792060008201527f6265656e20736574000000000000000000000000000000000000000000000000602082015250565b7f4552433732313a20696e76616c696420746f6b656e2049440000000000000000600082015250565b7f4552433732313a20617070726f76616c20746f2063757272656e74206f776e6560008201527f7200000000000000000000000000000000000000000000000000000000000000602082015250565b7f4552433732313a20617070726f76652063616c6c6572206973206e6f7420746f60008201527f6b656e206f776e6572206f7220617070726f76656420666f7220616c6c000000602082015250565b7f4552433732313a207472616e736665722063616c6c6572206973206e6f74206f60008201527f776e6572206e6f7220617070726f766564000000000000000000000000000000602082015250565b6142fb81613b1a565b811461430657600080fd5b50565b61431281613b2c565b811461431d57600080fd5b50565b61432981613b3e565b811461433457600080fd5b50565b61434081613b4a565b811461434b57600080fd5b50565b61435781613b96565b811461436257600080fd5b5056fea26469706673582212209e48f895693cb4c3dfcc2eab9a9bf0324bee30a234aa172e2fd561932c3e75ab64736f6c63430008010033",
  "linkReferences": {},
  "deployedLinkReferences": {}
}