{
  "_format": "hh-sol-artifact-1",
  "contractName": "ERC721Collections",
  "sourceName": "contracts/ERC721Collections.sol",
  "abi": [
    {
      "inputs": [
        {
          "internalType": "string",
          "name": "publicCollectionURI",
          "type": "string"
        }
      ],
      "stateMutability": "nonpayable",
      "type": "constructor"
    },
    {
      "anonymous": false,
      "inputs": [
        {
          "indexed": true,
          "internalType": "address",
          "name": "owner",
          "type": "address"
        },
        {
          "indexed": true,
          "internalType": "address",
          "name": "approved",
          "type": "address"
        },
        {
          "indexed": true,
          "internalType": "uint256",
          "name": "tokenId",
          "type": "uint256"
        }
      ],
      "name": "Approval",
      "type": "event"
    },
    {
      "anonymous": false,
      "inputs": [
        {
          "indexed": true,
          "internalType": "address",
          "name": "owner",
          "type": "address"
        },
        {
          "indexed": true,
          "internalType": "address",
          "name": "operator",
          "type": "address"
        },
        {
          "indexed": false,
          "internalType": "bool",
          "name": "approved",
          "type": "bool"
        }
      ],
      "name": "ApprovalForAll",
      "type": "event"
    },
    {
      "anonymous": false,
      "inputs": [
        {
          "indexed": false,
          "internalType": "uint256",
          "name": "_fromTokenId",
          "type": "uint256"
        },
        {
          "indexed": false,
          "internalType": "uint256",
          "name": "_toTokenId",
          "type": "uint256"
        }
      ],
      "name": "BatchMetadataUpdate",
      "type": "event"
    },
    {
      "anonymous": false,
      "inputs": [
        {
          "indexed": false,
          "internalType": "uint256",
          "name": "id",
          "type": "uint256"
        },
        {
          "indexed": false,
          "internalType": "string",
          "name": "uri",
          "type": "string"
        }
      ],
      "name": "CollectionCreated",
      "type": "event"
    },
    {
      "anonymous": false,
      "inputs": [
        {
          "indexed": false,
          "internalType": "uint256",
          "name": "_tokenId",
          "type": "uint256"
        }
      ],
      "name": "MetadataUpdate",
      "type": "event"
    },
    {
      "anonymous": false,
      "inputs": [
        {
          "indexed": true,
          "internalType": "address",
          "name": "previousOwner",
          "type": "address"
        },
        {
          "indexed": true,
          "internalType": "address",
          "name": "newOwner",
          "type": "address"
        }
      ],
      "name": "OwnershipTransferred",
      "type": "event"
    },
    {
      "anonymous": false,
      "inputs": [
        {
          "indexed": false,
          "internalType": "uint256",
          "name": "tokenId",
          "type": "uint256"
        },
        {
          "indexed": false,
          "internalType": "uint256",
          "name": "price",
          "type": "uint256"
        }
      ],
      "name": "PriceSet",
      "type": "event"
    },
    {
      "anonymous": false,
      "inputs": [
        {
          "indexed": false,
          "internalType": "uint256",
          "name": "tokenId",
          "type": "uint256"
        },
        {
          "indexed": false,
          "internalType": "uint256",
          "name": "collectionId",
          "type": "uint256"
        }
      ],
      "name": "TokenMinted",
      "type": "event"
    },
    {
      "anonymous": false,
      "inputs": [
        {
          "indexed": true,
          "internalType": "address",
          "name": "from",
          "type": "address"
        },
        {
          "indexed": true,
          "internalType": "address",
          "name": "to",
          "type": "address"
        },
        {
          "indexed": true,
          "internalType": "uint256",
          "name": "tokenId",
          "type": "uint256"
        }
      ],
      "name": "Transfer",
      "type": "event"
    },
    {
      "inputs": [],
      "name": "MIN_PRICE",
      "outputs": [
        {
          "internalType": "uint256",
          "name": "",
          "type": "uint256"
        }
      ],
      "stateMutability": "view",
      "type": "function"
    },
    {
      "inputs": [
        {
          "internalType": "address",
          "name": "to",
          "type": "address"
        },
        {
          "internalType": "uint256",
          "name": "tokenId",
          "type": "uint256"
        }
      ],
      "name": "approve",
      "outputs": [],
      "stateMutability": "nonpayable",
      "type": "function"
    },
    {
      "inputs": [
        {
          "internalType": "address",
          "name": "owner",
          "type": "address"
        }
      ],
      "name": "balanceOf",
      "outputs": [
        {
          "internalType": "uint256",
          "name": "",
          "type": "uint256"
        }
      ],
      "stateMutability": "view",
      "type": "function"
    },
    {
      "inputs": [
        {
          "internalType": "address",
          "name": "",
          "type": "address"
        }
      ],
      "name": "collectionsCreated",
      "outputs": [
        {
          "internalType": "uint256",
          "name": "",
          "type": "uint256"
        }
      ],
      "stateMutability": "view",
      "type": "function"
    },
    {
      "inputs": [
        {
          "internalType": "string",
          "name": "uri",
          "type": "string"
        },
        {
          "internalType": "uint256",
          "name": "mintDate",
          "type": "uint256"
        }
      ],
      "name": "createCollection",
      "outputs": [
        {
          "internalType": "uint256",
          "name": "",
          "type": "uint256"
        }
      ],
      "stateMutability": "nonpayable",
      "type": "function"
    },
    {
      "inputs": [
        {
          "internalType": "uint256",
          "name": "tokenId",
          "type": "uint256"
        }
      ],
      "name": "getApproved",
      "outputs": [
        {
          "internalType": "address",
          "name": "",
          "type": "address"
        }
      ],
      "stateMutability": "view",
      "type": "function"
    },
    {
      "inputs": [
        {
          "internalType": "uint256",
          "name": "id",
          "type": "uint256"
        }
      ],
      "name": "getCollection",
      "outputs": [
        {
          "components": [
            {
              "internalType": "string",
              "name": "uri",
              "type": "string"
            },
            {
              "internalType": "uint256",
              "name": "id",
              "type": "uint256"
            },
            {
              "internalType": "address",
              "name": "owner",
              "type": "address"
            },
            {
              "internalType": "uint256",
              "name": "mintDate",
              "type": "uint256"
            }
          ],
          "internalType": "struct ERC721Collections.Collection",
          "name": "",
          "type": "tuple"
        }
      ],
      "stateMutability": "view",
      "type": "function"
    },
    {
      "inputs": [
        {
          "internalType": "uint256",
          "name": "tokenId",
          "type": "uint256"
        }
      ],
      "name": "getCollectionOfToken",
      "outputs": [
        {
          "components": [
            {
              "internalType": "string",
              "name": "uri",
              "type": "string"
            },
            {
              "internalType": "uint256",
              "name": "id",
              "type": "uint256"
            },
            {
              "internalType": "address",
              "name": "owner",
              "type": "address"
            },
            {
              "internalType": "uint256",
              "name": "mintDate",
              "type": "uint256"
            }
          ],
          "internalType": "struct ERC721Collections.Collection",
          "name": "",
          "type": "tuple"
        }
      ],
      "stateMutability": "view",
      "type": "function"
    },
    {
      "inputs": [
        {
          "internalType": "uint256",
          "name": "collectionId",
          "type": "uint256"
        }
      ],
      "name": "getCollectionOwner",
      "outputs": [
        {
          "internalType": "address",
          "name": "",
          "type": "address"
        }
      ],
      "stateMutability": "view",
      "type": "function"
    },
    {
      "inputs": [
        {
          "internalType": "uint256",
          "name": "collectionId",
          "type": "uint256"
        },
        {
          "internalType": "uint256",
          "name": "startIndex",
          "type": "uint256"
        },
        {
          "internalType": "uint256",
          "name": "pageSize",
          "type": "uint256"
        }
      ],
      "name": "getNFTsInCollection",
      "outputs": [
        {
          "internalType": "uint256[]",
          "name": "",
          "type": "uint256[]"
        }
      ],
      "stateMutability": "view",
      "type": "function"
    },
    {
      "inputs": [
        {
          "internalType": "uint256",
          "name": "tokenId",
          "type": "uint256"
        }
      ],
      "name": "getPrice",
      "outputs": [
        {
          "internalType": "uint256",
          "name": "",
          "type": "uint256"
        }
      ],
      "stateMutability": "view",
      "type": "function"
    },
    {
      "inputs": [
        {
          "internalType": "address",
          "name": "owner",
          "type": "address"
        },
        {
          "internalType": "address",
          "name": "operator",
          "type": "address"
        }
      ],
      "name": "isApprovedForAll",
      "outputs": [
        {
          "internalType": "bool",
          "name": "",
          "type": "bool"
        }
      ],
      "stateMutability": "view",
      "type": "function"
    },
    {
      "inputs": [
        {
          "internalType": "address",
          "name": "",
          "type": "address"
        }
      ],
      "name": "lastCollectionTimestamp",
      "outputs": [
        {
          "internalType": "uint256",
          "name": "",
          "type": "uint256"
        }
      ],
      "stateMutability": "view",
      "type": "function"
    },
    {
      "inputs": [
        {
          "internalType": "uint256",
          "name": "collectionId",
          "type": "uint256"
        },
        {
          "internalType": "string",
          "name": "tokenURI",
          "type": "string"
        },
        {
          "internalType": "uint256",
          "name": "price",
          "type": "uint256"
        },
        {
          "internalType": "uint256",
          "name": "royaltyPercentage",
          "type": "uint256"
        },
        {
          "internalType": "bool",
          "name": "isMintToMarketplace",
          "type": "bool"
        }
      ],
      "name": "mint",
      "outputs": [
        {
          "internalType": "uint256",
          "name": "",
          "type": "uint256"
        }
      ],
      "stateMutability": "nonpayable",
      "type": "function"
    },
    {
      "inputs": [],
      "name": "name",
      "outputs": [
        {
          "internalType": "string",
          "name": "",
          "type": "string"
        }
      ],
      "stateMutability": "view",
      "type": "function"
    },
    {
      "inputs": [],
      "name": "owner",
      "outputs": [
        {
          "internalType": "address",
          "name": "",
          "type": "address"
        }
      ],
      "stateMutability": "view",
      "type": "function"
    },
    {
      "inputs": [
        {
          "internalType": "uint256",
          "name": "tokenId",
          "type": "uint256"
        }
      ],
      "name": "ownerOf",
      "outputs": [
        {
          "internalType": "address",
          "name": "",
          "type": "address"
        }
      ],
      "stateMutability": "view",
      "type": "function"
    },
    {
      "inputs": [],
      "name": "renounceOwnership",
      "outputs": [],
      "stateMutability": "nonpayable",
      "type": "function"
    },
    {
      "inputs": [
        {
          "internalType": "uint256",
          "name": "_tokenId",
          "type": "uint256"
        },
        {
          "internalType": "uint256",
          "name": "_salePrice",
          "type": "uint256"
        }
      ],
      "name": "royaltyInfo",
      "outputs": [
        {
          "internalType": "address",
          "name": "receiver",
          "type": "address"
        },
        {
          "internalType": "uint256",
          "name": "royaltyAmount",
          "type": "uint256"
        }
      ],
      "stateMutability": "view",
      "type": "function"
    },
    {
      "inputs": [
        {
          "internalType": "address",
          "name": "from",
          "type": "address"
        },
        {
          "internalType": "address",
          "name": "to",
          "type": "address"
        },
        {
          "internalType": "uint256",
          "name": "tokenId",
          "type": "uint256"
        }
      ],
      "name": "safeTransferFrom",
      "outputs": [],
      "stateMutability": "nonpayable",
      "type": "function"
    },
    {
      "inputs": [
        {
          "internalType": "address",
          "name": "from",
          "type": "address"
        },
        {
          "internalType": "address",
          "name": "to",
          "type": "address"
        },
        {
          "internalType": "uint256",
          "name": "tokenId",
          "type": "uint256"
        },
        {
          "internalType": "bytes",
          "name": "data",
          "type": "bytes"
        }
      ],
      "name": "safeTransferFrom",
      "outputs": [],
      "stateMutability": "nonpayable",
      "type": "function"
    },
    {
      "inputs": [
        {
          "internalType": "address",
          "name": "operator",
          "type": "address"
        },
        {
          "internalType": "bool",
          "name": "approved",
          "type": "bool"
        }
      ],
      "name": "setApprovalForAll",
      "outputs": [],
      "stateMutability": "nonpayable",
      "type": "function"
    },
    {
      "inputs": [
        {
          "internalType": "address payable",
          "name": "marketplaceAddress",
          "type": "address"
        }
      ],
      "name": "setMarketplace",
      "outputs": [],
      "stateMutability": "nonpayable",
      "type": "function"
    },
    {
      "inputs": [
        {
          "internalType": "uint256",
          "name": "tokenId",
          "type": "uint256"
        },
        {
          "internalType": "uint256",
          "name": "price",
          "type": "uint256"
        }
      ],
      "name": "setPrice",
      "outputs": [
        {
          "internalType": "uint256",
          "name": "",
          "type": "uint256"
        }
      ],
      "stateMutability": "nonpayable",
      "type": "function"
    },
    {
      "inputs": [
        {
          "internalType": "bytes4",
          "name": "interfaceId",
          "type": "bytes4"
        }
      ],
      "name": "supportsInterface",
      "outputs": [
        {
          "internalType": "bool",
          "name": "",
          "type": "bool"
        }
      ],
      "stateMutability": "view",
      "type": "function"
    },
    {
      "inputs": [],
      "name": "symbol",
      "outputs": [
        {
          "internalType": "string",
          "name": "",
          "type": "string"
        }
      ],
      "stateMutability": "view",
      "type": "function"
    },
    {
      "inputs": [
        {
          "internalType": "uint256",
          "name": "tokenId",
          "type": "uint256"
        }
      ],
      "name": "tokenURI",
      "outputs": [
        {
          "internalType": "string",
          "name": "",
          "type": "string"
        }
      ],
      "stateMutability": "view",
      "type": "function"
    },
    {
      "inputs": [
        {
          "internalType": "address",
          "name": "from",
          "type": "address"
        },
        {
          "internalType": "address",
          "name": "to",
          "type": "address"
        },
        {
          "internalType": "uint256",
          "name": "tokenId",
          "type": "uint256"
        }
      ],
      "name": "transferFrom",
      "outputs": [],
      "stateMutability": "nonpayable",
      "type": "function"
    },
    {
      "inputs": [
        {
          "internalType": "address",
          "name": "newOwner",
          "type": "address"
        }
      ],
      "name": "transferOwnership",
      "outputs": [],
      "stateMutability": "nonpayable",
      "type": "function"
    }
  ],
  "bytecode": "0x60806040523480156200001157600080fd5b50604051620056ec380380620056ec83398181016040528101906200003791906200066c565b6040518060400160405280601181526020017f455243373231436f6c6c656374696f6e730000000000000000000000000000008152506040518060400160405280600381526020017f53545200000000000000000000000000000000000000000000000000000000008152508160009080519060200190620000bb9291906200054a565b508060019080519060200190620000d49291906200054a565b505050620000f7620000eb6200012860201b60201c565b6200013060201b60201c565b620001098142620001f660201b60201c565b506200012160086200052660201b62001df21760201c565b5062000ab1565b600033905090565b6000600760009054906101000a900473ffffffffffffffffffffffffffffffffffffffff16905081600760006101000a81548173ffffffffffffffffffffffffffffffffffffffff021916908373ffffffffffffffffffffffffffffffffffffffff1602179055508173ffffffffffffffffffffffffffffffffffffffff168173ffffffffffffffffffffffffffffffffffffffff167f8be0079c531659141344cd1fd0a4f28419497f9722a3daafe3b4186f6b6457e060405160405180910390a35050565b60006103e7601160003373ffffffffffffffffffffffffffffffffffffffff1673ffffffffffffffffffffffffffffffffffffffff16815260200190815260200160002054106200027e576040517f08c379a0000000000000000000000000000000000000000000000000000000008152600401620002759062000773565b60405180910390fd5b42603c601260003373ffffffffffffffffffffffffffffffffffffffff1673ffffffffffffffffffffffffffffffffffffffff16815260200190815260200160002054620002cd919062000844565b111562000311576040517f08c379a0000000000000000000000000000000000000000000000000000000008152600401620003089062000751565b60405180910390fd5b6200032860096200052660201b62001df21760201c565b60405180608001604052808481526020016200035060096200053c60201b62001e081760201c565b81526020013373ffffffffffffffffffffffffffffffffffffffff16815260200183815250600d60006200039060096200053c60201b62001e081760201c565b81526020019081526020016000206000820151816000019080519060200190620003bc9291906200054a565b506020820151816001015560408201518160020160006101000a81548173ffffffffffffffffffffffffffffffffffffffff021916908373ffffffffffffffffffffffffffffffffffffffff16021790555060608201518160030155905050601160003373ffffffffffffffffffffffffffffffffffffffff1673ffffffffffffffffffffffffffffffffffffffff16815260200190815260200160002060008154809291906200046d906200094d565b919050555042601260003373ffffffffffffffffffffffffffffffffffffffff1673ffffffffffffffffffffffffffffffffffffffff168152602001908152602001600020819055507f62b7b5ba11bfc95430fab0460fdf99b9c8fbc2b3a6a48caf79c3ee1b591c0336620004ee60096200053c60201b62001e081760201c565b84604051620004ff92919062000795565b60405180910390a16200051e60096200053c60201b62001e081760201c565b905092915050565b6001816000016000828254019250508190555050565b600081600001549050919050565b8280546200055890620008e1565b90600052602060002090601f0160209004810192826200057c5760008555620005c8565b82601f106200059757805160ff1916838001178555620005c8565b82800160010185558215620005c8579182015b82811115620005c7578251825591602001919060010190620005aa565b5b509050620005d79190620005db565b5090565b5b80821115620005f6576000816000905550600101620005dc565b5090565b6000620006116200060b84620007f2565b620007c9565b9050828152602081018484840111156200062a57600080fd5b62000637848285620008ab565b509392505050565b600082601f8301126200065157600080fd5b815162000663848260208601620005fa565b91505092915050565b6000602082840312156200067f57600080fd5b600082015167ffffffffffffffff8111156200069a57600080fd5b620006a8848285016200063f565b91505092915050565b6000620006be8262000828565b620006ca818562000833565b9350620006dc818560208601620008ab565b620006e78162000a28565b840191505092915050565b600062000701602c8362000833565b91506200070e8262000a39565b604082019050919050565b60006200072860178362000833565b9150620007358262000a88565b602082019050919050565b6200074b81620008a1565b82525050565b600060208201905081810360008301526200076c81620006f2565b9050919050565b600060208201905081810360008301526200078e8162000719565b9050919050565b6000604082019050620007ac600083018562000740565b8181036020830152620007c08184620006b1565b90509392505050565b6000620007d5620007e8565b9050620007e3828262000917565b919050565b6000604051905090565b600067ffffffffffffffff82111562000810576200080f620009f9565b5b6200081b8262000a28565b9050602081019050919050565b600081519050919050565b600082825260208201905092915050565b60006200085182620008a1565b91506200085e83620008a1565b9250827fffffffffffffffffffffffffffffffffffffffffffffffffffffffffffffffff038211156200089657620008956200099b565b5b828201905092915050565b6000819050919050565b60005b83811015620008cb578082015181840152602081019050620008ae565b83811115620008db576000848401525b50505050565b60006002820490506001821680620008fa57607f821691505b60208210811415620009115762000910620009ca565b5b50919050565b620009228262000a28565b810181811067ffffffffffffffff82111715620009445762000943620009f9565b5b80604052505050565b60006200095a82620008a1565b91507fffffffffffffffffffffffffffffffffffffffffffffffffffffffffffffffff82141562000990576200098f6200099b565b5b600182019050919050565b7f4e487b7100000000000000000000000000000000000000000000000000000000600052601160045260246000fd5b7f4e487b7100000000000000000000000000000000000000000000000000000000600052602260045260246000fd5b7f4e487b7100000000000000000000000000000000000000000000000000000000600052604160045260246000fd5b6000601f19601f8301169050919050565b7f4d7573742077616974206265666f7265206372656174696e6720616e6f74686560008201527f7220636f6c6c656374696f6e0000000000000000000000000000000000000000602082015250565b7f4d617820636f6c6c656374696f6e732072656163686564000000000000000000600082015250565b614c2b8062000ac16000396000f3fe608060405234801561001057600080fd5b50600436106101cf5760003560e01c806382a17cdb11610104578063bd6fbad9116100a2578063e757223011610071578063e75722301461059f578063e985e9c5146105cf578063f2fde38b146105ff578063f7d975771461061b576101cf565b8063bd6fbad9146104df578063c87b56dd1461050f578063d08b28ea1461053f578063da0277fd1461056f576101cf565b806395d89b41116100de57806395d89b411461046b578063a22cb46514610489578063ad9f20a6146104a5578063b88d4fde146104c3576101cf565b806382a17cdb146103ed57806382abfbd61461041d5780638da5cb5b1461044d576101cf565b806342842e0e1161017157806364d541511161014b57806364d541511461036757806370a0823114610397578063715018a6146103c757806373ad6c2d146103d1576101cf565b806342842e0e146102eb5780635a1f3c28146103075780636352211e14610337576101cf565b8063095ea7b3116101ad578063095ea7b31461025257806323b872dd1461026e5780632a55205a1461028a578063394120c0146102bb576101cf565b806301ffc9a7146101d457806306fdde0314610204578063081812fc14610222575b600080fd5b6101ee60048036038101906101e9919061342e565b61064b565b6040516101fb9190613c7b565b60405180910390f35b61020c6106ac565b6040516102199190613c96565b60405180910390f35b61023c600480360381019061023791906134d4565b61073e565b6040516102499190613bc9565b60405180910390f35b61026c600480360381019061026791906133c9565b610784565b005b610288600480360381019061028391906132c3565b61089c565b005b6102a4600480360381019061029f919061358c565b6108fc565b6040516102b2929190613c30565b60405180910390f35b6102d560048036038101906102d091906134d4565b610975565b6040516102e29190613bc9565b60405180910390f35b610305600480360381019061030091906132c3565b6109b5565b005b610321600480360381019061031c91906134d4565b6109d5565b60405161032e9190613ff8565b60405180910390f35b610351600480360381019061034c91906134d4565b610afe565b60405161035e9190613bc9565b60405180910390f35b610381600480360381019061037c9190613480565b610b85565b60405161038e919061401a565b60405180910390f35b6103b160048036038101906103ac9190613235565b610e66565b6040516103be919061401a565b60405180910390f35b6103cf610f1e565b005b6103eb60048036038101906103e6919061325e565b610f32565b005b61040760048036038101906104029190613235565b61107f565b604051610414919061401a565b60405180910390f35b610437600480360381019061043291906134fd565b611097565b604051610444919061401a565b60405180910390f35b610455611465565b6040516104629190613bc9565b60405180910390f35b61047361148f565b6040516104809190613c96565b60405180910390f35b6104a3600480360381019061049e919061338d565b611521565b005b6104ad611537565b6040516104ba919061401a565b60405180910390f35b6104dd60048036038101906104d89190613312565b611542565b005b6104f960048036038101906104f49190613235565b6115a4565b604051610506919061401a565b60405180910390f35b610529600480360381019061052491906134d4565b6115bc565b6040516105369190613c96565b60405180910390f35b610559600480360381019061055491906135c8565b6116cf565b6040516105669190613c59565b60405180910390f35b610589600480360381019061058491906134d4565b611930565b6040516105969190613ff8565b60405180910390f35b6105b960048036038101906105b491906134d4565b611ac9565b6040516105c6919061401a565b60405180910390f35b6105e960048036038101906105e49190613287565b611ae6565b6040516105f69190613c7b565b60405180910390f35b61061960048036038101906106149190613235565b611b7a565b005b6106356004803603810190610630919061358c565b611bfe565b604051610642919061401a565b60405180910390f35b6000634906490660e01b7bffffffffffffffffffffffffffffffffffffffffffffffffffffffff1916827bffffffffffffffffffffffffffffffffffffffffffffffffffffffff191614806106a557506106a482611e16565b5b9050919050565b6060600080546106bb9061437f565b80601f01602080910402602001604051908101604052809291908181526020018280546106e79061437f565b80156107345780601f1061070957610100808354040283529160200191610734565b820191906000526020600020905b81548152906001019060200180831161071757829003601f168201915b5050505050905090565b600061074982611ef8565b6004600083815260200190815260200160002060009054906101000a900473ffffffffffffffffffffffffffffffffffffffff169050919050565b600061078f82610afe565b90508073ffffffffffffffffffffffffffffffffffffffff168373ffffffffffffffffffffffffffffffffffffffff161415610800576040517f08c379a00000000000000000000000000000000000000000000000000000000081526004016107f790613f78565b60405180910390fd5b8073ffffffffffffffffffffffffffffffffffffffff1661081f611f43565b73ffffffffffffffffffffffffffffffffffffffff16148061084e575061084d81610848611f43565b611ae6565b5b61088d576040517f08c379a000000000000000000000000000000000000000000000000000000000815260040161088490613f98565b60405180910390fd5b6108978383611f4b565b505050565b6108ad6108a7611f43565b82612004565b6108ec576040517f08c379a00000000000000000000000000000000000000000000000000000000081526004016108e390613cb8565b60405180910390fd5b6108f7838383612099565b505050565b6000806000600b60008681526020019081526020016000205490506000606482866109279190614229565b61093191906141f8565b9050600a600087815260200190815260200160002060009054906101000a900473ffffffffffffffffffffffffffffffffffffffff16819350935050509250929050565b6000600d600083815260200190815260200160002060020160009054906101000a900473ffffffffffffffffffffffffffffffffffffffff169050919050565b6109d083838360405180602001604052806000815250611542565b505050565b6109dd612ff1565b600d6000838152602001908152602001600020604051806080016040529081600082018054610a0b9061437f565b80601f0160208091040260200160405190810160405280929190818152602001828054610a379061437f565b8015610a845780601f10610a5957610100808354040283529160200191610a84565b820191906000526020600020905b815481529060010190602001808311610a6757829003601f168201915b50505050508152602001600182015481526020016002820160009054906101000a900473ffffffffffffffffffffffffffffffffffffffff1673ffffffffffffffffffffffffffffffffffffffff1673ffffffffffffffffffffffffffffffffffffffff1681526020016003820154815250509050919050565b600080610b0a83612393565b9050600073ffffffffffffffffffffffffffffffffffffffff168173ffffffffffffffffffffffffffffffffffffffff161415610b7c576040517f08c379a0000000000000000000000000000000000000000000000000000000008152600401610b7390613f58565b60405180910390fd5b80915050919050565b60006103e7601160003373ffffffffffffffffffffffffffffffffffffffff1673ffffffffffffffffffffffffffffffffffffffff1681526020019081526020016000205410610c0a576040517f08c379a0000000000000000000000000000000000000000000000000000000008152600401610c0190613e78565b60405180910390fd5b42603c601260003373ffffffffffffffffffffffffffffffffffffffff1673ffffffffffffffffffffffffffffffffffffffff16815260200190815260200160002054610c5791906141a2565b1115610c98576040517f08c379a0000000000000000000000000000000000000000000000000000000008152600401610c8f90613cf8565b60405180910390fd5b610ca26009611df2565b6040518060800160405280848152602001610cbd6009611e08565b81526020013373ffffffffffffffffffffffffffffffffffffffff16815260200183815250600d6000610cf06009611e08565b81526020019081526020016000206000820151816000019080519060200190610d1a92919061302f565b506020820151816001015560408201518160020160006101000a81548173ffffffffffffffffffffffffffffffffffffffff021916908373ffffffffffffffffffffffffffffffffffffffff16021790555060608201518160030155905050601160003373ffffffffffffffffffffffffffffffffffffffff1673ffffffffffffffffffffffffffffffffffffffff1681526020019081526020016000206000815480929190610dc9906143e2565b919050555042601260003373ffffffffffffffffffffffffffffffffffffffff1673ffffffffffffffffffffffffffffffffffffffff168152602001908152602001600020819055507f62b7b5ba11bfc95430fab0460fdf99b9c8fbc2b3a6a48caf79c3ee1b591c0336610e3d6009611e08565b84604051610e4c929190614035565b60405180910390a1610e5e6009611e08565b905092915050565b60008073ffffffffffffffffffffffffffffffffffffffff168273ffffffffffffffffffffffffffffffffffffffff161415610ed7576040517f08c379a0000000000000000000000000000000000000000000000000000000008152600401610ece90613eb8565b60405180910390fd5b600360008373ffffffffffffffffffffffffffffffffffffffff1673ffffffffffffffffffffffffffffffffffffffff168152602001908152602001600020549050919050565b610f266123d0565b610f30600061244e565b565b610f3a6123d0565b600073ffffffffffffffffffffffffffffffffffffffff16600c60009054906101000a900473ffffffffffffffffffffffffffffffffffffffff1673ffffffffffffffffffffffffffffffffffffffff1614610fcb576040517f08c379a0000000000000000000000000000000000000000000000000000000008152600401610fc290613f38565b60405180910390fd5b600073ffffffffffffffffffffffffffffffffffffffff168173ffffffffffffffffffffffffffffffffffffffff16141561103b576040517f08c379a000000000000000000000000000000000000000000000000000000000815260040161103290613cd8565b60405180910390fd5b80600c60006101000a81548173ffffffffffffffffffffffffffffffffffffffff021916908373ffffffffffffffffffffffffffffffffffffffff16021790555050565b60126020528060005260406000206000915090505481565b6000600d6000878152602001908152602001600020600301544210156110f2576040517f08c379a00000000000000000000000000000000000000000000000000000000081526004016110e990613fd8565b60405180910390fd5b662386f26fc1000084101561113c576040517f08c379a000000000000000000000000000000000000000000000000000000000815260040161113390613d38565b60405180910390fd5b6000600d6000888152602001908152602001600020600101541415611196576040517f08c379a000000000000000000000000000000000000000000000000000000000815260040161118d90613db8565b60405180910390fd5b60648311156111da576040517f08c379a00000000000000000000000000000000000000000000000000000000081526004016111d190613dd8565b60405180910390fd5b600186148061124a57503373ffffffffffffffffffffffffffffffffffffffff16600d600088815260200190815260200160002060020160009054906101000a900473ffffffffffffffffffffffffffffffffffffffff1673ffffffffffffffffffffffffffffffffffffffff16145b611289576040517f08c379a000000000000000000000000000000000000000000000000000000000815260040161128090613df8565b60405180910390fd5b60006112956008611e08565b90506112a16008611df2565b6112ab3382612514565b6112b58187612732565b86600f600083815260200190815260200160002081905550600e600088815260200190815260200160002081908060018154018082558091505060019003906000526020600020016000909190919091505584601060008381526020019081526020016000208190555033600a600083815260200190815260200160002060006101000a81548173ffffffffffffffffffffffffffffffffffffffff021916908373ffffffffffffffffffffffffffffffffffffffff16021790555083600b600083815260200190815260200160002081905550821561141f57600c60009054906101000a900473ffffffffffffffffffffffffffffffffffffffff1673ffffffffffffffffffffffffffffffffffffffff166394383f1482876040518363ffffffff1660e01b81526004016113ec929190614065565b600060405180830381600087803b15801561140657600080fd5b505af115801561141a573d6000803e3d6000fd5b505050505b7f5f7666687319b40936f33c188908d86aea154abd3f4127b4fa0a3f04f303c7da8188604051611450929190614065565b60405180910390a18091505095945050505050565b6000600760009054906101000a900473ffffffffffffffffffffffffffffffffffffffff16905090565b60606001805461149e9061437f565b80601f01602080910402602001604051908101604052809291908181526020018280546114ca9061437f565b80156115175780601f106114ec57610100808354040283529160200191611517565b820191906000526020600020905b8154815290600101906020018083116114fa57829003601f168201915b5050505050905090565b61153361152c611f43565b83836127dd565b5050565b662386f26fc1000081565b61155361154d611f43565b83612004565b611592576040517f08c379a000000000000000000000000000000000000000000000000000000000815260040161158990613cb8565b60405180910390fd5b61159e8484848461294a565b50505050565b60116020528060005260406000206000915090505481565b60606115c782611ef8565b60006006600084815260200190815260200160002080546115e79061437f565b80601f01602080910402602001604051908101604052809291908181526020018280546116139061437f565b80156116605780601f1061163557610100808354040283529160200191611660565b820191906000526020600020905b81548152906001019060200180831161164357829003601f168201915b5050505050905060006116716129a6565b90506000815114156116875781925050506116ca565b6000825111156116bc5780826040516020016116a4929190613ba5565b604051602081830303815290604052925050506116ca565b6116c5846129bd565b925050505b919050565b60606000600e600086815260200190815260200160002080548060200260200160405190810160405280929190818152602001828054801561173057602002820191906000526020600020905b81548152602001906001019080831161171c575b50505050509050600081511480611748575080518410155b156117c557600067ffffffffffffffff81111561178e577f4e487b7100000000000000000000000000000000000000000000000000000000600052604160045260246000fd5b6040519080825280602002602001820160405280156117bc5781602001602082028036833780820191505090505b50915050611929565b60648311156117d357606492505b600083856117e191906141a2565b905081518111156117f157815190505b600085826117ff9190614283565b67ffffffffffffffff81111561183e577f4e487b7100000000000000000000000000000000000000000000000000000000600052604160045260246000fd5b60405190808252806020026020018201604052801561186c5781602001602082028036833780820191505090505b50905060008690505b82811015611921578381815181106118b6577f4e487b7100000000000000000000000000000000000000000000000000000000600052603260045260246000fd5b60200260200101518288836118cb9190614283565b81518110611902577f4e487b7100000000000000000000000000000000000000000000000000000000600052603260045260246000fd5b6020026020010181815250508080611919906143e2565b915050611875565b508093505050505b9392505050565b611938612ff1565b6000600f600084815260200190815260200160002054141561198f576040517f08c379a000000000000000000000000000000000000000000000000000000000815260040161198690613e58565b60405180910390fd5b6000600f6000848152602001908152602001600020549050600d60008281526020019081526020016000206040518060800160405290816000820180546119d59061437f565b80601f0160208091040260200160405190810160405280929190818152602001828054611a019061437f565b8015611a4e5780601f10611a2357610100808354040283529160200191611a4e565b820191906000526020600020905b815481529060010190602001808311611a3157829003601f168201915b50505050508152602001600182015481526020016002820160009054906101000a900473ffffffffffffffffffffffffffffffffffffffff1673ffffffffffffffffffffffffffffffffffffffff1673ffffffffffffffffffffffffffffffffffffffff168152602001600382015481525050915050919050565b600060106000838152602001908152602001600020549050919050565b6000600560008473ffffffffffffffffffffffffffffffffffffffff1673ffffffffffffffffffffffffffffffffffffffff16815260200190815260200160002060008373ffffffffffffffffffffffffffffffffffffffff1673ffffffffffffffffffffffffffffffffffffffff16815260200190815260200160002060009054906101000a900460ff16905092915050565b611b826123d0565b600073ffffffffffffffffffffffffffffffffffffffff168173ffffffffffffffffffffffffffffffffffffffff161415611bf2576040517f08c379a0000000000000000000000000000000000000000000000000000000008152600401611be990613d58565b60405180910390fd5b611bfb8161244e565b50565b6000662386f26fc10000821015611c4a576040517f08c379a0000000000000000000000000000000000000000000000000000000008152600401611c4190613d38565b60405180910390fd5b611c5b611c55611f43565b84612004565b611c9a576040517f08c379a0000000000000000000000000000000000000000000000000000000008152600401611c9190613fb8565b60405180910390fd5b600c60009054906101000a900473ffffffffffffffffffffffffffffffffffffffff1673ffffffffffffffffffffffffffffffffffffffff16639b83cddc846040518263ffffffff1660e01b8152600401611cf5919061401a565b60206040518083038186803b158015611d0d57600080fd5b505afa158015611d21573d6000803e3d6000fd5b505050506040513d601f19601f82011682018060405250810190611d459190613405565b15611d85576040517f08c379a0000000000000000000000000000000000000000000000000000000008152600401611d7c90613e98565b60405180910390fd5b8160106000858152602001908152602001600020819055507fa0f1665b7b659537b52deec61ea64d134a3bccda74c7f4e79f2246e7a8187a8a8383604051611dce929190614065565b60405180910390a16010600084815260200190815260200160002054905092915050565b6001816000016000828254019250508190555050565b600081600001549050919050565b60007f80ac58cd000000000000000000000000000000000000000000000000000000007bffffffffffffffffffffffffffffffffffffffffffffffffffffffff1916827bffffffffffffffffffffffffffffffffffffffffffffffffffffffff19161480611ee157507f5b5e139f000000000000000000000000000000000000000000000000000000007bffffffffffffffffffffffffffffffffffffffffffffffffffffffff1916827bffffffffffffffffffffffffffffffffffffffffffffffffffffffff1916145b80611ef15750611ef082612a25565b5b9050919050565b611f0181612a8f565b611f40576040517f08c379a0000000000000000000000000000000000000000000000000000000008152600401611f3790613f58565b60405180910390fd5b50565b600033905090565b816004600083815260200190815260200160002060006101000a81548173ffffffffffffffffffffffffffffffffffffffff021916908373ffffffffffffffffffffffffffffffffffffffff160217905550808273ffffffffffffffffffffffffffffffffffffffff16611fbe83610afe565b73ffffffffffffffffffffffffffffffffffffffff167f8c5be1e5ebec7d5bd14f71427d1e84f3dd0314c0f7b2291e5b200ac8c7c3b92560405160405180910390a45050565b60008061201083610afe565b90508073ffffffffffffffffffffffffffffffffffffffff168473ffffffffffffffffffffffffffffffffffffffff16148061205257506120518185611ae6565b5b8061209057508373ffffffffffffffffffffffffffffffffffffffff166120788461073e565b73ffffffffffffffffffffffffffffffffffffffff16145b91505092915050565b8273ffffffffffffffffffffffffffffffffffffffff166120b982610afe565b73ffffffffffffffffffffffffffffffffffffffff161461210f576040517f08c379a000000000000000000000000000000000000000000000000000000000815260040161210690613d78565b60405180910390fd5b600073ffffffffffffffffffffffffffffffffffffffff168273ffffffffffffffffffffffffffffffffffffffff16141561217f576040517f08c379a000000000000000000000000000000000000000000000000000000000815260040161217690613e18565b60405180910390fd5b61218c8383836001612ad0565b8273ffffffffffffffffffffffffffffffffffffffff166121ac82610afe565b73ffffffffffffffffffffffffffffffffffffffff1614612202576040517f08c379a00000000000000000000000000000000000000000000000000000000081526004016121f990613d78565b60405180910390fd5b6004600082815260200190815260200160002060006101000a81549073ffffffffffffffffffffffffffffffffffffffff02191690556001600360008573ffffffffffffffffffffffffffffffffffffffff1673ffffffffffffffffffffffffffffffffffffffff168152602001908152602001600020600082825403925050819055506001600360008473ffffffffffffffffffffffffffffffffffffffff1673ffffffffffffffffffffffffffffffffffffffff16815260200190815260200160002060008282540192505081905550816002600083815260200190815260200160002060006101000a81548173ffffffffffffffffffffffffffffffffffffffff021916908373ffffffffffffffffffffffffffffffffffffffff160217905550808273ffffffffffffffffffffffffffffffffffffffff168473ffffffffffffffffffffffffffffffffffffffff167fddf252ad1be2c89b69c2b068fc378daa952ba7f163c4a11628f55a4df523b3ef60405160405180910390a461238e8383836001612ad6565b505050565b60006002600083815260200190815260200160002060009054906101000a900473ffffffffffffffffffffffffffffffffffffffff169050919050565b6123d8611f43565b73ffffffffffffffffffffffffffffffffffffffff166123f6611465565b73ffffffffffffffffffffffffffffffffffffffff161461244c576040517f08c379a000000000000000000000000000000000000000000000000000000000815260040161244390613f18565b60405180910390fd5b565b6000600760009054906101000a900473ffffffffffffffffffffffffffffffffffffffff16905081600760006101000a81548173ffffffffffffffffffffffffffffffffffffffff021916908373ffffffffffffffffffffffffffffffffffffffff1602179055508173ffffffffffffffffffffffffffffffffffffffff168173ffffffffffffffffffffffffffffffffffffffff167f8be0079c531659141344cd1fd0a4f28419497f9722a3daafe3b4186f6b6457e060405160405180910390a35050565b600073ffffffffffffffffffffffffffffffffffffffff168273ffffffffffffffffffffffffffffffffffffffff161415612584576040517f08c379a000000000000000000000000000000000000000000000000000000000815260040161257b90613ef8565b60405180910390fd5b61258d81612a8f565b156125cd576040517f08c379a00000000000000000000000000000000000000000000000000000000081526004016125c490613d98565b60405180910390fd5b6125db600083836001612ad0565b6125e481612a8f565b15612624576040517f08c379a000000000000000000000000000000000000000000000000000000000815260040161261b90613d98565b60405180910390fd5b6001600360008473ffffffffffffffffffffffffffffffffffffffff1673ffffffffffffffffffffffffffffffffffffffff16815260200190815260200160002060008282540192505081905550816002600083815260200190815260200160002060006101000a81548173ffffffffffffffffffffffffffffffffffffffff021916908373ffffffffffffffffffffffffffffffffffffffff160217905550808273ffffffffffffffffffffffffffffffffffffffff16600073ffffffffffffffffffffffffffffffffffffffff167fddf252ad1be2c89b69c2b068fc378daa952ba7f163c4a11628f55a4df523b3ef60405160405180910390a461272e600083836001612ad6565b5050565b61273b82612a8f565b61277a576040517f08c379a000000000000000000000000000000000000000000000000000000000815260040161277190613ed8565b60405180910390fd5b806006600084815260200190815260200160002090805190602001906127a192919061302f565b507ff8e1a15aba9398e019f0b49df1a4fde98ee17ae345cb5f6b5e2c27f5033e8ce7826040516127d1919061401a565b60405180910390a15050565b8173ffffffffffffffffffffffffffffffffffffffff168373ffffffffffffffffffffffffffffffffffffffff16141561284c576040517f08c379a000000000000000000000000000000000000000000000000000000000815260040161284390613e38565b60405180910390fd5b80600560008573ffffffffffffffffffffffffffffffffffffffff1673ffffffffffffffffffffffffffffffffffffffff16815260200190815260200160002060008473ffffffffffffffffffffffffffffffffffffffff1673ffffffffffffffffffffffffffffffffffffffff16815260200190815260200160002060006101000a81548160ff0219169083151502179055508173ffffffffffffffffffffffffffffffffffffffff168373ffffffffffffffffffffffffffffffffffffffff167f17307eab39ab6107e8899845ad3d59bd9653f200f220920489ca2b5937696c318360405161293d9190613c7b565b60405180910390a3505050565b612955848484612099565b61296184848484612adc565b6129a0576040517f08c379a000000000000000000000000000000000000000000000000000000000815260040161299790613d18565b60405180910390fd5b50505050565b606060405180602001604052806000815250905090565b60606129c882611ef8565b60006129d26129a6565b905060008151116129f25760405180602001604052806000815250612a1d565b806129fc84612c73565b604051602001612a0d929190613ba5565b6040516020818303038152906040525b915050919050565b60007f01ffc9a7000000000000000000000000000000000000000000000000000000007bffffffffffffffffffffffffffffffffffffffffffffffffffffffff1916827bffffffffffffffffffffffffffffffffffffffffffffffffffffffff1916149050919050565b60008073ffffffffffffffffffffffffffffffffffffffff16612ab183612393565b73ffffffffffffffffffffffffffffffffffffffff1614159050919050565b50505050565b50505050565b6000612afd8473ffffffffffffffffffffffffffffffffffffffff16612d97565b15612c66578373ffffffffffffffffffffffffffffffffffffffff1663150b7a02612b26611f43565b8786866040518563ffffffff1660e01b8152600401612b489493929190613be4565b602060405180830381600087803b158015612b6257600080fd5b505af1925050508015612b9357506040513d601f19601f82011682018060405250810190612b909190613457565b60015b612c16573d8060008114612bc3576040519150601f19603f3d011682016040523d82523d6000602084013e612bc8565b606091505b50600081511415612c0e576040517f08c379a0000000000000000000000000000000000000000000000000000000008152600401612c0590613d18565b60405180910390fd5b805181602001fd5b63150b7a0260e01b7bffffffffffffffffffffffffffffffffffffffffffffffffffffffff1916817bffffffffffffffffffffffffffffffffffffffffffffffffffffffff191614915050612c6b565b600190505b949350505050565b606060006001612c8284612dba565b01905060008167ffffffffffffffff811115612cc7577f4e487b7100000000000000000000000000000000000000000000000000000000600052604160045260246000fd5b6040519080825280601f01601f191660200182016040528015612cf95781602001600182028036833780820191505090505b509050600082602001820190505b600115612d8c578080600190039150507f3031323334353637383961626364656600000000000000000000000000000000600a86061a8153600a8581612d76577f4e487b7100000000000000000000000000000000000000000000000000000000600052601260045260246000fd5b0494506000851415612d8757612d8c565b612d07565b819350505050919050565b6000808273ffffffffffffffffffffffffffffffffffffffff163b119050919050565b600080600090507a184f03e93ff9f4daa797ed6e38ed64bf6a1f0100000000000000008310612e3e577a184f03e93ff9f4daa797ed6e38ed64bf6a1f0100000000000000008381612e34577f4e487b7100000000000000000000000000000000000000000000000000000000600052601260045260246000fd5b0492506040810190505b6d04ee2d6d415b85acef81000000008310612ea1576d04ee2d6d415b85acef81000000008381612e97577f4e487b7100000000000000000000000000000000000000000000000000000000600052601260045260246000fd5b0492506020810190505b662386f26fc100008310612ef657662386f26fc100008381612eec577f4e487b7100000000000000000000000000000000000000000000000000000000600052601260045260246000fd5b0492506010810190505b6305f5e1008310612f45576305f5e1008381612f3b577f4e487b7100000000000000000000000000000000000000000000000000000000600052601260045260246000fd5b0492506008810190505b6127108310612f90576127108381612f86577f4e487b7100000000000000000000000000000000000000000000000000000000600052601260045260246000fd5b0492506004810190505b60648310612fd95760648381612fcf577f4e487b7100000000000000000000000000000000000000000000000000000000600052601260045260246000fd5b0492506002810190505b600a8310612fe8576001810190505b80915050919050565b60405180608001604052806060815260200160008152602001600073ffffffffffffffffffffffffffffffffffffffff168152602001600081525090565b82805461303b9061437f565b90600052602060002090601f01602090048101928261305d57600085556130a4565b82601f1061307657805160ff19168380011785556130a4565b828001600101855582156130a4579182015b828111156130a3578251825591602001919060010190613088565b5b5090506130b191906130b5565b5090565b5b808211156130ce5760008160009055506001016130b6565b5090565b60006130e56130e0846140b3565b61408e565b9050828152602081018484840111156130fd57600080fd5b61310884828561433d565b509392505050565b600061312361311e846140e4565b61408e565b90508281526020810184848401111561313b57600080fd5b61314684828561433d565b509392505050565b60008135905061315d81614b82565b92915050565b60008135905061317281614b99565b92915050565b60008135905061318781614bb0565b92915050565b60008151905061319c81614bb0565b92915050565b6000813590506131b181614bc7565b92915050565b6000815190506131c681614bc7565b92915050565b600082601f8301126131dd57600080fd5b81356131ed8482602086016130d2565b91505092915050565b600082601f83011261320757600080fd5b8135613217848260208601613110565b91505092915050565b60008135905061322f81614bde565b92915050565b60006020828403121561324757600080fd5b60006132558482850161314e565b91505092915050565b60006020828403121561327057600080fd5b600061327e84828501613163565b91505092915050565b6000806040838503121561329a57600080fd5b60006132a88582860161314e565b92505060206132b98582860161314e565b9150509250929050565b6000806000606084860312156132d857600080fd5b60006132e68682870161314e565b93505060206132f78682870161314e565b925050604061330886828701613220565b9150509250925092565b6000806000806080858703121561332857600080fd5b60006133368782880161314e565b94505060206133478782880161314e565b935050604061335887828801613220565b925050606085013567ffffffffffffffff81111561337557600080fd5b613381878288016131cc565b91505092959194509250565b600080604083850312156133a057600080fd5b60006133ae8582860161314e565b92505060206133bf85828601613178565b9150509250929050565b600080604083850312156133dc57600080fd5b60006133ea8582860161314e565b92505060206133fb85828601613220565b9150509250929050565b60006020828403121561341757600080fd5b60006134258482850161318d565b91505092915050565b60006020828403121561344057600080fd5b600061344e848285016131a2565b91505092915050565b60006020828403121561346957600080fd5b6000613477848285016131b7565b91505092915050565b6000806040838503121561349357600080fd5b600083013567ffffffffffffffff8111156134ad57600080fd5b6134b9858286016131f6565b92505060206134ca85828601613220565b9150509250929050565b6000602082840312156134e657600080fd5b60006134f484828501613220565b91505092915050565b600080600080600060a0868803121561351557600080fd5b600061352388828901613220565b955050602086013567ffffffffffffffff81111561354057600080fd5b61354c888289016131f6565b945050604061355d88828901613220565b935050606061356e88828901613220565b925050608061357f88828901613178565b9150509295509295909350565b6000806040838503121561359f57600080fd5b60006135ad85828601613220565b92505060206135be85828601613220565b9150509250929050565b6000806000606084860312156135dd57600080fd5b60006135eb86828701613220565b93505060206135fc86828701613220565b925050604061360d86828701613220565b9150509250925092565b60006136238383613b87565b60208301905092915050565b613638816142b7565b82525050565b613647816142b7565b82525050565b600061365882614125565b6136628185614153565b935061366d83614115565b8060005b8381101561369e5781516136858882613617565b975061369083614146565b925050600181019050613671565b5085935050505092915050565b6136b4816142db565b82525050565b60006136c582614130565b6136cf8185614164565b93506136df81856020860161434c565b6136e8816144e7565b840191505092915050565b60006136fe8261413b565b6137088185614175565b935061371881856020860161434c565b613721816144e7565b840191505092915050565b60006137378261413b565b6137418185614186565b935061375181856020860161434c565b61375a816144e7565b840191505092915050565b60006137708261413b565b61377a8185614197565b935061378a81856020860161434c565b80840191505092915050565b60006137a3602d83614186565b91506137ae826144f8565b604082019050919050565b60006137c6600f83614186565b91506137d182614547565b602082019050919050565b60006137e9602c83614186565b91506137f482614570565b604082019050919050565b600061380c603283614186565b9150613817826145bf565b604082019050919050565b600061382f602083614186565b915061383a8261460e565b602082019050919050565b6000613852602683614186565b915061385d82614637565b604082019050919050565b6000613875602583614186565b915061388082614686565b604082019050919050565b6000613898601c83614186565b91506138a3826146d5565b602082019050919050565b60006138bb601983614186565b91506138c6826146fe565b602082019050919050565b60006138de602c83614186565b91506138e982614727565b604082019050919050565b6000613901601f83614186565b915061390c82614776565b602082019050919050565b6000613924602483614186565b915061392f8261479f565b604082019050919050565b6000613947601983614186565b9150613952826147ee565b602082019050919050565b600061396a602783614186565b915061397582614817565b604082019050919050565b600061398d601783614186565b915061399882614866565b602082019050919050565b60006139b0602283614186565b91506139bb8261488f565b604082019050919050565b60006139d3602983614186565b91506139de826148de565b604082019050919050565b60006139f6602e83614186565b9150613a018261492d565b604082019050919050565b6000613a19602083614186565b9150613a248261497c565b602082019050919050565b6000613a3c602083614186565b9150613a47826149a5565b602082019050919050565b6000613a5f602883614186565b9150613a6a826149ce565b604082019050919050565b6000613a82601883614186565b9150613a8d82614a1d565b602082019050919050565b6000613aa5602183614186565b9150613ab082614a46565b604082019050919050565b6000613ac8603d83614186565b9150613ad382614a95565b604082019050919050565b6000613aeb603183614186565b9150613af682614ae4565b604082019050919050565b6000613b0e602b83614186565b9150613b1982614b33565b604082019050919050565b60006080830160008301518482036000860152613b4182826136f3565b9150506020830151613b566020860182613b87565b506040830151613b69604086018261362f565b506060830151613b7c6060860182613b87565b508091505092915050565b613b9081614333565b82525050565b613b9f81614333565b82525050565b6000613bb18285613765565b9150613bbd8284613765565b91508190509392505050565b6000602082019050613bde600083018461363e565b92915050565b6000608082019050613bf9600083018761363e565b613c06602083018661363e565b613c136040830185613b96565b8181036060830152613c2581846136ba565b905095945050505050565b6000604082019050613c45600083018561363e565b613c526020830184613b96565b9392505050565b60006020820190508181036000830152613c73818461364d565b905092915050565b6000602082019050613c9060008301846136ab565b92915050565b60006020820190508181036000830152613cb0818461372c565b905092915050565b60006020820190508181036000830152613cd181613796565b9050919050565b60006020820190508181036000830152613cf1816137b9565b9050919050565b60006020820190508181036000830152613d11816137dc565b9050919050565b60006020820190508181036000830152613d31816137ff565b9050919050565b60006020820190508181036000830152613d5181613822565b9050919050565b60006020820190508181036000830152613d7181613845565b9050919050565b60006020820190508181036000830152613d9181613868565b9050919050565b60006020820190508181036000830152613db18161388b565b9050919050565b60006020820190508181036000830152613dd1816138ae565b9050919050565b60006020820190508181036000830152613df1816138d1565b9050919050565b60006020820190508181036000830152613e11816138f4565b9050919050565b60006020820190508181036000830152613e3181613917565b9050919050565b60006020820190508181036000830152613e518161393a565b9050919050565b60006020820190508181036000830152613e718161395d565b9050919050565b60006020820190508181036000830152613e9181613980565b9050919050565b60006020820190508181036000830152613eb1816139a3565b9050919050565b60006020820190508181036000830152613ed1816139c6565b9050919050565b60006020820190508181036000830152613ef1816139e9565b9050919050565b60006020820190508181036000830152613f1181613a0c565b9050919050565b60006020820190508181036000830152613f3181613a2f565b9050919050565b60006020820190508181036000830152613f5181613a52565b9050919050565b60006020820190508181036000830152613f7181613a75565b9050919050565b60006020820190508181036000830152613f9181613a98565b9050919050565b60006020820190508181036000830152613fb181613abb565b9050919050565b60006020820190508181036000830152613fd181613ade565b9050919050565b60006020820190508181036000830152613ff181613b01565b9050919050565b600060208201905081810360008301526140128184613b24565b905092915050565b600060208201905061402f6000830184613b96565b92915050565b600060408201905061404a6000830185613b96565b818103602083015261405c818461372c565b90509392505050565b600060408201905061407a6000830185613b96565b6140876020830184613b96565b9392505050565b60006140986140a9565b90506140a482826143b1565b919050565b6000604051905090565b600067ffffffffffffffff8211156140ce576140cd6144b8565b5b6140d7826144e7565b9050602081019050919050565b600067ffffffffffffffff8211156140ff576140fe6144b8565b5b614108826144e7565b9050602081019050919050565b6000819050602082019050919050565b600081519050919050565b600081519050919050565b600081519050919050565b6000602082019050919050565b600082825260208201905092915050565b600082825260208201905092915050565b600082825260208201905092915050565b600082825260208201905092915050565b600081905092915050565b60006141ad82614333565b91506141b883614333565b9250827fffffffffffffffffffffffffffffffffffffffffffffffffffffffffffffffff038211156141ed576141ec61442b565b5b828201905092915050565b600061420382614333565b915061420e83614333565b92508261421e5761421d61445a565b5b828204905092915050565b600061423482614333565b915061423f83614333565b9250817fffffffffffffffffffffffffffffffffffffffffffffffffffffffffffffffff04831182151516156142785761427761442b565b5b828202905092915050565b600061428e82614333565b915061429983614333565b9250828210156142ac576142ab61442b565b5b828203905092915050565b60006142c282614313565b9050919050565b60006142d482614313565b9050919050565b60008115159050919050565b60007fffffffff0000000000000000000000000000000000000000000000000000000082169050919050565b600073ffffffffffffffffffffffffffffffffffffffff82169050919050565b6000819050919050565b82818337600083830152505050565b60005b8381101561436a57808201518184015260208101905061434f565b83811115614379576000848401525b50505050565b6000600282049050600182168061439757607f821691505b602082108114156143ab576143aa614489565b5b50919050565b6143ba826144e7565b810181811067ffffffffffffffff821117156143d9576143d86144b8565b5b80604052505050565b60006143ed82614333565b91507fffffffffffffffffffffffffffffffffffffffffffffffffffffffffffffffff8214156144205761441f61442b565b5b600182019050919050565b7f4e487b7100000000000000000000000000000000000000000000000000000000600052601160045260246000fd5b7f4e487b7100000000000000000000000000000000000000000000000000000000600052601260045260246000fd5b7f4e487b7100000000000000000000000000000000000000000000000000000000600052602260045260246000fd5b7f4e487b7100000000000000000000000000000000000000000000000000000000600052604160045260246000fd5b6000601f19601f8301169050919050565b7f4552433732313a2063616c6c6572206973206e6f7420746f6b656e206f776e6560008201527f72206f7220617070726f76656400000000000000000000000000000000000000602082015250565b7f496e76616c696420616464726573730000000000000000000000000000000000600082015250565b7f4d7573742077616974206265666f7265206372656174696e6720616e6f74686560008201527f7220636f6c6c656374696f6e0000000000000000000000000000000000000000602082015250565b7f4552433732313a207472616e7366657220746f206e6f6e20455243373231526560008201527f63656976657220696d706c656d656e7465720000000000000000000000000000602082015250565b7f5072696365206d757374206265206174206c65617374204d494e5f5052494345600082015250565b7f4f776e61626c653a206e6577206f776e657220697320746865207a65726f206160008201527f6464726573730000000000000000000000000000000000000000000000000000602082015250565b7f4552433732313a207472616e736665722066726f6d20696e636f72726563742060008201527f6f776e6572000000000000000000000000000000000000000000000000000000602082015250565b7f4552433732313a20746f6b656e20616c7265616479206d696e74656400000000600082015250565b7f436f6c6c656374696f6e20646f6573206e6f7420657869737400000000000000600082015250565b7f526f79616c746965732070657263656e746167652073686f756c64206265206c60008201527f657373207468616e203130300000000000000000000000000000000000000000602082015250565b7f4e6f7420746865206f776e6572206f662074686520636f6c6c656374696f6e00600082015250565b7f4552433732313a207472616e7366657220746f20746865207a65726f2061646460008201527f7265737300000000000000000000000000000000000000000000000000000000602082015250565b7f4552433732313a20617070726f766520746f2063616c6c657200000000000000600082015250565b7f546f6b656e20646f6573206e6f742062656c6f6e6720746f20616e7920636f6c60008201527f6c656374696f6e00000000000000000000000000000000000000000000000000602082015250565b7f4d617820636f6c6c656374696f6e732072656163686564000000000000000000600082015250565b7f546f6b656e2069732063757272656e746c79206c697374656420666f7220736160008201527f6c65000000000000000000000000000000000000000000000000000000000000602082015250565b7f4552433732313a2061646472657373207a65726f206973206e6f74206120766160008201527f6c6964206f776e65720000000000000000000000000000000000000000000000602082015250565b7f45524337323155524953746f726167653a2055524920736574206f66206e6f6e60008201527f6578697374656e7420746f6b656e000000000000000000000000000000000000602082015250565b7f4552433732313a206d696e7420746f20746865207a65726f2061646472657373600082015250565b7f4f776e61626c653a2063616c6c6572206973206e6f7420746865206f776e6572600082015250565b7f4d61726b6574706c61636520616464726573732068617320616c72656164792060008201527f6265656e20736574000000000000000000000000000000000000000000000000602082015250565b7f4552433732313a20696e76616c696420746f6b656e2049440000000000000000600082015250565b7f4552433732313a20617070726f76616c20746f2063757272656e74206f776e6560008201527f7200000000000000000000000000000000000000000000000000000000000000602082015250565b7f4552433732313a20617070726f76652063616c6c6572206973206e6f7420746f60008201527f6b656e206f776e6572206f7220617070726f76656420666f7220616c6c000000602082015250565b7f4552433732313a207472616e736665722063616c6c6572206973206e6f74206f60008201527f776e6572206e6f7220617070726f766564000000000000000000000000000000602082015250565b7f436f6c6c656374696f6e206973206e6f742079657420617661696c61626c652060008201527f666f72206d696e74696e67000000000000000000000000000000000000000000602082015250565b614b8b816142b7565b8114614b9657600080fd5b50565b614ba2816142c9565b8114614bad57600080fd5b50565b614bb9816142db565b8114614bc457600080fd5b50565b614bd0816142e7565b8114614bdb57600080fd5b50565b614be781614333565b8114614bf257600080fd5b5056fea264697066735822122096e0febfa5349a173c354dcbbf893b7b7566abe1dd251a5a34166ae74deba44964736f6c63430008010033",
  "linkReferences": {},
  "deployedLinkReferences": {}
}