{
  "_format": "hh-sol-artifact-1",
  "contractName": "ERC721Collections",
  "sourceName": "contracts/ERC721Collections.sol",
  "abi": [
    {
      "inputs": [],
      "stateMutability": "nonpayable",
      "type": "constructor"
    },
    {
      "anonymous": false,
      "inputs": [
        {
          "indexed": true,
          "internalType": "address",
          "name": "owner",
          "type": "address"
        },
        {
          "indexed": true,
          "internalType": "address",
          "name": "approved",
          "type": "address"
        },
        {
          "indexed": true,
          "internalType": "uint256",
          "name": "tokenId",
          "type": "uint256"
        }
      ],
      "name": "Approval",
      "type": "event"
    },
    {
      "anonymous": false,
      "inputs": [
        {
          "indexed": true,
          "internalType": "address",
          "name": "owner",
          "type": "address"
        },
        {
          "indexed": true,
          "internalType": "address",
          "name": "operator",
          "type": "address"
        },
        {
          "indexed": false,
          "internalType": "bool",
          "name": "approved",
          "type": "bool"
        }
      ],
      "name": "ApprovalForAll",
      "type": "event"
    },
    {
      "anonymous": false,
      "inputs": [
        {
          "indexed": false,
          "internalType": "uint256",
          "name": "_fromTokenId",
          "type": "uint256"
        },
        {
          "indexed": false,
          "internalType": "uint256",
          "name": "_toTokenId",
          "type": "uint256"
        }
      ],
      "name": "BatchMetadataUpdate",
      "type": "event"
    },
    {
      "anonymous": false,
      "inputs": [
        {
          "indexed": false,
          "internalType": "uint256",
          "name": "id",
          "type": "uint256"
        },
        {
          "indexed": false,
          "internalType": "string",
          "name": "name",
          "type": "string"
        }
      ],
      "name": "CollectionCreated",
      "type": "event"
    },
    {
      "anonymous": false,
      "inputs": [
        {
          "indexed": false,
          "internalType": "uint256",
          "name": "_tokenId",
          "type": "uint256"
        }
      ],
      "name": "MetadataUpdate",
      "type": "event"
    },
    {
      "anonymous": false,
      "inputs": [
        {
          "indexed": true,
          "internalType": "address",
          "name": "previousOwner",
          "type": "address"
        },
        {
          "indexed": true,
          "internalType": "address",
          "name": "newOwner",
          "type": "address"
        }
      ],
      "name": "OwnershipTransferred",
      "type": "event"
    },
    {
      "anonymous": false,
      "inputs": [
        {
          "indexed": false,
          "internalType": "uint256",
          "name": "tokenId",
          "type": "uint256"
        },
        {
          "indexed": false,
          "internalType": "uint256",
          "name": "price",
          "type": "uint256"
        }
      ],
      "name": "PriceSet",
      "type": "event"
    },
    {
      "anonymous": false,
      "inputs": [
        {
          "indexed": false,
          "internalType": "uint256",
          "name": "tokenId",
          "type": "uint256"
        },
        {
          "indexed": false,
          "internalType": "uint256",
          "name": "collectionId",
          "type": "uint256"
        }
      ],
      "name": "TokenMinted",
      "type": "event"
    },
    {
      "anonymous": false,
      "inputs": [
        {
          "indexed": true,
          "internalType": "address",
          "name": "from",
          "type": "address"
        },
        {
          "indexed": true,
          "internalType": "address",
          "name": "to",
          "type": "address"
        },
        {
          "indexed": true,
          "internalType": "uint256",
          "name": "tokenId",
          "type": "uint256"
        }
      ],
      "name": "Transfer",
      "type": "event"
    },
    {
      "inputs": [],
      "name": "MAX_PRICE",
      "outputs": [
        {
          "internalType": "uint256",
          "name": "",
          "type": "uint256"
        }
      ],
      "stateMutability": "view",
      "type": "function"
    },
    {
      "inputs": [],
      "name": "MIN_PRICE",
      "outputs": [
        {
          "internalType": "uint256",
          "name": "",
          "type": "uint256"
        }
      ],
      "stateMutability": "view",
      "type": "function"
    },
    {
      "inputs": [
        {
          "internalType": "address",
          "name": "to",
          "type": "address"
        },
        {
          "internalType": "uint256",
          "name": "tokenId",
          "type": "uint256"
        }
      ],
      "name": "approve",
      "outputs": [],
      "stateMutability": "nonpayable",
      "type": "function"
    },
    {
      "inputs": [
        {
          "internalType": "address",
          "name": "owner",
          "type": "address"
        }
      ],
      "name": "balanceOf",
      "outputs": [
        {
          "internalType": "uint256",
          "name": "",
          "type": "uint256"
        }
      ],
      "stateMutability": "view",
      "type": "function"
    },
    {
      "inputs": [
        {
          "internalType": "address",
          "name": "",
          "type": "address"
        }
      ],
      "name": "collectionsCreated",
      "outputs": [
        {
          "internalType": "uint256",
          "name": "",
          "type": "uint256"
        }
      ],
      "stateMutability": "view",
      "type": "function"
    },
    {
      "inputs": [
        {
          "internalType": "string",
          "name": "name",
          "type": "string"
        }
      ],
      "name": "createCollection",
      "outputs": [
        {
          "internalType": "uint256",
          "name": "",
          "type": "uint256"
        }
      ],
      "stateMutability": "nonpayable",
      "type": "function"
    },
    {
      "inputs": [
        {
          "internalType": "uint256",
          "name": "tokenId",
          "type": "uint256"
        }
      ],
      "name": "getApproved",
      "outputs": [
        {
          "internalType": "address",
          "name": "",
          "type": "address"
        }
      ],
      "stateMutability": "view",
      "type": "function"
    },
    {
      "inputs": [
        {
          "internalType": "uint256",
          "name": "id",
          "type": "uint256"
        }
      ],
      "name": "getCollection",
      "outputs": [
        {
          "components": [
            {
              "internalType": "string",
              "name": "name",
              "type": "string"
            },
            {
              "internalType": "uint256",
              "name": "id",
              "type": "uint256"
            },
            {
              "internalType": "address",
              "name": "owner",
              "type": "address"
            }
          ],
          "internalType": "struct ERC721Collections.Collection",
          "name": "",
          "type": "tuple"
        }
      ],
      "stateMutability": "view",
      "type": "function"
    },
    {
      "inputs": [
        {
          "internalType": "uint256",
          "name": "tokenId",
          "type": "uint256"
        }
      ],
      "name": "getCollectionOfToken",
      "outputs": [
        {
          "internalType": "uint256",
          "name": "",
          "type": "uint256"
        }
      ],
      "stateMutability": "view",
      "type": "function"
    },
    {
      "inputs": [
        {
          "internalType": "uint256",
          "name": "collectionId",
          "type": "uint256"
        }
      ],
      "name": "getNFTsInCollection",
      "outputs": [
        {
          "internalType": "uint256[]",
          "name": "",
          "type": "uint256[]"
        }
      ],
      "stateMutability": "view",
      "type": "function"
    },
    {
      "inputs": [
        {
          "internalType": "uint256",
          "name": "tokenId",
          "type": "uint256"
        }
      ],
      "name": "getPrice",
      "outputs": [
        {
          "internalType": "uint256",
          "name": "",
          "type": "uint256"
        }
      ],
      "stateMutability": "view",
      "type": "function"
    },
    {
      "inputs": [
        {
          "internalType": "address",
          "name": "owner",
          "type": "address"
        },
        {
          "internalType": "address",
          "name": "operator",
          "type": "address"
        }
      ],
      "name": "isApprovedForAll",
      "outputs": [
        {
          "internalType": "bool",
          "name": "",
          "type": "bool"
        }
      ],
      "stateMutability": "view",
      "type": "function"
    },
    {
      "inputs": [
        {
          "internalType": "address",
          "name": "",
          "type": "address"
        }
      ],
      "name": "lastCollectionTimestamp",
      "outputs": [
        {
          "internalType": "uint256",
          "name": "",
          "type": "uint256"
        }
      ],
      "stateMutability": "view",
      "type": "function"
    },
    {
      "inputs": [
        {
          "internalType": "uint256",
          "name": "collectionId",
          "type": "uint256"
        },
        {
          "internalType": "string",
          "name": "tokenURI",
          "type": "string"
        },
        {
          "internalType": "uint256",
          "name": "price",
          "type": "uint256"
        }
      ],
      "name": "mint",
      "outputs": [
        {
          "internalType": "uint256",
          "name": "",
          "type": "uint256"
        }
      ],
      "stateMutability": "nonpayable",
      "type": "function"
    },
    {
      "inputs": [],
      "name": "name",
      "outputs": [
        {
          "internalType": "string",
          "name": "",
          "type": "string"
        }
      ],
      "stateMutability": "view",
      "type": "function"
    },
    {
      "inputs": [],
      "name": "owner",
      "outputs": [
        {
          "internalType": "address",
          "name": "",
          "type": "address"
        }
      ],
      "stateMutability": "view",
      "type": "function"
    },
    {
      "inputs": [
        {
          "internalType": "uint256",
          "name": "tokenId",
          "type": "uint256"
        }
      ],
      "name": "ownerOf",
      "outputs": [
        {
          "internalType": "address",
          "name": "",
          "type": "address"
        }
      ],
      "stateMutability": "view",
      "type": "function"
    },
    {
      "inputs": [],
      "name": "renounceOwnership",
      "outputs": [],
      "stateMutability": "nonpayable",
      "type": "function"
    },
    {
      "inputs": [
        {
          "internalType": "address",
          "name": "from",
          "type": "address"
        },
        {
          "internalType": "address",
          "name": "to",
          "type": "address"
        },
        {
          "internalType": "uint256",
          "name": "tokenId",
          "type": "uint256"
        }
      ],
      "name": "safeTransferFrom",
      "outputs": [],
      "stateMutability": "nonpayable",
      "type": "function"
    },
    {
      "inputs": [
        {
          "internalType": "address",
          "name": "from",
          "type": "address"
        },
        {
          "internalType": "address",
          "name": "to",
          "type": "address"
        },
        {
          "internalType": "uint256",
          "name": "tokenId",
          "type": "uint256"
        },
        {
          "internalType": "bytes",
          "name": "data",
          "type": "bytes"
        }
      ],
      "name": "safeTransferFrom",
      "outputs": [],
      "stateMutability": "nonpayable",
      "type": "function"
    },
    {
      "inputs": [
        {
          "internalType": "address",
          "name": "operator",
          "type": "address"
        },
        {
          "internalType": "bool",
          "name": "approved",
          "type": "bool"
        }
      ],
      "name": "setApprovalForAll",
      "outputs": [],
      "stateMutability": "nonpayable",
      "type": "function"
    },
    {
      "inputs": [
        {
          "internalType": "address payable",
          "name": "marketplaceAddress",
          "type": "address"
        }
      ],
      "name": "setMarketplace",
      "outputs": [],
      "stateMutability": "nonpayable",
      "type": "function"
    },
    {
      "inputs": [
        {
          "internalType": "uint256",
          "name": "tokenId",
          "type": "uint256"
        },
        {
          "internalType": "uint256",
          "name": "price",
          "type": "uint256"
        }
      ],
      "name": "setPrice",
      "outputs": [
        {
          "internalType": "uint256",
          "name": "",
          "type": "uint256"
        }
      ],
      "stateMutability": "nonpayable",
      "type": "function"
    },
    {
      "inputs": [
        {
          "internalType": "bytes4",
          "name": "interfaceId",
          "type": "bytes4"
        }
      ],
      "name": "supportsInterface",
      "outputs": [
        {
          "internalType": "bool",
          "name": "",
          "type": "bool"
        }
      ],
      "stateMutability": "view",
      "type": "function"
    },
    {
      "inputs": [],
      "name": "symbol",
      "outputs": [
        {
          "internalType": "string",
          "name": "",
          "type": "string"
        }
      ],
      "stateMutability": "view",
      "type": "function"
    },
    {
      "inputs": [
        {
          "internalType": "uint256",
          "name": "tokenId",
          "type": "uint256"
        }
      ],
      "name": "tokenURI",
      "outputs": [
        {
          "internalType": "string",
          "name": "",
          "type": "string"
        }
      ],
      "stateMutability": "view",
      "type": "function"
    },
    {
      "inputs": [
        {
          "internalType": "address",
          "name": "from",
          "type": "address"
        },
        {
          "internalType": "address",
          "name": "to",
          "type": "address"
        },
        {
          "internalType": "uint256",
          "name": "tokenId",
          "type": "uint256"
        }
      ],
      "name": "transferFrom",
      "outputs": [],
      "stateMutability": "nonpayable",
      "type": "function"
    },
    {
      "inputs": [
        {
          "internalType": "address",
          "name": "newOwner",
          "type": "address"
        }
      ],
      "name": "transferOwnership",
      "outputs": [],
      "stateMutability": "nonpayable",
      "type": "function"
    }
  ],
  "bytecode": "0x60806040523480156200001157600080fd5b506040518060400160405280601181526020017f455243373231436f6c6c656374696f6e730000000000000000000000000000008152506040518060400160405280600381526020017f5354520000000000000000000000000000000000000000000000000000000000815250816000908051906020019062000096929190620001a6565b508060019080519060200190620000af929190620001a6565b505050620000d2620000c6620000d860201b60201c565b620000e060201b60201c565b620002bb565b600033905090565b6000600760009054906101000a900473ffffffffffffffffffffffffffffffffffffffff16905081600760006101000a81548173ffffffffffffffffffffffffffffffffffffffff021916908373ffffffffffffffffffffffffffffffffffffffff1602179055508173ffffffffffffffffffffffffffffffffffffffff168173ffffffffffffffffffffffffffffffffffffffff167f8be0079c531659141344cd1fd0a4f28419497f9722a3daafe3b4186f6b6457e060405160405180910390a35050565b828054620001b49062000256565b90600052602060002090601f016020900481019282620001d8576000855562000224565b82601f10620001f357805160ff191683800117855562000224565b8280016001018555821562000224579182015b828111156200022357825182559160200191906001019062000206565b5b50905062000233919062000237565b5090565b5b808211156200025257600081600090555060010162000238565b5090565b600060028204905060018216806200026f57607f821691505b602082108114156200028657620002856200028c565b5b50919050565b7f4e487b7100000000000000000000000000000000000000000000000000000000600052602260045260246000fd5b61439080620002cb6000396000f3fe608060405234801561001057600080fd5b50600436106101c45760003560e01c80638da5cb5b116100f9578063c87b56dd11610097578063e757223011610071578063e757223014610551578063e985e9c514610581578063f2fde38b146105b1578063f7d97577146105cd576101c4565b8063c87b56dd146104c1578063cae98f2b146104f1578063da0277fd14610521576101c4565b8063acca6b31116100d3578063acca6b3114610427578063ad9f20a614610457578063b88d4fde14610475578063bd6fbad914610491576101c4565b80638da5cb5b146103cf57806395d89b41146103ed578063a22cb4651461040b576101c4565b806342842e0e1161016657806370a082311161014057806370a0823114610349578063715018a61461037957806373ad6c2d1461038357806382a17cdb1461039f576101c4565b806342842e0e146102cd5780635a1f3c28146102e95780636352211e14610319576101c4565b806306fdde03116101a257806306fdde0314610247578063081812fc14610265578063095ea7b31461029557806323b872dd146102b1576101c4565b806301c11d96146101c957806301ffc9a7146101e7578063059dfe1314610217575b600080fd5b6101d16105fd565b6040516101de9190613931565b60405180910390f35b61020160048036038101906101fc9190612e91565b61060b565b60405161020e91906135d2565b60405180910390f35b610231600480360381019061022c9190612ee3565b61066c565b60405161023e9190613931565b60405180910390f35b61024f61093c565b60405161025c91906135ed565b60405180910390f35b61027f600480360381019061027a9190612f24565b6109ce565b60405161028c9190613549565b60405180910390f35b6102af60048036038101906102aa9190612e2c565b610a14565b005b6102cb60048036038101906102c69190612d26565b610b2c565b005b6102e760048036038101906102e29190612d26565b610b8c565b005b61030360048036038101906102fe9190612f24565b610bac565b604051610310919061390f565b60405180910390f35b610333600480360381019061032e9190612f24565b610ccb565b6040516103409190613549565b60405180910390f35b610363600480360381019061035e9190612c98565b610d52565b6040516103709190613931565b60405180910390f35b610381610e0a565b005b61039d60048036038101906103989190612cc1565b610e1e565b005b6103b960048036038101906103b49190612c98565b610f6b565b6040516103c69190613931565b60405180910390f35b6103d7610f83565b6040516103e49190613549565b60405180910390f35b6103f5610fad565b60405161040291906135ed565b60405180910390f35b61042560048036038101906104209190612df0565b61103f565b005b610441600480360381019061043c9190612f4d565b611055565b60405161044e9190613931565b60405180910390f35b61045f6112c6565b60405161046c9190613931565b60405180910390f35b61048f600480360381019061048a9190612d75565b6112d1565b005b6104ab60048036038101906104a69190612c98565b611333565b6040516104b89190613931565b60405180910390f35b6104db60048036038101906104d69190612f24565b61134b565b6040516104e891906135ed565b60405180910390f35b61050b60048036038101906105069190612f24565b61145e565b60405161051891906135b0565b60405180910390f35b61053b60048036038101906105369190612f24565b6114c9565b6040516105489190613931565b60405180910390f35b61056b60048036038101906105669190612f24565b6114e6565b6040516105789190613931565b60405180910390f35b61059b60048036038101906105969190612cea565b611503565b6040516105a891906135d2565b60405180910390f35b6105cb60048036038101906105c69190612c98565b611597565b005b6105e760048036038101906105e29190612fb4565b61161b565b6040516105f49190613931565b60405180910390f35b69021e19e0c9bab240000081565b6000634906490660e01b7bffffffffffffffffffffffffffffffffffffffffffffffffffffffff1916827bffffffffffffffffffffffffffffffffffffffffffffffffffffffff1916148061066557506106648261185c565b5b9050919050565b60006103e7600f60003373ffffffffffffffffffffffffffffffffffffffff1673ffffffffffffffffffffffffffffffffffffffff16815260200190815260200160002054106106f1576040517f08c379a00000000000000000000000000000000000000000000000000000000081526004016106e89061378f565b60405180910390fd5b42603c601060003373ffffffffffffffffffffffffffffffffffffffff1673ffffffffffffffffffffffffffffffffffffffff1681526020019081526020016000205461073e9190613ab9565b111561077f576040517f08c379a00000000000000000000000000000000000000000000000000000000081526004016107769061364f565b60405180910390fd5b610789600961193e565b60405180606001604052808381526020016107a46009611954565b81526020013373ffffffffffffffffffffffffffffffffffffffff16815250600b60006107d16009611954565b815260200190815260200160002060008201518160000190805190602001906107fb929190612a5b565b506020820151816001015560408201518160020160006101000a81548173ffffffffffffffffffffffffffffffffffffffff021916908373ffffffffffffffffffffffffffffffffffffffff160217905550905050600f60003373ffffffffffffffffffffffffffffffffffffffff1673ffffffffffffffffffffffffffffffffffffffff16815260200190815260200160002060008154809291906108a090613c3a565b919050555042601060003373ffffffffffffffffffffffffffffffffffffffff1673ffffffffffffffffffffffffffffffffffffffff168152602001908152602001600020819055507f62b7b5ba11bfc95430fab0460fdf99b9c8fbc2b3a6a48caf79c3ee1b591c03366109146009611954565b8360405161092392919061394c565b60405180910390a16109356009611954565b9050919050565b60606000805461094b90613bd7565b80601f016020809104026020016040519081016040528092919081815260200182805461097790613bd7565b80156109c45780601f10610999576101008083540402835291602001916109c4565b820191906000526020600020905b8154815290600101906020018083116109a757829003601f168201915b5050505050905090565b60006109d982611962565b6004600083815260200190815260200160002060009054906101000a900473ffffffffffffffffffffffffffffffffffffffff169050919050565b6000610a1f82610ccb565b90508073ffffffffffffffffffffffffffffffffffffffff168373ffffffffffffffffffffffffffffffffffffffff161415610a90576040517f08c379a0000000000000000000000000000000000000000000000000000000008152600401610a87906138af565b60405180910390fd5b8073ffffffffffffffffffffffffffffffffffffffff16610aaf6119ad565b73ffffffffffffffffffffffffffffffffffffffff161480610ade5750610add81610ad86119ad565b611503565b5b610b1d576040517f08c379a0000000000000000000000000000000000000000000000000000000008152600401610b14906138cf565b60405180910390fd5b610b2783836119b5565b505050565b610b3d610b376119ad565b82611a6e565b610b7c576040517f08c379a0000000000000000000000000000000000000000000000000000000008152600401610b739061360f565b60405180910390fd5b610b87838383611b03565b505050565b610ba7838383604051806020016040528060008152506112d1565b505050565b610bb4612ae1565b600b6000838152602001908152602001600020604051806060016040529081600082018054610be290613bd7565b80601f0160208091040260200160405190810160405280929190818152602001828054610c0e90613bd7565b8015610c5b5780601f10610c3057610100808354040283529160200191610c5b565b820191906000526020600020905b815481529060010190602001808311610c3e57829003601f168201915b50505050508152602001600182015481526020016002820160009054906101000a900473ffffffffffffffffffffffffffffffffffffffff1673ffffffffffffffffffffffffffffffffffffffff1673ffffffffffffffffffffffffffffffffffffffff16815250509050919050565b600080610cd783611dfd565b9050600073ffffffffffffffffffffffffffffffffffffffff168173ffffffffffffffffffffffffffffffffffffffff161415610d49576040517f08c379a0000000000000000000000000000000000000000000000000000000008152600401610d409061388f565b60405180910390fd5b80915050919050565b60008073ffffffffffffffffffffffffffffffffffffffff168273ffffffffffffffffffffffffffffffffffffffff161415610dc3576040517f08c379a0000000000000000000000000000000000000000000000000000000008152600401610dba906137cf565b60405180910390fd5b600360008373ffffffffffffffffffffffffffffffffffffffff1673ffffffffffffffffffffffffffffffffffffffff168152602001908152602001600020549050919050565b610e12611e3a565b610e1c6000611eb8565b565b610e26611e3a565b600073ffffffffffffffffffffffffffffffffffffffff16600a60009054906101000a900473ffffffffffffffffffffffffffffffffffffffff1673ffffffffffffffffffffffffffffffffffffffff1614610eb7576040517f08c379a0000000000000000000000000000000000000000000000000000000008152600401610eae9061386f565b60405180910390fd5b600073ffffffffffffffffffffffffffffffffffffffff168173ffffffffffffffffffffffffffffffffffffffff161415610f27576040517f08c379a0000000000000000000000000000000000000000000000000000000008152600401610f1e9061362f565b60405180910390fd5b80600a60006101000a81548173ffffffffffffffffffffffffffffffffffffffff021916908373ffffffffffffffffffffffffffffffffffffffff16021790555050565b60106020528060005260406000206000915090505481565b6000600760009054906101000a900473ffffffffffffffffffffffffffffffffffffffff16905090565b606060018054610fbc90613bd7565b80601f0160208091040260200160405190810160405280929190818152602001828054610fe890613bd7565b80156110355780601f1061100a57610100808354040283529160200191611035565b820191906000526020600020905b81548152906001019060200180831161101857829003601f168201915b5050505050905090565b61105161104a6119ad565b8383611f7e565b5050565b6000662386f26fc100008210156110a1576040517f08c379a00000000000000000000000000000000000000000000000000000000081526004016110989061368f565b60405180910390fd5b69021e19e0c9bab24000008211156110ee576040517f08c379a00000000000000000000000000000000000000000000000000000000081526004016110e59061380f565b60405180910390fd5b6000600b6000868152602001908152602001600020600101541415611148576040517f08c379a000000000000000000000000000000000000000000000000000000000815260040161113f9061370f565b60405180910390fd5b3373ffffffffffffffffffffffffffffffffffffffff16600b600086815260200190815260200160002060020160009054906101000a900473ffffffffffffffffffffffffffffffffffffffff1673ffffffffffffffffffffffffffffffffffffffff16146111ec576040517f08c379a00000000000000000000000000000000000000000000000000000000081526004016111e39061372f565b60405180910390fd5b60006111f86008611954565b9050611204600861193e565b61120e33826120eb565b6112188185612309565b84600d600083815260200190815260200160002081905550600c600086815260200190815260200160002081908060018154018082558091505060019003906000526020600020016000909190919091505582600e6000838152602001908152602001600020819055507f5f7666687319b40936f33c188908d86aea154abd3f4127b4fa0a3f04f303c7da81866040516112b392919061397c565b60405180910390a1809150509392505050565b662386f26fc1000081565b6112e26112dc6119ad565b83611a6e565b611321576040517f08c379a00000000000000000000000000000000000000000000000000000000081526004016113189061360f565b60405180910390fd5b61132d848484846123b4565b50505050565b600f6020528060005260406000206000915090505481565b606061135682611962565b600060066000848152602001908152602001600020805461137690613bd7565b80601f01602080910402602001604051908101604052809291908181526020018280546113a290613bd7565b80156113ef5780601f106113c4576101008083540402835291602001916113ef565b820191906000526020600020905b8154815290600101906020018083116113d257829003601f168201915b505050505090506000611400612410565b9050600081511415611416578192505050611459565b60008251111561144b578082604051602001611433929190613525565b60405160208183030381529060405292505050611459565b61145484612427565b925050505b919050565b6060600c60008381526020019081526020016000208054806020026020016040519081016040528092919081815260200182805480156114bd57602002820191906000526020600020905b8154815260200190600101908083116114a9575b50505050509050919050565b6000600d6000838152602001908152602001600020549050919050565b6000600e6000838152602001908152602001600020549050919050565b6000600560008473ffffffffffffffffffffffffffffffffffffffff1673ffffffffffffffffffffffffffffffffffffffff16815260200190815260200160002060008373ffffffffffffffffffffffffffffffffffffffff1673ffffffffffffffffffffffffffffffffffffffff16815260200190815260200160002060009054906101000a900460ff16905092915050565b61159f611e3a565b600073ffffffffffffffffffffffffffffffffffffffff168173ffffffffffffffffffffffffffffffffffffffff16141561160f576040517f08c379a0000000000000000000000000000000000000000000000000000000008152600401611606906136af565b60405180910390fd5b61161881611eb8565b50565b6000662386f26fc10000821015611667576040517f08c379a000000000000000000000000000000000000000000000000000000000815260040161165e9061368f565b60405180910390fd5b69021e19e0c9bab24000008211156116b4576040517f08c379a00000000000000000000000000000000000000000000000000000000081526004016116ab9061380f565b60405180910390fd5b6116c56116bf6119ad565b84611a6e565b611704576040517f08c379a00000000000000000000000000000000000000000000000000000000081526004016116fb906138ef565b60405180910390fd5b600a60009054906101000a900473ffffffffffffffffffffffffffffffffffffffff1673ffffffffffffffffffffffffffffffffffffffff16639b83cddc846040518263ffffffff1660e01b815260040161175f9190613931565b60206040518083038186803b15801561177757600080fd5b505afa15801561178b573d6000803e3d6000fd5b505050506040513d601f19601f820116820180604052508101906117af9190612e68565b156117ef576040517f08c379a00000000000000000000000000000000000000000000000000000000081526004016117e6906137af565b60405180910390fd5b81600e6000858152602001908152602001600020819055507fa0f1665b7b659537b52deec61ea64d134a3bccda74c7f4e79f2246e7a8187a8a838360405161183892919061397c565b60405180910390a1600e600084815260200190815260200160002054905092915050565b60007f80ac58cd000000000000000000000000000000000000000000000000000000007bffffffffffffffffffffffffffffffffffffffffffffffffffffffff1916827bffffffffffffffffffffffffffffffffffffffffffffffffffffffff1916148061192757507f5b5e139f000000000000000000000000000000000000000000000000000000007bffffffffffffffffffffffffffffffffffffffffffffffffffffffff1916827bffffffffffffffffffffffffffffffffffffffffffffffffffffffff1916145b8061193757506119368261248f565b5b9050919050565b6001816000016000828254019250508190555050565b600081600001549050919050565b61196b816124f9565b6119aa576040517f08c379a00000000000000000000000000000000000000000000000000000000081526004016119a19061388f565b60405180910390fd5b50565b600033905090565b816004600083815260200190815260200160002060006101000a81548173ffffffffffffffffffffffffffffffffffffffff021916908373ffffffffffffffffffffffffffffffffffffffff160217905550808273ffffffffffffffffffffffffffffffffffffffff16611a2883610ccb565b73ffffffffffffffffffffffffffffffffffffffff167f8c5be1e5ebec7d5bd14f71427d1e84f3dd0314c0f7b2291e5b200ac8c7c3b92560405160405180910390a45050565b600080611a7a83610ccb565b90508073ffffffffffffffffffffffffffffffffffffffff168473ffffffffffffffffffffffffffffffffffffffff161480611abc5750611abb8185611503565b5b80611afa57508373ffffffffffffffffffffffffffffffffffffffff16611ae2846109ce565b73ffffffffffffffffffffffffffffffffffffffff16145b91505092915050565b8273ffffffffffffffffffffffffffffffffffffffff16611b2382610ccb565b73ffffffffffffffffffffffffffffffffffffffff1614611b79576040517f08c379a0000000000000000000000000000000000000000000000000000000008152600401611b70906136cf565b60405180910390fd5b600073ffffffffffffffffffffffffffffffffffffffff168273ffffffffffffffffffffffffffffffffffffffff161415611be9576040517f08c379a0000000000000000000000000000000000000000000000000000000008152600401611be09061374f565b60405180910390fd5b611bf6838383600161253a565b8273ffffffffffffffffffffffffffffffffffffffff16611c1682610ccb565b73ffffffffffffffffffffffffffffffffffffffff1614611c6c576040517f08c379a0000000000000000000000000000000000000000000000000000000008152600401611c63906136cf565b60405180910390fd5b6004600082815260200190815260200160002060006101000a81549073ffffffffffffffffffffffffffffffffffffffff02191690556001600360008573ffffffffffffffffffffffffffffffffffffffff1673ffffffffffffffffffffffffffffffffffffffff168152602001908152602001600020600082825403925050819055506001600360008473ffffffffffffffffffffffffffffffffffffffff1673ffffffffffffffffffffffffffffffffffffffff16815260200190815260200160002060008282540192505081905550816002600083815260200190815260200160002060006101000a81548173ffffffffffffffffffffffffffffffffffffffff021916908373ffffffffffffffffffffffffffffffffffffffff160217905550808273ffffffffffffffffffffffffffffffffffffffff168473ffffffffffffffffffffffffffffffffffffffff167fddf252ad1be2c89b69c2b068fc378daa952ba7f163c4a11628f55a4df523b3ef60405160405180910390a4611df88383836001612540565b505050565b60006002600083815260200190815260200160002060009054906101000a900473ffffffffffffffffffffffffffffffffffffffff169050919050565b611e426119ad565b73ffffffffffffffffffffffffffffffffffffffff16611e60610f83565b73ffffffffffffffffffffffffffffffffffffffff1614611eb6576040517f08c379a0000000000000000000000000000000000000000000000000000000008152600401611ead9061384f565b60405180910390fd5b565b6000600760009054906101000a900473ffffffffffffffffffffffffffffffffffffffff16905081600760006101000a81548173ffffffffffffffffffffffffffffffffffffffff021916908373ffffffffffffffffffffffffffffffffffffffff1602179055508173ffffffffffffffffffffffffffffffffffffffff168173ffffffffffffffffffffffffffffffffffffffff167f8be0079c531659141344cd1fd0a4f28419497f9722a3daafe3b4186f6b6457e060405160405180910390a35050565b8173ffffffffffffffffffffffffffffffffffffffff168373ffffffffffffffffffffffffffffffffffffffff161415611fed576040517f08c379a0000000000000000000000000000000000000000000000000000000008152600401611fe49061376f565b60405180910390fd5b80600560008573ffffffffffffffffffffffffffffffffffffffff1673ffffffffffffffffffffffffffffffffffffffff16815260200190815260200160002060008473ffffffffffffffffffffffffffffffffffffffff1673ffffffffffffffffffffffffffffffffffffffff16815260200190815260200160002060006101000a81548160ff0219169083151502179055508173ffffffffffffffffffffffffffffffffffffffff168373ffffffffffffffffffffffffffffffffffffffff167f17307eab39ab6107e8899845ad3d59bd9653f200f220920489ca2b5937696c31836040516120de91906135d2565b60405180910390a3505050565b600073ffffffffffffffffffffffffffffffffffffffff168273ffffffffffffffffffffffffffffffffffffffff16141561215b576040517f08c379a00000000000000000000000000000000000000000000000000000000081526004016121529061382f565b60405180910390fd5b612164816124f9565b156121a4576040517f08c379a000000000000000000000000000000000000000000000000000000000815260040161219b906136ef565b60405180910390fd5b6121b260008383600161253a565b6121bb816124f9565b156121fb576040517f08c379a00000000000000000000000000000000000000000000000000000000081526004016121f2906136ef565b60405180910390fd5b6001600360008473ffffffffffffffffffffffffffffffffffffffff1673ffffffffffffffffffffffffffffffffffffffff16815260200190815260200160002060008282540192505081905550816002600083815260200190815260200160002060006101000a81548173ffffffffffffffffffffffffffffffffffffffff021916908373ffffffffffffffffffffffffffffffffffffffff160217905550808273ffffffffffffffffffffffffffffffffffffffff16600073ffffffffffffffffffffffffffffffffffffffff167fddf252ad1be2c89b69c2b068fc378daa952ba7f163c4a11628f55a4df523b3ef60405160405180910390a4612305600083836001612540565b5050565b612312826124f9565b612351576040517f08c379a0000000000000000000000000000000000000000000000000000000008152600401612348906137ef565b60405180910390fd5b80600660008481526020019081526020016000209080519060200190612378929190612a5b565b507ff8e1a15aba9398e019f0b49df1a4fde98ee17ae345cb5f6b5e2c27f5033e8ce7826040516123a89190613931565b60405180910390a15050565b6123bf848484611b03565b6123cb84848484612546565b61240a576040517f08c379a00000000000000000000000000000000000000000000000000000000081526004016124019061366f565b60405180910390fd5b50505050565b606060405180602001604052806000815250905090565b606061243282611962565b600061243c612410565b9050600081511161245c5760405180602001604052806000815250612487565b80612466846126dd565b604051602001612477929190613525565b6040516020818303038152906040525b915050919050565b60007f01ffc9a7000000000000000000000000000000000000000000000000000000007bffffffffffffffffffffffffffffffffffffffffffffffffffffffff1916827bffffffffffffffffffffffffffffffffffffffffffffffffffffffff1916149050919050565b60008073ffffffffffffffffffffffffffffffffffffffff1661251b83611dfd565b73ffffffffffffffffffffffffffffffffffffffff1614159050919050565b50505050565b50505050565b60006125678473ffffffffffffffffffffffffffffffffffffffff16612801565b156126d0578373ffffffffffffffffffffffffffffffffffffffff1663150b7a026125906119ad565b8786866040518563ffffffff1660e01b81526004016125b29493929190613564565b602060405180830381600087803b1580156125cc57600080fd5b505af19250505080156125fd57506040513d601f19601f820116820180604052508101906125fa9190612eba565b60015b612680573d806000811461262d576040519150601f19603f3d011682016040523d82523d6000602084013e612632565b606091505b50600081511415612678576040517f08c379a000000000000000000000000000000000000000000000000000000000815260040161266f9061366f565b60405180910390fd5b805181602001fd5b63150b7a0260e01b7bffffffffffffffffffffffffffffffffffffffffffffffffffffffff1916817bffffffffffffffffffffffffffffffffffffffffffffffffffffffff1916149150506126d5565b600190505b949350505050565b6060600060016126ec84612824565b01905060008167ffffffffffffffff811115612731577f4e487b7100000000000000000000000000000000000000000000000000000000600052604160045260246000fd5b6040519080825280601f01601f1916602001820160405280156127635781602001600182028036833780820191505090505b509050600082602001820190505b6001156127f6578080600190039150507f3031323334353637383961626364656600000000000000000000000000000000600a86061a8153600a85816127e0577f4e487b7100000000000000000000000000000000000000000000000000000000600052601260045260246000fd5b04945060008514156127f1576127f6565b612771565b819350505050919050565b6000808273ffffffffffffffffffffffffffffffffffffffff163b119050919050565b600080600090507a184f03e93ff9f4daa797ed6e38ed64bf6a1f01000000000000000083106128a8577a184f03e93ff9f4daa797ed6e38ed64bf6a1f010000000000000000838161289e577f4e487b7100000000000000000000000000000000000000000000000000000000600052601260045260246000fd5b0492506040810190505b6d04ee2d6d415b85acef8100000000831061290b576d04ee2d6d415b85acef81000000008381612901577f4e487b7100000000000000000000000000000000000000000000000000000000600052601260045260246000fd5b0492506020810190505b662386f26fc10000831061296057662386f26fc100008381612956577f4e487b7100000000000000000000000000000000000000000000000000000000600052601260045260246000fd5b0492506010810190505b6305f5e10083106129af576305f5e10083816129a5577f4e487b7100000000000000000000000000000000000000000000000000000000600052601260045260246000fd5b0492506008810190505b61271083106129fa5761271083816129f0577f4e487b7100000000000000000000000000000000000000000000000000000000600052601260045260246000fd5b0492506004810190505b60648310612a435760648381612a39577f4e487b7100000000000000000000000000000000000000000000000000000000600052601260045260246000fd5b0492506002810190505b600a8310612a52576001810190505b80915050919050565b828054612a6790613bd7565b90600052602060002090601f016020900481019282612a895760008555612ad0565b82601f10612aa257805160ff1916838001178555612ad0565b82800160010185558215612ad0579182015b82811115612acf578251825591602001919060010190612ab4565b5b509050612add9190612b18565b5090565b60405180606001604052806060815260200160008152602001600073ffffffffffffffffffffffffffffffffffffffff1681525090565b5b80821115612b31576000816000905550600101612b19565b5090565b6000612b48612b43846139ca565b6139a5565b905082815260208101848484011115612b6057600080fd5b612b6b848285613b95565b509392505050565b6000612b86612b81846139fb565b6139a5565b905082815260208101848484011115612b9e57600080fd5b612ba9848285613b95565b509392505050565b600081359050612bc0816142e7565b92915050565b600081359050612bd5816142fe565b92915050565b600081359050612bea81614315565b92915050565b600081519050612bff81614315565b92915050565b600081359050612c148161432c565b92915050565b600081519050612c298161432c565b92915050565b600082601f830112612c4057600080fd5b8135612c50848260208601612b35565b91505092915050565b600082601f830112612c6a57600080fd5b8135612c7a848260208601612b73565b91505092915050565b600081359050612c9281614343565b92915050565b600060208284031215612caa57600080fd5b6000612cb884828501612bb1565b91505092915050565b600060208284031215612cd357600080fd5b6000612ce184828501612bc6565b91505092915050565b60008060408385031215612cfd57600080fd5b6000612d0b85828601612bb1565b9250506020612d1c85828601612bb1565b9150509250929050565b600080600060608486031215612d3b57600080fd5b6000612d4986828701612bb1565b9350506020612d5a86828701612bb1565b9250506040612d6b86828701612c83565b9150509250925092565b60008060008060808587031215612d8b57600080fd5b6000612d9987828801612bb1565b9450506020612daa87828801612bb1565b9350506040612dbb87828801612c83565b925050606085013567ffffffffffffffff811115612dd857600080fd5b612de487828801612c2f565b91505092959194509250565b60008060408385031215612e0357600080fd5b6000612e1185828601612bb1565b9250506020612e2285828601612bdb565b9150509250929050565b60008060408385031215612e3f57600080fd5b6000612e4d85828601612bb1565b9250506020612e5e85828601612c83565b9150509250929050565b600060208284031215612e7a57600080fd5b6000612e8884828501612bf0565b91505092915050565b600060208284031215612ea357600080fd5b6000612eb184828501612c05565b91505092915050565b600060208284031215612ecc57600080fd5b6000612eda84828501612c1a565b91505092915050565b600060208284031215612ef557600080fd5b600082013567ffffffffffffffff811115612f0f57600080fd5b612f1b84828501612c59565b91505092915050565b600060208284031215612f3657600080fd5b6000612f4484828501612c83565b91505092915050565b600080600060608486031215612f6257600080fd5b6000612f7086828701612c83565b935050602084013567ffffffffffffffff811115612f8d57600080fd5b612f9986828701612c59565b9250506040612faa86828701612c83565b9150509250925092565b60008060408385031215612fc757600080fd5b6000612fd585828601612c83565b9250506020612fe685828601612c83565b9150509250929050565b6000612ffc8383613507565b60208301905092915050565b61301181613b0f565b82525050565b61302081613b0f565b82525050565b600061303182613a3c565b61303b8185613a6a565b935061304683613a2c565b8060005b8381101561307757815161305e8882612ff0565b975061306983613a5d565b92505060018101905061304a565b5085935050505092915050565b61308d81613b33565b82525050565b600061309e82613a47565b6130a88185613a7b565b93506130b8818560208601613ba4565b6130c181613d10565b840191505092915050565b60006130d782613a52565b6130e18185613a8c565b93506130f1818560208601613ba4565b6130fa81613d10565b840191505092915050565b600061311082613a52565b61311a8185613a9d565b935061312a818560208601613ba4565b61313381613d10565b840191505092915050565b600061314982613a52565b6131538185613aae565b9350613163818560208601613ba4565b80840191505092915050565b600061317c602d83613a9d565b915061318782613d21565b604082019050919050565b600061319f600f83613a9d565b91506131aa82613d70565b602082019050919050565b60006131c2602c83613a9d565b91506131cd82613d99565b604082019050919050565b60006131e5603283613a9d565b91506131f082613de8565b604082019050919050565b6000613208602083613a9d565b915061321382613e37565b602082019050919050565b600061322b602683613a9d565b915061323682613e60565b604082019050919050565b600061324e602583613a9d565b915061325982613eaf565b604082019050919050565b6000613271601c83613a9d565b915061327c82613efe565b602082019050919050565b6000613294601983613a9d565b915061329f82613f27565b602082019050919050565b60006132b7601f83613a9d565b91506132c282613f50565b602082019050919050565b60006132da602483613a9d565b91506132e582613f79565b604082019050919050565b60006132fd601983613a9d565b915061330882613fc8565b602082019050919050565b6000613320601783613a9d565b915061332b82613ff1565b602082019050919050565b6000613343602283613a9d565b915061334e8261401a565b604082019050919050565b6000613366602983613a9d565b915061337182614069565b604082019050919050565b6000613389602e83613a9d565b9150613394826140b8565b604082019050919050565b60006133ac601f83613a9d565b91506133b782614107565b602082019050919050565b60006133cf602083613a9d565b91506133da82614130565b602082019050919050565b60006133f2602083613a9d565b91506133fd82614159565b602082019050919050565b6000613415602883613a9d565b915061342082614182565b604082019050919050565b6000613438601883613a9d565b9150613443826141d1565b602082019050919050565b600061345b602183613a9d565b9150613466826141fa565b604082019050919050565b600061347e603d83613a9d565b915061348982614249565b604082019050919050565b60006134a1603183613a9d565b91506134ac82614298565b604082019050919050565b600060608301600083015184820360008601526134d482826130cc565b91505060208301516134e96020860182613507565b5060408301516134fc6040860182613008565b508091505092915050565b61351081613b8b565b82525050565b61351f81613b8b565b82525050565b6000613531828561313e565b915061353d828461313e565b91508190509392505050565b600060208201905061355e6000830184613017565b92915050565b60006080820190506135796000830187613017565b6135866020830186613017565b6135936040830185613516565b81810360608301526135a58184613093565b905095945050505050565b600060208201905081810360008301526135ca8184613026565b905092915050565b60006020820190506135e76000830184613084565b92915050565b600060208201905081810360008301526136078184613105565b905092915050565b600060208201905081810360008301526136288161316f565b9050919050565b6000602082019050818103600083015261364881613192565b9050919050565b60006020820190508181036000830152613668816131b5565b9050919050565b60006020820190508181036000830152613688816131d8565b9050919050565b600060208201905081810360008301526136a8816131fb565b9050919050565b600060208201905081810360008301526136c88161321e565b9050919050565b600060208201905081810360008301526136e881613241565b9050919050565b6000602082019050818103600083015261370881613264565b9050919050565b6000602082019050818103600083015261372881613287565b9050919050565b60006020820190508181036000830152613748816132aa565b9050919050565b60006020820190508181036000830152613768816132cd565b9050919050565b60006020820190508181036000830152613788816132f0565b9050919050565b600060208201905081810360008301526137a881613313565b9050919050565b600060208201905081810360008301526137c881613336565b9050919050565b600060208201905081810360008301526137e881613359565b9050919050565b600060208201905081810360008301526138088161337c565b9050919050565b600060208201905081810360008301526138288161339f565b9050919050565b60006020820190508181036000830152613848816133c2565b9050919050565b60006020820190508181036000830152613868816133e5565b9050919050565b6000602082019050818103600083015261388881613408565b9050919050565b600060208201905081810360008301526138a88161342b565b9050919050565b600060208201905081810360008301526138c88161344e565b9050919050565b600060208201905081810360008301526138e881613471565b9050919050565b6000602082019050818103600083015261390881613494565b9050919050565b6000602082019050818103600083015261392981846134b7565b905092915050565b60006020820190506139466000830184613516565b92915050565b60006040820190506139616000830185613516565b81810360208301526139738184613105565b90509392505050565b60006040820190506139916000830185613516565b61399e6020830184613516565b9392505050565b60006139af6139c0565b90506139bb8282613c09565b919050565b6000604051905090565b600067ffffffffffffffff8211156139e5576139e4613ce1565b5b6139ee82613d10565b9050602081019050919050565b600067ffffffffffffffff821115613a1657613a15613ce1565b5b613a1f82613d10565b9050602081019050919050565b6000819050602082019050919050565b600081519050919050565b600081519050919050565b600081519050919050565b6000602082019050919050565b600082825260208201905092915050565b600082825260208201905092915050565b600082825260208201905092915050565b600082825260208201905092915050565b600081905092915050565b6000613ac482613b8b565b9150613acf83613b8b565b9250827fffffffffffffffffffffffffffffffffffffffffffffffffffffffffffffffff03821115613b0457613b03613c83565b5b828201905092915050565b6000613b1a82613b6b565b9050919050565b6000613b2c82613b6b565b9050919050565b60008115159050919050565b60007fffffffff0000000000000000000000000000000000000000000000000000000082169050919050565b600073ffffffffffffffffffffffffffffffffffffffff82169050919050565b6000819050919050565b82818337600083830152505050565b60005b83811015613bc2578082015181840152602081019050613ba7565b83811115613bd1576000848401525b50505050565b60006002820490506001821680613bef57607f821691505b60208210811415613c0357613c02613cb2565b5b50919050565b613c1282613d10565b810181811067ffffffffffffffff82111715613c3157613c30613ce1565b5b80604052505050565b6000613c4582613b8b565b91507fffffffffffffffffffffffffffffffffffffffffffffffffffffffffffffffff821415613c7857613c77613c83565b5b600182019050919050565b7f4e487b7100000000000000000000000000000000000000000000000000000000600052601160045260246000fd5b7f4e487b7100000000000000000000000000000000000000000000000000000000600052602260045260246000fd5b7f4e487b7100000000000000000000000000000000000000000000000000000000600052604160045260246000fd5b6000601f19601f8301169050919050565b7f4552433732313a2063616c6c6572206973206e6f7420746f6b656e206f776e6560008201527f72206f7220617070726f76656400000000000000000000000000000000000000602082015250565b7f496e76616c696420616464726573730000000000000000000000000000000000600082015250565b7f4d7573742077616974206265666f7265206372656174696e6720616e6f74686560008201527f7220636f6c6c656374696f6e0000000000000000000000000000000000000000602082015250565b7f4552433732313a207472616e7366657220746f206e6f6e20455243373231526560008201527f63656976657220696d706c656d656e7465720000000000000000000000000000602082015250565b7f5072696365206d757374206265206174206c65617374204d494e5f5052494345600082015250565b7f4f776e61626c653a206e6577206f776e657220697320746865207a65726f206160008201527f6464726573730000000000000000000000000000000000000000000000000000602082015250565b7f4552433732313a207472616e736665722066726f6d20696e636f72726563742060008201527f6f776e6572000000000000000000000000000000000000000000000000000000602082015250565b7f4552433732313a20746f6b656e20616c7265616479206d696e74656400000000600082015250565b7f436f6c6c656374696f6e20646f6573206e6f7420657869737400000000000000600082015250565b7f4e6f7420746865206f776e6572206f662074686520636f6c6c656374696f6e00600082015250565b7f4552433732313a207472616e7366657220746f20746865207a65726f2061646460008201527f7265737300000000000000000000000000000000000000000000000000000000602082015250565b7f4552433732313a20617070726f766520746f2063616c6c657200000000000000600082015250565b7f4d617820636f6c6c656374696f6e732072656163686564000000000000000000600082015250565b7f546f6b656e2069732063757272656e746c79206c697374656420666f7220736160008201527f6c65000000000000000000000000000000000000000000000000000000000000602082015250565b7f4552433732313a2061646472657373207a65726f206973206e6f74206120766160008201527f6c6964206f776e65720000000000000000000000000000000000000000000000602082015250565b7f45524337323155524953746f726167653a2055524920736574206f66206e6f6e60008201527f6578697374656e7420746f6b656e000000000000000000000000000000000000602082015250565b7f5072696365206d757374206e6f7420657863656564204d41585f505249434500600082015250565b7f4552433732313a206d696e7420746f20746865207a65726f2061646472657373600082015250565b7f4f776e61626c653a2063616c6c6572206973206e6f7420746865206f776e6572600082015250565b7f4d61726b6574706c61636520616464726573732068617320616c72656164792060008201527f6265656e20736574000000000000000000000000000000000000000000000000602082015250565b7f4552433732313a20696e76616c696420746f6b656e2049440000000000000000600082015250565b7f4552433732313a20617070726f76616c20746f2063757272656e74206f776e6560008201527f7200000000000000000000000000000000000000000000000000000000000000602082015250565b7f4552433732313a20617070726f76652063616c6c6572206973206e6f7420746f60008201527f6b656e206f776e6572206f7220617070726f76656420666f7220616c6c000000602082015250565b7f4552433732313a207472616e736665722063616c6c6572206973206e6f74206f60008201527f776e6572206e6f7220617070726f766564000000000000000000000000000000602082015250565b6142f081613b0f565b81146142fb57600080fd5b50565b61430781613b21565b811461431257600080fd5b50565b61431e81613b33565b811461432957600080fd5b50565b61433581613b3f565b811461434057600080fd5b50565b61434c81613b8b565b811461435757600080fd5b5056fea2646970667358221220a30a07824e96f6c80299eed2e86c84365f5e3abdadc2d1b389746fec15ed462c64736f6c63430008010033",
  "linkReferences": {},
  "deployedLinkReferences": {}
}