{
  "_format": "hh-sol-artifact-1",
  "contractName": "ERC721Collections",
  "sourceName": "contracts/ERC721Collections.sol",
  "abi": [
    {
      "inputs": [
        {
          "internalType": "string",
          "name": "publicCollectionURI",
          "type": "string"
        }
      ],
      "stateMutability": "nonpayable",
      "type": "constructor"
    },
    {
      "anonymous": false,
      "inputs": [
        {
          "indexed": true,
          "internalType": "address",
          "name": "owner",
          "type": "address"
        },
        {
          "indexed": true,
          "internalType": "address",
          "name": "approved",
          "type": "address"
        },
        {
          "indexed": true,
          "internalType": "uint256",
          "name": "tokenId",
          "type": "uint256"
        }
      ],
      "name": "Approval",
      "type": "event"
    },
    {
      "anonymous": false,
      "inputs": [
        {
          "indexed": true,
          "internalType": "address",
          "name": "owner",
          "type": "address"
        },
        {
          "indexed": true,
          "internalType": "address",
          "name": "operator",
          "type": "address"
        },
        {
          "indexed": false,
          "internalType": "bool",
          "name": "approved",
          "type": "bool"
        }
      ],
      "name": "ApprovalForAll",
      "type": "event"
    },
    {
      "anonymous": false,
      "inputs": [
        {
          "indexed": false,
          "internalType": "uint256",
          "name": "_fromTokenId",
          "type": "uint256"
        },
        {
          "indexed": false,
          "internalType": "uint256",
          "name": "_toTokenId",
          "type": "uint256"
        }
      ],
      "name": "BatchMetadataUpdate",
      "type": "event"
    },
    {
      "anonymous": false,
      "inputs": [
        {
          "indexed": false,
          "internalType": "uint256",
          "name": "id",
          "type": "uint256"
        },
        {
          "indexed": false,
          "internalType": "string",
          "name": "uri",
          "type": "string"
        }
      ],
      "name": "CollectionCreated",
      "type": "event"
    },
    {
      "anonymous": false,
      "inputs": [
        {
          "indexed": false,
          "internalType": "uint256",
          "name": "_tokenId",
          "type": "uint256"
        }
      ],
      "name": "MetadataUpdate",
      "type": "event"
    },
    {
      "anonymous": false,
      "inputs": [
        {
          "indexed": true,
          "internalType": "address",
          "name": "previousOwner",
          "type": "address"
        },
        {
          "indexed": true,
          "internalType": "address",
          "name": "newOwner",
          "type": "address"
        }
      ],
      "name": "OwnershipTransferred",
      "type": "event"
    },
    {
      "anonymous": false,
      "inputs": [
        {
          "indexed": false,
          "internalType": "uint256",
          "name": "tokenId",
          "type": "uint256"
        },
        {
          "indexed": false,
          "internalType": "uint256",
          "name": "price",
          "type": "uint256"
        }
      ],
      "name": "PriceSet",
      "type": "event"
    },
    {
      "anonymous": false,
      "inputs": [
        {
          "indexed": false,
          "internalType": "uint256",
          "name": "tokenId",
          "type": "uint256"
        },
        {
          "indexed": false,
          "internalType": "uint256",
          "name": "collectionId",
          "type": "uint256"
        }
      ],
      "name": "TokenMinted",
      "type": "event"
    },
    {
      "anonymous": false,
      "inputs": [
        {
          "indexed": true,
          "internalType": "address",
          "name": "from",
          "type": "address"
        },
        {
          "indexed": true,
          "internalType": "address",
          "name": "to",
          "type": "address"
        },
        {
          "indexed": true,
          "internalType": "uint256",
          "name": "tokenId",
          "type": "uint256"
        }
      ],
      "name": "Transfer",
      "type": "event"
    },
    {
      "inputs": [],
      "name": "MAX_PRICE",
      "outputs": [
        {
          "internalType": "uint256",
          "name": "",
          "type": "uint256"
        }
      ],
      "stateMutability": "view",
      "type": "function"
    },
    {
      "inputs": [],
      "name": "MIN_PRICE",
      "outputs": [
        {
          "internalType": "uint256",
          "name": "",
          "type": "uint256"
        }
      ],
      "stateMutability": "view",
      "type": "function"
    },
    {
      "inputs": [
        {
          "internalType": "address",
          "name": "to",
          "type": "address"
        },
        {
          "internalType": "uint256",
          "name": "tokenId",
          "type": "uint256"
        }
      ],
      "name": "approve",
      "outputs": [],
      "stateMutability": "nonpayable",
      "type": "function"
    },
    {
      "inputs": [
        {
          "internalType": "address",
          "name": "owner",
          "type": "address"
        }
      ],
      "name": "balanceOf",
      "outputs": [
        {
          "internalType": "uint256",
          "name": "",
          "type": "uint256"
        }
      ],
      "stateMutability": "view",
      "type": "function"
    },
    {
      "inputs": [
        {
          "internalType": "address",
          "name": "",
          "type": "address"
        }
      ],
      "name": "collectionsCreated",
      "outputs": [
        {
          "internalType": "uint256",
          "name": "",
          "type": "uint256"
        }
      ],
      "stateMutability": "view",
      "type": "function"
    },
    {
      "inputs": [
        {
          "internalType": "string",
          "name": "uri",
          "type": "string"
        }
      ],
      "name": "createCollection",
      "outputs": [
        {
          "internalType": "uint256",
          "name": "",
          "type": "uint256"
        }
      ],
      "stateMutability": "nonpayable",
      "type": "function"
    },
    {
      "inputs": [
        {
          "internalType": "uint256",
          "name": "tokenId",
          "type": "uint256"
        }
      ],
      "name": "getApproved",
      "outputs": [
        {
          "internalType": "address",
          "name": "",
          "type": "address"
        }
      ],
      "stateMutability": "view",
      "type": "function"
    },
    {
      "inputs": [
        {
          "internalType": "uint256",
          "name": "id",
          "type": "uint256"
        }
      ],
      "name": "getCollection",
      "outputs": [
        {
          "components": [
            {
              "internalType": "string",
              "name": "uri",
              "type": "string"
            },
            {
              "internalType": "uint256",
              "name": "id",
              "type": "uint256"
            },
            {
              "internalType": "address",
              "name": "owner",
              "type": "address"
            }
          ],
          "internalType": "struct ERC721Collections.Collection",
          "name": "",
          "type": "tuple"
        }
      ],
      "stateMutability": "view",
      "type": "function"
    },
    {
      "inputs": [
        {
          "internalType": "uint256",
          "name": "tokenId",
          "type": "uint256"
        }
      ],
      "name": "getCollectionOfToken",
      "outputs": [
        {
          "components": [
            {
              "internalType": "string",
              "name": "uri",
              "type": "string"
            },
            {
              "internalType": "uint256",
              "name": "id",
              "type": "uint256"
            },
            {
              "internalType": "address",
              "name": "owner",
              "type": "address"
            }
          ],
          "internalType": "struct ERC721Collections.Collection",
          "name": "",
          "type": "tuple"
        }
      ],
      "stateMutability": "view",
      "type": "function"
    },
    {
      "inputs": [
        {
          "internalType": "uint256",
          "name": "collectionId",
          "type": "uint256"
        }
      ],
      "name": "getCollectionOwner",
      "outputs": [
        {
          "internalType": "address",
          "name": "",
          "type": "address"
        }
      ],
      "stateMutability": "view",
      "type": "function"
    },
    {
      "inputs": [
        {
          "internalType": "uint256",
          "name": "collectionId",
          "type": "uint256"
        },
        {
          "internalType": "uint256",
          "name": "startIndex",
          "type": "uint256"
        },
        {
          "internalType": "uint256",
          "name": "pageSize",
          "type": "uint256"
        }
      ],
      "name": "getNFTsInCollection",
      "outputs": [
        {
          "internalType": "uint256[]",
          "name": "",
          "type": "uint256[]"
        }
      ],
      "stateMutability": "view",
      "type": "function"
    },
    {
      "inputs": [
        {
          "internalType": "uint256",
          "name": "tokenId",
          "type": "uint256"
        }
      ],
      "name": "getPrice",
      "outputs": [
        {
          "internalType": "uint256",
          "name": "",
          "type": "uint256"
        }
      ],
      "stateMutability": "view",
      "type": "function"
    },
    {
      "inputs": [
        {
          "internalType": "address",
          "name": "owner",
          "type": "address"
        },
        {
          "internalType": "address",
          "name": "operator",
          "type": "address"
        }
      ],
      "name": "isApprovedForAll",
      "outputs": [
        {
          "internalType": "bool",
          "name": "",
          "type": "bool"
        }
      ],
      "stateMutability": "view",
      "type": "function"
    },
    {
      "inputs": [
        {
          "internalType": "address",
          "name": "",
          "type": "address"
        }
      ],
      "name": "lastCollectionTimestamp",
      "outputs": [
        {
          "internalType": "uint256",
          "name": "",
          "type": "uint256"
        }
      ],
      "stateMutability": "view",
      "type": "function"
    },
    {
      "inputs": [
        {
          "internalType": "uint256",
          "name": "collectionId",
          "type": "uint256"
        },
        {
          "internalType": "string",
          "name": "tokenURI",
          "type": "string"
        },
        {
          "internalType": "uint256",
          "name": "price",
          "type": "uint256"
        },
        {
          "internalType": "address",
          "name": "to",
          "type": "address"
        }
      ],
      "name": "lazyMint",
      "outputs": [
        {
          "internalType": "uint256",
          "name": "",
          "type": "uint256"
        }
      ],
      "stateMutability": "nonpayable",
      "type": "function"
    },
    {
      "inputs": [
        {
          "internalType": "uint256",
          "name": "collectionId",
          "type": "uint256"
        },
        {
          "internalType": "string",
          "name": "tokenURI",
          "type": "string"
        },
        {
          "internalType": "uint256",
          "name": "price",
          "type": "uint256"
        }
      ],
      "name": "mint",
      "outputs": [
        {
          "internalType": "uint256",
          "name": "",
          "type": "uint256"
        }
      ],
      "stateMutability": "nonpayable",
      "type": "function"
    },
    {
      "inputs": [],
      "name": "name",
      "outputs": [
        {
          "internalType": "string",
          "name": "",
          "type": "string"
        }
      ],
      "stateMutability": "view",
      "type": "function"
    },
    {
      "inputs": [],
      "name": "owner",
      "outputs": [
        {
          "internalType": "address",
          "name": "",
          "type": "address"
        }
      ],
      "stateMutability": "view",
      "type": "function"
    },
    {
      "inputs": [
        {
          "internalType": "uint256",
          "name": "tokenId",
          "type": "uint256"
        }
      ],
      "name": "ownerOf",
      "outputs": [
        {
          "internalType": "address",
          "name": "",
          "type": "address"
        }
      ],
      "stateMutability": "view",
      "type": "function"
    },
    {
      "inputs": [],
      "name": "renounceOwnership",
      "outputs": [],
      "stateMutability": "nonpayable",
      "type": "function"
    },
    {
      "inputs": [
        {
          "internalType": "address",
          "name": "from",
          "type": "address"
        },
        {
          "internalType": "address",
          "name": "to",
          "type": "address"
        },
        {
          "internalType": "uint256",
          "name": "tokenId",
          "type": "uint256"
        }
      ],
      "name": "safeTransferFrom",
      "outputs": [],
      "stateMutability": "nonpayable",
      "type": "function"
    },
    {
      "inputs": [
        {
          "internalType": "address",
          "name": "from",
          "type": "address"
        },
        {
          "internalType": "address",
          "name": "to",
          "type": "address"
        },
        {
          "internalType": "uint256",
          "name": "tokenId",
          "type": "uint256"
        },
        {
          "internalType": "bytes",
          "name": "data",
          "type": "bytes"
        }
      ],
      "name": "safeTransferFrom",
      "outputs": [],
      "stateMutability": "nonpayable",
      "type": "function"
    },
    {
      "inputs": [
        {
          "internalType": "address",
          "name": "operator",
          "type": "address"
        },
        {
          "internalType": "bool",
          "name": "approved",
          "type": "bool"
        }
      ],
      "name": "setApprovalForAll",
      "outputs": [],
      "stateMutability": "nonpayable",
      "type": "function"
    },
    {
      "inputs": [
        {
          "internalType": "address payable",
          "name": "marketplaceAddress",
          "type": "address"
        }
      ],
      "name": "setMarketplace",
      "outputs": [],
      "stateMutability": "nonpayable",
      "type": "function"
    },
    {
      "inputs": [
        {
          "internalType": "uint256",
          "name": "tokenId",
          "type": "uint256"
        },
        {
          "internalType": "uint256",
          "name": "price",
          "type": "uint256"
        }
      ],
      "name": "setPrice",
      "outputs": [
        {
          "internalType": "uint256",
          "name": "",
          "type": "uint256"
        }
      ],
      "stateMutability": "nonpayable",
      "type": "function"
    },
    {
      "inputs": [
        {
          "internalType": "bytes4",
          "name": "interfaceId",
          "type": "bytes4"
        }
      ],
      "name": "supportsInterface",
      "outputs": [
        {
          "internalType": "bool",
          "name": "",
          "type": "bool"
        }
      ],
      "stateMutability": "view",
      "type": "function"
    },
    {
      "inputs": [],
      "name": "symbol",
      "outputs": [
        {
          "internalType": "string",
          "name": "",
          "type": "string"
        }
      ],
      "stateMutability": "view",
      "type": "function"
    },
    {
      "inputs": [
        {
          "internalType": "uint256",
          "name": "tokenId",
          "type": "uint256"
        }
      ],
      "name": "tokenURI",
      "outputs": [
        {
          "internalType": "string",
          "name": "",
          "type": "string"
        }
      ],
      "stateMutability": "view",
      "type": "function"
    },
    {
      "inputs": [
        {
          "internalType": "address",
          "name": "from",
          "type": "address"
        },
        {
          "internalType": "address",
          "name": "to",
          "type": "address"
        },
        {
          "internalType": "uint256",
          "name": "tokenId",
          "type": "uint256"
        }
      ],
      "name": "transferFrom",
      "outputs": [],
      "stateMutability": "nonpayable",
      "type": "function"
    },
    {
      "inputs": [
        {
          "internalType": "address",
          "name": "newOwner",
          "type": "address"
        }
      ],
      "name": "transferOwnership",
      "outputs": [],
      "stateMutability": "nonpayable",
      "type": "function"
    }
  ],
  "bytecode": "0x60806040523480156200001157600080fd5b50604051620056c2380380620056c283398181016040528101906200003791906200065a565b6040518060400160405280601181526020017f455243373231436f6c6c656374696f6e730000000000000000000000000000008152506040518060400160405280600381526020017f53545200000000000000000000000000000000000000000000000000000000008152508160009080519060200190620000bb92919062000538565b508060019080519060200190620000d492919062000538565b505050620000f7620000eb6200012760201b60201c565b6200012f60201b60201c565b6200010881620001f560201b60201c565b506200012060086200051460201b62001ee31760201c565b5062000a9f565b600033905090565b6000600760009054906101000a900473ffffffffffffffffffffffffffffffffffffffff16905081600760006101000a81548173ffffffffffffffffffffffffffffffffffffffff021916908373ffffffffffffffffffffffffffffffffffffffff1602179055508173ffffffffffffffffffffffffffffffffffffffff168173ffffffffffffffffffffffffffffffffffffffff167f8be0079c531659141344cd1fd0a4f28419497f9722a3daafe3b4186f6b6457e060405160405180910390a35050565b60006103e7600f60003373ffffffffffffffffffffffffffffffffffffffff1673ffffffffffffffffffffffffffffffffffffffff16815260200190815260200160002054106200027d576040517f08c379a0000000000000000000000000000000000000000000000000000000008152600401620002749062000761565b60405180910390fd5b42603c601060003373ffffffffffffffffffffffffffffffffffffffff1673ffffffffffffffffffffffffffffffffffffffff16815260200190815260200160002054620002cc919062000832565b111562000310576040517f08c379a000000000000000000000000000000000000000000000000000000000815260040162000307906200073f565b60405180910390fd5b6200032760096200051460201b62001ee31760201c565b60405180606001604052808381526020016200034f60096200052a60201b62001ef91760201c565b81526020013373ffffffffffffffffffffffffffffffffffffffff16815250600b60006200038960096200052a60201b62001ef91760201c565b81526020019081526020016000206000820151816000019080519060200190620003b592919062000538565b506020820151816001015560408201518160020160006101000a81548173ffffffffffffffffffffffffffffffffffffffff021916908373ffffffffffffffffffffffffffffffffffffffff160217905550905050600f60003373ffffffffffffffffffffffffffffffffffffffff1673ffffffffffffffffffffffffffffffffffffffff16815260200190815260200160002060008154809291906200045c906200093b565b919050555042601060003373ffffffffffffffffffffffffffffffffffffffff1673ffffffffffffffffffffffffffffffffffffffff168152602001908152602001600020819055507f62b7b5ba11bfc95430fab0460fdf99b9c8fbc2b3a6a48caf79c3ee1b591c0336620004dd60096200052a60201b62001ef91760201c565b83604051620004ee92919062000783565b60405180910390a16200050d60096200052a60201b62001ef91760201c565b9050919050565b6001816000016000828254019250508190555050565b600081600001549050919050565b8280546200054690620008cf565b90600052602060002090601f0160209004810192826200056a5760008555620005b6565b82601f106200058557805160ff1916838001178555620005b6565b82800160010185558215620005b6579182015b82811115620005b557825182559160200191906001019062000598565b5b509050620005c59190620005c9565b5090565b5b80821115620005e4576000816000905550600101620005ca565b5090565b6000620005ff620005f984620007e0565b620007b7565b9050828152602081018484840111156200061857600080fd5b6200062584828562000899565b509392505050565b600082601f8301126200063f57600080fd5b815162000651848260208601620005e8565b91505092915050565b6000602082840312156200066d57600080fd5b600082015167ffffffffffffffff8111156200068857600080fd5b62000696848285016200062d565b91505092915050565b6000620006ac8262000816565b620006b8818562000821565b9350620006ca81856020860162000899565b620006d58162000a16565b840191505092915050565b6000620006ef602c8362000821565b9150620006fc8262000a27565b604082019050919050565b60006200071660178362000821565b9150620007238262000a76565b602082019050919050565b62000739816200088f565b82525050565b600060208201905081810360008301526200075a81620006e0565b9050919050565b600060208201905081810360008301526200077c8162000707565b9050919050565b60006040820190506200079a60008301856200072e565b8181036020830152620007ae81846200069f565b90509392505050565b6000620007c3620007d6565b9050620007d1828262000905565b919050565b6000604051905090565b600067ffffffffffffffff821115620007fe57620007fd620009e7565b5b620008098262000a16565b9050602081019050919050565b600081519050919050565b600082825260208201905092915050565b60006200083f826200088f565b91506200084c836200088f565b9250827fffffffffffffffffffffffffffffffffffffffffffffffffffffffffffffffff0382111562000884576200088362000989565b5b828201905092915050565b6000819050919050565b60005b83811015620008b95780820151818401526020810190506200089c565b83811115620008c9576000848401525b50505050565b60006002820490506001821680620008e857607f821691505b60208210811415620008ff57620008fe620009b8565b5b50919050565b620009108262000a16565b810181811067ffffffffffffffff82111715620009325762000931620009e7565b5b80604052505050565b600062000948826200088f565b91507fffffffffffffffffffffffffffffffffffffffffffffffffffffffffffffffff8214156200097e576200097d62000989565b5b600182019050919050565b7f4e487b7100000000000000000000000000000000000000000000000000000000600052601160045260246000fd5b7f4e487b7100000000000000000000000000000000000000000000000000000000600052602260045260246000fd5b7f4e487b7100000000000000000000000000000000000000000000000000000000600052604160045260246000fd5b6000601f19601f8301169050919050565b7f4d7573742077616974206265666f7265206372656174696e6720616e6f74686560008201527f7220636f6c6c656374696f6e0000000000000000000000000000000000000000602082015250565b7f4d617820636f6c6c656374696f6e732072656163686564000000000000000000600082015250565b614c138062000aaf6000396000f3fe608060405234801561001057600080fd5b50600436106101da5760003560e01c80638da5cb5b11610104578063bd6fbad9116100a2578063e757223011610071578063e7572230146105c7578063e985e9c5146105f7578063f2fde38b14610627578063f7d9757714610643576101da565b8063bd6fbad914610507578063c87b56dd14610537578063d08b28ea14610567578063da0277fd14610597576101da565b8063acca6b31116100de578063acca6b311461046d578063ad9f20a61461049d578063b41a6e34146104bb578063b88d4fde146104eb576101da565b80638da5cb5b1461041557806395d89b4114610433578063a22cb46514610451576101da565b8063394120c01161017c57806370a082311161014b57806370a082311461038f578063715018a6146103bf57806373ad6c2d146103c957806382a17cdb146103e5576101da565b8063394120c0146102e357806342842e0e146103135780635a1f3c281461032f5780636352211e1461035f576101da565b806306fdde03116101b857806306fdde031461025d578063081812fc1461027b578063095ea7b3146102ab57806323b872dd146102c7576101da565b806301c11d96146101df57806301ffc9a7146101fd578063059dfe131461022d575b600080fd5b6101e7610673565b6040516101f49190614108565b60405180910390f35b61021760048036038101906102129190613518565b610681565b6040516102249190613d69565b60405180910390f35b6102476004803603810190610242919061356a565b6106e2565b6040516102549190614108565b60405180910390f35b6102656109b2565b6040516102729190613d84565b60405180910390f35b610295600480360381019061029091906135ab565b610a44565b6040516102a29190613ce0565b60405180910390f35b6102c560048036038101906102c091906134b3565b610a8a565b005b6102e160048036038101906102dc91906133ad565b610ba2565b005b6102fd60048036038101906102f891906135ab565b610c02565b60405161030a9190613ce0565b60405180910390f35b61032d600480360381019061032891906133ad565b610c42565b005b610349600480360381019061034491906135ab565b610c62565b60405161035691906140e6565b60405180910390f35b610379600480360381019061037491906135ab565b610d81565b6040516103869190613ce0565b60405180910390f35b6103a960048036038101906103a4919061331f565b610e08565b6040516103b69190614108565b60405180910390f35b6103c7610ec0565b005b6103e360048036038101906103de9190613348565b610ed4565b005b6103ff60048036038101906103fa919061331f565b611021565b60405161040c9190614108565b60405180910390f35b61041d611039565b60405161042a9190613ce0565b60405180910390f35b61043b611063565b6040516104489190613d84565b60405180910390f35b61046b60048036038101906104669190613477565b6110f5565b005b610487600480360381019061048291906135d4565b61110b565b6040516104949190614108565b60405180910390f35b6104a5611387565b6040516104b29190614108565b60405180910390f35b6104d560048036038101906104d0919061363b565b611392565b6040516104e29190614108565b60405180910390f35b610505600480360381019061050091906133fc565b6115f0565b005b610521600480360381019061051c919061331f565b611652565b60405161052e9190614108565b60405180910390f35b610551600480360381019061054c91906135ab565b61166a565b60405161055e9190613d84565b60405180910390f35b610581600480360381019061057c91906136f2565b61177d565b60405161058e9190613d47565b60405180910390f35b6105b160048036038101906105ac91906135ab565b6119de565b6040516105be91906140e6565b60405180910390f35b6105e160048036038101906105dc91906135ab565b611b6d565b6040516105ee9190614108565b60405180910390f35b610611600480360381019061060c9190613371565b611b8a565b60405161061e9190613d69565b60405180910390f35b610641600480360381019061063c919061331f565b611c1e565b005b61065d600480360381019061065891906136b6565b611ca2565b60405161066a9190614108565b60405180910390f35b69021e19e0c9bab240000081565b6000634906490660e01b7bffffffffffffffffffffffffffffffffffffffffffffffffffffffff1916827bffffffffffffffffffffffffffffffffffffffffffffffffffffffff191614806106db57506106da82611f07565b5b9050919050565b60006103e7600f60003373ffffffffffffffffffffffffffffffffffffffff1673ffffffffffffffffffffffffffffffffffffffff1681526020019081526020016000205410610767576040517f08c379a000000000000000000000000000000000000000000000000000000000815260040161075e90613f66565b60405180910390fd5b42603c601060003373ffffffffffffffffffffffffffffffffffffffff1673ffffffffffffffffffffffffffffffffffffffff168152602001908152602001600020546107b49190614290565b11156107f5576040517f08c379a00000000000000000000000000000000000000000000000000000000081526004016107ec90613de6565b60405180910390fd5b6107ff6009611ee3565b604051806060016040528083815260200161081a6009611ef9565b81526020013373ffffffffffffffffffffffffffffffffffffffff16815250600b60006108476009611ef9565b815260200190815260200160002060008201518160000190805190602001906108719291906130e2565b506020820151816001015560408201518160020160006101000a81548173ffffffffffffffffffffffffffffffffffffffff021916908373ffffffffffffffffffffffffffffffffffffffff160217905550905050600f60003373ffffffffffffffffffffffffffffffffffffffff1673ffffffffffffffffffffffffffffffffffffffff168152602001908152602001600020600081548092919061091690614445565b919050555042601060003373ffffffffffffffffffffffffffffffffffffffff1673ffffffffffffffffffffffffffffffffffffffff168152602001908152602001600020819055507f62b7b5ba11bfc95430fab0460fdf99b9c8fbc2b3a6a48caf79c3ee1b591c033661098a6009611ef9565b83604051610999929190614123565b60405180910390a16109ab6009611ef9565b9050919050565b6060600080546109c1906143e2565b80601f01602080910402602001604051908101604052809291908181526020018280546109ed906143e2565b8015610a3a5780601f10610a0f57610100808354040283529160200191610a3a565b820191906000526020600020905b815481529060010190602001808311610a1d57829003601f168201915b5050505050905090565b6000610a4f82611fe9565b6004600083815260200190815260200160002060009054906101000a900473ffffffffffffffffffffffffffffffffffffffff169050919050565b6000610a9582610d81565b90508073ffffffffffffffffffffffffffffffffffffffff168373ffffffffffffffffffffffffffffffffffffffff161415610b06576040517f08c379a0000000000000000000000000000000000000000000000000000000008152600401610afd90614086565b60405180910390fd5b8073ffffffffffffffffffffffffffffffffffffffff16610b25612034565b73ffffffffffffffffffffffffffffffffffffffff161480610b545750610b5381610b4e612034565b611b8a565b5b610b93576040517f08c379a0000000000000000000000000000000000000000000000000000000008152600401610b8a906140a6565b60405180910390fd5b610b9d838361203c565b505050565b610bb3610bad612034565b826120f5565b610bf2576040517f08c379a0000000000000000000000000000000000000000000000000000000008152600401610be990613da6565b60405180910390fd5b610bfd83838361218a565b505050565b6000600b600083815260200190815260200160002060020160009054906101000a900473ffffffffffffffffffffffffffffffffffffffff169050919050565b610c5d838383604051806020016040528060008152506115f0565b505050565b610c6a613168565b600b6000838152602001908152602001600020604051806060016040529081600082018054610c98906143e2565b80601f0160208091040260200160405190810160405280929190818152602001828054610cc4906143e2565b8015610d115780601f10610ce657610100808354040283529160200191610d11565b820191906000526020600020905b815481529060010190602001808311610cf457829003601f168201915b50505050508152602001600182015481526020016002820160009054906101000a900473ffffffffffffffffffffffffffffffffffffffff1673ffffffffffffffffffffffffffffffffffffffff1673ffffffffffffffffffffffffffffffffffffffff16815250509050919050565b600080610d8d83612484565b9050600073ffffffffffffffffffffffffffffffffffffffff168173ffffffffffffffffffffffffffffffffffffffff161415610dff576040517f08c379a0000000000000000000000000000000000000000000000000000000008152600401610df690614066565b60405180910390fd5b80915050919050565b60008073ffffffffffffffffffffffffffffffffffffffff168273ffffffffffffffffffffffffffffffffffffffff161415610e79576040517f08c379a0000000000000000000000000000000000000000000000000000000008152600401610e7090613fa6565b60405180910390fd5b600360008373ffffffffffffffffffffffffffffffffffffffff1673ffffffffffffffffffffffffffffffffffffffff168152602001908152602001600020549050919050565b610ec86124c1565b610ed2600061253f565b565b610edc6124c1565b600073ffffffffffffffffffffffffffffffffffffffff16600a60009054906101000a900473ffffffffffffffffffffffffffffffffffffffff1673ffffffffffffffffffffffffffffffffffffffff1614610f6d576040517f08c379a0000000000000000000000000000000000000000000000000000000008152600401610f6490614046565b60405180910390fd5b600073ffffffffffffffffffffffffffffffffffffffff168173ffffffffffffffffffffffffffffffffffffffff161415610fdd576040517f08c379a0000000000000000000000000000000000000000000000000000000008152600401610fd490613dc6565b60405180910390fd5b80600a60006101000a81548173ffffffffffffffffffffffffffffffffffffffff021916908373ffffffffffffffffffffffffffffffffffffffff16021790555050565b60106020528060005260406000206000915090505481565b6000600760009054906101000a900473ffffffffffffffffffffffffffffffffffffffff16905090565b606060018054611072906143e2565b80601f016020809104026020016040519081016040528092919081815260200182805461109e906143e2565b80156110eb5780601f106110c0576101008083540402835291602001916110eb565b820191906000526020600020905b8154815290600101906020018083116110ce57829003601f168201915b5050505050905090565b611107611100612034565b8383612605565b5050565b6000662386f26fc10000821015611157576040517f08c379a000000000000000000000000000000000000000000000000000000000815260040161114e90613e26565b60405180910390fd5b69021e19e0c9bab24000008211156111a4576040517f08c379a000000000000000000000000000000000000000000000000000000000815260040161119b90613fe6565b60405180910390fd5b6000600b60008681526020019081526020016000206001015414156111fe576040517f08c379a00000000000000000000000000000000000000000000000000000000081526004016111f590613ea6565b60405180910390fd5b600184148061126e57503373ffffffffffffffffffffffffffffffffffffffff16600b600086815260200190815260200160002060020160009054906101000a900473ffffffffffffffffffffffffffffffffffffffff1673ffffffffffffffffffffffffffffffffffffffff16145b6112ad576040517f08c379a00000000000000000000000000000000000000000000000000000000081526004016112a490613ec6565b60405180910390fd5b60006112b96008611ef9565b90506112c56008611ee3565b6112cf3382612772565b6112d98185612990565b84600d600083815260200190815260200160002081905550600c600086815260200190815260200160002081908060018154018082558091505060019003906000526020600020016000909190919091505582600e6000838152602001908152602001600020819055507f5f7666687319b40936f33c188908d86aea154abd3f4127b4fa0a3f04f303c7da8186604051611374929190614153565b60405180910390a1809150509392505050565b662386f26fc1000081565b6000600a60009054906101000a900473ffffffffffffffffffffffffffffffffffffffff1673ffffffffffffffffffffffffffffffffffffffff163373ffffffffffffffffffffffffffffffffffffffff1614611424576040517f08c379a000000000000000000000000000000000000000000000000000000000815260040161141b90613ee6565b60405180910390fd5b662386f26fc1000083101561146e576040517f08c379a000000000000000000000000000000000000000000000000000000000815260040161146590613e26565b60405180910390fd5b69021e19e0c9bab24000008311156114bb576040517f08c379a00000000000000000000000000000000000000000000000000000000081526004016114b290613fe6565b60405180910390fd5b6000600b6000878152602001908152602001600020600101541415611515576040517f08c379a000000000000000000000000000000000000000000000000000000000815260040161150c90613ea6565b60405180910390fd5b60006115216008611ef9565b905061152d6008611ee3565b6115378382612772565b6115418186612990565b85600d600083815260200190815260200160002081905550600c600087815260200190815260200160002081908060018154018082558091505060019003906000526020600020016000909190919091505583600e6000838152602001908152602001600020819055507f5f7666687319b40936f33c188908d86aea154abd3f4127b4fa0a3f04f303c7da81876040516115dc929190614153565b60405180910390a180915050949350505050565b6116016115fb612034565b836120f5565b611640576040517f08c379a000000000000000000000000000000000000000000000000000000000815260040161163790613da6565b60405180910390fd5b61164c84848484612a3b565b50505050565b600f6020528060005260406000206000915090505481565b606061167582611fe9565b6000600660008481526020019081526020016000208054611695906143e2565b80601f01602080910402602001604051908101604052809291908181526020018280546116c1906143e2565b801561170e5780601f106116e35761010080835404028352916020019161170e565b820191906000526020600020905b8154815290600101906020018083116116f157829003601f168201915b50505050509050600061171f612a97565b9050600081511415611735578192505050611778565b60008251111561176a578082604051602001611752929190613cbc565b60405160208183030381529060405292505050611778565b61177384612aae565b925050505b919050565b60606000600c60008681526020019081526020016000208054806020026020016040519081016040528092919081815260200182805480156117de57602002820191906000526020600020905b8154815260200190600101908083116117ca575b505050505090506000815114806117f6575080518410155b1561187357600067ffffffffffffffff81111561183c577f4e487b7100000000000000000000000000000000000000000000000000000000600052604160045260246000fd5b60405190808252806020026020018201604052801561186a5781602001602082028036833780820191505090505b509150506119d7565b606483111561188157606492505b6000838561188f9190614290565b9050815181111561189f57815190505b600085826118ad91906142e6565b67ffffffffffffffff8111156118ec577f4e487b7100000000000000000000000000000000000000000000000000000000600052604160045260246000fd5b60405190808252806020026020018201604052801561191a5781602001602082028036833780820191505090505b50905060008690505b828110156119cf57838181518110611964577f4e487b7100000000000000000000000000000000000000000000000000000000600052603260045260246000fd5b602002602001015182888361197991906142e6565b815181106119b0577f4e487b7100000000000000000000000000000000000000000000000000000000600052603260045260246000fd5b60200260200101818152505080806119c790614445565b915050611923565b508093505050505b9392505050565b6119e6613168565b6000600d6000848152602001908152602001600020541415611a3d576040517f08c379a0000000000000000000000000000000000000000000000000000000008152600401611a3490613f46565b60405180910390fd5b6000600d6000848152602001908152602001600020549050600b6000828152602001908152602001600020604051806060016040529081600082018054611a83906143e2565b80601f0160208091040260200160405190810160405280929190818152602001828054611aaf906143e2565b8015611afc5780601f10611ad157610100808354040283529160200191611afc565b820191906000526020600020905b815481529060010190602001808311611adf57829003601f168201915b50505050508152602001600182015481526020016002820160009054906101000a900473ffffffffffffffffffffffffffffffffffffffff1673ffffffffffffffffffffffffffffffffffffffff1673ffffffffffffffffffffffffffffffffffffffff1681525050915050919050565b6000600e6000838152602001908152602001600020549050919050565b6000600560008473ffffffffffffffffffffffffffffffffffffffff1673ffffffffffffffffffffffffffffffffffffffff16815260200190815260200160002060008373ffffffffffffffffffffffffffffffffffffffff1673ffffffffffffffffffffffffffffffffffffffff16815260200190815260200160002060009054906101000a900460ff16905092915050565b611c266124c1565b600073ffffffffffffffffffffffffffffffffffffffff168173ffffffffffffffffffffffffffffffffffffffff161415611c96576040517f08c379a0000000000000000000000000000000000000000000000000000000008152600401611c8d90613e46565b60405180910390fd5b611c9f8161253f565b50565b6000662386f26fc10000821015611cee576040517f08c379a0000000000000000000000000000000000000000000000000000000008152600401611ce590613e26565b60405180910390fd5b69021e19e0c9bab2400000821115611d3b576040517f08c379a0000000000000000000000000000000000000000000000000000000008152600401611d3290613fe6565b60405180910390fd5b611d4c611d46612034565b846120f5565b611d8b576040517f08c379a0000000000000000000000000000000000000000000000000000000008152600401611d82906140c6565b60405180910390fd5b600a60009054906101000a900473ffffffffffffffffffffffffffffffffffffffff1673ffffffffffffffffffffffffffffffffffffffff16639b83cddc846040518263ffffffff1660e01b8152600401611de69190614108565b60206040518083038186803b158015611dfe57600080fd5b505afa158015611e12573d6000803e3d6000fd5b505050506040513d601f19601f82011682018060405250810190611e3691906134ef565b15611e76576040517f08c379a0000000000000000000000000000000000000000000000000000000008152600401611e6d90613f86565b60405180910390fd5b81600e6000858152602001908152602001600020819055507fa0f1665b7b659537b52deec61ea64d134a3bccda74c7f4e79f2246e7a8187a8a8383604051611ebf929190614153565b60405180910390a1600e600084815260200190815260200160002054905092915050565b6001816000016000828254019250508190555050565b600081600001549050919050565b60007f80ac58cd000000000000000000000000000000000000000000000000000000007bffffffffffffffffffffffffffffffffffffffffffffffffffffffff1916827bffffffffffffffffffffffffffffffffffffffffffffffffffffffff19161480611fd257507f5b5e139f000000000000000000000000000000000000000000000000000000007bffffffffffffffffffffffffffffffffffffffffffffffffffffffff1916827bffffffffffffffffffffffffffffffffffffffffffffffffffffffff1916145b80611fe25750611fe182612b16565b5b9050919050565b611ff281612b80565b612031576040517f08c379a000000000000000000000000000000000000000000000000000000000815260040161202890614066565b60405180910390fd5b50565b600033905090565b816004600083815260200190815260200160002060006101000a81548173ffffffffffffffffffffffffffffffffffffffff021916908373ffffffffffffffffffffffffffffffffffffffff160217905550808273ffffffffffffffffffffffffffffffffffffffff166120af83610d81565b73ffffffffffffffffffffffffffffffffffffffff167f8c5be1e5ebec7d5bd14f71427d1e84f3dd0314c0f7b2291e5b200ac8c7c3b92560405160405180910390a45050565b60008061210183610d81565b90508073ffffffffffffffffffffffffffffffffffffffff168473ffffffffffffffffffffffffffffffffffffffff16148061214357506121428185611b8a565b5b8061218157508373ffffffffffffffffffffffffffffffffffffffff1661216984610a44565b73ffffffffffffffffffffffffffffffffffffffff16145b91505092915050565b8273ffffffffffffffffffffffffffffffffffffffff166121aa82610d81565b73ffffffffffffffffffffffffffffffffffffffff1614612200576040517f08c379a00000000000000000000000000000000000000000000000000000000081526004016121f790613e66565b60405180910390fd5b600073ffffffffffffffffffffffffffffffffffffffff168273ffffffffffffffffffffffffffffffffffffffff161415612270576040517f08c379a000000000000000000000000000000000000000000000000000000000815260040161226790613f06565b60405180910390fd5b61227d8383836001612bc1565b8273ffffffffffffffffffffffffffffffffffffffff1661229d82610d81565b73ffffffffffffffffffffffffffffffffffffffff16146122f3576040517f08c379a00000000000000000000000000000000000000000000000000000000081526004016122ea90613e66565b60405180910390fd5b6004600082815260200190815260200160002060006101000a81549073ffffffffffffffffffffffffffffffffffffffff02191690556001600360008573ffffffffffffffffffffffffffffffffffffffff1673ffffffffffffffffffffffffffffffffffffffff168152602001908152602001600020600082825403925050819055506001600360008473ffffffffffffffffffffffffffffffffffffffff1673ffffffffffffffffffffffffffffffffffffffff16815260200190815260200160002060008282540192505081905550816002600083815260200190815260200160002060006101000a81548173ffffffffffffffffffffffffffffffffffffffff021916908373ffffffffffffffffffffffffffffffffffffffff160217905550808273ffffffffffffffffffffffffffffffffffffffff168473ffffffffffffffffffffffffffffffffffffffff167fddf252ad1be2c89b69c2b068fc378daa952ba7f163c4a11628f55a4df523b3ef60405160405180910390a461247f8383836001612bc7565b505050565b60006002600083815260200190815260200160002060009054906101000a900473ffffffffffffffffffffffffffffffffffffffff169050919050565b6124c9612034565b73ffffffffffffffffffffffffffffffffffffffff166124e7611039565b73ffffffffffffffffffffffffffffffffffffffff161461253d576040517f08c379a000000000000000000000000000000000000000000000000000000000815260040161253490614026565b60405180910390fd5b565b6000600760009054906101000a900473ffffffffffffffffffffffffffffffffffffffff16905081600760006101000a81548173ffffffffffffffffffffffffffffffffffffffff021916908373ffffffffffffffffffffffffffffffffffffffff1602179055508173ffffffffffffffffffffffffffffffffffffffff168173ffffffffffffffffffffffffffffffffffffffff167f8be0079c531659141344cd1fd0a4f28419497f9722a3daafe3b4186f6b6457e060405160405180910390a35050565b8173ffffffffffffffffffffffffffffffffffffffff168373ffffffffffffffffffffffffffffffffffffffff161415612674576040517f08c379a000000000000000000000000000000000000000000000000000000000815260040161266b90613f26565b60405180910390fd5b80600560008573ffffffffffffffffffffffffffffffffffffffff1673ffffffffffffffffffffffffffffffffffffffff16815260200190815260200160002060008473ffffffffffffffffffffffffffffffffffffffff1673ffffffffffffffffffffffffffffffffffffffff16815260200190815260200160002060006101000a81548160ff0219169083151502179055508173ffffffffffffffffffffffffffffffffffffffff168373ffffffffffffffffffffffffffffffffffffffff167f17307eab39ab6107e8899845ad3d59bd9653f200f220920489ca2b5937696c31836040516127659190613d69565b60405180910390a3505050565b600073ffffffffffffffffffffffffffffffffffffffff168273ffffffffffffffffffffffffffffffffffffffff1614156127e2576040517f08c379a00000000000000000000000000000000000000000000000000000000081526004016127d990614006565b60405180910390fd5b6127eb81612b80565b1561282b576040517f08c379a000000000000000000000000000000000000000000000000000000000815260040161282290613e86565b60405180910390fd5b612839600083836001612bc1565b61284281612b80565b15612882576040517f08c379a000000000000000000000000000000000000000000000000000000000815260040161287990613e86565b60405180910390fd5b6001600360008473ffffffffffffffffffffffffffffffffffffffff1673ffffffffffffffffffffffffffffffffffffffff16815260200190815260200160002060008282540192505081905550816002600083815260200190815260200160002060006101000a81548173ffffffffffffffffffffffffffffffffffffffff021916908373ffffffffffffffffffffffffffffffffffffffff160217905550808273ffffffffffffffffffffffffffffffffffffffff16600073ffffffffffffffffffffffffffffffffffffffff167fddf252ad1be2c89b69c2b068fc378daa952ba7f163c4a11628f55a4df523b3ef60405160405180910390a461298c600083836001612bc7565b5050565b61299982612b80565b6129d8576040517f08c379a00000000000000000000000000000000000000000000000000000000081526004016129cf90613fc6565b60405180910390fd5b806006600084815260200190815260200160002090805190602001906129ff9291906130e2565b507ff8e1a15aba9398e019f0b49df1a4fde98ee17ae345cb5f6b5e2c27f5033e8ce782604051612a2f9190614108565b60405180910390a15050565b612a4684848461218a565b612a5284848484612bcd565b612a91576040517f08c379a0000000000000000000000000000000000000000000000000000000008152600401612a8890613e06565b60405180910390fd5b50505050565b606060405180602001604052806000815250905090565b6060612ab982611fe9565b6000612ac3612a97565b90506000815111612ae35760405180602001604052806000815250612b0e565b80612aed84612d64565b604051602001612afe929190613cbc565b6040516020818303038152906040525b915050919050565b60007f01ffc9a7000000000000000000000000000000000000000000000000000000007bffffffffffffffffffffffffffffffffffffffffffffffffffffffff1916827bffffffffffffffffffffffffffffffffffffffffffffffffffffffff1916149050919050565b60008073ffffffffffffffffffffffffffffffffffffffff16612ba283612484565b73ffffffffffffffffffffffffffffffffffffffff1614159050919050565b50505050565b50505050565b6000612bee8473ffffffffffffffffffffffffffffffffffffffff16612e88565b15612d57578373ffffffffffffffffffffffffffffffffffffffff1663150b7a02612c17612034565b8786866040518563ffffffff1660e01b8152600401612c399493929190613cfb565b602060405180830381600087803b158015612c5357600080fd5b505af1925050508015612c8457506040513d601f19601f82011682018060405250810190612c819190613541565b60015b612d07573d8060008114612cb4576040519150601f19603f3d011682016040523d82523d6000602084013e612cb9565b606091505b50600081511415612cff576040517f08c379a0000000000000000000000000000000000000000000000000000000008152600401612cf690613e06565b60405180910390fd5b805181602001fd5b63150b7a0260e01b7bffffffffffffffffffffffffffffffffffffffffffffffffffffffff1916817bffffffffffffffffffffffffffffffffffffffffffffffffffffffff191614915050612d5c565b600190505b949350505050565b606060006001612d7384612eab565b01905060008167ffffffffffffffff811115612db8577f4e487b7100000000000000000000000000000000000000000000000000000000600052604160045260246000fd5b6040519080825280601f01601f191660200182016040528015612dea5781602001600182028036833780820191505090505b509050600082602001820190505b600115612e7d578080600190039150507f3031323334353637383961626364656600000000000000000000000000000000600a86061a8153600a8581612e67577f4e487b7100000000000000000000000000000000000000000000000000000000600052601260045260246000fd5b0494506000851415612e7857612e7d565b612df8565b819350505050919050565b6000808273ffffffffffffffffffffffffffffffffffffffff163b119050919050565b600080600090507a184f03e93ff9f4daa797ed6e38ed64bf6a1f0100000000000000008310612f2f577a184f03e93ff9f4daa797ed6e38ed64bf6a1f0100000000000000008381612f25577f4e487b7100000000000000000000000000000000000000000000000000000000600052601260045260246000fd5b0492506040810190505b6d04ee2d6d415b85acef81000000008310612f92576d04ee2d6d415b85acef81000000008381612f88577f4e487b7100000000000000000000000000000000000000000000000000000000600052601260045260246000fd5b0492506020810190505b662386f26fc100008310612fe757662386f26fc100008381612fdd577f4e487b7100000000000000000000000000000000000000000000000000000000600052601260045260246000fd5b0492506010810190505b6305f5e1008310613036576305f5e100838161302c577f4e487b7100000000000000000000000000000000000000000000000000000000600052601260045260246000fd5b0492506008810190505b6127108310613081576127108381613077577f4e487b7100000000000000000000000000000000000000000000000000000000600052601260045260246000fd5b0492506004810190505b606483106130ca57606483816130c0577f4e487b7100000000000000000000000000000000000000000000000000000000600052601260045260246000fd5b0492506002810190505b600a83106130d9576001810190505b80915050919050565b8280546130ee906143e2565b90600052602060002090601f0160209004810192826131105760008555613157565b82601f1061312957805160ff1916838001178555613157565b82800160010185558215613157579182015b8281111561315657825182559160200191906001019061313b565b5b509050613164919061319f565b5090565b60405180606001604052806060815260200160008152602001600073ffffffffffffffffffffffffffffffffffffffff1681525090565b5b808211156131b85760008160009055506001016131a0565b5090565b60006131cf6131ca846141a1565b61417c565b9050828152602081018484840111156131e757600080fd5b6131f28482856143a0565b509392505050565b600061320d613208846141d2565b61417c565b90508281526020810184848401111561322557600080fd5b6132308482856143a0565b509392505050565b60008135905061324781614b6a565b92915050565b60008135905061325c81614b81565b92915050565b60008135905061327181614b98565b92915050565b60008151905061328681614b98565b92915050565b60008135905061329b81614baf565b92915050565b6000815190506132b081614baf565b92915050565b600082601f8301126132c757600080fd5b81356132d78482602086016131bc565b91505092915050565b600082601f8301126132f157600080fd5b81356133018482602086016131fa565b91505092915050565b60008135905061331981614bc6565b92915050565b60006020828403121561333157600080fd5b600061333f84828501613238565b91505092915050565b60006020828403121561335a57600080fd5b60006133688482850161324d565b91505092915050565b6000806040838503121561338457600080fd5b600061339285828601613238565b92505060206133a385828601613238565b9150509250929050565b6000806000606084860312156133c257600080fd5b60006133d086828701613238565b93505060206133e186828701613238565b92505060406133f28682870161330a565b9150509250925092565b6000806000806080858703121561341257600080fd5b600061342087828801613238565b945050602061343187828801613238565b93505060406134428782880161330a565b925050606085013567ffffffffffffffff81111561345f57600080fd5b61346b878288016132b6565b91505092959194509250565b6000806040838503121561348a57600080fd5b600061349885828601613238565b92505060206134a985828601613262565b9150509250929050565b600080604083850312156134c657600080fd5b60006134d485828601613238565b92505060206134e58582860161330a565b9150509250929050565b60006020828403121561350157600080fd5b600061350f84828501613277565b91505092915050565b60006020828403121561352a57600080fd5b60006135388482850161328c565b91505092915050565b60006020828403121561355357600080fd5b6000613561848285016132a1565b91505092915050565b60006020828403121561357c57600080fd5b600082013567ffffffffffffffff81111561359657600080fd5b6135a2848285016132e0565b91505092915050565b6000602082840312156135bd57600080fd5b60006135cb8482850161330a565b91505092915050565b6000806000606084860312156135e957600080fd5b60006135f78682870161330a565b935050602084013567ffffffffffffffff81111561361457600080fd5b613620868287016132e0565b92505060406136318682870161330a565b9150509250925092565b6000806000806080858703121561365157600080fd5b600061365f8782880161330a565b945050602085013567ffffffffffffffff81111561367c57600080fd5b613688878288016132e0565b93505060406136998782880161330a565b92505060606136aa87828801613238565b91505092959194509250565b600080604083850312156136c957600080fd5b60006136d78582860161330a565b92505060206136e88582860161330a565b9150509250929050565b60008060006060848603121561370757600080fd5b60006137158682870161330a565b93505060206137268682870161330a565b92505060406137378682870161330a565b9150509250925092565b600061374d8383613c9e565b60208301905092915050565b6137628161431a565b82525050565b6137718161431a565b82525050565b600061378282614213565b61378c8185614241565b935061379783614203565b8060005b838110156137c85781516137af8882613741565b97506137ba83614234565b92505060018101905061379b565b5085935050505092915050565b6137de8161433e565b82525050565b60006137ef8261421e565b6137f98185614252565b93506138098185602086016143af565b6138128161451b565b840191505092915050565b600061382882614229565b6138328185614263565b93506138428185602086016143af565b61384b8161451b565b840191505092915050565b600061386182614229565b61386b8185614274565b935061387b8185602086016143af565b6138848161451b565b840191505092915050565b600061389a82614229565b6138a48185614285565b93506138b48185602086016143af565b80840191505092915050565b60006138cd602d83614274565b91506138d88261452c565b604082019050919050565b60006138f0600f83614274565b91506138fb8261457b565b602082019050919050565b6000613913602c83614274565b915061391e826145a4565b604082019050919050565b6000613936603283614274565b9150613941826145f3565b604082019050919050565b6000613959602083614274565b915061396482614642565b602082019050919050565b600061397c602683614274565b91506139878261466b565b604082019050919050565b600061399f602583614274565b91506139aa826146ba565b604082019050919050565b60006139c2601c83614274565b91506139cd82614709565b602082019050919050565b60006139e5601983614274565b91506139f082614732565b602082019050919050565b6000613a08601f83614274565b9150613a138261475b565b602082019050919050565b6000613a2b601d83614274565b9150613a3682614784565b602082019050919050565b6000613a4e602483614274565b9150613a59826147ad565b604082019050919050565b6000613a71601983614274565b9150613a7c826147fc565b602082019050919050565b6000613a94602783614274565b9150613a9f82614825565b604082019050919050565b6000613ab7601783614274565b9150613ac282614874565b602082019050919050565b6000613ada602283614274565b9150613ae58261489d565b604082019050919050565b6000613afd602983614274565b9150613b08826148ec565b604082019050919050565b6000613b20602e83614274565b9150613b2b8261493b565b604082019050919050565b6000613b43601f83614274565b9150613b4e8261498a565b602082019050919050565b6000613b66602083614274565b9150613b71826149b3565b602082019050919050565b6000613b89602083614274565b9150613b94826149dc565b602082019050919050565b6000613bac602883614274565b9150613bb782614a05565b604082019050919050565b6000613bcf601883614274565b9150613bda82614a54565b602082019050919050565b6000613bf2602183614274565b9150613bfd82614a7d565b604082019050919050565b6000613c15603d83614274565b9150613c2082614acc565b604082019050919050565b6000613c38603183614274565b9150613c4382614b1b565b604082019050919050565b60006060830160008301518482036000860152613c6b828261381d565b9150506020830151613c806020860182613c9e565b506040830151613c936040860182613759565b508091505092915050565b613ca781614396565b82525050565b613cb681614396565b82525050565b6000613cc8828561388f565b9150613cd4828461388f565b91508190509392505050565b6000602082019050613cf56000830184613768565b92915050565b6000608082019050613d106000830187613768565b613d1d6020830186613768565b613d2a6040830185613cad565b8181036060830152613d3c81846137e4565b905095945050505050565b60006020820190508181036000830152613d618184613777565b905092915050565b6000602082019050613d7e60008301846137d5565b92915050565b60006020820190508181036000830152613d9e8184613856565b905092915050565b60006020820190508181036000830152613dbf816138c0565b9050919050565b60006020820190508181036000830152613ddf816138e3565b9050919050565b60006020820190508181036000830152613dff81613906565b9050919050565b60006020820190508181036000830152613e1f81613929565b9050919050565b60006020820190508181036000830152613e3f8161394c565b9050919050565b60006020820190508181036000830152613e5f8161396f565b9050919050565b60006020820190508181036000830152613e7f81613992565b9050919050565b60006020820190508181036000830152613e9f816139b5565b9050919050565b60006020820190508181036000830152613ebf816139d8565b9050919050565b60006020820190508181036000830152613edf816139fb565b9050919050565b60006020820190508181036000830152613eff81613a1e565b9050919050565b60006020820190508181036000830152613f1f81613a41565b9050919050565b60006020820190508181036000830152613f3f81613a64565b9050919050565b60006020820190508181036000830152613f5f81613a87565b9050919050565b60006020820190508181036000830152613f7f81613aaa565b9050919050565b60006020820190508181036000830152613f9f81613acd565b9050919050565b60006020820190508181036000830152613fbf81613af0565b9050919050565b60006020820190508181036000830152613fdf81613b13565b9050919050565b60006020820190508181036000830152613fff81613b36565b9050919050565b6000602082019050818103600083015261401f81613b59565b9050919050565b6000602082019050818103600083015261403f81613b7c565b9050919050565b6000602082019050818103600083015261405f81613b9f565b9050919050565b6000602082019050818103600083015261407f81613bc2565b9050919050565b6000602082019050818103600083015261409f81613be5565b9050919050565b600060208201905081810360008301526140bf81613c08565b9050919050565b600060208201905081810360008301526140df81613c2b565b9050919050565b600060208201905081810360008301526141008184613c4e565b905092915050565b600060208201905061411d6000830184613cad565b92915050565b60006040820190506141386000830185613cad565b818103602083015261414a8184613856565b90509392505050565b60006040820190506141686000830185613cad565b6141756020830184613cad565b9392505050565b6000614186614197565b90506141928282614414565b919050565b6000604051905090565b600067ffffffffffffffff8211156141bc576141bb6144ec565b5b6141c58261451b565b9050602081019050919050565b600067ffffffffffffffff8211156141ed576141ec6144ec565b5b6141f68261451b565b9050602081019050919050565b6000819050602082019050919050565b600081519050919050565b600081519050919050565b600081519050919050565b6000602082019050919050565b600082825260208201905092915050565b600082825260208201905092915050565b600082825260208201905092915050565b600082825260208201905092915050565b600081905092915050565b600061429b82614396565b91506142a683614396565b9250827fffffffffffffffffffffffffffffffffffffffffffffffffffffffffffffffff038211156142db576142da61448e565b5b828201905092915050565b60006142f182614396565b91506142fc83614396565b92508282101561430f5761430e61448e565b5b828203905092915050565b600061432582614376565b9050919050565b600061433782614376565b9050919050565b60008115159050919050565b60007fffffffff0000000000000000000000000000000000000000000000000000000082169050919050565b600073ffffffffffffffffffffffffffffffffffffffff82169050919050565b6000819050919050565b82818337600083830152505050565b60005b838110156143cd5780820151818401526020810190506143b2565b838111156143dc576000848401525b50505050565b600060028204905060018216806143fa57607f821691505b6020821081141561440e5761440d6144bd565b5b50919050565b61441d8261451b565b810181811067ffffffffffffffff8211171561443c5761443b6144ec565b5b80604052505050565b600061445082614396565b91507fffffffffffffffffffffffffffffffffffffffffffffffffffffffffffffffff8214156144835761448261448e565b5b600182019050919050565b7f4e487b7100000000000000000000000000000000000000000000000000000000600052601160045260246000fd5b7f4e487b7100000000000000000000000000000000000000000000000000000000600052602260045260246000fd5b7f4e487b7100000000000000000000000000000000000000000000000000000000600052604160045260246000fd5b6000601f19601f8301169050919050565b7f4552433732313a2063616c6c6572206973206e6f7420746f6b656e206f776e6560008201527f72206f7220617070726f76656400000000000000000000000000000000000000602082015250565b7f496e76616c696420616464726573730000000000000000000000000000000000600082015250565b7f4d7573742077616974206265666f7265206372656174696e6720616e6f74686560008201527f7220636f6c6c656374696f6e0000000000000000000000000000000000000000602082015250565b7f4552433732313a207472616e7366657220746f206e6f6e20455243373231526560008201527f63656976657220696d706c656d656e7465720000000000000000000000000000602082015250565b7f5072696365206d757374206265206174206c65617374204d494e5f5052494345600082015250565b7f4f776e61626c653a206e6577206f776e657220697320746865207a65726f206160008201527f6464726573730000000000000000000000000000000000000000000000000000602082015250565b7f4552433732313a207472616e736665722066726f6d20696e636f72726563742060008201527f6f776e6572000000000000000000000000000000000000000000000000000000602082015250565b7f4552433732313a20746f6b656e20616c7265616479206d696e74656400000000600082015250565b7f436f6c6c656374696f6e20646f6573206e6f7420657869737400000000000000600082015250565b7f4e6f7420746865206f776e6572206f662074686520636f6c6c656374696f6e00600082015250565b7f43616c6c6572206973206e6f7420746865206d61726b6574706c616365000000600082015250565b7f4552433732313a207472616e7366657220746f20746865207a65726f2061646460008201527f7265737300000000000000000000000000000000000000000000000000000000602082015250565b7f4552433732313a20617070726f766520746f2063616c6c657200000000000000600082015250565b7f546f6b656e20646f6573206e6f742062656c6f6e6720746f20616e7920636f6c60008201527f6c656374696f6e00000000000000000000000000000000000000000000000000602082015250565b7f4d617820636f6c6c656374696f6e732072656163686564000000000000000000600082015250565b7f546f6b656e2069732063757272656e746c79206c697374656420666f7220736160008201527f6c65000000000000000000000000000000000000000000000000000000000000602082015250565b7f4552433732313a2061646472657373207a65726f206973206e6f74206120766160008201527f6c6964206f776e65720000000000000000000000000000000000000000000000602082015250565b7f45524337323155524953746f726167653a2055524920736574206f66206e6f6e60008201527f6578697374656e7420746f6b656e000000000000000000000000000000000000602082015250565b7f5072696365206d757374206e6f7420657863656564204d41585f505249434500600082015250565b7f4552433732313a206d696e7420746f20746865207a65726f2061646472657373600082015250565b7f4f776e61626c653a2063616c6c6572206973206e6f7420746865206f776e6572600082015250565b7f4d61726b6574706c61636520616464726573732068617320616c72656164792060008201527f6265656e20736574000000000000000000000000000000000000000000000000602082015250565b7f4552433732313a20696e76616c696420746f6b656e2049440000000000000000600082015250565b7f4552433732313a20617070726f76616c20746f2063757272656e74206f776e6560008201527f7200000000000000000000000000000000000000000000000000000000000000602082015250565b7f4552433732313a20617070726f76652063616c6c6572206973206e6f7420746f60008201527f6b656e206f776e6572206f7220617070726f76656420666f7220616c6c000000602082015250565b7f4552433732313a207472616e736665722063616c6c6572206973206e6f74206f60008201527f776e6572206e6f7220617070726f766564000000000000000000000000000000602082015250565b614b738161431a565b8114614b7e57600080fd5b50565b614b8a8161432c565b8114614b9557600080fd5b50565b614ba18161433e565b8114614bac57600080fd5b50565b614bb88161434a565b8114614bc357600080fd5b50565b614bcf81614396565b8114614bda57600080fd5b5056fea2646970667358221220b0896271ca7fa366e69bad4045b09eb732ec2a6485b763ef2563cb11c3839e4264736f6c63430008010033",
  "linkReferences": {},
  "deployedLinkReferences": {}
}