{
  "_format": "hh-sol-artifact-1",
  "contractName": "ERC721Collections",
  "sourceName": "contracts/ERC721Collections.sol",
  "abi": [
    {
      "inputs": [],
      "stateMutability": "nonpayable",
      "type": "constructor"
    },
    {
      "anonymous": false,
      "inputs": [
        {
          "indexed": true,
          "internalType": "address",
          "name": "owner",
          "type": "address"
        },
        {
          "indexed": true,
          "internalType": "address",
          "name": "approved",
          "type": "address"
        },
        {
          "indexed": true,
          "internalType": "uint256",
          "name": "tokenId",
          "type": "uint256"
        }
      ],
      "name": "Approval",
      "type": "event"
    },
    {
      "anonymous": false,
      "inputs": [
        {
          "indexed": true,
          "internalType": "address",
          "name": "owner",
          "type": "address"
        },
        {
          "indexed": true,
          "internalType": "address",
          "name": "operator",
          "type": "address"
        },
        {
          "indexed": false,
          "internalType": "bool",
          "name": "approved",
          "type": "bool"
        }
      ],
      "name": "ApprovalForAll",
      "type": "event"
    },
    {
      "anonymous": false,
      "inputs": [
        {
          "indexed": false,
          "internalType": "uint256",
          "name": "_fromTokenId",
          "type": "uint256"
        },
        {
          "indexed": false,
          "internalType": "uint256",
          "name": "_toTokenId",
          "type": "uint256"
        }
      ],
      "name": "BatchMetadataUpdate",
      "type": "event"
    },
    {
      "anonymous": false,
      "inputs": [
        {
          "indexed": false,
          "internalType": "uint256",
          "name": "_tokenId",
          "type": "uint256"
        }
      ],
      "name": "MetadataUpdate",
      "type": "event"
    },
    {
      "anonymous": false,
      "inputs": [
        {
          "indexed": true,
          "internalType": "address",
          "name": "previousOwner",
          "type": "address"
        },
        {
          "indexed": true,
          "internalType": "address",
          "name": "newOwner",
          "type": "address"
        }
      ],
      "name": "OwnershipTransferred",
      "type": "event"
    },
    {
      "anonymous": false,
      "inputs": [
        {
          "indexed": true,
          "internalType": "address",
          "name": "from",
          "type": "address"
        },
        {
          "indexed": true,
          "internalType": "address",
          "name": "to",
          "type": "address"
        },
        {
          "indexed": true,
          "internalType": "uint256",
          "name": "tokenId",
          "type": "uint256"
        }
      ],
      "name": "Transfer",
      "type": "event"
    },
    {
      "inputs": [
        {
          "internalType": "address",
          "name": "to",
          "type": "address"
        },
        {
          "internalType": "uint256",
          "name": "tokenId",
          "type": "uint256"
        }
      ],
      "name": "approve",
      "outputs": [],
      "stateMutability": "nonpayable",
      "type": "function"
    },
    {
      "inputs": [
        {
          "internalType": "address",
          "name": "owner",
          "type": "address"
        }
      ],
      "name": "balanceOf",
      "outputs": [
        {
          "internalType": "uint256",
          "name": "",
          "type": "uint256"
        }
      ],
      "stateMutability": "view",
      "type": "function"
    },
    {
      "inputs": [
        {
          "internalType": "string",
          "name": "name",
          "type": "string"
        }
      ],
      "name": "createCollection",
      "outputs": [
        {
          "internalType": "uint256",
          "name": "",
          "type": "uint256"
        }
      ],
      "stateMutability": "nonpayable",
      "type": "function"
    },
    {
      "inputs": [
        {
          "internalType": "uint256",
          "name": "tokenId",
          "type": "uint256"
        }
      ],
      "name": "getApproved",
      "outputs": [
        {
          "internalType": "address",
          "name": "",
          "type": "address"
        }
      ],
      "stateMutability": "view",
      "type": "function"
    },
    {
      "inputs": [
        {
          "internalType": "uint256",
          "name": "id",
          "type": "uint256"
        }
      ],
      "name": "getCollection",
      "outputs": [
        {
          "components": [
            {
              "internalType": "string",
              "name": "name",
              "type": "string"
            },
            {
              "internalType": "uint256",
              "name": "id",
              "type": "uint256"
            }
          ],
          "internalType": "struct ERC721Collections.Collection",
          "name": "",
          "type": "tuple"
        }
      ],
      "stateMutability": "view",
      "type": "function"
    },
    {
      "inputs": [
        {
          "internalType": "uint256",
          "name": "collectionId",
          "type": "uint256"
        }
      ],
      "name": "getNFTsInCollection",
      "outputs": [
        {
          "internalType": "uint256[]",
          "name": "",
          "type": "uint256[]"
        }
      ],
      "stateMutability": "view",
      "type": "function"
    },
    {
      "inputs": [
        {
          "internalType": "uint256",
          "name": "tokenId",
          "type": "uint256"
        }
      ],
      "name": "getPrice",
      "outputs": [
        {
          "internalType": "uint256",
          "name": "",
          "type": "uint256"
        }
      ],
      "stateMutability": "view",
      "type": "function"
    },
    {
      "inputs": [
        {
          "internalType": "address",
          "name": "owner",
          "type": "address"
        },
        {
          "internalType": "address",
          "name": "operator",
          "type": "address"
        }
      ],
      "name": "isApprovedForAll",
      "outputs": [
        {
          "internalType": "bool",
          "name": "",
          "type": "bool"
        }
      ],
      "stateMutability": "view",
      "type": "function"
    },
    {
      "inputs": [
        {
          "internalType": "uint256",
          "name": "collectionId",
          "type": "uint256"
        },
        {
          "internalType": "string",
          "name": "tokenURI",
          "type": "string"
        },
        {
          "internalType": "uint256",
          "name": "price",
          "type": "uint256"
        }
      ],
      "name": "mint",
      "outputs": [
        {
          "internalType": "uint256",
          "name": "",
          "type": "uint256"
        }
      ],
      "stateMutability": "nonpayable",
      "type": "function"
    },
    {
      "inputs": [],
      "name": "name",
      "outputs": [
        {
          "internalType": "string",
          "name": "",
          "type": "string"
        }
      ],
      "stateMutability": "view",
      "type": "function"
    },
    {
      "inputs": [],
      "name": "owner",
      "outputs": [
        {
          "internalType": "address",
          "name": "",
          "type": "address"
        }
      ],
      "stateMutability": "view",
      "type": "function"
    },
    {
      "inputs": [
        {
          "internalType": "uint256",
          "name": "tokenId",
          "type": "uint256"
        }
      ],
      "name": "ownerOf",
      "outputs": [
        {
          "internalType": "address",
          "name": "",
          "type": "address"
        }
      ],
      "stateMutability": "view",
      "type": "function"
    },
    {
      "inputs": [],
      "name": "renounceOwnership",
      "outputs": [],
      "stateMutability": "nonpayable",
      "type": "function"
    },
    {
      "inputs": [
        {
          "internalType": "address",
          "name": "from",
          "type": "address"
        },
        {
          "internalType": "address",
          "name": "to",
          "type": "address"
        },
        {
          "internalType": "uint256",
          "name": "tokenId",
          "type": "uint256"
        }
      ],
      "name": "safeTransferFrom",
      "outputs": [],
      "stateMutability": "nonpayable",
      "type": "function"
    },
    {
      "inputs": [
        {
          "internalType": "address",
          "name": "from",
          "type": "address"
        },
        {
          "internalType": "address",
          "name": "to",
          "type": "address"
        },
        {
          "internalType": "uint256",
          "name": "tokenId",
          "type": "uint256"
        },
        {
          "internalType": "bytes",
          "name": "data",
          "type": "bytes"
        }
      ],
      "name": "safeTransferFrom",
      "outputs": [],
      "stateMutability": "nonpayable",
      "type": "function"
    },
    {
      "inputs": [
        {
          "internalType": "address",
          "name": "operator",
          "type": "address"
        },
        {
          "internalType": "bool",
          "name": "approved",
          "type": "bool"
        }
      ],
      "name": "setApprovalForAll",
      "outputs": [],
      "stateMutability": "nonpayable",
      "type": "function"
    },
    {
      "inputs": [
        {
          "internalType": "uint256",
          "name": "tokenId",
          "type": "uint256"
        },
        {
          "internalType": "uint256",
          "name": "price",
          "type": "uint256"
        }
      ],
      "name": "setPrice",
      "outputs": [
        {
          "internalType": "uint256",
          "name": "",
          "type": "uint256"
        }
      ],
      "stateMutability": "nonpayable",
      "type": "function"
    },
    {
      "inputs": [
        {
          "internalType": "bytes4",
          "name": "interfaceId",
          "type": "bytes4"
        }
      ],
      "name": "supportsInterface",
      "outputs": [
        {
          "internalType": "bool",
          "name": "",
          "type": "bool"
        }
      ],
      "stateMutability": "view",
      "type": "function"
    },
    {
      "inputs": [],
      "name": "symbol",
      "outputs": [
        {
          "internalType": "string",
          "name": "",
          "type": "string"
        }
      ],
      "stateMutability": "view",
      "type": "function"
    },
    {
      "inputs": [
        {
          "internalType": "uint256",
          "name": "tokenId",
          "type": "uint256"
        }
      ],
      "name": "tokenURI",
      "outputs": [
        {
          "internalType": "string",
          "name": "",
          "type": "string"
        }
      ],
      "stateMutability": "view",
      "type": "function"
    },
    {
      "inputs": [
        {
          "internalType": "address",
          "name": "from",
          "type": "address"
        },
        {
          "internalType": "address",
          "name": "to",
          "type": "address"
        },
        {
          "internalType": "uint256",
          "name": "tokenId",
          "type": "uint256"
        }
      ],
      "name": "transferFrom",
      "outputs": [],
      "stateMutability": "nonpayable",
      "type": "function"
    },
    {
      "inputs": [
        {
          "internalType": "address",
          "name": "newOwner",
          "type": "address"
        }
      ],
      "name": "transferOwnership",
      "outputs": [],
      "stateMutability": "nonpayable",
      "type": "function"
    }
  ],
  "bytecode": "0x60806040523480156200001157600080fd5b506040518060400160405280601181526020017f455243373231436f6c6c656374696f6e730000000000000000000000000000008152506040518060400160405280600381526020017f5354520000000000000000000000000000000000000000000000000000000000815250816000908051906020019062000096929190620001a6565b508060019080519060200190620000af929190620001a6565b505050620000d2620000c6620000d860201b60201c565b620000e060201b60201c565b620002bb565b600033905090565b6000600760009054906101000a900473ffffffffffffffffffffffffffffffffffffffff16905081600760006101000a81548173ffffffffffffffffffffffffffffffffffffffff021916908373ffffffffffffffffffffffffffffffffffffffff1602179055508173ffffffffffffffffffffffffffffffffffffffff168173ffffffffffffffffffffffffffffffffffffffff167f8be0079c531659141344cd1fd0a4f28419497f9722a3daafe3b4186f6b6457e060405160405180910390a35050565b828054620001b49062000256565b90600052602060002090601f016020900481019282620001d8576000855562000224565b82601f10620001f357805160ff191683800117855562000224565b8280016001018555821562000224579182015b828111156200022357825182559160200191906001019062000206565b5b50905062000233919062000237565b5090565b5b808211156200025257600081600090555060010162000238565b5090565b600060028204905060018216806200026f57607f821691505b602082108114156200028657620002856200028c565b5b50919050565b7f4e487b7100000000000000000000000000000000000000000000000000000000600052602260045260246000fd5b61371580620002cb6000396000f3fe608060405234801561001057600080fd5b50600436106101425760003560e01c80638da5cb5b116100b8578063c87b56dd1161007c578063c87b56dd14610387578063cae98f2b146103b7578063e7572230146103e7578063e985e9c514610417578063f2fde38b14610447578063f7d975771461046357610142565b80638da5cb5b146102e357806395d89b4114610301578063a22cb4651461031f578063acca6b311461033b578063b88d4fde1461036b57610142565b806323b872dd1161010a57806323b872dd1461021157806342842e0e1461022d5780635a1f3c28146102495780636352211e1461027957806370a08231146102a9578063715018a6146102d957610142565b806301ffc9a714610147578063059dfe131461017757806306fdde03146101a7578063081812fc146101c5578063095ea7b3146101f5575b600080fd5b610161600480360381019061015c9190612616565b610493565b60405161016e9190612c86565b60405180910390f35b610191600480360381019061018c9190612668565b6104f4565b60405161019e9190612f45565b60405180910390f35b6101af610575565b6040516101bc9190612ca1565b60405180910390f35b6101df60048036038101906101da91906126a9565b610607565b6040516101ec9190612bfd565b60405180910390f35b61020f600480360381019061020a91906125da565b61064d565b005b61022b600480360381019061022691906124d4565b610765565b005b610247600480360381019061024291906124d4565b6107c5565b005b610263600480360381019061025e91906126a9565b6107e5565b6040516102709190612f23565b60405180910390f35b610293600480360381019061028e91906126a9565b6108ae565b6040516102a09190612bfd565b60405180910390f35b6102c360048036038101906102be919061246f565b610935565b6040516102d09190612f45565b60405180910390f35b6102e16109ed565b005b6102eb610a01565b6040516102f89190612bfd565b60405180910390f35b610309610a2b565b6040516103169190612ca1565b60405180910390f35b6103396004803603810190610334919061259e565b610abd565b005b610355600480360381019061035091906126d2565b610ad3565b6040516103629190612f45565b60405180910390f35b61038560048036038101906103809190612523565b610c12565b005b6103a1600480360381019061039c91906126a9565b610c74565b6040516103ae9190612ca1565b60405180910390f35b6103d160048036038101906103cc91906126a9565b610d87565b6040516103de9190612c64565b60405180910390f35b61040160048036038101906103fc91906126a9565b610df2565b60405161040e9190612f45565b60405180910390f35b610431600480360381019061042c9190612498565b610e0f565b60405161043e9190612c86565b60405180910390f35b610461600480360381019061045c919061246f565b610ea3565b005b61047d60048036038101906104789190612739565b610f27565b60405161048a9190612f45565b60405180910390f35b6000634906490660e01b7bffffffffffffffffffffffffffffffffffffffffffffffffffffffff1916827bffffffffffffffffffffffffffffffffffffffffffffffffffffffff191614806104ed57506104ec8261107a565b5b9050919050565b6000610500600961115c565b604051806040016040528083815260200161051b6009611172565b815250600a600061052c6009611172565b81526020019081526020016000206000820151816000019080519060200190610556929190612279565b506020820151816001015590505061056e6009611172565b9050919050565b6060600080546105849061312a565b80601f01602080910402602001604051908101604052809291908181526020018280546105b09061312a565b80156105fd5780601f106105d2576101008083540402835291602001916105fd565b820191906000526020600020905b8154815290600101906020018083116105e057829003601f168201915b5050505050905090565b600061061282611180565b6004600083815260200190815260200160002060009054906101000a900473ffffffffffffffffffffffffffffffffffffffff169050919050565b6000610658826108ae565b90508073ffffffffffffffffffffffffffffffffffffffff168373ffffffffffffffffffffffffffffffffffffffff1614156106c9576040517f08c379a00000000000000000000000000000000000000000000000000000000081526004016106c090612e63565b60405180910390fd5b8073ffffffffffffffffffffffffffffffffffffffff166106e86111cb565b73ffffffffffffffffffffffffffffffffffffffff1614806107175750610716816107116111cb565b610e0f565b5b610756576040517f08c379a000000000000000000000000000000000000000000000000000000000815260040161074d90612ec3565b60405180910390fd5b61076083836111d3565b505050565b6107766107706111cb565b8261128c565b6107b5576040517f08c379a00000000000000000000000000000000000000000000000000000000081526004016107ac90612cc3565b60405180910390fd5b6107c0838383611321565b505050565b6107e083838360405180602001604052806000815250610c12565b505050565b6107ed6122ff565b600a600083815260200190815260200160002060405180604001604052908160008201805461081b9061312a565b80601f01602080910402602001604051908101604052809291908181526020018280546108479061312a565b80156108945780601f1061086957610100808354040283529160200191610894565b820191906000526020600020905b81548152906001019060200180831161087757829003601f168201915b505050505081526020016001820154815250509050919050565b6000806108ba8361161b565b9050600073ffffffffffffffffffffffffffffffffffffffff168173ffffffffffffffffffffffffffffffffffffffff16141561092c576040517f08c379a000000000000000000000000000000000000000000000000000000000815260040161092390612e43565b60405180910390fd5b80915050919050565b60008073ffffffffffffffffffffffffffffffffffffffff168273ffffffffffffffffffffffffffffffffffffffff1614156109a6576040517f08c379a000000000000000000000000000000000000000000000000000000000815260040161099d90612dc3565b60405180910390fd5b600360008373ffffffffffffffffffffffffffffffffffffffff1673ffffffffffffffffffffffffffffffffffffffff168152602001908152602001600020549050919050565b6109f5611658565b6109ff60006116d6565b565b6000600760009054906101000a900473ffffffffffffffffffffffffffffffffffffffff16905090565b606060018054610a3a9061312a565b80601f0160208091040260200160405190810160405280929190818152602001828054610a669061312a565b8015610ab35780601f10610a8857610100808354040283529160200191610ab3565b820191906000526020600020905b815481529060010190602001808311610a9657829003601f168201915b5050505050905090565b610acf610ac86111cb565b838361179c565b5050565b600080600a6000868152602001908152602001600020600101541415610b2e576040517f08c379a0000000000000000000000000000000000000000000000000000000008152600401610b2590612d63565b60405180910390fd5b60008211610b71576040517f08c379a0000000000000000000000000000000000000000000000000000000008152600401610b6890612f03565b60405180910390fd5b6000610b7d6008611172565b9050610b89600861115c565b610b933382611909565b610b9d8185611b27565b84600c600083815260200190815260200160002081905550600b600086815260200190815260200160002081908060018154018082558091505060019003906000526020600020016000909190919091505582600d600083815260200190815260200160002081905550809150509392505050565b610c23610c1d6111cb565b8361128c565b610c62576040517f08c379a0000000000000000000000000000000000000000000000000000000008152600401610c5990612cc3565b60405180910390fd5b610c6e84848484611bd2565b50505050565b6060610c7f82611180565b6000600660008481526020019081526020016000208054610c9f9061312a565b80601f0160208091040260200160405190810160405280929190818152602001828054610ccb9061312a565b8015610d185780601f10610ced57610100808354040283529160200191610d18565b820191906000526020600020905b815481529060010190602001808311610cfb57829003601f168201915b505050505090506000610d29611c2e565b9050600081511415610d3f578192505050610d82565b600082511115610d74578082604051602001610d5c929190612bd9565b60405160208183030381529060405292505050610d82565b610d7d84611c45565b925050505b919050565b6060600b6000838152602001908152602001600020805480602002602001604051908101604052809291908181526020018280548015610de657602002820191906000526020600020905b815481526020019060010190808311610dd2575b50505050509050919050565b6000600d6000838152602001908152602001600020549050919050565b6000600560008473ffffffffffffffffffffffffffffffffffffffff1673ffffffffffffffffffffffffffffffffffffffff16815260200190815260200160002060008373ffffffffffffffffffffffffffffffffffffffff1673ffffffffffffffffffffffffffffffffffffffff16815260200190815260200160002060009054906101000a900460ff16905092915050565b610eab611658565b600073ffffffffffffffffffffffffffffffffffffffff168173ffffffffffffffffffffffffffffffffffffffff161415610f1b576040517f08c379a0000000000000000000000000000000000000000000000000000000008152600401610f1290612d03565b60405180910390fd5b610f24816116d6565b50565b6000610f3a610f346111cb565b8461128c565b610f79576040517f08c379a0000000000000000000000000000000000000000000000000000000008152600401610f7090612ee3565b60405180910390fd5b3373ffffffffffffffffffffffffffffffffffffffff16610f99846108ae565b73ffffffffffffffffffffffffffffffffffffffff1614610fef576040517f08c379a0000000000000000000000000000000000000000000000000000000008152600401610fe690612e83565b60405180910390fd5b6000600d6000858152602001908152602001600020541415611046576040517f08c379a000000000000000000000000000000000000000000000000000000000815260040161103d90612ea3565b60405180910390fd5b81600d600085815260200190815260200160002081905550600d600084815260200190815260200160002054905092915050565b60007f80ac58cd000000000000000000000000000000000000000000000000000000007bffffffffffffffffffffffffffffffffffffffffffffffffffffffff1916827bffffffffffffffffffffffffffffffffffffffffffffffffffffffff1916148061114557507f5b5e139f000000000000000000000000000000000000000000000000000000007bffffffffffffffffffffffffffffffffffffffffffffffffffffffff1916827bffffffffffffffffffffffffffffffffffffffffffffffffffffffff1916145b80611155575061115482611cad565b5b9050919050565b6001816000016000828254019250508190555050565b600081600001549050919050565b61118981611d17565b6111c8576040517f08c379a00000000000000000000000000000000000000000000000000000000081526004016111bf90612e43565b60405180910390fd5b50565b600033905090565b816004600083815260200190815260200160002060006101000a81548173ffffffffffffffffffffffffffffffffffffffff021916908373ffffffffffffffffffffffffffffffffffffffff160217905550808273ffffffffffffffffffffffffffffffffffffffff16611246836108ae565b73ffffffffffffffffffffffffffffffffffffffff167f8c5be1e5ebec7d5bd14f71427d1e84f3dd0314c0f7b2291e5b200ac8c7c3b92560405160405180910390a45050565b600080611298836108ae565b90508073ffffffffffffffffffffffffffffffffffffffff168473ffffffffffffffffffffffffffffffffffffffff1614806112da57506112d98185610e0f565b5b8061131857508373ffffffffffffffffffffffffffffffffffffffff1661130084610607565b73ffffffffffffffffffffffffffffffffffffffff16145b91505092915050565b8273ffffffffffffffffffffffffffffffffffffffff16611341826108ae565b73ffffffffffffffffffffffffffffffffffffffff1614611397576040517f08c379a000000000000000000000000000000000000000000000000000000000815260040161138e90612d23565b60405180910390fd5b600073ffffffffffffffffffffffffffffffffffffffff168273ffffffffffffffffffffffffffffffffffffffff161415611407576040517f08c379a00000000000000000000000000000000000000000000000000000000081526004016113fe90612d83565b60405180910390fd5b6114148383836001611d58565b8273ffffffffffffffffffffffffffffffffffffffff16611434826108ae565b73ffffffffffffffffffffffffffffffffffffffff161461148a576040517f08c379a000000000000000000000000000000000000000000000000000000000815260040161148190612d23565b60405180910390fd5b6004600082815260200190815260200160002060006101000a81549073ffffffffffffffffffffffffffffffffffffffff02191690556001600360008573ffffffffffffffffffffffffffffffffffffffff1673ffffffffffffffffffffffffffffffffffffffff168152602001908152602001600020600082825403925050819055506001600360008473ffffffffffffffffffffffffffffffffffffffff1673ffffffffffffffffffffffffffffffffffffffff16815260200190815260200160002060008282540192505081905550816002600083815260200190815260200160002060006101000a81548173ffffffffffffffffffffffffffffffffffffffff021916908373ffffffffffffffffffffffffffffffffffffffff160217905550808273ffffffffffffffffffffffffffffffffffffffff168473ffffffffffffffffffffffffffffffffffffffff167fddf252ad1be2c89b69c2b068fc378daa952ba7f163c4a11628f55a4df523b3ef60405160405180910390a46116168383836001611d5e565b505050565b60006002600083815260200190815260200160002060009054906101000a900473ffffffffffffffffffffffffffffffffffffffff169050919050565b6116606111cb565b73ffffffffffffffffffffffffffffffffffffffff1661167e610a01565b73ffffffffffffffffffffffffffffffffffffffff16146116d4576040517f08c379a00000000000000000000000000000000000000000000000000000000081526004016116cb90612e23565b60405180910390fd5b565b6000600760009054906101000a900473ffffffffffffffffffffffffffffffffffffffff16905081600760006101000a81548173ffffffffffffffffffffffffffffffffffffffff021916908373ffffffffffffffffffffffffffffffffffffffff1602179055508173ffffffffffffffffffffffffffffffffffffffff168173ffffffffffffffffffffffffffffffffffffffff167f8be0079c531659141344cd1fd0a4f28419497f9722a3daafe3b4186f6b6457e060405160405180910390a35050565b8173ffffffffffffffffffffffffffffffffffffffff168373ffffffffffffffffffffffffffffffffffffffff16141561180b576040517f08c379a000000000000000000000000000000000000000000000000000000000815260040161180290612da3565b60405180910390fd5b80600560008573ffffffffffffffffffffffffffffffffffffffff1673ffffffffffffffffffffffffffffffffffffffff16815260200190815260200160002060008473ffffffffffffffffffffffffffffffffffffffff1673ffffffffffffffffffffffffffffffffffffffff16815260200190815260200160002060006101000a81548160ff0219169083151502179055508173ffffffffffffffffffffffffffffffffffffffff168373ffffffffffffffffffffffffffffffffffffffff167f17307eab39ab6107e8899845ad3d59bd9653f200f220920489ca2b5937696c31836040516118fc9190612c86565b60405180910390a3505050565b600073ffffffffffffffffffffffffffffffffffffffff168273ffffffffffffffffffffffffffffffffffffffff161415611979576040517f08c379a000000000000000000000000000000000000000000000000000000000815260040161197090612e03565b60405180910390fd5b61198281611d17565b156119c2576040517f08c379a00000000000000000000000000000000000000000000000000000000081526004016119b990612d43565b60405180910390fd5b6119d0600083836001611d58565b6119d981611d17565b15611a19576040517f08c379a0000000000000000000000000000000000000000000000000000000008152600401611a1090612d43565b60405180910390fd5b6001600360008473ffffffffffffffffffffffffffffffffffffffff1673ffffffffffffffffffffffffffffffffffffffff16815260200190815260200160002060008282540192505081905550816002600083815260200190815260200160002060006101000a81548173ffffffffffffffffffffffffffffffffffffffff021916908373ffffffffffffffffffffffffffffffffffffffff160217905550808273ffffffffffffffffffffffffffffffffffffffff16600073ffffffffffffffffffffffffffffffffffffffff167fddf252ad1be2c89b69c2b068fc378daa952ba7f163c4a11628f55a4df523b3ef60405160405180910390a4611b23600083836001611d5e565b5050565b611b3082611d17565b611b6f576040517f08c379a0000000000000000000000000000000000000000000000000000000008152600401611b6690612de3565b60405180910390fd5b80600660008481526020019081526020016000209080519060200190611b96929190612279565b507ff8e1a15aba9398e019f0b49df1a4fde98ee17ae345cb5f6b5e2c27f5033e8ce782604051611bc69190612f45565b60405180910390a15050565b611bdd848484611321565b611be984848484611d64565b611c28576040517f08c379a0000000000000000000000000000000000000000000000000000000008152600401611c1f90612ce3565b60405180910390fd5b50505050565b606060405180602001604052806000815250905090565b6060611c5082611180565b6000611c5a611c2e565b90506000815111611c7a5760405180602001604052806000815250611ca5565b80611c8484611efb565b604051602001611c95929190612bd9565b6040516020818303038152906040525b915050919050565b60007f01ffc9a7000000000000000000000000000000000000000000000000000000007bffffffffffffffffffffffffffffffffffffffffffffffffffffffff1916827bffffffffffffffffffffffffffffffffffffffffffffffffffffffff1916149050919050565b60008073ffffffffffffffffffffffffffffffffffffffff16611d398361161b565b73ffffffffffffffffffffffffffffffffffffffff1614159050919050565b50505050565b50505050565b6000611d858473ffffffffffffffffffffffffffffffffffffffff1661201f565b15611eee578373ffffffffffffffffffffffffffffffffffffffff1663150b7a02611dae6111cb565b8786866040518563ffffffff1660e01b8152600401611dd09493929190612c18565b602060405180830381600087803b158015611dea57600080fd5b505af1925050508015611e1b57506040513d601f19601f82011682018060405250810190611e18919061263f565b60015b611e9e573d8060008114611e4b576040519150601f19603f3d011682016040523d82523d6000602084013e611e50565b606091505b50600081511415611e96576040517f08c379a0000000000000000000000000000000000000000000000000000000008152600401611e8d90612ce3565b60405180910390fd5b805181602001fd5b63150b7a0260e01b7bffffffffffffffffffffffffffffffffffffffffffffffffffffffff1916817bffffffffffffffffffffffffffffffffffffffffffffffffffffffff191614915050611ef3565b600190505b949350505050565b606060006001611f0a84612042565b01905060008167ffffffffffffffff811115611f4f577f4e487b7100000000000000000000000000000000000000000000000000000000600052604160045260246000fd5b6040519080825280601f01601f191660200182016040528015611f815781602001600182028036833780820191505090505b509050600082602001820190505b600115612014578080600190039150507f3031323334353637383961626364656600000000000000000000000000000000600a86061a8153600a8581611ffe577f4e487b7100000000000000000000000000000000000000000000000000000000600052601260045260246000fd5b049450600085141561200f57612014565b611f8f565b819350505050919050565b6000808273ffffffffffffffffffffffffffffffffffffffff163b119050919050565b600080600090507a184f03e93ff9f4daa797ed6e38ed64bf6a1f01000000000000000083106120c6577a184f03e93ff9f4daa797ed6e38ed64bf6a1f01000000000000000083816120bc577f4e487b7100000000000000000000000000000000000000000000000000000000600052601260045260246000fd5b0492506040810190505b6d04ee2d6d415b85acef81000000008310612129576d04ee2d6d415b85acef8100000000838161211f577f4e487b7100000000000000000000000000000000000000000000000000000000600052601260045260246000fd5b0492506020810190505b662386f26fc10000831061217e57662386f26fc100008381612174577f4e487b7100000000000000000000000000000000000000000000000000000000600052601260045260246000fd5b0492506010810190505b6305f5e10083106121cd576305f5e10083816121c3577f4e487b7100000000000000000000000000000000000000000000000000000000600052601260045260246000fd5b0492506008810190505b612710831061221857612710838161220e577f4e487b7100000000000000000000000000000000000000000000000000000000600052601260045260246000fd5b0492506004810190505b606483106122615760648381612257577f4e487b7100000000000000000000000000000000000000000000000000000000600052601260045260246000fd5b0492506002810190505b600a8310612270576001810190505b80915050919050565b8280546122859061312a565b90600052602060002090601f0160209004810192826122a757600085556122ee565b82601f106122c057805160ff19168380011785556122ee565b828001600101855582156122ee579182015b828111156122ed5782518255916020019190600101906122d2565b5b5090506122fb9190612319565b5090565b604051806040016040528060608152602001600081525090565b5b8082111561233257600081600090555060010161231a565b5090565b600061234961234484612f85565b612f60565b90508281526020810184848401111561236157600080fd5b61236c8482856130e8565b509392505050565b600061238761238284612fb6565b612f60565b90508281526020810184848401111561239f57600080fd5b6123aa8482856130e8565b509392505050565b6000813590506123c181613683565b92915050565b6000813590506123d68161369a565b92915050565b6000813590506123eb816136b1565b92915050565b600081519050612400816136b1565b92915050565b600082601f83011261241757600080fd5b8135612427848260208601612336565b91505092915050565b600082601f83011261244157600080fd5b8135612451848260208601612374565b91505092915050565b600081359050612469816136c8565b92915050565b60006020828403121561248157600080fd5b600061248f848285016123b2565b91505092915050565b600080604083850312156124ab57600080fd5b60006124b9858286016123b2565b92505060206124ca858286016123b2565b9150509250929050565b6000806000606084860312156124e957600080fd5b60006124f7868287016123b2565b9350506020612508868287016123b2565b92505060406125198682870161245a565b9150509250925092565b6000806000806080858703121561253957600080fd5b6000612547878288016123b2565b9450506020612558878288016123b2565b93505060406125698782880161245a565b925050606085013567ffffffffffffffff81111561258657600080fd5b61259287828801612406565b91505092959194509250565b600080604083850312156125b157600080fd5b60006125bf858286016123b2565b92505060206125d0858286016123c7565b9150509250929050565b600080604083850312156125ed57600080fd5b60006125fb858286016123b2565b925050602061260c8582860161245a565b9150509250929050565b60006020828403121561262857600080fd5b6000612636848285016123dc565b91505092915050565b60006020828403121561265157600080fd5b600061265f848285016123f1565b91505092915050565b60006020828403121561267a57600080fd5b600082013567ffffffffffffffff81111561269457600080fd5b6126a084828501612430565b91505092915050565b6000602082840312156126bb57600080fd5b60006126c98482850161245a565b91505092915050565b6000806000606084860312156126e757600080fd5b60006126f58682870161245a565b935050602084013567ffffffffffffffff81111561271257600080fd5b61271e86828701612430565b925050604061272f8682870161245a565b9150509250925092565b6000806040838503121561274c57600080fd5b600061275a8582860161245a565b925050602061276b8582860161245a565b9150509250929050565b60006127818383612bbb565b60208301905092915050565b61279681613074565b82525050565b60006127a782612ff7565b6127b18185613025565b93506127bc83612fe7565b8060005b838110156127ed5781516127d48882612775565b97506127df83613018565b9250506001810190506127c0565b5085935050505092915050565b61280381613086565b82525050565b600061281482613002565b61281e8185613036565b935061282e8185602086016130f7565b612837816131eb565b840191505092915050565b600061284d8261300d565b6128578185613047565b93506128678185602086016130f7565b612870816131eb565b840191505092915050565b60006128868261300d565b6128908185613058565b93506128a08185602086016130f7565b6128a9816131eb565b840191505092915050565b60006128bf8261300d565b6128c98185613069565b93506128d98185602086016130f7565b80840191505092915050565b60006128f2602d83613058565b91506128fd826131fc565b604082019050919050565b6000612915603283613058565b91506129208261324b565b604082019050919050565b6000612938602683613058565b91506129438261329a565b604082019050919050565b600061295b602583613058565b9150612966826132e9565b604082019050919050565b600061297e601c83613058565b915061298982613338565b602082019050919050565b60006129a1601983613058565b91506129ac82613361565b602082019050919050565b60006129c4602483613058565b91506129cf8261338a565b604082019050919050565b60006129e7601983613058565b91506129f2826133d9565b602082019050919050565b6000612a0a602983613058565b9150612a1582613402565b604082019050919050565b6000612a2d602e83613058565b9150612a3882613451565b604082019050919050565b6000612a50602083613058565b9150612a5b826134a0565b602082019050919050565b6000612a73602083613058565b9150612a7e826134c9565b602082019050919050565b6000612a96601883613058565b9150612aa1826134f2565b602082019050919050565b6000612ab9602183613058565b9150612ac48261351b565b604082019050919050565b6000612adc601c83613058565b9150612ae78261356a565b602082019050919050565b6000612aff600d83613058565b9150612b0a82613593565b602082019050919050565b6000612b22603d83613058565b9150612b2d826135bc565b604082019050919050565b6000612b45603183613058565b9150612b508261360b565b604082019050919050565b6000612b68601c83613058565b9150612b738261365a565b602082019050919050565b60006040830160008301518482036000860152612b9b8282612842565b9150506020830151612bb06020860182612bbb565b508091505092915050565b612bc4816130de565b82525050565b612bd3816130de565b82525050565b6000612be582856128b4565b9150612bf182846128b4565b91508190509392505050565b6000602082019050612c12600083018461278d565b92915050565b6000608082019050612c2d600083018761278d565b612c3a602083018661278d565b612c476040830185612bca565b8181036060830152612c598184612809565b905095945050505050565b60006020820190508181036000830152612c7e818461279c565b905092915050565b6000602082019050612c9b60008301846127fa565b92915050565b60006020820190508181036000830152612cbb818461287b565b905092915050565b60006020820190508181036000830152612cdc816128e5565b9050919050565b60006020820190508181036000830152612cfc81612908565b9050919050565b60006020820190508181036000830152612d1c8161292b565b9050919050565b60006020820190508181036000830152612d3c8161294e565b9050919050565b60006020820190508181036000830152612d5c81612971565b9050919050565b60006020820190508181036000830152612d7c81612994565b9050919050565b60006020820190508181036000830152612d9c816129b7565b9050919050565b60006020820190508181036000830152612dbc816129da565b9050919050565b60006020820190508181036000830152612ddc816129fd565b9050919050565b60006020820190508181036000830152612dfc81612a20565b9050919050565b60006020820190508181036000830152612e1c81612a43565b9050919050565b60006020820190508181036000830152612e3c81612a66565b9050919050565b60006020820190508181036000830152612e5c81612a89565b9050919050565b60006020820190508181036000830152612e7c81612aac565b9050919050565b60006020820190508181036000830152612e9c81612acf565b9050919050565b60006020820190508181036000830152612ebc81612af2565b9050919050565b60006020820190508181036000830152612edc81612b15565b9050919050565b60006020820190508181036000830152612efc81612b38565b9050919050565b60006020820190508181036000830152612f1c81612b5b565b9050919050565b60006020820190508181036000830152612f3d8184612b7e565b905092915050565b6000602082019050612f5a6000830184612bca565b92915050565b6000612f6a612f7b565b9050612f76828261315c565b919050565b6000604051905090565b600067ffffffffffffffff821115612fa057612f9f6131bc565b5b612fa9826131eb565b9050602081019050919050565b600067ffffffffffffffff821115612fd157612fd06131bc565b5b612fda826131eb565b9050602081019050919050565b6000819050602082019050919050565b600081519050919050565b600081519050919050565b600081519050919050565b6000602082019050919050565b600082825260208201905092915050565b600082825260208201905092915050565b600082825260208201905092915050565b600082825260208201905092915050565b600081905092915050565b600061307f826130be565b9050919050565b60008115159050919050565b60007fffffffff0000000000000000000000000000000000000000000000000000000082169050919050565b600073ffffffffffffffffffffffffffffffffffffffff82169050919050565b6000819050919050565b82818337600083830152505050565b60005b838110156131155780820151818401526020810190506130fa565b83811115613124576000848401525b50505050565b6000600282049050600182168061314257607f821691505b602082108114156131565761315561318d565b5b50919050565b613165826131eb565b810181811067ffffffffffffffff82111715613184576131836131bc565b5b80604052505050565b7f4e487b7100000000000000000000000000000000000000000000000000000000600052602260045260246000fd5b7f4e487b7100000000000000000000000000000000000000000000000000000000600052604160045260246000fd5b6000601f19601f8301169050919050565b7f4552433732313a2063616c6c6572206973206e6f7420746f6b656e206f776e6560008201527f72206f7220617070726f76656400000000000000000000000000000000000000602082015250565b7f4552433732313a207472616e7366657220746f206e6f6e20455243373231526560008201527f63656976657220696d706c656d656e7465720000000000000000000000000000602082015250565b7f4f776e61626c653a206e6577206f776e657220697320746865207a65726f206160008201527f6464726573730000000000000000000000000000000000000000000000000000602082015250565b7f4552433732313a207472616e736665722066726f6d20696e636f72726563742060008201527f6f776e6572000000000000000000000000000000000000000000000000000000602082015250565b7f4552433732313a20746f6b656e20616c7265616479206d696e74656400000000600082015250565b7f436f6c6c656374696f6e20646f6573206e6f7420657869737400000000000000600082015250565b7f4552433732313a207472616e7366657220746f20746865207a65726f2061646460008201527f7265737300000000000000000000000000000000000000000000000000000000602082015250565b7f4552433732313a20617070726f766520746f2063616c6c657200000000000000600082015250565b7f4552433732313a2061646472657373207a65726f206973206e6f74206120766160008201527f6c6964206f776e65720000000000000000000000000000000000000000000000602082015250565b7f45524337323155524953746f726167653a2055524920736574206f66206e6f6e60008201527f6578697374656e7420746f6b656e000000000000000000000000000000000000602082015250565b7f4552433732313a206d696e7420746f20746865207a65726f2061646472657373600082015250565b7f4f776e61626c653a2063616c6c6572206973206e6f7420746865206f776e6572600082015250565b7f4552433732313a20696e76616c696420746f6b656e2049440000000000000000600082015250565b7f4552433732313a20617070726f76616c20746f2063757272656e74206f776e6560008201527f7200000000000000000000000000000000000000000000000000000000000000602082015250565b7f4f6e6c79206f776e65722063616e207365742074686520707269636500000000600082015250565b7f5072696365206e6f742073657400000000000000000000000000000000000000600082015250565b7f4552433732313a20617070726f76652063616c6c6572206973206e6f7420746f60008201527f6b656e206f776e6572206f7220617070726f76656420666f7220616c6c000000602082015250565b7f4552433732313a207472616e736665722063616c6c6572206973206e6f74206f60008201527f776e6572206e6f7220617070726f766564000000000000000000000000000000602082015250565b7f5072696365206d7573742062652067726561746572207468616e203000000000600082015250565b61368c81613074565b811461369757600080fd5b50565b6136a381613086565b81146136ae57600080fd5b50565b6136ba81613092565b81146136c557600080fd5b50565b6136d1816130de565b81146136dc57600080fd5b5056fea2646970667358221220a57b9bdf23b2c42f7ee1e8872d114ff555c18b95266516635392dc285bbff9a064736f6c63430008040033",
  "linkReferences": {},
  "deployedLinkReferences": {}
}