{
  "_format": "hh-sol-artifact-1",
  "contractName": "NFTMarketplace",
  "sourceName": "contracts/NFTMarketplace.sol",
  "abi": [
    {
      "inputs": [
        {
          "internalType": "address",
          "name": "nftContractAddress",
          "type": "address"
        }
      ],
      "stateMutability": "nonpayable",
      "type": "constructor"
    },
    {
      "anonymous": false,
      "inputs": [
        {
          "indexed": true,
          "internalType": "uint256",
          "name": "tokenId",
          "type": "uint256"
        }
      ],
      "name": "NFTBought",
      "type": "event"
    },
    {
      "anonymous": false,
      "inputs": [
        {
          "indexed": true,
          "internalType": "uint256",
          "name": "tokenId",
          "type": "uint256"
        }
      ],
      "name": "NFTDelisted",
      "type": "event"
    },
    {
      "anonymous": false,
      "inputs": [
        {
          "indexed": true,
          "internalType": "uint256",
          "name": "tokenId",
          "type": "uint256"
        }
      ],
      "name": "NFTListed",
      "type": "event"
    },
    {
      "anonymous": false,
      "inputs": [
        {
          "indexed": true,
          "internalType": "address",
          "name": "previousOwner",
          "type": "address"
        },
        {
          "indexed": true,
          "internalType": "address",
          "name": "newOwner",
          "type": "address"
        }
      ],
      "name": "OwnershipTransferred",
      "type": "event"
    },
    {
      "inputs": [
        {
          "internalType": "uint256",
          "name": "tokenId",
          "type": "uint256"
        }
      ],
      "name": "buyNFT",
      "outputs": [],
      "stateMutability": "payable",
      "type": "function"
    },
    {
      "inputs": [
        {
          "internalType": "uint256",
          "name": "tokenId",
          "type": "uint256"
        }
      ],
      "name": "delistNFT",
      "outputs": [],
      "stateMutability": "nonpayable",
      "type": "function"
    },
    {
      "inputs": [
        {
          "internalType": "uint256",
          "name": "tokenId",
          "type": "uint256"
        }
      ],
      "name": "listNFT",
      "outputs": [],
      "stateMutability": "nonpayable",
      "type": "function"
    },
    {
      "inputs": [],
      "name": "owner",
      "outputs": [
        {
          "internalType": "address",
          "name": "",
          "type": "address"
        }
      ],
      "stateMutability": "view",
      "type": "function"
    },
    {
      "inputs": [],
      "name": "renounceOwnership",
      "outputs": [],
      "stateMutability": "nonpayable",
      "type": "function"
    },
    {
      "inputs": [
        {
          "internalType": "address",
          "name": "newOwner",
          "type": "address"
        }
      ],
      "name": "transferOwnership",
      "outputs": [],
      "stateMutability": "nonpayable",
      "type": "function"
    }
  ],
  "bytecode": "0x60806040523480156200001157600080fd5b50604051620012df380380620012df833981810160405281019062000037919062000182565b620000576200004b6200009f60201b60201c565b620000a760201b60201c565b80600160006101000a81548173ffffffffffffffffffffffffffffffffffffffff021916908373ffffffffffffffffffffffffffffffffffffffff16021790555050620001fc565b600033905090565b60008060009054906101000a900473ffffffffffffffffffffffffffffffffffffffff169050816000806101000a81548173ffffffffffffffffffffffffffffffffffffffff021916908373ffffffffffffffffffffffffffffffffffffffff1602179055508173ffffffffffffffffffffffffffffffffffffffff168173ffffffffffffffffffffffffffffffffffffffff167f8be0079c531659141344cd1fd0a4f28419497f9722a3daafe3b4186f6b6457e060405160405180910390a35050565b6000815190506200017c81620001e2565b92915050565b6000602082840312156200019557600080fd5b6000620001a5848285016200016b565b91505092915050565b6000620001bb82620001c2565b9050919050565b600073ffffffffffffffffffffffffffffffffffffffff82169050919050565b620001ed81620001ae565b8114620001f957600080fd5b50565b6110d3806200020c6000396000f3fe6080604052600436106100555760003560e01c806351ed82881461005a578063715018a6146100765780638da5cb5b1461008d578063cb917b9c146100b8578063d076f13f146100e1578063f2fde38b1461010a575b600080fd5b610074600480360381019061006f9190610bdc565b610133565b005b34801561008257600080fd5b5061008b610463565b005b34801561009957600080fd5b506100a2610477565b6040516100af9190610d41565b60405180910390f35b3480156100c457600080fd5b506100df60048036038101906100da9190610bdc565b6104a0565b005b3480156100ed57600080fd5b5061010860048036038101906101039190610bdc565b610704565b005b34801561011657600080fd5b50610131600480360381019061012c9190610b8a565b610968565b005b6002600082815260200190815260200160002060009054906101000a900460ff16610193576040517f08c379a000000000000000000000000000000000000000000000000000000000815260040161018a90610e5c565b60405180910390fd5b600160009054906101000a900473ffffffffffffffffffffffffffffffffffffffff1673ffffffffffffffffffffffffffffffffffffffff1663e7572230826040518263ffffffff1660e01b81526004016101ee9190610e9c565b60206040518083038186803b15801561020657600080fd5b505afa15801561021a573d6000803e3d6000fd5b505050506040513d601f19601f8201168201806040525081019061023e9190610c05565b341461027f576040517f08c379a000000000000000000000000000000000000000000000000000000000815260040161027690610e3c565b60405180910390fd5b6000600160009054906101000a900473ffffffffffffffffffffffffffffffffffffffff1673ffffffffffffffffffffffffffffffffffffffff16636352211e836040518263ffffffff1660e01b81526004016102dc9190610e9c565b60206040518083038186803b1580156102f457600080fd5b505afa158015610308573d6000803e3d6000fd5b505050506040513d601f19601f8201168201806040525081019061032c9190610bb3565b90508073ffffffffffffffffffffffffffffffffffffffff166108fc349081150290604051600060405180830381858888f19350505050158015610374573d6000803e3d6000fd5b50600160009054906101000a900473ffffffffffffffffffffffffffffffffffffffff1673ffffffffffffffffffffffffffffffffffffffff166323b872dd8233856040518463ffffffff1660e01b81526004016103d493929190610d5c565b600060405180830381600087803b1580156103ee57600080fd5b505af1158015610402573d6000803e3d6000fd5b5050505060006002600084815260200190815260200160002060006101000a81548160ff021916908315150217905550817ff1a4f188d8f608af032a64d403473119856aae541d836c6a78e2187e809c330760405160405180910390a25050565b61046b6109ec565b6104756000610a6a565b565b60008060009054906101000a900473ffffffffffffffffffffffffffffffffffffffff16905090565b600160009054906101000a900473ffffffffffffffffffffffffffffffffffffffff1673ffffffffffffffffffffffffffffffffffffffff16636352211e826040518263ffffffff1660e01b81526004016104fb9190610e9c565b60206040518083038186803b15801561051357600080fd5b505afa158015610527573d6000803e3d6000fd5b505050506040513d601f19601f8201168201806040525081019061054b9190610bb3565b73ffffffffffffffffffffffffffffffffffffffff163373ffffffffffffffffffffffffffffffffffffffff16146105b8576040517f08c379a00000000000000000000000000000000000000000000000000000000081526004016105af90610dfc565b60405180910390fd5b6002600082815260200190815260200160002060009054906101000a900460ff16610618576040517f08c379a000000000000000000000000000000000000000000000000000000000815260040161060f90610ddc565b60405180910390fd5b60006002600083815260200190815260200160002060006101000a81548160ff021916908315150217905550600160009054906101000a900473ffffffffffffffffffffffffffffffffffffffff1673ffffffffffffffffffffffffffffffffffffffff1663095ea7b36000836040518363ffffffff1660e01b81526004016106a2929190610d93565b600060405180830381600087803b1580156106bc57600080fd5b505af11580156106d0573d6000803e3d6000fd5b50505050807fc0c55a6edead4433d18cb1e287a0a20a2fa003a6f483bc9823d2e504d70d1c6760405160405180910390a250565b600160009054906101000a900473ffffffffffffffffffffffffffffffffffffffff1673ffffffffffffffffffffffffffffffffffffffff16636352211e826040518263ffffffff1660e01b815260040161075f9190610e9c565b60206040518083038186803b15801561077757600080fd5b505afa15801561078b573d6000803e3d6000fd5b505050506040513d601f19601f820116820180604052508101906107af9190610bb3565b73ffffffffffffffffffffffffffffffffffffffff163373ffffffffffffffffffffffffffffffffffffffff161461081c576040517f08c379a000000000000000000000000000000000000000000000000000000000815260040161081390610dfc565b60405180910390fd5b6002600082815260200190815260200160002060009054906101000a900460ff161561087d576040517f08c379a000000000000000000000000000000000000000000000000000000000815260040161087490610e1c565b60405180910390fd5b60016002600083815260200190815260200160002060006101000a81548160ff021916908315150217905550600160009054906101000a900473ffffffffffffffffffffffffffffffffffffffff1673ffffffffffffffffffffffffffffffffffffffff1663095ea7b330836040518363ffffffff1660e01b8152600401610906929190610d93565b600060405180830381600087803b15801561092057600080fd5b505af1158015610934573d6000803e3d6000fd5b50505050807fdb1fd9bae40110b73b6592270632b19e60d204d52ee5cd72c60d076e6bdd342f60405160405180910390a250565b6109706109ec565b600073ffffffffffffffffffffffffffffffffffffffff168173ffffffffffffffffffffffffffffffffffffffff1614156109e0576040517f08c379a00000000000000000000000000000000000000000000000000000000081526004016109d790610dbc565b60405180910390fd5b6109e981610a6a565b50565b6109f4610b2e565b73ffffffffffffffffffffffffffffffffffffffff16610a12610477565b73ffffffffffffffffffffffffffffffffffffffff1614610a68576040517f08c379a0000000000000000000000000000000000000000000000000000000008152600401610a5f90610e7c565b60405180910390fd5b565b60008060009054906101000a900473ffffffffffffffffffffffffffffffffffffffff169050816000806101000a81548173ffffffffffffffffffffffffffffffffffffffff021916908373ffffffffffffffffffffffffffffffffffffffff1602179055508173ffffffffffffffffffffffffffffffffffffffff168173ffffffffffffffffffffffffffffffffffffffff167f8be0079c531659141344cd1fd0a4f28419497f9722a3daafe3b4186f6b6457e060405160405180910390a35050565b600033905090565b600081359050610b458161106f565b92915050565b600081519050610b5a8161106f565b92915050565b600081359050610b6f81611086565b92915050565b600081519050610b8481611086565b92915050565b600060208284031215610b9c57600080fd5b6000610baa84828501610b36565b91505092915050565b600060208284031215610bc557600080fd5b6000610bd384828501610b4b565b91505092915050565b600060208284031215610bee57600080fd5b6000610bfc84828501610b60565b91505092915050565b600060208284031215610c1757600080fd5b6000610c2584828501610b75565b91505092915050565b610c3781610ec8565b82525050565b6000610c4a602683610eb7565b9150610c5582610f04565b604082019050919050565b6000610c6d600e83610eb7565b9150610c7882610f53565b602082019050919050565b6000610c90601a83610eb7565b9150610c9b82610f7c565b602082019050919050565b6000610cb3601283610eb7565b9150610cbe82610fa5565b602082019050919050565b6000610cd6602783610eb7565b9150610ce182610fce565b604082019050919050565b6000610cf9601783610eb7565b9150610d048261101d565b602082019050919050565b6000610d1c602083610eb7565b9150610d2782611046565b602082019050919050565b610d3b81610efa565b82525050565b6000602082019050610d566000830184610c2e565b92915050565b6000606082019050610d716000830186610c2e565b610d7e6020830185610c2e565b610d8b6040830184610d32565b949350505050565b6000604082019050610da86000830185610c2e565b610db56020830184610d32565b9392505050565b60006020820190508181036000830152610dd581610c3d565b9050919050565b60006020820190508181036000830152610df581610c60565b9050919050565b60006020820190508181036000830152610e1581610c83565b9050919050565b60006020820190508181036000830152610e3581610ca6565b9050919050565b60006020820190508181036000830152610e5581610cc9565b9050919050565b60006020820190508181036000830152610e7581610cec565b9050919050565b60006020820190508181036000830152610e9581610d0f565b9050919050565b6000602082019050610eb16000830184610d32565b92915050565b600082825260208201905092915050565b6000610ed382610eda565b9050919050565b600073ffffffffffffffffffffffffffffffffffffffff82169050919050565b6000819050919050565b7f4f776e61626c653a206e6577206f776e657220697320746865207a65726f206160008201527f6464726573730000000000000000000000000000000000000000000000000000602082015250565b7f4e4654206e6f74206c6973746564000000000000000000000000000000000000600082015250565b7f43616c6c6572206973206e6f74206f776e6572206f66204e4654000000000000600082015250565b7f4e465420616c7265616479206c69737465640000000000000000000000000000600082015250565b7f53656e742076616c756520646f6573206e6f74206d6174636820746865204e4660008201527f5420707269636500000000000000000000000000000000000000000000000000602082015250565b7f4e4654206e6f74206c697374656420666f722073616c65000000000000000000600082015250565b7f4f776e61626c653a2063616c6c6572206973206e6f7420746865206f776e6572600082015250565b61107881610ec8565b811461108357600080fd5b50565b61108f81610efa565b811461109a57600080fd5b5056fea2646970667358221220fa7e5608640c764f09bf23444d8109ba867cf5858acd3d9e0efd22d2f6c5a1b764736f6c63430008040033",
  "linkReferences": {},
  "deployedLinkReferences": {}
}