{
  "_format": "hh-sol-artifact-1",
  "contractName": "PaymentSplitter",
  "sourceName": "@openzeppelin/contracts/finance/PaymentSplitter.sol",
  "abi": [
    {
      "inputs": [
        {
          "internalType": "address[]",
          "name": "payees",
          "type": "address[]"
        },
        {
          "internalType": "uint256[]",
          "name": "shares_",
          "type": "uint256[]"
        }
      ],
      "stateMutability": "payable",
      "type": "constructor"
    },
    {
      "anonymous": false,
      "inputs": [
        {
          "indexed": true,
          "internalType": "contract IERC20",
          "name": "token",
          "type": "address"
        },
        {
          "indexed": false,
          "internalType": "address",
          "name": "to",
          "type": "address"
        },
        {
          "indexed": false,
          "internalType": "uint256",
          "name": "amount",
          "type": "uint256"
        }
      ],
      "name": "ERC20PaymentReleased",
      "type": "event"
    },
    {
      "anonymous": false,
      "inputs": [
        {
          "indexed": false,
          "internalType": "address",
          "name": "account",
          "type": "address"
        },
        {
          "indexed": false,
          "internalType": "uint256",
          "name": "shares",
          "type": "uint256"
        }
      ],
      "name": "PayeeAdded",
      "type": "event"
    },
    {
      "anonymous": false,
      "inputs": [
        {
          "indexed": false,
          "internalType": "address",
          "name": "from",
          "type": "address"
        },
        {
          "indexed": false,
          "internalType": "uint256",
          "name": "amount",
          "type": "uint256"
        }
      ],
      "name": "PaymentReceived",
      "type": "event"
    },
    {
      "anonymous": false,
      "inputs": [
        {
          "indexed": false,
          "internalType": "address",
          "name": "to",
          "type": "address"
        },
        {
          "indexed": false,
          "internalType": "uint256",
          "name": "amount",
          "type": "uint256"
        }
      ],
      "name": "PaymentReleased",
      "type": "event"
    },
    {
      "inputs": [
        {
          "internalType": "uint256",
          "name": "index",
          "type": "uint256"
        }
      ],
      "name": "payee",
      "outputs": [
        {
          "internalType": "address",
          "name": "",
          "type": "address"
        }
      ],
      "stateMutability": "view",
      "type": "function"
    },
    {
      "inputs": [
        {
          "internalType": "address",
          "name": "account",
          "type": "address"
        }
      ],
      "name": "releasable",
      "outputs": [
        {
          "internalType": "uint256",
          "name": "",
          "type": "uint256"
        }
      ],
      "stateMutability": "view",
      "type": "function"
    },
    {
      "inputs": [
        {
          "internalType": "contract IERC20",
          "name": "token",
          "type": "address"
        },
        {
          "internalType": "address",
          "name": "account",
          "type": "address"
        }
      ],
      "name": "releasable",
      "outputs": [
        {
          "internalType": "uint256",
          "name": "",
          "type": "uint256"
        }
      ],
      "stateMutability": "view",
      "type": "function"
    },
    {
      "inputs": [
        {
          "internalType": "address payable",
          "name": "account",
          "type": "address"
        }
      ],
      "name": "release",
      "outputs": [],
      "stateMutability": "nonpayable",
      "type": "function"
    },
    {
      "inputs": [
        {
          "internalType": "contract IERC20",
          "name": "token",
          "type": "address"
        },
        {
          "internalType": "address",
          "name": "account",
          "type": "address"
        }
      ],
      "name": "release",
      "outputs": [],
      "stateMutability": "nonpayable",
      "type": "function"
    },
    {
      "inputs": [
        {
          "internalType": "contract IERC20",
          "name": "token",
          "type": "address"
        },
        {
          "internalType": "address",
          "name": "account",
          "type": "address"
        }
      ],
      "name": "released",
      "outputs": [
        {
          "internalType": "uint256",
          "name": "",
          "type": "uint256"
        }
      ],
      "stateMutability": "view",
      "type": "function"
    },
    {
      "inputs": [
        {
          "internalType": "address",
          "name": "account",
          "type": "address"
        }
      ],
      "name": "released",
      "outputs": [
        {
          "internalType": "uint256",
          "name": "",
          "type": "uint256"
        }
      ],
      "stateMutability": "view",
      "type": "function"
    },
    {
      "inputs": [
        {
          "internalType": "address",
          "name": "account",
          "type": "address"
        }
      ],
      "name": "shares",
      "outputs": [
        {
          "internalType": "uint256",
          "name": "",
          "type": "uint256"
        }
      ],
      "stateMutability": "view",
      "type": "function"
    },
    {
      "inputs": [
        {
          "internalType": "contract IERC20",
          "name": "token",
          "type": "address"
        }
      ],
      "name": "totalReleased",
      "outputs": [
        {
          "internalType": "uint256",
          "name": "",
          "type": "uint256"
        }
      ],
      "stateMutability": "view",
      "type": "function"
    },
    {
      "inputs": [],
      "name": "totalReleased",
      "outputs": [
        {
          "internalType": "uint256",
          "name": "",
          "type": "uint256"
        }
      ],
      "stateMutability": "view",
      "type": "function"
    },
    {
      "inputs": [],
      "name": "totalShares",
      "outputs": [
        {
          "internalType": "uint256",
          "name": "",
          "type": "uint256"
        }
      ],
      "stateMutability": "view",
      "type": "function"
    },
    {
      "stateMutability": "payable",
      "type": "receive"
    }
  ],
  "bytecode": "0x60806040526040516200235138038062002351833981810160405281019062000029919062000523565b805182511462000070576040517f08c379a00000000000000000000000000000000000000000000000000000000081526004016200006790620006ca565b60405180910390fd5b6000825111620000b7576040517f08c379a0000000000000000000000000000000000000000000000000000000008152600401620000ae906200070e565b60405180910390fd5b60005b82518110156200016e576200015883828151811062000102577f4e487b7100000000000000000000000000000000000000000000000000000000600052603260045260246000fd5b602002602001015183838151811062000144577f4e487b7100000000000000000000000000000000000000000000000000000000600052603260045260246000fd5b60200260200101516200017760201b60201c565b80806200016590620008bb565b915050620000ba565b50505062000aeb565b600073ffffffffffffffffffffffffffffffffffffffff168273ffffffffffffffffffffffffffffffffffffffff161415620001ea576040517f08c379a0000000000000000000000000000000000000000000000000000000008152600401620001e190620006a8565b60405180910390fd5b6000811162000230576040517f08c379a0000000000000000000000000000000000000000000000000000000008152600401620002279062000730565b60405180910390fd5b6000600260008473ffffffffffffffffffffffffffffffffffffffff1673ffffffffffffffffffffffffffffffffffffffff1681526020019081526020016000205414620002b5576040517f08c379a0000000000000000000000000000000000000000000000000000000008152600401620002ac90620006ec565b60405180910390fd5b6004829080600181540180825580915050600190039060005260206000200160009091909190916101000a81548173ffffffffffffffffffffffffffffffffffffffff021916908373ffffffffffffffffffffffffffffffffffffffff16021790555080600260008473ffffffffffffffffffffffffffffffffffffffff1673ffffffffffffffffffffffffffffffffffffffff16815260200190815260200160002081905550806000546200036c9190620007ea565b6000819055507f40c340f65e17194d14ddddb073d3c9f888e3cb52b5aae0c6c7706b4fbc905fac8282604051620003a59291906200067b565b60405180910390a15050565b6000620003c8620003c2846200077b565b62000752565b90508083825260208201905082856020860282011115620003e857600080fd5b60005b858110156200041c57816200040188826200049b565b845260208401935060208301925050600181019050620003eb565b5050509392505050565b60006200043d6200043784620007aa565b62000752565b905080838252602082019050828560208602820111156200045d57600080fd5b60005b858110156200049157816200047688826200050c565b84526020840193506020830192505060018101905062000460565b5050509392505050565b600081519050620004ac8162000ab7565b92915050565b600082601f830112620004c457600080fd5b8151620004d6848260208601620003b1565b91505092915050565b600082601f830112620004f157600080fd5b81516200050384826020860162000426565b91505092915050565b6000815190506200051d8162000ad1565b92915050565b600080604083850312156200053757600080fd5b600083015167ffffffffffffffff8111156200055257600080fd5b6200056085828601620004b2565b925050602083015167ffffffffffffffff8111156200057e57600080fd5b6200058c85828601620004df565b9150509250929050565b620005a18162000847565b82525050565b6000620005b6602c83620007d9565b9150620005c38262000978565b604082019050919050565b6000620005dd603283620007d9565b9150620005ea82620009c7565b604082019050919050565b600062000604602b83620007d9565b9150620006118262000a16565b604082019050919050565b60006200062b601a83620007d9565b9150620006388262000a65565b602082019050919050565b600062000652601d83620007d9565b91506200065f8262000a8e565b602082019050919050565b62000675816200087b565b82525050565b600060408201905062000692600083018562000596565b620006a160208301846200066a565b9392505050565b60006020820190508181036000830152620006c381620005a7565b9050919050565b60006020820190508181036000830152620006e581620005ce565b9050919050565b600060208201905081810360008301526200070781620005f5565b9050919050565b6000602082019050818103600083015262000729816200061c565b9050919050565b600060208201905081810360008301526200074b8162000643565b9050919050565b60006200075e62000771565b90506200076c828262000885565b919050565b6000604051905090565b600067ffffffffffffffff82111562000799576200079862000938565b5b602082029050602081019050919050565b600067ffffffffffffffff821115620007c857620007c762000938565b5b602082029050602081019050919050565b600082825260208201905092915050565b6000620007f7826200087b565b915062000804836200087b565b9250827fffffffffffffffffffffffffffffffffffffffffffffffffffffffffffffffff038211156200083c576200083b62000909565b5b828201905092915050565b600062000854826200085b565b9050919050565b600073ffffffffffffffffffffffffffffffffffffffff82169050919050565b6000819050919050565b620008908262000967565b810181811067ffffffffffffffff82111715620008b257620008b162000938565b5b80604052505050565b6000620008c8826200087b565b91507fffffffffffffffffffffffffffffffffffffffffffffffffffffffffffffffff821415620008fe57620008fd62000909565b5b600182019050919050565b7f4e487b7100000000000000000000000000000000000000000000000000000000600052601160045260246000fd5b7f4e487b7100000000000000000000000000000000000000000000000000000000600052604160045260246000fd5b6000601f19601f8301169050919050565b7f5061796d656e7453706c69747465723a206163636f756e74206973207468652060008201527f7a65726f20616464726573730000000000000000000000000000000000000000602082015250565b7f5061796d656e7453706c69747465723a2070617965657320616e64207368617260008201527f6573206c656e677468206d69736d617463680000000000000000000000000000602082015250565b7f5061796d656e7453706c69747465723a206163636f756e7420616c726561647960008201527f2068617320736861726573000000000000000000000000000000000000000000602082015250565b7f5061796d656e7453706c69747465723a206e6f20706179656573000000000000600082015250565b7f5061796d656e7453706c69747465723a20736861726573206172652030000000600082015250565b62000ac28162000847565b811462000ace57600080fd5b50565b62000adc816200087b565b811462000ae857600080fd5b50565b6118568062000afb6000396000f3fe6080604052600436106100a05760003560e01c80639852595c116100645780639852595c146101e3578063a3f8eace14610220578063c45ac0501461025d578063ce7c2ac21461029a578063d79779b2146102d7578063e33b7de314610314576100e7565b806319165587146100ec5780633a98ef3914610115578063406072a91461014057806348b750441461017d5780638b83209b146101a6576100e7565b366100e7577f6ef95f06320e7a25a04a175ca677b7052bdd97131872c2192525a629f51be7706100ce61033f565b346040516100dd9291906111fc565b60405180910390a1005b600080fd5b3480156100f857600080fd5b50610113600480360381019061010e9190610ed4565b610347565b005b34801561012157600080fd5b5061012a6104c7565b6040516101379190611327565b60405180910390f35b34801561014c57600080fd5b5061016760048036038101906101629190610f4f565b6104d0565b6040516101749190611327565b60405180910390f35b34801561018957600080fd5b506101a4600480360381019061019f9190610f4f565b610557565b005b3480156101b257600080fd5b506101cd60048036038101906101c89190610f8b565b61076b565b6040516101da91906111b8565b60405180910390f35b3480156101ef57600080fd5b5061020a60048036038101906102059190610eab565b6107d9565b6040516102179190611327565b60405180910390f35b34801561022c57600080fd5b5061024760048036038101906102429190610eab565b610822565b6040516102549190611327565b60405180910390f35b34801561026957600080fd5b50610284600480360381019061027f9190610f4f565b610855565b6040516102919190611327565b60405180910390f35b3480156102a657600080fd5b506102c160048036038101906102bc9190610eab565b610913565b6040516102ce9190611327565b60405180910390f35b3480156102e357600080fd5b506102fe60048036038101906102f99190610f26565b61095c565b60405161030b9190611327565b60405180910390f35b34801561032057600080fd5b506103296109a5565b6040516103369190611327565b60405180910390f35b600033905090565b6000600260008373ffffffffffffffffffffffffffffffffffffffff1673ffffffffffffffffffffffffffffffffffffffff16815260200190815260200160002054116103c9576040517f08c379a00000000000000000000000000000000000000000000000000000000081526004016103c090611247565b60405180910390fd5b60006103d482610822565b9050600081141561041a576040517f08c379a0000000000000000000000000000000000000000000000000000000008152600401610411906112c7565b60405180910390fd5b806001600082825461042c9190611374565b9250508190555080600360008473ffffffffffffffffffffffffffffffffffffffff1673ffffffffffffffffffffffffffffffffffffffff1681526020019081526020016000206000828254019250508190555061048a82826109af565b7fdf20fd1e76bc69d672e4814fafb2c449bba3a5369d8359adf9e05e6fde87b05682826040516104bb9291906111d3565b60405180910390a15050565b60008054905090565b6000600660008473ffffffffffffffffffffffffffffffffffffffff1673ffffffffffffffffffffffffffffffffffffffff16815260200190815260200160002060008373ffffffffffffffffffffffffffffffffffffffff1673ffffffffffffffffffffffffffffffffffffffff16815260200190815260200160002054905092915050565b6000600260008373ffffffffffffffffffffffffffffffffffffffff1673ffffffffffffffffffffffffffffffffffffffff16815260200190815260200160002054116105d9576040517f08c379a00000000000000000000000000000000000000000000000000000000081526004016105d090611247565b60405180910390fd5b60006105e58383610855565b9050600081141561062b576040517f08c379a0000000000000000000000000000000000000000000000000000000008152600401610622906112c7565b60405180910390fd5b80600560008573ffffffffffffffffffffffffffffffffffffffff1673ffffffffffffffffffffffffffffffffffffffff168152602001908152602001600020600082825461067a9190611374565b9250508190555080600660008573ffffffffffffffffffffffffffffffffffffffff1673ffffffffffffffffffffffffffffffffffffffff16815260200190815260200160002060008473ffffffffffffffffffffffffffffffffffffffff1673ffffffffffffffffffffffffffffffffffffffff16815260200190815260200160002060008282540192505081905550610716838383610aa3565b8273ffffffffffffffffffffffffffffffffffffffff167f3be5b7a71e84ed12875d241991c70855ac5817d847039e17a9d895c1ceb0f18a838360405161075e9291906111fc565b60405180910390a2505050565b6000600482815481106107a7577f4e487b7100000000000000000000000000000000000000000000000000000000600052603260045260246000fd5b9060005260206000200160009054906101000a900473ffffffffffffffffffffffffffffffffffffffff169050919050565b6000600360008373ffffffffffffffffffffffffffffffffffffffff1673ffffffffffffffffffffffffffffffffffffffff168152602001908152602001600020549050919050565b60008061082d6109a5565b476108389190611374565b905061084d8382610848866107d9565b610b29565b915050919050565b6000806108618461095c565b8473ffffffffffffffffffffffffffffffffffffffff166370a08231306040518263ffffffff1660e01b815260040161089a91906111b8565b60206040518083038186803b1580156108b257600080fd5b505afa1580156108c6573d6000803e3d6000fd5b505050506040513d601f19601f820116820180604052508101906108ea9190610fb4565b6108f49190611374565b905061090a838261090587876104d0565b610b29565b91505092915050565b6000600260008373ffffffffffffffffffffffffffffffffffffffff1673ffffffffffffffffffffffffffffffffffffffff168152602001908152602001600020549050919050565b6000600560008373ffffffffffffffffffffffffffffffffffffffff1673ffffffffffffffffffffffffffffffffffffffff168152602001908152602001600020549050919050565b6000600154905090565b804710156109f2576040517f08c379a00000000000000000000000000000000000000000000000000000000081526004016109e990611287565b60405180910390fd5b60008273ffffffffffffffffffffffffffffffffffffffff1682604051610a18906111a3565b60006040518083038185875af1925050503d8060008114610a55576040519150601f19603f3d011682016040523d82523d6000602084013e610a5a565b606091505b5050905080610a9e576040517f08c379a0000000000000000000000000000000000000000000000000000000008152600401610a9590611267565b60405180910390fd5b505050565b610b248363a9059cbb60e01b8484604051602401610ac29291906111fc565b604051602081830303815290604052907bffffffffffffffffffffffffffffffffffffffffffffffffffffffff19166020820180517bffffffffffffffffffffffffffffffffffffffffffffffffffffffff8381831617835250505050610b97565b505050565b600081600054600260008773ffffffffffffffffffffffffffffffffffffffff1673ffffffffffffffffffffffffffffffffffffffff1681526020019081526020016000205485610b7a91906113fb565b610b8491906113ca565b610b8e9190611455565b90509392505050565b6000610bf9826040518060400160405280602081526020017f5361666545524332303a206c6f772d6c6576656c2063616c6c206661696c65648152508573ffffffffffffffffffffffffffffffffffffffff16610c5f9092919063ffffffff16565b9050600081511480610c1b575080806020019051810190610c1a9190610efd565b5b610c5a576040517f08c379a0000000000000000000000000000000000000000000000000000000008152600401610c5190611307565b60405180910390fd5b505050565b6060610c6e8484600085610c77565b90509392505050565b606082471015610cbc576040517f08c379a0000000000000000000000000000000000000000000000000000000008152600401610cb3906112a7565b60405180910390fd5b6000808673ffffffffffffffffffffffffffffffffffffffff168587604051610ce5919061118c565b60006040518083038185875af1925050503d8060008114610d22576040519150601f19603f3d011682016040523d82523d6000602084013e610d27565b606091505b5091509150610d3887838387610d44565b92505050949350505050565b60608315610da757600083511415610d9f57610d5f85610dba565b610d9e576040517f08c379a0000000000000000000000000000000000000000000000000000000008152600401610d95906112e7565b60405180910390fd5b5b829050610db2565b610db18383610ddd565b5b949350505050565b6000808273ffffffffffffffffffffffffffffffffffffffff163b119050919050565b600082511115610df05781518083602001fd5b806040517f08c379a0000000000000000000000000000000000000000000000000000000008152600401610e249190611225565b60405180910390fd5b600081359050610e3c816117ad565b92915050565b600081359050610e51816117c4565b92915050565b600081519050610e66816117db565b92915050565b600081359050610e7b816117f2565b92915050565b600081359050610e9081611809565b92915050565b600081519050610ea581611809565b92915050565b600060208284031215610ebd57600080fd5b6000610ecb84828501610e2d565b91505092915050565b600060208284031215610ee657600080fd5b6000610ef484828501610e42565b91505092915050565b600060208284031215610f0f57600080fd5b6000610f1d84828501610e57565b91505092915050565b600060208284031215610f3857600080fd5b6000610f4684828501610e6c565b91505092915050565b60008060408385031215610f6257600080fd5b6000610f7085828601610e6c565b9250506020610f8185828601610e2d565b9150509250929050565b600060208284031215610f9d57600080fd5b6000610fab84828501610e81565b91505092915050565b600060208284031215610fc657600080fd5b6000610fd484828501610e96565b91505092915050565b610fe6816114f5565b82525050565b610ff581611489565b82525050565b600061100682611342565b6110108185611358565b935061102081856020860161152b565b80840191505092915050565b60006110378261134d565b6110418185611363565b935061105181856020860161152b565b61105a816115bc565b840191505092915050565b6000611072602683611363565b915061107d826115cd565b604082019050919050565b6000611095603a83611363565b91506110a08261161c565b604082019050919050565b60006110b8601d83611363565b91506110c38261166b565b602082019050919050565b60006110db602683611363565b91506110e682611694565b604082019050919050565b60006110fe602b83611363565b9150611109826116e3565b604082019050919050565b6000611121600083611358565b915061112c82611732565b600082019050919050565b6000611144601d83611363565b915061114f82611735565b602082019050919050565b6000611167602a83611363565b91506111728261175e565b604082019050919050565b611186816114eb565b82525050565b60006111988284610ffb565b915081905092915050565b60006111ae82611114565b9150819050919050565b60006020820190506111cd6000830184610fec565b92915050565b60006040820190506111e86000830185610fdd565b6111f5602083018461117d565b9392505050565b60006040820190506112116000830185610fec565b61121e602083018461117d565b9392505050565b6000602082019050818103600083015261123f818461102c565b905092915050565b6000602082019050818103600083015261126081611065565b9050919050565b6000602082019050818103600083015261128081611088565b9050919050565b600060208201905081810360008301526112a0816110ab565b9050919050565b600060208201905081810360008301526112c0816110ce565b9050919050565b600060208201905081810360008301526112e0816110f1565b9050919050565b6000602082019050818103600083015261130081611137565b9050919050565b600060208201905081810360008301526113208161115a565b9050919050565b600060208201905061133c600083018461117d565b92915050565b600081519050919050565b600081519050919050565b600081905092915050565b600082825260208201905092915050565b600061137f826114eb565b915061138a836114eb565b9250827fffffffffffffffffffffffffffffffffffffffffffffffffffffffffffffffff038211156113bf576113be61155e565b5b828201905092915050565b60006113d5826114eb565b91506113e0836114eb565b9250826113f0576113ef61158d565b5b828204905092915050565b6000611406826114eb565b9150611411836114eb565b9250817fffffffffffffffffffffffffffffffffffffffffffffffffffffffffffffffff048311821515161561144a5761144961155e565b5b828202905092915050565b6000611460826114eb565b915061146b836114eb565b92508282101561147e5761147d61155e565b5b828203905092915050565b6000611494826114cb565b9050919050565b60006114a6826114cb565b9050919050565b60008115159050919050565b60006114c482611489565b9050919050565b600073ffffffffffffffffffffffffffffffffffffffff82169050919050565b6000819050919050565b600061150082611507565b9050919050565b600061151282611519565b9050919050565b6000611524826114cb565b9050919050565b60005b8381101561154957808201518184015260208101905061152e565b83811115611558576000848401525b50505050565b7f4e487b7100000000000000000000000000000000000000000000000000000000600052601160045260246000fd5b7f4e487b7100000000000000000000000000000000000000000000000000000000600052601260045260246000fd5b6000601f19601f8301169050919050565b7f5061796d656e7453706c69747465723a206163636f756e7420686173206e6f2060008201527f7368617265730000000000000000000000000000000000000000000000000000602082015250565b7f416464726573733a20756e61626c6520746f2073656e642076616c75652c207260008201527f6563697069656e74206d61792068617665207265766572746564000000000000602082015250565b7f416464726573733a20696e73756666696369656e742062616c616e6365000000600082015250565b7f416464726573733a20696e73756666696369656e742062616c616e636520666f60008201527f722063616c6c0000000000000000000000000000000000000000000000000000602082015250565b7f5061796d656e7453706c69747465723a206163636f756e74206973206e6f742060008201527f647565207061796d656e74000000000000000000000000000000000000000000602082015250565b50565b7f416464726573733a2063616c6c20746f206e6f6e2d636f6e7472616374000000600082015250565b7f5361666545524332303a204552433230206f7065726174696f6e20646964206e60008201527f6f74207375636365656400000000000000000000000000000000000000000000602082015250565b6117b681611489565b81146117c157600080fd5b50565b6117cd8161149b565b81146117d857600080fd5b50565b6117e4816114ad565b81146117ef57600080fd5b50565b6117fb816114b9565b811461180657600080fd5b50565b611812816114eb565b811461181d57600080fd5b5056fea2646970667358221220df55ee458ba17c8b68560d8d35c6c52cbf85d608f7b622830cba19adfe074c5c64736f6c63430008010033",
  "linkReferences": {},
  "deployedLinkReferences": {}
}