{
  "_format": "hh-sol-artifact-1",
  "contractName": "NFTMarketplace",
  "sourceName": "contracts/NFTMarketplace.sol",
  "abi": [
    {
      "inputs": [
        {
          "internalType": "address",
          "name": "nftContractAddress",
          "type": "address"
        },
        {
          "internalType": "address[]",
          "name": "payees",
          "type": "address[]"
        },
        {
          "internalType": "uint256[]",
          "name": "shares",
          "type": "uint256[]"
        },
        {
          "internalType": "uint256",
          "name": "royalties",
          "type": "uint256"
        }
      ],
      "stateMutability": "nonpayable",
      "type": "constructor"
    },
    {
      "anonymous": false,
      "inputs": [
        {
          "indexed": true,
          "internalType": "contract IERC20",
          "name": "token",
          "type": "address"
        },
        {
          "indexed": false,
          "internalType": "address",
          "name": "to",
          "type": "address"
        },
        {
          "indexed": false,
          "internalType": "uint256",
          "name": "amount",
          "type": "uint256"
        }
      ],
      "name": "ERC20PaymentReleased",
      "type": "event"
    },
    {
      "anonymous": false,
      "inputs": [
        {
          "indexed": true,
          "internalType": "uint256",
          "name": "tokenId",
          "type": "uint256"
        }
      ],
      "name": "NFTBought",
      "type": "event"
    },
    {
      "anonymous": false,
      "inputs": [
        {
          "indexed": true,
          "internalType": "uint256",
          "name": "tokenId",
          "type": "uint256"
        }
      ],
      "name": "NFTDelisted",
      "type": "event"
    },
    {
      "anonymous": false,
      "inputs": [
        {
          "indexed": true,
          "internalType": "uint256",
          "name": "tokenId",
          "type": "uint256"
        }
      ],
      "name": "NFTListed",
      "type": "event"
    },
    {
      "anonymous": false,
      "inputs": [
        {
          "indexed": true,
          "internalType": "address",
          "name": "previousOwner",
          "type": "address"
        },
        {
          "indexed": true,
          "internalType": "address",
          "name": "newOwner",
          "type": "address"
        }
      ],
      "name": "OwnershipTransferred",
      "type": "event"
    },
    {
      "anonymous": false,
      "inputs": [
        {
          "indexed": false,
          "internalType": "address",
          "name": "account",
          "type": "address"
        },
        {
          "indexed": false,
          "internalType": "uint256",
          "name": "shares",
          "type": "uint256"
        }
      ],
      "name": "PayeeAdded",
      "type": "event"
    },
    {
      "anonymous": false,
      "inputs": [
        {
          "indexed": false,
          "internalType": "address",
          "name": "from",
          "type": "address"
        },
        {
          "indexed": false,
          "internalType": "uint256",
          "name": "amount",
          "type": "uint256"
        }
      ],
      "name": "PaymentReceived",
      "type": "event"
    },
    {
      "anonymous": false,
      "inputs": [
        {
          "indexed": false,
          "internalType": "address",
          "name": "to",
          "type": "address"
        },
        {
          "indexed": false,
          "internalType": "uint256",
          "name": "amount",
          "type": "uint256"
        }
      ],
      "name": "PaymentReleased",
      "type": "event"
    },
    {
      "inputs": [],
      "name": "MAX_PRICE",
      "outputs": [
        {
          "internalType": "uint256",
          "name": "",
          "type": "uint256"
        }
      ],
      "stateMutability": "view",
      "type": "function"
    },
    {
      "inputs": [],
      "name": "MIN_PRICE",
      "outputs": [
        {
          "internalType": "uint256",
          "name": "",
          "type": "uint256"
        }
      ],
      "stateMutability": "view",
      "type": "function"
    },
    {
      "inputs": [
        {
          "internalType": "uint256",
          "name": "tokenId",
          "type": "uint256"
        }
      ],
      "name": "buyNFT",
      "outputs": [],
      "stateMutability": "payable",
      "type": "function"
    },
    {
      "inputs": [
        {
          "internalType": "uint256",
          "name": "tokenId",
          "type": "uint256"
        }
      ],
      "name": "delistNFT",
      "outputs": [],
      "stateMutability": "nonpayable",
      "type": "function"
    },
    {
      "inputs": [
        {
          "internalType": "uint256",
          "name": "tokenId",
          "type": "uint256"
        }
      ],
      "name": "isTokenListed",
      "outputs": [
        {
          "internalType": "bool",
          "name": "",
          "type": "bool"
        }
      ],
      "stateMutability": "view",
      "type": "function"
    },
    {
      "inputs": [
        {
          "internalType": "uint256",
          "name": "tokenId",
          "type": "uint256"
        },
        {
          "internalType": "uint256",
          "name": "newPrice",
          "type": "uint256"
        }
      ],
      "name": "listNFT",
      "outputs": [],
      "stateMutability": "nonpayable",
      "type": "function"
    },
    {
      "inputs": [],
      "name": "owner",
      "outputs": [
        {
          "internalType": "address",
          "name": "",
          "type": "address"
        }
      ],
      "stateMutability": "view",
      "type": "function"
    },
    {
      "inputs": [
        {
          "internalType": "uint256",
          "name": "index",
          "type": "uint256"
        }
      ],
      "name": "payee",
      "outputs": [
        {
          "internalType": "address",
          "name": "",
          "type": "address"
        }
      ],
      "stateMutability": "view",
      "type": "function"
    },
    {
      "inputs": [
        {
          "internalType": "address",
          "name": "account",
          "type": "address"
        }
      ],
      "name": "releasable",
      "outputs": [
        {
          "internalType": "uint256",
          "name": "",
          "type": "uint256"
        }
      ],
      "stateMutability": "view",
      "type": "function"
    },
    {
      "inputs": [
        {
          "internalType": "contract IERC20",
          "name": "token",
          "type": "address"
        },
        {
          "internalType": "address",
          "name": "account",
          "type": "address"
        }
      ],
      "name": "releasable",
      "outputs": [
        {
          "internalType": "uint256",
          "name": "",
          "type": "uint256"
        }
      ],
      "stateMutability": "view",
      "type": "function"
    },
    {
      "inputs": [
        {
          "internalType": "address payable",
          "name": "account",
          "type": "address"
        }
      ],
      "name": "release",
      "outputs": [],
      "stateMutability": "nonpayable",
      "type": "function"
    },
    {
      "inputs": [
        {
          "internalType": "contract IERC20",
          "name": "token",
          "type": "address"
        },
        {
          "internalType": "address",
          "name": "account",
          "type": "address"
        }
      ],
      "name": "release",
      "outputs": [],
      "stateMutability": "nonpayable",
      "type": "function"
    },
    {
      "inputs": [
        {
          "internalType": "contract IERC20",
          "name": "token",
          "type": "address"
        },
        {
          "internalType": "address",
          "name": "account",
          "type": "address"
        }
      ],
      "name": "released",
      "outputs": [
        {
          "internalType": "uint256",
          "name": "",
          "type": "uint256"
        }
      ],
      "stateMutability": "view",
      "type": "function"
    },
    {
      "inputs": [
        {
          "internalType": "address",
          "name": "account",
          "type": "address"
        }
      ],
      "name": "released",
      "outputs": [
        {
          "internalType": "uint256",
          "name": "",
          "type": "uint256"
        }
      ],
      "stateMutability": "view",
      "type": "function"
    },
    {
      "inputs": [],
      "name": "renounceOwnership",
      "outputs": [],
      "stateMutability": "nonpayable",
      "type": "function"
    },
    {
      "inputs": [
        {
          "internalType": "address",
          "name": "account",
          "type": "address"
        }
      ],
      "name": "shares",
      "outputs": [
        {
          "internalType": "uint256",
          "name": "",
          "type": "uint256"
        }
      ],
      "stateMutability": "view",
      "type": "function"
    },
    {
      "inputs": [
        {
          "internalType": "contract IERC20",
          "name": "token",
          "type": "address"
        }
      ],
      "name": "totalReleased",
      "outputs": [
        {
          "internalType": "uint256",
          "name": "",
          "type": "uint256"
        }
      ],
      "stateMutability": "view",
      "type": "function"
    },
    {
      "inputs": [],
      "name": "totalReleased",
      "outputs": [
        {
          "internalType": "uint256",
          "name": "",
          "type": "uint256"
        }
      ],
      "stateMutability": "view",
      "type": "function"
    },
    {
      "inputs": [],
      "name": "totalShares",
      "outputs": [
        {
          "internalType": "uint256",
          "name": "",
          "type": "uint256"
        }
      ],
      "stateMutability": "view",
      "type": "function"
    },
    {
      "inputs": [
        {
          "internalType": "address",
          "name": "newOwner",
          "type": "address"
        }
      ],
      "name": "transferOwnership",
      "outputs": [],
      "stateMutability": "nonpayable",
      "type": "function"
    },
    {
      "stateMutability": "payable",
      "type": "receive"
    }
  ],
  "bytecode": "0x60806040523480156200001157600080fd5b5060405162003d2138038062003d218339818101604052810190620000379190620006b9565b8282620000596200004d6200024160201b60201c565b6200024960201b60201c565b600180819055508051825114620000a7576040517f08c379a00000000000000000000000000000000000000000000000000000000081526004016200009e90620008b2565b60405180910390fd5b6000825111620000ee576040517f08c379a0000000000000000000000000000000000000000000000000000000008152600401620000e59062000918565b60405180910390fd5b60005b8251811015620001a5576200018f83828151811062000139577f4e487b7100000000000000000000000000000000000000000000000000000000600052603260045260246000fd5b60200260200101518383815181106200017b577f4e487b7100000000000000000000000000000000000000000000000000000000600052603260045260246000fd5b60200260200101516200030d60201b60201c565b80806200019c9062000ac5565b915050620000f1565b5050506000835111620001ef576040517f08c379a0000000000000000000000000000000000000000000000000000000008152600401620001e690620008d4565b60405180910390fd5b83600960006101000a81548173ffffffffffffffffffffffffffffffffffffffff021916908373ffffffffffffffffffffffffffffffffffffffff16021790555080600a819055505050505062000d1e565b600033905090565b60008060009054906101000a900473ffffffffffffffffffffffffffffffffffffffff169050816000806101000a81548173ffffffffffffffffffffffffffffffffffffffff021916908373ffffffffffffffffffffffffffffffffffffffff1602179055508173ffffffffffffffffffffffffffffffffffffffff168173ffffffffffffffffffffffffffffffffffffffff167f8be0079c531659141344cd1fd0a4f28419497f9722a3daafe3b4186f6b6457e060405160405180910390a35050565b600073ffffffffffffffffffffffffffffffffffffffff168273ffffffffffffffffffffffffffffffffffffffff16141562000380576040517f08c379a0000000000000000000000000000000000000000000000000000000008152600401620003779062000890565b60405180910390fd5b60008111620003c6576040517f08c379a0000000000000000000000000000000000000000000000000000000008152600401620003bd906200093a565b60405180910390fd5b6000600460008473ffffffffffffffffffffffffffffffffffffffff1673ffffffffffffffffffffffffffffffffffffffff16815260200190815260200160002054146200044b576040517f08c379a00000000000000000000000000000000000000000000000000000000081526004016200044290620008f6565b60405180910390fd5b6006829080600181540180825580915050600190039060005260206000200160009091909190916101000a81548173ffffffffffffffffffffffffffffffffffffffff021916908373ffffffffffffffffffffffffffffffffffffffff16021790555080600460008473ffffffffffffffffffffffffffffffffffffffff1673ffffffffffffffffffffffffffffffffffffffff1681526020019081526020016000208190555080600254620005029190620009f4565b6002819055507f40c340f65e17194d14ddddb073d3c9f888e3cb52b5aae0c6c7706b4fbc905fac82826040516200053b92919062000863565b60405180910390a15050565b60006200055e620005588462000985565b6200095c565b905080838252602082019050828560208602820111156200057e57600080fd5b60005b85811015620005b2578162000597888262000631565b84526020840193506020830192505060018101905062000581565b5050509392505050565b6000620005d3620005cd84620009b4565b6200095c565b90508083825260208201905082856020860282011115620005f357600080fd5b60005b858110156200062757816200060c8882620006a2565b845260208401935060208301925050600181019050620005f6565b5050509392505050565b600081519050620006428162000cea565b92915050565b600082601f8301126200065a57600080fd5b81516200066c84826020860162000547565b91505092915050565b600082601f8301126200068757600080fd5b815162000699848260208601620005bc565b91505092915050565b600081519050620006b38162000d04565b92915050565b60008060008060808587031215620006d057600080fd5b6000620006e08782880162000631565b945050602085015167ffffffffffffffff811115620006fe57600080fd5b6200070c8782880162000648565b935050604085015167ffffffffffffffff8111156200072a57600080fd5b620007388782880162000675565b92505060606200074b87828801620006a2565b91505092959194509250565b620007628162000a51565b82525050565b600062000777602c83620009e3565b9150620007848262000b82565b604082019050919050565b60006200079e603283620009e3565b9150620007ab8262000bd1565b604082019050919050565b6000620007c5601e83620009e3565b9150620007d28262000c20565b602082019050919050565b6000620007ec602b83620009e3565b9150620007f98262000c49565b604082019050919050565b600062000813601a83620009e3565b9150620008208262000c98565b602082019050919050565b60006200083a601d83620009e3565b9150620008478262000cc1565b602082019050919050565b6200085d8162000a85565b82525050565b60006040820190506200087a600083018562000757565b62000889602083018462000852565b9392505050565b60006020820190508181036000830152620008ab8162000768565b9050919050565b60006020820190508181036000830152620008cd816200078f565b9050919050565b60006020820190508181036000830152620008ef81620007b6565b9050919050565b600060208201905081810360008301526200091181620007dd565b9050919050565b60006020820190508181036000830152620009338162000804565b9050919050565b6000602082019050818103600083015262000955816200082b565b9050919050565b6000620009686200097b565b905062000976828262000a8f565b919050565b6000604051905090565b600067ffffffffffffffff821115620009a357620009a262000b42565b5b602082029050602081019050919050565b600067ffffffffffffffff821115620009d257620009d162000b42565b5b602082029050602081019050919050565b600082825260208201905092915050565b600062000a018262000a85565b915062000a0e8362000a85565b9250827fffffffffffffffffffffffffffffffffffffffffffffffffffffffffffffffff0382111562000a465762000a4562000b13565b5b828201905092915050565b600062000a5e8262000a65565b9050919050565b600073ffffffffffffffffffffffffffffffffffffffff82169050919050565b6000819050919050565b62000a9a8262000b71565b810181811067ffffffffffffffff8211171562000abc5762000abb62000b42565b5b80604052505050565b600062000ad28262000a85565b91507fffffffffffffffffffffffffffffffffffffffffffffffffffffffffffffffff82141562000b085762000b0762000b13565b5b600182019050919050565b7f4e487b7100000000000000000000000000000000000000000000000000000000600052601160045260246000fd5b7f4e487b7100000000000000000000000000000000000000000000000000000000600052604160045260246000fd5b6000601f19601f8301169050919050565b7f5061796d656e7453706c69747465723a206163636f756e74206973207468652060008201527f7a65726f20616464726573730000000000000000000000000000000000000000602082015250565b7f5061796d656e7453706c69747465723a2070617965657320616e64207368617260008201527f6573206c656e677468206d69736d617463680000000000000000000000000000602082015250565b7f4174206c65617374206f6e652070617965652069732072657175697265640000600082015250565b7f5061796d656e7453706c69747465723a206163636f756e7420616c726561647960008201527f2068617320736861726573000000000000000000000000000000000000000000602082015250565b7f5061796d656e7453706c69747465723a206e6f20706179656573000000000000600082015250565b7f5061796d656e7453706c69747465723a20736861726573206172652030000000600082015250565b62000cf58162000a51565b811462000d0157600080fd5b50565b62000d0f8162000a85565b811462000d1b57600080fd5b50565b612ff38062000d2e6000396000f3fe6080604052600436106101235760003560e01c80639852595c116100a0578063cb917b9c11610064578063cb917b9c14610437578063ce7c2ac214610460578063d79779b21461049d578063e33b7de3146104da578063f2fde38b146105055761016a565b80639852595c146103185780639b83cddc14610355578063a3f8eace14610392578063ad9f20a6146103cf578063c45ac050146103fa5761016a565b806351ed8288116100e757806351ed828814610254578063715018a6146102705780638b83209b146102875780638da5cb5b146102c457806394383f14146102ef5761016a565b806301c11d961461016f578063191655871461019a5780633a98ef39146101c3578063406072a9146101ee57806348b750441461022b5761016a565b3661016a577f6ef95f06320e7a25a04a175ca677b7052bdd97131872c2192525a629f51be77061015161052e565b34604051610160929190612499565b60405180910390a1005b600080fd5b34801561017b57600080fd5b50610184610536565b604051610191919061279f565b60405180910390f35b3480156101a657600080fd5b506101c160048036038101906101bc9190611edc565b610544565b005b3480156101cf57600080fd5b506101d86106c4565b6040516101e5919061279f565b60405180910390f35b3480156101fa57600080fd5b5061021560048036038101906102109190611f57565b6106ce565b604051610222919061279f565b60405180910390f35b34801561023757600080fd5b50610252600480360381019061024d9190611f57565b610755565b005b61026e60048036038101906102699190611f93565b610969565b005b34801561027c57600080fd5b50610285610d68565b005b34801561029357600080fd5b506102ae60048036038101906102a99190611f93565b610d7c565b6040516102bb91906123f5565b60405180910390f35b3480156102d057600080fd5b506102d9610dea565b6040516102e691906123f5565b60405180910390f35b3480156102fb57600080fd5b5061031660048036038101906103119190611fe5565b610e13565b005b34801561032457600080fd5b5061033f600480360381019061033a9190611e8a565b61132e565b60405161034c919061279f565b60405180910390f35b34801561036157600080fd5b5061037c60048036038101906103779190611f93565b611377565b60405161038991906124c2565b60405180910390f35b34801561039e57600080fd5b506103b960048036038101906103b49190611e8a565b6113a1565b6040516103c6919061279f565b60405180910390f35b3480156103db57600080fd5b506103e46113d4565b6040516103f1919061279f565b60405180910390f35b34801561040657600080fd5b50610421600480360381019061041c9190611f57565b6113df565b60405161042e919061279f565b60405180910390f35b34801561044357600080fd5b5061045e60048036038101906104599190611f93565b61149d565b005b34801561046c57600080fd5b5061048760048036038101906104829190611e8a565b6116be565b604051610494919061279f565b60405180910390f35b3480156104a957600080fd5b506104c460048036038101906104bf9190611f2e565b611707565b6040516104d1919061279f565b60405180910390f35b3480156104e657600080fd5b506104ef611750565b6040516104fc919061279f565b60405180910390f35b34801561051157600080fd5b5061052c60048036038101906105279190611e8a565b61175a565b005b600033905090565b69021e19e0c9bab240000081565b6000600460008373ffffffffffffffffffffffffffffffffffffffff1673ffffffffffffffffffffffffffffffffffffffff16815260200190815260200160002054116105c6576040517f08c379a00000000000000000000000000000000000000000000000000000000081526004016105bd9061257f565b60405180910390fd5b60006105d1826113a1565b90506000811415610617576040517f08c379a000000000000000000000000000000000000000000000000000000000815260040161060e906125ff565b60405180910390fd5b80600360008282546106299190612815565b9250508190555080600560008473ffffffffffffffffffffffffffffffffffffffff1673ffffffffffffffffffffffffffffffffffffffff1681526020019081526020016000206000828254019250508190555061068782826117de565b7fdf20fd1e76bc69d672e4814fafb2c449bba3a5369d8359adf9e05e6fde87b05682826040516106b8929190612410565b60405180910390a15050565b6000600254905090565b6000600860008473ffffffffffffffffffffffffffffffffffffffff1673ffffffffffffffffffffffffffffffffffffffff16815260200190815260200160002060008373ffffffffffffffffffffffffffffffffffffffff1673ffffffffffffffffffffffffffffffffffffffff16815260200190815260200160002054905092915050565b6000600460008373ffffffffffffffffffffffffffffffffffffffff1673ffffffffffffffffffffffffffffffffffffffff16815260200190815260200160002054116107d7576040517f08c379a00000000000000000000000000000000000000000000000000000000081526004016107ce9061257f565b60405180910390fd5b60006107e383836113df565b90506000811415610829576040517f08c379a0000000000000000000000000000000000000000000000000000000008152600401610820906125ff565b60405180910390fd5b80600760008573ffffffffffffffffffffffffffffffffffffffff1673ffffffffffffffffffffffffffffffffffffffff16815260200190815260200160002060008282546108789190612815565b9250508190555080600860008573ffffffffffffffffffffffffffffffffffffffff1673ffffffffffffffffffffffffffffffffffffffff16815260200190815260200160002060008473ffffffffffffffffffffffffffffffffffffffff1673ffffffffffffffffffffffffffffffffffffffff168152602001908152602001600020600082825401925050819055506109148383836118d2565b8273ffffffffffffffffffffffffffffffffffffffff167f3be5b7a71e84ed12875d241991c70855ac5817d847039e17a9d895c1ceb0f18a838360405161095c929190612499565b60405180910390a2505050565b610971611958565b600b600082815260200190815260200160002060009054906101000a900460ff166109d1576040517f08c379a00000000000000000000000000000000000000000000000000000000081526004016109c89061269f565b60405180910390fd5b6000600960009054906101000a900473ffffffffffffffffffffffffffffffffffffffff1673ffffffffffffffffffffffffffffffffffffffff1663e7572230836040518263ffffffff1660e01b8152600401610a2e919061279f565b60206040518083038186803b158015610a4657600080fd5b505afa158015610a5a573d6000803e3d6000fd5b505050506040513d601f19601f82011682018060405250810190610a7e9190611fbc565b9050803414610ac2576040517f08c379a0000000000000000000000000000000000000000000000000000000008152600401610ab99061267f565b60405180910390fd5b60006064600a5483610ad4919061289c565b610ade919061286b565b9050808211610b22576040517f08c379a0000000000000000000000000000000000000000000000000000000008152600401610b199061265f565b60405180910390fd5b60008183610b3091906128f6565b90506000600960009054906101000a900473ffffffffffffffffffffffffffffffffffffffff1673ffffffffffffffffffffffffffffffffffffffff16636352211e866040518263ffffffff1660e01b8152600401610b8f919061279f565b60206040518083038186803b158015610ba757600080fd5b505afa158015610bbb573d6000803e3d6000fd5b505050506040513d601f19601f82011682018060405250810190610bdf9190611eb3565b90508073ffffffffffffffffffffffffffffffffffffffff166108fc839081150290604051600060405180830381858888f19350505050158015610c27573d6000803e3d6000fd5b503073ffffffffffffffffffffffffffffffffffffffff166108fc849081150290604051600060405180830381858888f19350505050158015610c6e573d6000803e3d6000fd5b50600960009054906101000a900473ffffffffffffffffffffffffffffffffffffffff1673ffffffffffffffffffffffffffffffffffffffff166323b872dd8233886040518463ffffffff1660e01b8152600401610cce93929190612462565b600060405180830381600087803b158015610ce857600080fd5b505af1158015610cfc573d6000803e3d6000fd5b505050506000600b600087815260200190815260200160002060006101000a81548160ff021916908315150217905550847ff1a4f188d8f608af032a64d403473119856aae541d836c6a78e2187e809c330760405160405180910390a250505050610d656119a8565b50565b610d706119b1565b610d7a6000611a2f565b565b600060068281548110610db8577f4e487b7100000000000000000000000000000000000000000000000000000000600052603260045260246000fd5b9060005260206000200160009054906101000a900473ffffffffffffffffffffffffffffffffffffffff169050919050565b60008060009054906101000a900473ffffffffffffffffffffffffffffffffffffffff16905090565b610e1b611958565b662386f26fc10000811015610e65576040517f08c379a0000000000000000000000000000000000000000000000000000000008152600401610e5c906124ff565b60405180910390fd5b69021e19e0c9bab2400000811115610eb2576040517f08c379a0000000000000000000000000000000000000000000000000000000008152600401610ea99061261f565b60405180910390fd5b60008111610ef5576040517f08c379a0000000000000000000000000000000000000000000000000000000008152600401610eec9061275f565b60405180910390fd5b600b600083815260200190815260200160002060009054906101000a900460ff1615610f56576040517f08c379a0000000000000000000000000000000000000000000000000000000008152600401610f4d9061263f565b60405180910390fd5b3373ffffffffffffffffffffffffffffffffffffffff16600960009054906101000a900473ffffffffffffffffffffffffffffffffffffffff1673ffffffffffffffffffffffffffffffffffffffff16636352211e846040518263ffffffff1660e01b8152600401610fc8919061279f565b60206040518083038186803b158015610fe057600080fd5b505afa158015610ff4573d6000803e3d6000fd5b505050506040513d601f19601f820116820180604052508101906110189190611eb3565b73ffffffffffffffffffffffffffffffffffffffff161461106e576040517f08c379a00000000000000000000000000000000000000000000000000000000081526004016110659061277f565b60405180910390fd5b600960009054906101000a900473ffffffffffffffffffffffffffffffffffffffff1673ffffffffffffffffffffffffffffffffffffffff1663e985e9c533306040518363ffffffff1660e01b81526004016110cb929190612439565b60206040518083038186803b1580156110e357600080fd5b505afa1580156110f7573d6000803e3d6000fd5b505050506040513d601f19601f8201168201806040525081019061111b9190611f05565b806111fb57503073ffffffffffffffffffffffffffffffffffffffff16600960009054906101000a900473ffffffffffffffffffffffffffffffffffffffff1673ffffffffffffffffffffffffffffffffffffffff1663081812fc846040518263ffffffff1660e01b8152600401611193919061279f565b60206040518083038186803b1580156111ab57600080fd5b505afa1580156111bf573d6000803e3d6000fd5b505050506040513d601f19601f820116820180604052508101906111e39190611eb3565b73ffffffffffffffffffffffffffffffffffffffff16145b61123a576040517f08c379a0000000000000000000000000000000000000000000000000000000008152600401611231906126df565b60405180910390fd5b600960009054906101000a900473ffffffffffffffffffffffffffffffffffffffff1673ffffffffffffffffffffffffffffffffffffffff1663f7d9757783836040518363ffffffff1660e01b81526004016112979291906127ba565b600060405180830381600087803b1580156112b157600080fd5b505af11580156112c5573d6000803e3d6000fd5b505050506001600b600084815260200190815260200160002060006101000a81548160ff021916908315150217905550817fdb1fd9bae40110b73b6592270632b19e60d204d52ee5cd72c60d076e6bdd342f60405160405180910390a261132a6119a8565b5050565b6000600560008373ffffffffffffffffffffffffffffffffffffffff1673ffffffffffffffffffffffffffffffffffffffff168152602001908152602001600020549050919050565b6000600b600083815260200190815260200160002060009054906101000a900460ff169050919050565b6000806113ac611750565b476113b79190612815565b90506113cc83826113c78661132e565b611af3565b915050919050565b662386f26fc1000081565b6000806113eb84611707565b8473ffffffffffffffffffffffffffffffffffffffff166370a08231306040518263ffffffff1660e01b815260040161142491906123f5565b60206040518083038186803b15801561143c57600080fd5b505afa158015611450573d6000803e3d6000fd5b505050506040513d601f19601f820116820180604052508101906114749190611fbc565b61147e9190612815565b9050611494838261148f87876106ce565b611af3565b91505092915050565b6114a5611958565b600960009054906101000a900473ffffffffffffffffffffffffffffffffffffffff1673ffffffffffffffffffffffffffffffffffffffff16636352211e826040518263ffffffff1660e01b8152600401611500919061279f565b60206040518083038186803b15801561151857600080fd5b505afa15801561152c573d6000803e3d6000fd5b505050506040513d601f19601f820116820180604052508101906115509190611eb3565b73ffffffffffffffffffffffffffffffffffffffff163373ffffffffffffffffffffffffffffffffffffffff1614806115bb575061158c610dea565b73ffffffffffffffffffffffffffffffffffffffff163373ffffffffffffffffffffffffffffffffffffffff16145b6115fa576040517f08c379a00000000000000000000000000000000000000000000000000000000081526004016115f19061255f565b60405180910390fd5b600b600082815260200190815260200160002060009054906101000a900460ff1661165a576040517f08c379a00000000000000000000000000000000000000000000000000000000081526004016116519061253f565b60405180910390fd5b6000600b600083815260200190815260200160002060006101000a81548160ff021916908315150217905550807fc0c55a6edead4433d18cb1e287a0a20a2fa003a6f483bc9823d2e504d70d1c6760405160405180910390a26116bb6119a8565b50565b6000600460008373ffffffffffffffffffffffffffffffffffffffff1673ffffffffffffffffffffffffffffffffffffffff168152602001908152602001600020549050919050565b6000600760008373ffffffffffffffffffffffffffffffffffffffff1673ffffffffffffffffffffffffffffffffffffffff168152602001908152602001600020549050919050565b6000600354905090565b6117626119b1565b600073ffffffffffffffffffffffffffffffffffffffff168173ffffffffffffffffffffffffffffffffffffffff1614156117d2576040517f08c379a00000000000000000000000000000000000000000000000000000000081526004016117c99061251f565b60405180910390fd5b6117db81611a2f565b50565b80471015611821576040517f08c379a0000000000000000000000000000000000000000000000000000000008152600401611818906125bf565b60405180910390fd5b60008273ffffffffffffffffffffffffffffffffffffffff1682604051611847906123e0565b60006040518083038185875af1925050503d8060008114611884576040519150601f19603f3d011682016040523d82523d6000602084013e611889565b606091505b50509050806118cd576040517f08c379a00000000000000000000000000000000000000000000000000000000081526004016118c49061259f565b60405180910390fd5b505050565b6119538363a9059cbb60e01b84846040516024016118f1929190612499565b604051602081830303815290604052907bffffffffffffffffffffffffffffffffffffffffffffffffffffffff19166020820180517bffffffffffffffffffffffffffffffffffffffffffffffffffffffff8381831617835250505050611b61565b505050565b6002600154141561199e576040517f08c379a00000000000000000000000000000000000000000000000000000000081526004016119959061273f565b60405180910390fd5b6002600181905550565b60018081905550565b6119b961052e565b73ffffffffffffffffffffffffffffffffffffffff166119d7610dea565b73ffffffffffffffffffffffffffffffffffffffff1614611a2d576040517f08c379a0000000000000000000000000000000000000000000000000000000008152600401611a24906126bf565b60405180910390fd5b565b60008060009054906101000a900473ffffffffffffffffffffffffffffffffffffffff169050816000806101000a81548173ffffffffffffffffffffffffffffffffffffffff021916908373ffffffffffffffffffffffffffffffffffffffff1602179055508173ffffffffffffffffffffffffffffffffffffffff168173ffffffffffffffffffffffffffffffffffffffff167f8be0079c531659141344cd1fd0a4f28419497f9722a3daafe3b4186f6b6457e060405160405180910390a35050565b600081600254600460008773ffffffffffffffffffffffffffffffffffffffff1673ffffffffffffffffffffffffffffffffffffffff1681526020019081526020016000205485611b44919061289c565b611b4e919061286b565b611b5891906128f6565b90509392505050565b6000611bc3826040518060400160405280602081526020017f5361666545524332303a206c6f772d6c6576656c2063616c6c206661696c65648152508573ffffffffffffffffffffffffffffffffffffffff16611c299092919063ffffffff16565b9050600081511480611be5575080806020019051810190611be49190611f05565b5b611c24576040517f08c379a0000000000000000000000000000000000000000000000000000000008152600401611c1b9061271f565b60405180910390fd5b505050565b6060611c388484600085611c41565b90509392505050565b606082471015611c86576040517f08c379a0000000000000000000000000000000000000000000000000000000008152600401611c7d906125df565b60405180910390fd5b6000808673ffffffffffffffffffffffffffffffffffffffff168587604051611caf91906123c9565b60006040518083038185875af1925050503d8060008114611cec576040519150601f19603f3d011682016040523d82523d6000602084013e611cf1565b606091505b5091509150611d0287838387611d0e565b92505050949350505050565b60608315611d7157600083511415611d6957611d2985611d84565b611d68576040517f08c379a0000000000000000000000000000000000000000000000000000000008152600401611d5f906126ff565b60405180910390fd5b5b829050611d7c565b611d7b8383611da7565b5b949350505050565b6000808273ffffffffffffffffffffffffffffffffffffffff163b119050919050565b600082511115611dba5781518083602001fd5b806040517f08c379a0000000000000000000000000000000000000000000000000000000008152600401611dee91906124dd565b60405180910390fd5b600081359050611e0681612f4a565b92915050565b600081519050611e1b81612f4a565b92915050565b600081359050611e3081612f61565b92915050565b600081519050611e4581612f78565b92915050565b600081359050611e5a81612f8f565b92915050565b600081359050611e6f81612fa6565b92915050565b600081519050611e8481612fa6565b92915050565b600060208284031215611e9c57600080fd5b6000611eaa84828501611df7565b91505092915050565b600060208284031215611ec557600080fd5b6000611ed384828501611e0c565b91505092915050565b600060208284031215611eee57600080fd5b6000611efc84828501611e21565b91505092915050565b600060208284031215611f1757600080fd5b6000611f2584828501611e36565b91505092915050565b600060208284031215611f4057600080fd5b6000611f4e84828501611e4b565b91505092915050565b60008060408385031215611f6a57600080fd5b6000611f7885828601611e4b565b9250506020611f8985828601611df7565b9150509250929050565b600060208284031215611fa557600080fd5b6000611fb384828501611e60565b91505092915050565b600060208284031215611fce57600080fd5b6000611fdc84828501611e75565b91505092915050565b60008060408385031215611ff857600080fd5b600061200685828601611e60565b925050602061201785828601611e60565b9150509250929050565b61202a81612996565b82525050565b6120398161292a565b82525050565b6120488161294e565b82525050565b6000612059826127e3565b61206381856127f9565b93506120738185602086016129cc565b80840191505092915050565b600061208a826127ee565b6120948185612804565b93506120a48185602086016129cc565b6120ad81612a5d565b840191505092915050565b60006120c5602083612804565b91506120d082612a6e565b602082019050919050565b60006120e8602683612804565b91506120f382612a97565b604082019050919050565b600061210b600e83612804565b915061211682612ae6565b602082019050919050565b600061212e602983612804565b915061213982612b0f565b604082019050919050565b6000612151602683612804565b915061215c82612b5e565b604082019050919050565b6000612174603a83612804565b915061217f82612bad565b604082019050919050565b6000612197601d83612804565b91506121a282612bfc565b602082019050919050565b60006121ba602683612804565b91506121c582612c25565b604082019050919050565b60006121dd602b83612804565b91506121e882612c74565b604082019050919050565b6000612200601f83612804565b915061220b82612cc3565b602082019050919050565b6000612223601283612804565b915061222e82612cec565b602082019050919050565b6000612246602b83612804565b915061225182612d15565b604082019050919050565b6000612269602783612804565b915061227482612d64565b604082019050919050565b600061228c601783612804565b915061229782612db3565b602082019050919050565b60006122af602083612804565b91506122ba82612ddc565b602082019050919050565b60006122d2602a83612804565b91506122dd82612e05565b604082019050919050565b60006122f56000836127f9565b915061230082612e54565b600082019050919050565b6000612318601d83612804565b915061232382612e57565b602082019050919050565b600061233b602a83612804565b915061234682612e80565b604082019050919050565b600061235e601f83612804565b915061236982612ecf565b602082019050919050565b6000612381601c83612804565b915061238c82612ef8565b602082019050919050565b60006123a4601883612804565b91506123af82612f21565b602082019050919050565b6123c38161298c565b82525050565b60006123d5828461204e565b915081905092915050565b60006123eb826122e8565b9150819050919050565b600060208201905061240a6000830184612030565b92915050565b60006040820190506124256000830185612021565b61243260208301846123ba565b9392505050565b600060408201905061244e6000830185612030565b61245b6020830184612030565b9392505050565b60006060820190506124776000830186612030565b6124846020830185612030565b61249160408301846123ba565b949350505050565b60006040820190506124ae6000830185612030565b6124bb60208301846123ba565b9392505050565b60006020820190506124d7600083018461203f565b92915050565b600060208201905081810360008301526124f7818461207f565b905092915050565b60006020820190508181036000830152612518816120b8565b9050919050565b60006020820190508181036000830152612538816120db565b9050919050565b60006020820190508181036000830152612558816120fe565b9050919050565b6000602082019050818103600083015261257881612121565b9050919050565b6000602082019050818103600083015261259881612144565b9050919050565b600060208201905081810360008301526125b881612167565b9050919050565b600060208201905081810360008301526125d88161218a565b9050919050565b600060208201905081810360008301526125f8816121ad565b9050919050565b60006020820190508181036000830152612618816121d0565b9050919050565b60006020820190508181036000830152612638816121f3565b9050919050565b6000602082019050818103600083015261265881612216565b9050919050565b6000602082019050818103600083015261267881612239565b9050919050565b600060208201905081810360008301526126988161225c565b9050919050565b600060208201905081810360008301526126b88161227f565b9050919050565b600060208201905081810360008301526126d8816122a2565b9050919050565b600060208201905081810360008301526126f8816122c5565b9050919050565b600060208201905081810360008301526127188161230b565b9050919050565b600060208201905081810360008301526127388161232e565b9050919050565b6000602082019050818103600083015261275881612351565b9050919050565b6000602082019050818103600083015261277881612374565b9050919050565b6000602082019050818103600083015261279881612397565b9050919050565b60006020820190506127b460008301846123ba565b92915050565b60006040820190506127cf60008301856123ba565b6127dc60208301846123ba565b9392505050565b600081519050919050565b600081519050919050565b600081905092915050565b600082825260208201905092915050565b60006128208261298c565b915061282b8361298c565b9250827fffffffffffffffffffffffffffffffffffffffffffffffffffffffffffffffff038211156128605761285f6129ff565b5b828201905092915050565b60006128768261298c565b91506128818361298c565b92508261289157612890612a2e565b5b828204905092915050565b60006128a78261298c565b91506128b28361298c565b9250817fffffffffffffffffffffffffffffffffffffffffffffffffffffffffffffffff04831182151516156128eb576128ea6129ff565b5b828202905092915050565b60006129018261298c565b915061290c8361298c565b92508282101561291f5761291e6129ff565b5b828203905092915050565b60006129358261296c565b9050919050565b60006129478261296c565b9050919050565b60008115159050919050565b60006129658261292a565b9050919050565b600073ffffffffffffffffffffffffffffffffffffffff82169050919050565b6000819050919050565b60006129a1826129a8565b9050919050565b60006129b3826129ba565b9050919050565b60006129c58261296c565b9050919050565b60005b838110156129ea5780820151818401526020810190506129cf565b838111156129f9576000848401525b50505050565b7f4e487b7100000000000000000000000000000000000000000000000000000000600052601160045260246000fd5b7f4e487b7100000000000000000000000000000000000000000000000000000000600052601260045260246000fd5b6000601f19601f8301169050919050565b7f5072696365206d757374206265206174206c65617374204d494e5f5052494345600082015250565b7f4f776e61626c653a206e6577206f776e657220697320746865207a65726f206160008201527f6464726573730000000000000000000000000000000000000000000000000000602082015250565b7f4e4654206e6f74206c6973746564000000000000000000000000000000000000600082015250565b7f43616c6c6572206973206e6f74206f776e6572206f66204e4654206f72206d6160008201527f726b6574706c6163650000000000000000000000000000000000000000000000602082015250565b7f5061796d656e7453706c69747465723a206163636f756e7420686173206e6f2060008201527f7368617265730000000000000000000000000000000000000000000000000000602082015250565b7f416464726573733a20756e61626c6520746f2073656e642076616c75652c207260008201527f6563697069656e74206d61792068617665207265766572746564000000000000602082015250565b7f416464726573733a20696e73756666696369656e742062616c616e6365000000600082015250565b7f416464726573733a20696e73756666696369656e742062616c616e636520666f60008201527f722063616c6c0000000000000000000000000000000000000000000000000000602082015250565b7f5061796d656e7453706c69747465723a206163636f756e74206973206e6f742060008201527f647565207061796d656e74000000000000000000000000000000000000000000602082015250565b7f5072696365206d757374206e6f7420657863656564204d41585f505249434500600082015250565b7f4e465420616c7265616479206c69737465640000000000000000000000000000600082015250565b7f50726963652073686f756c6420626520686967686572207468616e20746f746160008201527f6c20726f79616c74696573000000000000000000000000000000000000000000602082015250565b7f53656e742076616c756520646f6573206e6f74206d6174636820746865204e4660008201527f5420707269636500000000000000000000000000000000000000000000000000602082015250565b7f4e4654206e6f74206c697374656420666f722073616c65000000000000000000600082015250565b7f4f776e61626c653a2063616c6c6572206973206e6f7420746865206f776e6572600082015250565b7f4d75737420617070726f7665206d61726b6574706c61636520746f206d616e6160008201527f676520746865204e465400000000000000000000000000000000000000000000602082015250565b50565b7f416464726573733a2063616c6c20746f206e6f6e2d636f6e7472616374000000600082015250565b7f5361666545524332303a204552433230206f7065726174696f6e20646964206e60008201527f6f74207375636365656400000000000000000000000000000000000000000000602082015250565b7f5265656e7472616e637947756172643a207265656e7472616e742063616c6c00600082015250565b7f5072696365206d7573742062652067726561746572207468616e203000000000600082015250565b7f4d757374206265206f776e6572206f6620746865204e46540000000000000000600082015250565b612f538161292a565b8114612f5e57600080fd5b50565b612f6a8161293c565b8114612f7557600080fd5b50565b612f818161294e565b8114612f8c57600080fd5b50565b612f988161295a565b8114612fa357600080fd5b50565b612faf8161298c565b8114612fba57600080fd5b5056fea2646970667358221220b43761016b8a1136de23b0458e7e3dd730e3cabce56a5e3cf7abbc2899591ccb64736f6c63430008010033",
  "linkReferences": {},
  "deployedLinkReferences": {}
}