{
  "_format": "hh-sol-artifact-1",
  "contractName": "NFTMarketplace",
  "sourceName": "contracts/NFTMarketplace.sol",
  "abi": [
    {
      "inputs": [
        {
          "internalType": "address",
          "name": "nftContractAddress",
          "type": "address"
        },
        {
          "internalType": "address[]",
          "name": "payees",
          "type": "address[]"
        },
        {
          "internalType": "uint256[]",
          "name": "shares",
          "type": "uint256[]"
        },
        {
          "internalType": "uint256",
          "name": "royalties",
          "type": "uint256"
        }
      ],
      "stateMutability": "nonpayable",
      "type": "constructor"
    },
    {
      "anonymous": false,
      "inputs": [
        {
          "indexed": true,
          "internalType": "contract IERC20",
          "name": "token",
          "type": "address"
        },
        {
          "indexed": false,
          "internalType": "address",
          "name": "to",
          "type": "address"
        },
        {
          "indexed": false,
          "internalType": "uint256",
          "name": "amount",
          "type": "uint256"
        }
      ],
      "name": "ERC20PaymentReleased",
      "type": "event"
    },
    {
      "anonymous": false,
      "inputs": [
        {
          "indexed": true,
          "internalType": "uint256",
          "name": "tokenId",
          "type": "uint256"
        }
      ],
      "name": "NFTBought",
      "type": "event"
    },
    {
      "anonymous": false,
      "inputs": [
        {
          "indexed": true,
          "internalType": "uint256",
          "name": "tokenId",
          "type": "uint256"
        }
      ],
      "name": "NFTDelisted",
      "type": "event"
    },
    {
      "anonymous": false,
      "inputs": [
        {
          "indexed": true,
          "internalType": "uint256",
          "name": "tokenId",
          "type": "uint256"
        }
      ],
      "name": "NFTListed",
      "type": "event"
    },
    {
      "anonymous": false,
      "inputs": [
        {
          "indexed": true,
          "internalType": "address",
          "name": "previousOwner",
          "type": "address"
        },
        {
          "indexed": true,
          "internalType": "address",
          "name": "newOwner",
          "type": "address"
        }
      ],
      "name": "OwnershipTransferred",
      "type": "event"
    },
    {
      "anonymous": false,
      "inputs": [
        {
          "indexed": false,
          "internalType": "address",
          "name": "account",
          "type": "address"
        },
        {
          "indexed": false,
          "internalType": "uint256",
          "name": "shares",
          "type": "uint256"
        }
      ],
      "name": "PayeeAdded",
      "type": "event"
    },
    {
      "anonymous": false,
      "inputs": [
        {
          "indexed": false,
          "internalType": "address",
          "name": "from",
          "type": "address"
        },
        {
          "indexed": false,
          "internalType": "uint256",
          "name": "amount",
          "type": "uint256"
        }
      ],
      "name": "PaymentReceived",
      "type": "event"
    },
    {
      "anonymous": false,
      "inputs": [
        {
          "indexed": false,
          "internalType": "address",
          "name": "to",
          "type": "address"
        },
        {
          "indexed": false,
          "internalType": "uint256",
          "name": "amount",
          "type": "uint256"
        }
      ],
      "name": "PaymentReleased",
      "type": "event"
    },
    {
      "inputs": [],
      "name": "MIN_PRICE",
      "outputs": [
        {
          "internalType": "uint256",
          "name": "",
          "type": "uint256"
        }
      ],
      "stateMutability": "view",
      "type": "function"
    },
    {
      "inputs": [
        {
          "internalType": "uint256",
          "name": "tokenId",
          "type": "uint256"
        }
      ],
      "name": "buyNFT",
      "outputs": [],
      "stateMutability": "payable",
      "type": "function"
    },
    {
      "inputs": [
        {
          "internalType": "uint256",
          "name": "tokenId",
          "type": "uint256"
        }
      ],
      "name": "delistNFT",
      "outputs": [],
      "stateMutability": "nonpayable",
      "type": "function"
    },
    {
      "inputs": [
        {
          "internalType": "uint256",
          "name": "collectionId",
          "type": "uint256"
        },
        {
          "internalType": "uint256",
          "name": "startIndex",
          "type": "uint256"
        },
        {
          "internalType": "uint256",
          "name": "pageSize",
          "type": "uint256"
        }
      ],
      "name": "getListedTokensInCollection",
      "outputs": [
        {
          "internalType": "uint256[]",
          "name": "",
          "type": "uint256[]"
        }
      ],
      "stateMutability": "view",
      "type": "function"
    },
    {
      "inputs": [
        {
          "internalType": "uint256",
          "name": "tokenId",
          "type": "uint256"
        }
      ],
      "name": "isTokenListed",
      "outputs": [
        {
          "internalType": "bool",
          "name": "",
          "type": "bool"
        }
      ],
      "stateMutability": "view",
      "type": "function"
    },
    {
      "inputs": [
        {
          "internalType": "uint256",
          "name": "tokenId",
          "type": "uint256"
        },
        {
          "internalType": "uint256",
          "name": "newPrice",
          "type": "uint256"
        }
      ],
      "name": "listNFT",
      "outputs": [],
      "stateMutability": "nonpayable",
      "type": "function"
    },
    {
      "inputs": [],
      "name": "owner",
      "outputs": [
        {
          "internalType": "address",
          "name": "",
          "type": "address"
        }
      ],
      "stateMutability": "view",
      "type": "function"
    },
    {
      "inputs": [
        {
          "internalType": "uint256",
          "name": "index",
          "type": "uint256"
        }
      ],
      "name": "payee",
      "outputs": [
        {
          "internalType": "address",
          "name": "",
          "type": "address"
        }
      ],
      "stateMutability": "view",
      "type": "function"
    },
    {
      "inputs": [
        {
          "internalType": "address",
          "name": "account",
          "type": "address"
        }
      ],
      "name": "releasable",
      "outputs": [
        {
          "internalType": "uint256",
          "name": "",
          "type": "uint256"
        }
      ],
      "stateMutability": "view",
      "type": "function"
    },
    {
      "inputs": [
        {
          "internalType": "contract IERC20",
          "name": "token",
          "type": "address"
        },
        {
          "internalType": "address",
          "name": "account",
          "type": "address"
        }
      ],
      "name": "releasable",
      "outputs": [
        {
          "internalType": "uint256",
          "name": "",
          "type": "uint256"
        }
      ],
      "stateMutability": "view",
      "type": "function"
    },
    {
      "inputs": [
        {
          "internalType": "address payable",
          "name": "account",
          "type": "address"
        }
      ],
      "name": "release",
      "outputs": [],
      "stateMutability": "nonpayable",
      "type": "function"
    },
    {
      "inputs": [
        {
          "internalType": "contract IERC20",
          "name": "token",
          "type": "address"
        },
        {
          "internalType": "address",
          "name": "account",
          "type": "address"
        }
      ],
      "name": "release",
      "outputs": [],
      "stateMutability": "nonpayable",
      "type": "function"
    },
    {
      "inputs": [
        {
          "internalType": "contract IERC20",
          "name": "token",
          "type": "address"
        },
        {
          "internalType": "address",
          "name": "account",
          "type": "address"
        }
      ],
      "name": "released",
      "outputs": [
        {
          "internalType": "uint256",
          "name": "",
          "type": "uint256"
        }
      ],
      "stateMutability": "view",
      "type": "function"
    },
    {
      "inputs": [
        {
          "internalType": "address",
          "name": "account",
          "type": "address"
        }
      ],
      "name": "released",
      "outputs": [
        {
          "internalType": "uint256",
          "name": "",
          "type": "uint256"
        }
      ],
      "stateMutability": "view",
      "type": "function"
    },
    {
      "inputs": [],
      "name": "renounceOwnership",
      "outputs": [],
      "stateMutability": "nonpayable",
      "type": "function"
    },
    {
      "inputs": [
        {
          "internalType": "address",
          "name": "account",
          "type": "address"
        }
      ],
      "name": "shares",
      "outputs": [
        {
          "internalType": "uint256",
          "name": "",
          "type": "uint256"
        }
      ],
      "stateMutability": "view",
      "type": "function"
    },
    {
      "inputs": [
        {
          "internalType": "contract IERC20",
          "name": "token",
          "type": "address"
        }
      ],
      "name": "totalReleased",
      "outputs": [
        {
          "internalType": "uint256",
          "name": "",
          "type": "uint256"
        }
      ],
      "stateMutability": "view",
      "type": "function"
    },
    {
      "inputs": [],
      "name": "totalReleased",
      "outputs": [
        {
          "internalType": "uint256",
          "name": "",
          "type": "uint256"
        }
      ],
      "stateMutability": "view",
      "type": "function"
    },
    {
      "inputs": [],
      "name": "totalShares",
      "outputs": [
        {
          "internalType": "uint256",
          "name": "",
          "type": "uint256"
        }
      ],
      "stateMutability": "view",
      "type": "function"
    },
    {
      "inputs": [
        {
          "internalType": "address",
          "name": "newOwner",
          "type": "address"
        }
      ],
      "name": "transferOwnership",
      "outputs": [],
      "stateMutability": "nonpayable",
      "type": "function"
    },
    {
      "stateMutability": "payable",
      "type": "receive"
    }
  ],
  "bytecode": "0x60806040523480156200001157600080fd5b506040516200470438038062004704833981810160405281019062000037919062000700565b8282620000596200004d6200028860201b60201c565b6200029060201b60201c565b600180819055508051825114620000a7576040517f08c379a00000000000000000000000000000000000000000000000000000000081526004016200009e9062000920565b60405180910390fd5b6000825111620000ee576040517f08c379a0000000000000000000000000000000000000000000000000000000008152600401620000e590620009a8565b60405180910390fd5b60005b8251811015620001a5576200018f83828151811062000139577f4e487b7100000000000000000000000000000000000000000000000000000000600052603260045260246000fd5b60200260200101518383815181106200017b577f4e487b7100000000000000000000000000000000000000000000000000000000600052603260045260246000fd5b60200260200101516200035460201b60201c565b80806200019c9062000b55565b915050620000f1565b5050506000835111620001ef576040517f08c379a0000000000000000000000000000000000000000000000000000000008152600401620001e69062000964565b60405180910390fd5b815183511462000236576040517f08c379a00000000000000000000000000000000000000000000000000000000081526004016200022d9062000942565b60405180910390fd5b83600960006101000a81548173ffffffffffffffffffffffffffffffffffffffff021916908373ffffffffffffffffffffffffffffffffffffffff16021790555080600a819055505050505062000dfd565b600033905090565b60008060009054906101000a900473ffffffffffffffffffffffffffffffffffffffff169050816000806101000a81548173ffffffffffffffffffffffffffffffffffffffff021916908373ffffffffffffffffffffffffffffffffffffffff1602179055508173ffffffffffffffffffffffffffffffffffffffff168173ffffffffffffffffffffffffffffffffffffffff167f8be0079c531659141344cd1fd0a4f28419497f9722a3daafe3b4186f6b6457e060405160405180910390a35050565b600073ffffffffffffffffffffffffffffffffffffffff168273ffffffffffffffffffffffffffffffffffffffff161415620003c7576040517f08c379a0000000000000000000000000000000000000000000000000000000008152600401620003be90620008fe565b60405180910390fd5b600081116200040d576040517f08c379a00000000000000000000000000000000000000000000000000000000081526004016200040490620009ca565b60405180910390fd5b6000600460008473ffffffffffffffffffffffffffffffffffffffff1673ffffffffffffffffffffffffffffffffffffffff168152602001908152602001600020541462000492576040517f08c379a0000000000000000000000000000000000000000000000000000000008152600401620004899062000986565b60405180910390fd5b6006829080600181540180825580915050600190039060005260206000200160009091909190916101000a81548173ffffffffffffffffffffffffffffffffffffffff021916908373ffffffffffffffffffffffffffffffffffffffff16021790555080600460008473ffffffffffffffffffffffffffffffffffffffff1673ffffffffffffffffffffffffffffffffffffffff168152602001908152602001600020819055508060025462000549919062000a84565b6002819055507f40c340f65e17194d14ddddb073d3c9f888e3cb52b5aae0c6c7706b4fbc905fac828260405162000582929190620008d1565b60405180910390a15050565b6000620005a56200059f8462000a15565b620009ec565b90508083825260208201905082856020860282011115620005c557600080fd5b60005b85811015620005f95781620005de888262000678565b845260208401935060208301925050600181019050620005c8565b5050509392505050565b60006200061a620006148462000a44565b620009ec565b905080838252602082019050828560208602820111156200063a57600080fd5b60005b858110156200066e5781620006538882620006e9565b8452602084019350602083019250506001810190506200063d565b5050509392505050565b600081519050620006898162000dc9565b92915050565b600082601f830112620006a157600080fd5b8151620006b38482602086016200058e565b91505092915050565b600082601f830112620006ce57600080fd5b8151620006e084826020860162000603565b91505092915050565b600081519050620006fa8162000de3565b92915050565b600080600080608085870312156200071757600080fd5b6000620007278782880162000678565b945050602085015167ffffffffffffffff8111156200074557600080fd5b62000753878288016200068f565b935050604085015167ffffffffffffffff8111156200077157600080fd5b6200077f87828801620006bc565b92505060606200079287828801620006e9565b91505092959194509250565b620007a98162000ae1565b82525050565b6000620007be602c8362000a73565b9150620007cb8262000c12565b604082019050919050565b6000620007e560328362000a73565b9150620007f28262000c61565b604082019050919050565b60006200080c60238362000a73565b9150620008198262000cb0565b604082019050919050565b600062000833601e8362000a73565b9150620008408262000cff565b602082019050919050565b60006200085a602b8362000a73565b9150620008678262000d28565b604082019050919050565b600062000881601a8362000a73565b91506200088e8262000d77565b602082019050919050565b6000620008a8601d8362000a73565b9150620008b58262000da0565b602082019050919050565b620008cb8162000b15565b82525050565b6000604082019050620008e860008301856200079e565b620008f76020830184620008c0565b9392505050565b600060208201905081810360008301526200091981620007af565b9050919050565b600060208201905081810360008301526200093b81620007d6565b9050919050565b600060208201905081810360008301526200095d81620007fd565b9050919050565b600060208201905081810360008301526200097f8162000824565b9050919050565b60006020820190508181036000830152620009a1816200084b565b9050919050565b60006020820190508181036000830152620009c38162000872565b9050919050565b60006020820190508181036000830152620009e58162000899565b9050919050565b6000620009f862000a0b565b905062000a06828262000b1f565b919050565b6000604051905090565b600067ffffffffffffffff82111562000a335762000a3262000bd2565b5b602082029050602081019050919050565b600067ffffffffffffffff82111562000a625762000a6162000bd2565b5b602082029050602081019050919050565b600082825260208201905092915050565b600062000a918262000b15565b915062000a9e8362000b15565b9250827fffffffffffffffffffffffffffffffffffffffffffffffffffffffffffffffff0382111562000ad65762000ad562000ba3565b5b828201905092915050565b600062000aee8262000af5565b9050919050565b600073ffffffffffffffffffffffffffffffffffffffff82169050919050565b6000819050919050565b62000b2a8262000c01565b810181811067ffffffffffffffff8211171562000b4c5762000b4b62000bd2565b5b80604052505050565b600062000b628262000b15565b91507fffffffffffffffffffffffffffffffffffffffffffffffffffffffffffffffff82141562000b985762000b9762000ba3565b5b600182019050919050565b7f4e487b7100000000000000000000000000000000000000000000000000000000600052601160045260246000fd5b7f4e487b7100000000000000000000000000000000000000000000000000000000600052604160045260246000fd5b6000601f19601f8301169050919050565b7f5061796d656e7453706c69747465723a206163636f756e74206973207468652060008201527f7a65726f20616464726573730000000000000000000000000000000000000000602082015250565b7f5061796d656e7453706c69747465723a2070617965657320616e64207368617260008201527f6573206c656e677468206d69736d617463680000000000000000000000000000602082015250565b7f50617965657320616e6420736861726573206c656e677468206d757374206d6160008201527f7463680000000000000000000000000000000000000000000000000000000000602082015250565b7f4174206c65617374206f6e652070617965652069732072657175697265640000600082015250565b7f5061796d656e7453706c69747465723a206163636f756e7420616c726561647960008201527f2068617320736861726573000000000000000000000000000000000000000000602082015250565b7f5061796d656e7453706c69747465723a206e6f20706179656573000000000000600082015250565b7f5061796d656e7453706c69747465723a20736861726573206172652030000000600082015250565b62000dd48162000ae1565b811462000de057600080fd5b50565b62000dee8162000b15565b811462000dfa57600080fd5b50565b6138f78062000e0d6000396000f3fe6080604052600436106101235760003560e01c80639852595c116100a0578063cb917b9c11610064578063cb917b9c14610449578063ce7c2ac214610472578063d79779b2146104af578063e33b7de3146104ec578063f2fde38b146105175761016a565b80639852595c1461032a5780639b83cddc14610367578063a3f8eace146103a4578063ad9f20a6146103e1578063c45ac0501461040c5761016a565b80635f85ad68116100e75780635f85ad6814610245578063715018a6146102825780638b83209b146102995780638da5cb5b146102d657806394383f14146103015761016a565b8063191655871461016f5780633a98ef3914610198578063406072a9146101c357806348b750441461020057806351ed8288146102295761016a565b3661016a577f6ef95f06320e7a25a04a175ca677b7052bdd97131872c2192525a629f51be770610151610540565b34604051610160929190612ba2565b60405180910390a1005b600080fd5b34801561017b57600080fd5b5061019660048036038101906101919190612471565b610548565b005b3480156101a457600080fd5b506101ad6106c8565b6040516101ba9190612eea565b60405180910390f35b3480156101cf57600080fd5b506101ea60048036038101906101e59190612569565b6106d2565b6040516101f79190612eea565b60405180910390f35b34801561020c57600080fd5b5061022760048036038101906102229190612569565b610759565b005b610243600480360381019061023e91906125a5565b61096d565b005b34801561025157600080fd5b5061026c60048036038101906102679190612633565b610f80565b6040516102799190612bcb565b60405180910390f35b34801561028e57600080fd5b506102976112cb565b005b3480156102a557600080fd5b506102c060048036038101906102bb91906125a5565b6112df565b6040516102cd9190612afe565b60405180910390f35b3480156102e257600080fd5b506102eb61134d565b6040516102f89190612afe565b60405180910390f35b34801561030d57600080fd5b50610328600480360381019061032391906125f7565b611376565b005b34801561033657600080fd5b50610351600480360381019061034c919061241f565b611801565b60405161035e9190612eea565b60405180910390f35b34801561037357600080fd5b5061038e600480360381019061038991906125a5565b61184a565b60405161039b9190612bed565b60405180910390f35b3480156103b057600080fd5b506103cb60048036038101906103c6919061241f565b611874565b6040516103d89190612eea565b60405180910390f35b3480156103ed57600080fd5b506103f66118a7565b6040516104039190612eea565b60405180910390f35b34801561041857600080fd5b50610433600480360381019061042e9190612569565b6118b2565b6040516104409190612eea565b60405180910390f35b34801561045557600080fd5b50610470600480360381019061046b91906125a5565b611970565b005b34801561047e57600080fd5b506104996004803603810190610494919061241f565b611b91565b6040516104a69190612eea565b60405180910390f35b3480156104bb57600080fd5b506104d660048036038101906104d19190612540565b611bda565b6040516104e39190612eea565b60405180910390f35b3480156104f857600080fd5b50610501611c23565b60405161050e9190612eea565b60405180910390f35b34801561052357600080fd5b5061053e6004803603810190610539919061241f565b611c2d565b005b600033905090565b6000600460008373ffffffffffffffffffffffffffffffffffffffff1673ffffffffffffffffffffffffffffffffffffffff16815260200190815260200160002054116105ca576040517f08c379a00000000000000000000000000000000000000000000000000000000081526004016105c190612cca565b60405180910390fd5b60006105d582611874565b9050600081141561061b576040517f08c379a000000000000000000000000000000000000000000000000000000000815260040161061290612d4a565b60405180910390fd5b806003600082825461062d9190613021565b9250508190555080600560008473ffffffffffffffffffffffffffffffffffffffff1673ffffffffffffffffffffffffffffffffffffffff1681526020019081526020016000206000828254019250508190555061068b8282611cb1565b7fdf20fd1e76bc69d672e4814fafb2c449bba3a5369d8359adf9e05e6fde87b05682826040516106bc929190612b19565b60405180910390a15050565b6000600254905090565b6000600860008473ffffffffffffffffffffffffffffffffffffffff1673ffffffffffffffffffffffffffffffffffffffff16815260200190815260200160002060008373ffffffffffffffffffffffffffffffffffffffff1673ffffffffffffffffffffffffffffffffffffffff16815260200190815260200160002054905092915050565b6000600460008373ffffffffffffffffffffffffffffffffffffffff1673ffffffffffffffffffffffffffffffffffffffff16815260200190815260200160002054116107db576040517f08c379a00000000000000000000000000000000000000000000000000000000081526004016107d290612cca565b60405180910390fd5b60006107e783836118b2565b9050600081141561082d576040517f08c379a000000000000000000000000000000000000000000000000000000000815260040161082490612d4a565b60405180910390fd5b80600760008573ffffffffffffffffffffffffffffffffffffffff1673ffffffffffffffffffffffffffffffffffffffff168152602001908152602001600020600082825461087c9190613021565b9250508190555080600860008573ffffffffffffffffffffffffffffffffffffffff1673ffffffffffffffffffffffffffffffffffffffff16815260200190815260200160002060008473ffffffffffffffffffffffffffffffffffffffff1673ffffffffffffffffffffffffffffffffffffffff16815260200190815260200160002060008282540192505081905550610918838383611da5565b8273ffffffffffffffffffffffffffffffffffffffff167f3be5b7a71e84ed12875d241991c70855ac5817d847039e17a9d895c1ceb0f18a8383604051610960929190612ba2565b60405180910390a2505050565b610975611e2b565b600b600082815260200190815260200160002060009054906101000a900460ff166109d5576040517f08c379a00000000000000000000000000000000000000000000000000000000081526004016109cc90612dea565b60405180910390fd5b6000600960009054906101000a900473ffffffffffffffffffffffffffffffffffffffff1673ffffffffffffffffffffffffffffffffffffffff1663e7572230836040518263ffffffff1660e01b8152600401610a329190612eea565b60206040518083038186803b158015610a4a57600080fd5b505afa158015610a5e573d6000803e3d6000fd5b505050506040513d601f19601f82011682018060405250810190610a8291906125ce565b90506000600960009054906101000a900473ffffffffffffffffffffffffffffffffffffffff1673ffffffffffffffffffffffffffffffffffffffff16636352211e846040518263ffffffff1660e01b8152600401610ae19190612eea565b60206040518083038186803b158015610af957600080fd5b505afa158015610b0d573d6000803e3d6000fd5b505050506040513d601f19601f82011682018060405250810190610b319190612448565b90503373ffffffffffffffffffffffffffffffffffffffff168173ffffffffffffffffffffffffffffffffffffffff161415610ba2576040517f08c379a0000000000000000000000000000000000000000000000000000000008152600401610b9990612d6a565b60405180910390fd5b813414610be4576040517f08c379a0000000000000000000000000000000000000000000000000000000008152600401610bdb90612dca565b60405180910390fd5b600080600960009054906101000a900473ffffffffffffffffffffffffffffffffffffffff1673ffffffffffffffffffffffffffffffffffffffff16632a55205a86866040518363ffffffff1660e01b8152600401610c44929190612f05565b604080518083038186803b158015610c5b57600080fd5b505afa158015610c6f573d6000803e3d6000fd5b505050506040513d601f19601f82011682018060405250810190610c93919061249a565b915091506000610cc16064610cb3600a5488611e7b90919063ffffffff16565b611e9190919063ffffffff16565b90508181610ccf9190613021565b8511610d10576040517f08c379a0000000000000000000000000000000000000000000000000000000008152600401610d0790612daa565b60405180910390fd5b60008183610d1e9190613021565b86610d299190613102565b90506000600b600089815260200190815260200160002060006101000a81548160ff02191690831515021790555060008573ffffffffffffffffffffffffffffffffffffffff1682604051610d7d90612ae9565b60006040518083038185875af1925050503d8060008114610dba576040519150601f19603f3d011682016040523d82523d6000602084013e610dbf565b606091505b5050905080610e03576040517f08c379a0000000000000000000000000000000000000000000000000000000008152600401610dfa90612e4a565b60405180910390fd5b60008573ffffffffffffffffffffffffffffffffffffffff1685604051610e2990612ae9565b60006040518083038185875af1925050503d8060008114610e66576040519150601f19603f3d011682016040523d82523d6000602084013e610e6b565b606091505b5050905080610eaf576040517f08c379a0000000000000000000000000000000000000000000000000000000008152600401610ea690612c2a565b60405180910390fd5b600960009054906101000a900473ffffffffffffffffffffffffffffffffffffffff1673ffffffffffffffffffffffffffffffffffffffff166323b872dd88338c6040518463ffffffff1660e01b8152600401610f0e93929190612b6b565b600060405180830381600087803b158015610f2857600080fd5b505af1158015610f3c573d6000803e3d6000fd5b50505050887ff1a4f188d8f608af032a64d403473119856aae541d836c6a78e2187e809c330760405160405180910390a25050505050505050610f7d611ea7565b50565b606060008267ffffffffffffffff811115610fc4577f4e487b7100000000000000000000000000000000000000000000000000000000600052604160045260246000fd5b604051908082528060200260200182016040528015610ff25781602001602082028036833780820191505090505b509050600080600960009054906101000a900473ffffffffffffffffffffffffffffffffffffffff1673ffffffffffffffffffffffffffffffffffffffff1663d08b28ea8888886040518463ffffffff1660e01b815260040161105793929190612f2e565b60006040518083038186803b15801561106f57600080fd5b505afa158015611083573d6000803e3d6000fd5b505050506040513d6000823e3d601f19601f820116820180604052508101906110ac91906124d6565b90506000815114156110c3578293505050506112c4565b60005b81518110156111a357600082828151811061110a577f4e487b7100000000000000000000000000000000000000000000000000000000600052603260045260246000fd5b60200260200101519050600b600082815260200190815260200160002060009054906101000a900460ff161561118f5780858581518110611174577f4e487b7100000000000000000000000000000000000000000000000000000000600052603260045260246000fd5b602002602001018181525050838061118b9061323c565b9450505b50808061119b9061323c565b9150506110c6565b5060008267ffffffffffffffff8111156111e6577f4e487b7100000000000000000000000000000000000000000000000000000000600052604160045260246000fd5b6040519080825280602002602001820160405280156112145781602001602082028036833780820191505090505b50905060005b838110156112bb5784818151811061125b577f4e487b7100000000000000000000000000000000000000000000000000000000600052603260045260246000fd5b602002602001015182828151811061129c577f4e487b7100000000000000000000000000000000000000000000000000000000600052603260045260246000fd5b60200260200101818152505080806112b39061323c565b91505061121a565b50809450505050505b9392505050565b6112d3611eb0565b6112dd6000611f2e565b565b60006006828154811061131b577f4e487b7100000000000000000000000000000000000000000000000000000000600052603260045260246000fd5b9060005260206000200160009054906101000a900473ffffffffffffffffffffffffffffffffffffffff169050919050565b60008060009054906101000a900473ffffffffffffffffffffffffffffffffffffffff16905090565b61137e611e2b565b662386f26fc100008110156113c8576040517f08c379a00000000000000000000000000000000000000000000000000000000081526004016113bf90612c4a565b60405180910390fd5b600b600083815260200190815260200160002060009054906101000a900460ff1615611429576040517f08c379a000000000000000000000000000000000000000000000000000000000815260040161142090612d8a565b60405180910390fd5b3373ffffffffffffffffffffffffffffffffffffffff16600960009054906101000a900473ffffffffffffffffffffffffffffffffffffffff1673ffffffffffffffffffffffffffffffffffffffff16636352211e846040518263ffffffff1660e01b815260040161149b9190612eea565b60206040518083038186803b1580156114b357600080fd5b505afa1580156114c7573d6000803e3d6000fd5b505050506040513d601f19601f820116820180604052508101906114eb9190612448565b73ffffffffffffffffffffffffffffffffffffffff1614611541576040517f08c379a000000000000000000000000000000000000000000000000000000000815260040161153890612eca565b60405180910390fd5b600960009054906101000a900473ffffffffffffffffffffffffffffffffffffffff1673ffffffffffffffffffffffffffffffffffffffff1663e985e9c533306040518363ffffffff1660e01b815260040161159e929190612b42565b60206040518083038186803b1580156115b657600080fd5b505afa1580156115ca573d6000803e3d6000fd5b505050506040513d601f19601f820116820180604052508101906115ee9190612517565b806116ce57503073ffffffffffffffffffffffffffffffffffffffff16600960009054906101000a900473ffffffffffffffffffffffffffffffffffffffff1673ffffffffffffffffffffffffffffffffffffffff1663081812fc846040518263ffffffff1660e01b81526004016116669190612eea565b60206040518083038186803b15801561167e57600080fd5b505afa158015611692573d6000803e3d6000fd5b505050506040513d601f19601f820116820180604052508101906116b69190612448565b73ffffffffffffffffffffffffffffffffffffffff16145b61170d576040517f08c379a000000000000000000000000000000000000000000000000000000000815260040161170490612e2a565b60405180910390fd5b600960009054906101000a900473ffffffffffffffffffffffffffffffffffffffff1673ffffffffffffffffffffffffffffffffffffffff1663f7d9757783836040518363ffffffff1660e01b815260040161176a929190612f05565b600060405180830381600087803b15801561178457600080fd5b505af1158015611798573d6000803e3d6000fd5b505050506001600b600084815260200190815260200160002060006101000a81548160ff021916908315150217905550817fdb1fd9bae40110b73b6592270632b19e60d204d52ee5cd72c60d076e6bdd342f60405160405180910390a26117fd611ea7565b5050565b6000600560008373ffffffffffffffffffffffffffffffffffffffff1673ffffffffffffffffffffffffffffffffffffffff168152602001908152602001600020549050919050565b6000600b600083815260200190815260200160002060009054906101000a900460ff169050919050565b60008061187f611c23565b4761188a9190613021565b905061189f838261189a86611801565b611ff2565b915050919050565b662386f26fc1000081565b6000806118be84611bda565b8473ffffffffffffffffffffffffffffffffffffffff166370a08231306040518263ffffffff1660e01b81526004016118f79190612afe565b60206040518083038186803b15801561190f57600080fd5b505afa158015611923573d6000803e3d6000fd5b505050506040513d601f19601f8201168201806040525081019061194791906125ce565b6119519190613021565b9050611967838261196287876106d2565b611ff2565b91505092915050565b611978611e2b565b600960009054906101000a900473ffffffffffffffffffffffffffffffffffffffff1673ffffffffffffffffffffffffffffffffffffffff16636352211e826040518263ffffffff1660e01b81526004016119d39190612eea565b60206040518083038186803b1580156119eb57600080fd5b505afa1580156119ff573d6000803e3d6000fd5b505050506040513d601f19601f82011682018060405250810190611a239190612448565b73ffffffffffffffffffffffffffffffffffffffff163373ffffffffffffffffffffffffffffffffffffffff161480611a8e5750611a5f61134d565b73ffffffffffffffffffffffffffffffffffffffff163373ffffffffffffffffffffffffffffffffffffffff16145b611acd576040517f08c379a0000000000000000000000000000000000000000000000000000000008152600401611ac490612caa565b60405180910390fd5b600b600082815260200190815260200160002060009054906101000a900460ff16611b2d576040517f08c379a0000000000000000000000000000000000000000000000000000000008152600401611b2490612c8a565b60405180910390fd5b6000600b600083815260200190815260200160002060006101000a81548160ff021916908315150217905550807fc0c55a6edead4433d18cb1e287a0a20a2fa003a6f483bc9823d2e504d70d1c6760405160405180910390a2611b8e611ea7565b50565b6000600460008373ffffffffffffffffffffffffffffffffffffffff1673ffffffffffffffffffffffffffffffffffffffff168152602001908152602001600020549050919050565b6000600760008373ffffffffffffffffffffffffffffffffffffffff1673ffffffffffffffffffffffffffffffffffffffff168152602001908152602001600020549050919050565b6000600354905090565b611c35611eb0565b600073ffffffffffffffffffffffffffffffffffffffff168173ffffffffffffffffffffffffffffffffffffffff161415611ca5576040517f08c379a0000000000000000000000000000000000000000000000000000000008152600401611c9c90612c6a565b60405180910390fd5b611cae81611f2e565b50565b80471015611cf4576040517f08c379a0000000000000000000000000000000000000000000000000000000008152600401611ceb90612d0a565b60405180910390fd5b60008273ffffffffffffffffffffffffffffffffffffffff1682604051611d1a90612ae9565b60006040518083038185875af1925050503d8060008114611d57576040519150601f19603f3d011682016040523d82523d6000602084013e611d5c565b606091505b5050905080611da0576040517f08c379a0000000000000000000000000000000000000000000000000000000008152600401611d9790612cea565b60405180910390fd5b505050565b611e268363a9059cbb60e01b8484604051602401611dc4929190612ba2565b604051602081830303815290604052907bffffffffffffffffffffffffffffffffffffffffffffffffffffffff19166020820180517bffffffffffffffffffffffffffffffffffffffffffffffffffffffff8381831617835250505050612060565b505050565b60026001541415611e71576040517f08c379a0000000000000000000000000000000000000000000000000000000008152600401611e6890612eaa565b60405180910390fd5b6002600181905550565b60008183611e8991906130a8565b905092915050565b60008183611e9f9190613077565b905092915050565b60018081905550565b611eb8610540565b73ffffffffffffffffffffffffffffffffffffffff16611ed661134d565b73ffffffffffffffffffffffffffffffffffffffff1614611f2c576040517f08c379a0000000000000000000000000000000000000000000000000000000008152600401611f2390612e0a565b60405180910390fd5b565b60008060009054906101000a900473ffffffffffffffffffffffffffffffffffffffff169050816000806101000a81548173ffffffffffffffffffffffffffffffffffffffff021916908373ffffffffffffffffffffffffffffffffffffffff1602179055508173ffffffffffffffffffffffffffffffffffffffff168173ffffffffffffffffffffffffffffffffffffffff167f8be0079c531659141344cd1fd0a4f28419497f9722a3daafe3b4186f6b6457e060405160405180910390a35050565b600081600254600460008773ffffffffffffffffffffffffffffffffffffffff1673ffffffffffffffffffffffffffffffffffffffff168152602001908152602001600020548561204391906130a8565b61204d9190613077565b6120579190613102565b90509392505050565b60006120c2826040518060400160405280602081526020017f5361666545524332303a206c6f772d6c6576656c2063616c6c206661696c65648152508573ffffffffffffffffffffffffffffffffffffffff166121289092919063ffffffff16565b90506000815114806120e45750808060200190518101906120e39190612517565b5b612123576040517f08c379a000000000000000000000000000000000000000000000000000000000815260040161211a90612e8a565b60405180910390fd5b505050565b60606121378484600085612140565b90509392505050565b606082471015612185576040517f08c379a000000000000000000000000000000000000000000000000000000000815260040161217c90612d2a565b60405180910390fd5b6000808673ffffffffffffffffffffffffffffffffffffffff1685876040516121ae9190612ad2565b60006040518083038185875af1925050503d80600081146121eb576040519150601f19603f3d011682016040523d82523d6000602084013e6121f0565b606091505b50915091506122018783838761220d565b92505050949350505050565b60608315612270576000835114156122685761222885612283565b612267576040517f08c379a000000000000000000000000000000000000000000000000000000000815260040161225e90612e6a565b60405180910390fd5b5b82905061227b565b61227a83836122a6565b5b949350505050565b6000808273ffffffffffffffffffffffffffffffffffffffff163b119050919050565b6000825111156122b95781518083602001fd5b806040517f08c379a00000000000000000000000000000000000000000000000000000000081526004016122ed9190612c08565b60405180910390fd5b600061230961230484612f8a565b612f65565b9050808382526020820190508285602086028201111561232857600080fd5b60005b85811015612358578161233e888261240a565b84526020840193506020830192505060018101905061232b565b5050509392505050565b6000813590506123718161384e565b92915050565b6000815190506123868161384e565b92915050565b60008135905061239b81613865565b92915050565b600082601f8301126123b257600080fd5b81516123c28482602086016122f6565b91505092915050565b6000815190506123da8161387c565b92915050565b6000813590506123ef81613893565b92915050565b600081359050612404816138aa565b92915050565b600081519050612419816138aa565b92915050565b60006020828403121561243157600080fd5b600061243f84828501612362565b91505092915050565b60006020828403121561245a57600080fd5b600061246884828501612377565b91505092915050565b60006020828403121561248357600080fd5b60006124918482850161238c565b91505092915050565b600080604083850312156124ad57600080fd5b60006124bb85828601612377565b92505060206124cc8582860161240a565b9150509250929050565b6000602082840312156124e857600080fd5b600082015167ffffffffffffffff81111561250257600080fd5b61250e848285016123a1565b91505092915050565b60006020828403121561252957600080fd5b6000612537848285016123cb565b91505092915050565b60006020828403121561255257600080fd5b6000612560848285016123e0565b91505092915050565b6000806040838503121561257c57600080fd5b600061258a858286016123e0565b925050602061259b85828601612362565b9150509250929050565b6000602082840312156125b757600080fd5b60006125c5848285016123f5565b91505092915050565b6000602082840312156125e057600080fd5b60006125ee8482850161240a565b91505092915050565b6000806040838503121561260a57600080fd5b6000612618858286016123f5565b9250506020612629858286016123f5565b9150509250929050565b60008060006060848603121561264857600080fd5b6000612656868287016123f5565b9350506020612667868287016123f5565b9250506040612678868287016123f5565b9150509250925092565b600061268e8383612ab4565b60208301905092915050565b6126a3816131a2565b82525050565b6126b281613136565b82525050565b60006126c382612fc6565b6126cd8185612ff4565b93506126d883612fb6565b8060005b838110156127095781516126f08882612682565b97506126fb83612fe7565b9250506001810190506126dc565b5085935050505092915050565b61271f8161315a565b82525050565b600061273082612fd1565b61273a8185613005565b935061274a8185602086016131d8565b80840191505092915050565b600061276182612fdc565b61276b8185613010565b935061277b8185602086016131d8565b61278481613312565b840191505092915050565b600061279c602b83613010565b91506127a782613323565b604082019050919050565b60006127bf602083613010565b91506127ca82613372565b602082019050919050565b60006127e2602683613010565b91506127ed8261339b565b604082019050919050565b6000612805600e83613010565b9150612810826133ea565b602082019050919050565b6000612828602983613010565b915061283382613413565b604082019050919050565b600061284b602683613010565b915061285682613462565b604082019050919050565b600061286e603a83613010565b9150612879826134b1565b604082019050919050565b6000612891601d83613010565b915061289c82613500565b602082019050919050565b60006128b4602683613010565b91506128bf82613529565b604082019050919050565b60006128d7602b83613010565b91506128e282613578565b604082019050919050565b60006128fa601e83613010565b9150612905826135c7565b602082019050919050565b600061291d601283613010565b9150612928826135f0565b602082019050919050565b6000612940602b83613010565b915061294b82613619565b604082019050919050565b6000612963602783613010565b915061296e82613668565b604082019050919050565b6000612986601783613010565b9150612991826136b7565b602082019050919050565b60006129a9602083613010565b91506129b4826136e0565b602082019050919050565b60006129cc602a83613010565b91506129d782613709565b604082019050919050565b60006129ef601d83613010565b91506129fa82613758565b602082019050919050565b6000612a12600083613005565b9150612a1d82613781565b600082019050919050565b6000612a35601d83613010565b9150612a4082613784565b602082019050919050565b6000612a58602a83613010565b9150612a63826137ad565b604082019050919050565b6000612a7b601f83613010565b9150612a86826137fc565b602082019050919050565b6000612a9e601883613010565b9150612aa982613825565b602082019050919050565b612abd81613198565b82525050565b612acc81613198565b82525050565b6000612ade8284612725565b915081905092915050565b6000612af482612a05565b9150819050919050565b6000602082019050612b1360008301846126a9565b92915050565b6000604082019050612b2e600083018561269a565b612b3b6020830184612ac3565b9392505050565b6000604082019050612b5760008301856126a9565b612b6460208301846126a9565b9392505050565b6000606082019050612b8060008301866126a9565b612b8d60208301856126a9565b612b9a6040830184612ac3565b949350505050565b6000604082019050612bb760008301856126a9565b612bc46020830184612ac3565b9392505050565b60006020820190508181036000830152612be581846126b8565b905092915050565b6000602082019050612c026000830184612716565b92915050565b60006020820190508181036000830152612c228184612756565b905092915050565b60006020820190508181036000830152612c438161278f565b9050919050565b60006020820190508181036000830152612c63816127b2565b9050919050565b60006020820190508181036000830152612c83816127d5565b9050919050565b60006020820190508181036000830152612ca3816127f8565b9050919050565b60006020820190508181036000830152612cc38161281b565b9050919050565b60006020820190508181036000830152612ce38161283e565b9050919050565b60006020820190508181036000830152612d0381612861565b9050919050565b60006020820190508181036000830152612d2381612884565b9050919050565b60006020820190508181036000830152612d43816128a7565b9050919050565b60006020820190508181036000830152612d63816128ca565b9050919050565b60006020820190508181036000830152612d83816128ed565b9050919050565b60006020820190508181036000830152612da381612910565b9050919050565b60006020820190508181036000830152612dc381612933565b9050919050565b60006020820190508181036000830152612de381612956565b9050919050565b60006020820190508181036000830152612e0381612979565b9050919050565b60006020820190508181036000830152612e238161299c565b9050919050565b60006020820190508181036000830152612e43816129bf565b9050919050565b60006020820190508181036000830152612e63816129e2565b9050919050565b60006020820190508181036000830152612e8381612a28565b9050919050565b60006020820190508181036000830152612ea381612a4b565b9050919050565b60006020820190508181036000830152612ec381612a6e565b9050919050565b60006020820190508181036000830152612ee381612a91565b9050919050565b6000602082019050612eff6000830184612ac3565b92915050565b6000604082019050612f1a6000830185612ac3565b612f276020830184612ac3565b9392505050565b6000606082019050612f436000830186612ac3565b612f506020830185612ac3565b612f5d6040830184612ac3565b949350505050565b6000612f6f612f80565b9050612f7b828261320b565b919050565b6000604051905090565b600067ffffffffffffffff821115612fa557612fa46132e3565b5b602082029050602081019050919050565b6000819050602082019050919050565b600081519050919050565b600081519050919050565b600081519050919050565b6000602082019050919050565b600082825260208201905092915050565b600081905092915050565b600082825260208201905092915050565b600061302c82613198565b915061303783613198565b9250827fffffffffffffffffffffffffffffffffffffffffffffffffffffffffffffffff0382111561306c5761306b613285565b5b828201905092915050565b600061308282613198565b915061308d83613198565b92508261309d5761309c6132b4565b5b828204905092915050565b60006130b382613198565b91506130be83613198565b9250817fffffffffffffffffffffffffffffffffffffffffffffffffffffffffffffffff04831182151516156130f7576130f6613285565b5b828202905092915050565b600061310d82613198565b915061311883613198565b92508282101561312b5761312a613285565b5b828203905092915050565b600061314182613178565b9050919050565b600061315382613178565b9050919050565b60008115159050919050565b600061317182613136565b9050919050565b600073ffffffffffffffffffffffffffffffffffffffff82169050919050565b6000819050919050565b60006131ad826131b4565b9050919050565b60006131bf826131c6565b9050919050565b60006131d182613178565b9050919050565b60005b838110156131f65780820151818401526020810190506131db565b83811115613205576000848401525b50505050565b61321482613312565b810181811067ffffffffffffffff82111715613233576132326132e3565b5b80604052505050565b600061324782613198565b91507fffffffffffffffffffffffffffffffffffffffffffffffffffffffffffffffff82141561327a57613279613285565b5b600182019050919050565b7f4e487b7100000000000000000000000000000000000000000000000000000000600052601160045260246000fd5b7f4e487b7100000000000000000000000000000000000000000000000000000000600052601260045260246000fd5b7f4e487b7100000000000000000000000000000000000000000000000000000000600052604160045260246000fd5b6000601f19601f8301169050919050565b7f5472616e73666572206f6620726f79616c747920746f2074686520726563656960008201527f766572206661696c65642e000000000000000000000000000000000000000000602082015250565b7f5072696365206d757374206265206174206c65617374204d494e5f5052494345600082015250565b7f4f776e61626c653a206e6577206f776e657220697320746865207a65726f206160008201527f6464726573730000000000000000000000000000000000000000000000000000602082015250565b7f4e4654206e6f74206c6973746564000000000000000000000000000000000000600082015250565b7f43616c6c6572206973206e6f74206f776e6572206f66204e4654206f72206d6160008201527f726b6574706c6163650000000000000000000000000000000000000000000000602082015250565b7f5061796d656e7453706c69747465723a206163636f756e7420686173206e6f2060008201527f7368617265730000000000000000000000000000000000000000000000000000602082015250565b7f416464726573733a20756e61626c6520746f2073656e642076616c75652c207260008201527f6563697069656e74206d61792068617665207265766572746564000000000000602082015250565b7f416464726573733a20696e73756666696369656e742062616c616e6365000000600082015250565b7f416464726573733a20696e73756666696369656e742062616c616e636520666f60008201527f722063616c6c0000000000000000000000000000000000000000000000000000602082015250565b7f5061796d656e7453706c69747465723a206163636f756e74206973206e6f742060008201527f647565207061796d656e74000000000000000000000000000000000000000000602082015250565b7f4f776e65722063616e6e6f7420627579207468656972206f776e204e46540000600082015250565b7f4e465420616c7265616479206c69737465640000000000000000000000000000600082015250565b7f50726963652073686f756c6420626520686967686572207468616e20746f746160008201527f6c20726f79616c74696573000000000000000000000000000000000000000000602082015250565b7f53656e742076616c756520646f6573206e6f74206d6174636820746865204e4660008201527f5420707269636500000000000000000000000000000000000000000000000000602082015250565b7f4e4654206e6f74206c697374656420666f722073616c65000000000000000000600082015250565b7f4f776e61626c653a2063616c6c6572206973206e6f7420746865206f776e6572600082015250565b7f4d75737420617070726f7665206d61726b6574706c61636520746f206d616e6160008201527f676520746865204e465400000000000000000000000000000000000000000000602082015250565b7f5472616e7366657220746f204e4654206f776e6572206661696c65642e000000600082015250565b50565b7f416464726573733a2063616c6c20746f206e6f6e2d636f6e7472616374000000600082015250565b7f5361666545524332303a204552433230206f7065726174696f6e20646964206e60008201527f6f74207375636365656400000000000000000000000000000000000000000000602082015250565b7f5265656e7472616e637947756172643a207265656e7472616e742063616c6c00600082015250565b7f4d757374206265206f776e6572206f6620746865204e46540000000000000000600082015250565b61385781613136565b811461386257600080fd5b50565b61386e81613148565b811461387957600080fd5b50565b6138858161315a565b811461389057600080fd5b50565b61389c81613166565b81146138a757600080fd5b50565b6138b381613198565b81146138be57600080fd5b5056fea26469706673582212206c728444c53625cabad2f5802262373c6c23f5d9a20e7c6b807196ce0f215f0864736f6c63430008010033",
  "linkReferences": {},
  "deployedLinkReferences": {}
}