{
  "_format": "hh-sol-artifact-1",
  "contractName": "NFTMarketplace",
  "sourceName": "contracts/NFTMarketplace.sol",
  "abi": [
    {
      "inputs": [
        {
          "internalType": "address",
          "name": "nftContractAddress",
          "type": "address"
        },
        {
          "internalType": "address[]",
          "name": "payees",
          "type": "address[]"
        },
        {
          "internalType": "uint256[]",
          "name": "shares",
          "type": "uint256[]"
        },
        {
          "internalType": "uint256",
          "name": "royalties",
          "type": "uint256"
        }
      ],
      "stateMutability": "nonpayable",
      "type": "constructor"
    },
    {
      "anonymous": false,
      "inputs": [
        {
          "indexed": true,
          "internalType": "contract IERC20",
          "name": "token",
          "type": "address"
        },
        {
          "indexed": false,
          "internalType": "address",
          "name": "to",
          "type": "address"
        },
        {
          "indexed": false,
          "internalType": "uint256",
          "name": "amount",
          "type": "uint256"
        }
      ],
      "name": "ERC20PaymentReleased",
      "type": "event"
    },
    {
      "anonymous": false,
      "inputs": [
        {
          "indexed": true,
          "internalType": "uint256",
          "name": "tokenId",
          "type": "uint256"
        },
        {
          "indexed": true,
          "internalType": "address",
          "name": "nftAddress",
          "type": "address"
        }
      ],
      "name": "NFTDelisted",
      "type": "event"
    },
    {
      "anonymous": false,
      "inputs": [
        {
          "indexed": true,
          "internalType": "uint256",
          "name": "tokenId",
          "type": "uint256"
        },
        {
          "indexed": false,
          "internalType": "uint256",
          "name": "price",
          "type": "uint256"
        },
        {
          "indexed": true,
          "internalType": "address",
          "name": "seller",
          "type": "address"
        },
        {
          "indexed": true,
          "internalType": "address",
          "name": "nftAddress",
          "type": "address"
        }
      ],
      "name": "NFTListed",
      "type": "event"
    },
    {
      "anonymous": false,
      "inputs": [
        {
          "indexed": true,
          "internalType": "uint256",
          "name": "tokenId",
          "type": "uint256"
        },
        {
          "indexed": false,
          "internalType": "uint256",
          "name": "price",
          "type": "uint256"
        },
        {
          "indexed": true,
          "internalType": "address",
          "name": "seller",
          "type": "address"
        },
        {
          "indexed": true,
          "internalType": "address",
          "name": "buyer",
          "type": "address"
        },
        {
          "indexed": false,
          "internalType": "address",
          "name": "nftAddress",
          "type": "address"
        }
      ],
      "name": "NFTSold",
      "type": "event"
    },
    {
      "anonymous": false,
      "inputs": [
        {
          "indexed": true,
          "internalType": "address",
          "name": "previousOwner",
          "type": "address"
        },
        {
          "indexed": true,
          "internalType": "address",
          "name": "newOwner",
          "type": "address"
        }
      ],
      "name": "OwnershipTransferred",
      "type": "event"
    },
    {
      "anonymous": false,
      "inputs": [
        {
          "indexed": false,
          "internalType": "address",
          "name": "account",
          "type": "address"
        },
        {
          "indexed": false,
          "internalType": "uint256",
          "name": "shares",
          "type": "uint256"
        }
      ],
      "name": "PayeeAdded",
      "type": "event"
    },
    {
      "anonymous": false,
      "inputs": [
        {
          "indexed": false,
          "internalType": "address",
          "name": "from",
          "type": "address"
        },
        {
          "indexed": false,
          "internalType": "uint256",
          "name": "amount",
          "type": "uint256"
        }
      ],
      "name": "PaymentReceived",
      "type": "event"
    },
    {
      "anonymous": false,
      "inputs": [
        {
          "indexed": false,
          "internalType": "address",
          "name": "to",
          "type": "address"
        },
        {
          "indexed": false,
          "internalType": "uint256",
          "name": "amount",
          "type": "uint256"
        }
      ],
      "name": "PaymentReleased",
      "type": "event"
    },
    {
      "inputs": [],
      "name": "MIN_PRICE",
      "outputs": [
        {
          "internalType": "uint256",
          "name": "",
          "type": "uint256"
        }
      ],
      "stateMutability": "view",
      "type": "function"
    },
    {
      "inputs": [
        {
          "internalType": "address",
          "name": "nftAddress",
          "type": "address"
        },
        {
          "internalType": "uint256",
          "name": "tokenId",
          "type": "uint256"
        }
      ],
      "name": "buyNFT",
      "outputs": [],
      "stateMutability": "payable",
      "type": "function"
    },
    {
      "inputs": [
        {
          "internalType": "address",
          "name": "nftAddress",
          "type": "address"
        },
        {
          "internalType": "uint256",
          "name": "tokenId",
          "type": "uint256"
        }
      ],
      "name": "delistNFT",
      "outputs": [],
      "stateMutability": "nonpayable",
      "type": "function"
    },
    {
      "inputs": [
        {
          "internalType": "uint256",
          "name": "page",
          "type": "uint256"
        }
      ],
      "name": "getAllListings",
      "outputs": [
        {
          "components": [
            {
              "internalType": "uint256",
              "name": "tokenId",
              "type": "uint256"
            },
            {
              "internalType": "uint256",
              "name": "price",
              "type": "uint256"
            },
            {
              "internalType": "address",
              "name": "seller",
              "type": "address"
            },
            {
              "internalType": "address",
              "name": "nftAddress",
              "type": "address"
            }
          ],
          "internalType": "struct NFTMarketplace.Listing[]",
          "name": "",
          "type": "tuple[]"
        }
      ],
      "stateMutability": "view",
      "type": "function"
    },
    {
      "inputs": [
        {
          "internalType": "address",
          "name": "nftAddress",
          "type": "address"
        },
        {
          "internalType": "uint256",
          "name": "tokenId",
          "type": "uint256"
        }
      ],
      "name": "getKeyForToken",
      "outputs": [
        {
          "internalType": "bytes32",
          "name": "",
          "type": "bytes32"
        }
      ],
      "stateMutability": "pure",
      "type": "function"
    },
    {
      "inputs": [
        {
          "internalType": "uint256",
          "name": "collectionId",
          "type": "uint256"
        },
        {
          "internalType": "uint256",
          "name": "startIndex",
          "type": "uint256"
        },
        {
          "internalType": "uint256",
          "name": "pageSize",
          "type": "uint256"
        },
        {
          "internalType": "address",
          "name": "nftAddress",
          "type": "address"
        }
      ],
      "name": "getListedTokensInCollection",
      "outputs": [
        {
          "internalType": "uint256[]",
          "name": "",
          "type": "uint256[]"
        }
      ],
      "stateMutability": "view",
      "type": "function"
    },
    {
      "inputs": [
        {
          "internalType": "uint256",
          "name": "tokenId",
          "type": "uint256"
        },
        {
          "internalType": "address",
          "name": "nftAddress",
          "type": "address"
        }
      ],
      "name": "getListingByTokenIdAndAddress",
      "outputs": [
        {
          "components": [
            {
              "internalType": "uint256",
              "name": "tokenId",
              "type": "uint256"
            },
            {
              "internalType": "uint256",
              "name": "price",
              "type": "uint256"
            },
            {
              "internalType": "address",
              "name": "seller",
              "type": "address"
            },
            {
              "internalType": "address",
              "name": "nftAddress",
              "type": "address"
            }
          ],
          "internalType": "struct NFTMarketplace.Listing",
          "name": "",
          "type": "tuple"
        }
      ],
      "stateMutability": "view",
      "type": "function"
    },
    {
      "inputs": [
        {
          "internalType": "address",
          "name": "nftAddress",
          "type": "address"
        }
      ],
      "name": "getListingsByNFTContract",
      "outputs": [
        {
          "components": [
            {
              "internalType": "uint256",
              "name": "tokenId",
              "type": "uint256"
            },
            {
              "internalType": "uint256",
              "name": "price",
              "type": "uint256"
            },
            {
              "internalType": "address",
              "name": "seller",
              "type": "address"
            },
            {
              "internalType": "address",
              "name": "nftAddress",
              "type": "address"
            }
          ],
          "internalType": "struct NFTMarketplace.Listing[]",
          "name": "",
          "type": "tuple[]"
        }
      ],
      "stateMutability": "view",
      "type": "function"
    },
    {
      "inputs": [
        {
          "internalType": "address",
          "name": "seller",
          "type": "address"
        }
      ],
      "name": "getListingsBySeller",
      "outputs": [
        {
          "components": [
            {
              "internalType": "uint256",
              "name": "tokenId",
              "type": "uint256"
            },
            {
              "internalType": "uint256",
              "name": "price",
              "type": "uint256"
            },
            {
              "internalType": "address",
              "name": "seller",
              "type": "address"
            },
            {
              "internalType": "address",
              "name": "nftAddress",
              "type": "address"
            }
          ],
          "internalType": "struct NFTMarketplace.Listing[]",
          "name": "",
          "type": "tuple[]"
        }
      ],
      "stateMutability": "view",
      "type": "function"
    },
    {
      "inputs": [
        {
          "internalType": "address",
          "name": "nftAddress",
          "type": "address"
        },
        {
          "internalType": "uint256",
          "name": "tokenId",
          "type": "uint256"
        }
      ],
      "name": "isTokenListed",
      "outputs": [
        {
          "internalType": "bool",
          "name": "",
          "type": "bool"
        }
      ],
      "stateMutability": "view",
      "type": "function"
    },
    {
      "inputs": [
        {
          "internalType": "uint256",
          "name": "tokenId",
          "type": "uint256"
        },
        {
          "internalType": "uint256",
          "name": "price",
          "type": "uint256"
        },
        {
          "internalType": "address",
          "name": "nftAddress",
          "type": "address"
        }
      ],
      "name": "listNFT",
      "outputs": [],
      "stateMutability": "nonpayable",
      "type": "function"
    },
    {
      "inputs": [
        {
          "internalType": "bytes32",
          "name": "",
          "type": "bytes32"
        }
      ],
      "name": "listings",
      "outputs": [
        {
          "internalType": "uint256",
          "name": "tokenId",
          "type": "uint256"
        },
        {
          "internalType": "uint256",
          "name": "price",
          "type": "uint256"
        },
        {
          "internalType": "address",
          "name": "seller",
          "type": "address"
        },
        {
          "internalType": "address",
          "name": "nftAddress",
          "type": "address"
        }
      ],
      "stateMutability": "view",
      "type": "function"
    },
    {
      "inputs": [
        {
          "internalType": "uint256",
          "name": "",
          "type": "uint256"
        }
      ],
      "name": "listingsKeys",
      "outputs": [
        {
          "internalType": "bytes32",
          "name": "",
          "type": "bytes32"
        }
      ],
      "stateMutability": "view",
      "type": "function"
    },
    {
      "inputs": [],
      "name": "owner",
      "outputs": [
        {
          "internalType": "address",
          "name": "",
          "type": "address"
        }
      ],
      "stateMutability": "view",
      "type": "function"
    },
    {
      "inputs": [
        {
          "internalType": "uint256",
          "name": "index",
          "type": "uint256"
        }
      ],
      "name": "payee",
      "outputs": [
        {
          "internalType": "address",
          "name": "",
          "type": "address"
        }
      ],
      "stateMutability": "view",
      "type": "function"
    },
    {
      "inputs": [
        {
          "internalType": "address",
          "name": "account",
          "type": "address"
        }
      ],
      "name": "releasable",
      "outputs": [
        {
          "internalType": "uint256",
          "name": "",
          "type": "uint256"
        }
      ],
      "stateMutability": "view",
      "type": "function"
    },
    {
      "inputs": [
        {
          "internalType": "contract IERC20",
          "name": "token",
          "type": "address"
        },
        {
          "internalType": "address",
          "name": "account",
          "type": "address"
        }
      ],
      "name": "releasable",
      "outputs": [
        {
          "internalType": "uint256",
          "name": "",
          "type": "uint256"
        }
      ],
      "stateMutability": "view",
      "type": "function"
    },
    {
      "inputs": [
        {
          "internalType": "address payable",
          "name": "account",
          "type": "address"
        }
      ],
      "name": "release",
      "outputs": [],
      "stateMutability": "nonpayable",
      "type": "function"
    },
    {
      "inputs": [
        {
          "internalType": "contract IERC20",
          "name": "token",
          "type": "address"
        },
        {
          "internalType": "address",
          "name": "account",
          "type": "address"
        }
      ],
      "name": "release",
      "outputs": [],
      "stateMutability": "nonpayable",
      "type": "function"
    },
    {
      "inputs": [
        {
          "internalType": "contract IERC20",
          "name": "token",
          "type": "address"
        },
        {
          "internalType": "address",
          "name": "account",
          "type": "address"
        }
      ],
      "name": "released",
      "outputs": [
        {
          "internalType": "uint256",
          "name": "",
          "type": "uint256"
        }
      ],
      "stateMutability": "view",
      "type": "function"
    },
    {
      "inputs": [
        {
          "internalType": "address",
          "name": "account",
          "type": "address"
        }
      ],
      "name": "released",
      "outputs": [
        {
          "internalType": "uint256",
          "name": "",
          "type": "uint256"
        }
      ],
      "stateMutability": "view",
      "type": "function"
    },
    {
      "inputs": [],
      "name": "renounceOwnership",
      "outputs": [],
      "stateMutability": "nonpayable",
      "type": "function"
    },
    {
      "inputs": [
        {
          "internalType": "address",
          "name": "account",
          "type": "address"
        }
      ],
      "name": "shares",
      "outputs": [
        {
          "internalType": "uint256",
          "name": "",
          "type": "uint256"
        }
      ],
      "stateMutability": "view",
      "type": "function"
    },
    {
      "inputs": [
        {
          "internalType": "contract IERC20",
          "name": "token",
          "type": "address"
        }
      ],
      "name": "totalReleased",
      "outputs": [
        {
          "internalType": "uint256",
          "name": "",
          "type": "uint256"
        }
      ],
      "stateMutability": "view",
      "type": "function"
    },
    {
      "inputs": [],
      "name": "totalReleased",
      "outputs": [
        {
          "internalType": "uint256",
          "name": "",
          "type": "uint256"
        }
      ],
      "stateMutability": "view",
      "type": "function"
    },
    {
      "inputs": [],
      "name": "totalShares",
      "outputs": [
        {
          "internalType": "uint256",
          "name": "",
          "type": "uint256"
        }
      ],
      "stateMutability": "view",
      "type": "function"
    },
    {
      "inputs": [
        {
          "internalType": "address",
          "name": "newOwner",
          "type": "address"
        }
      ],
      "name": "transferOwnership",
      "outputs": [],
      "stateMutability": "nonpayable",
      "type": "function"
    },
    {
      "stateMutability": "payable",
      "type": "receive"
    }
  ],
  "bytecode": "0x60806040523480156200001157600080fd5b506040516200648538038062006485833981810160405281019062000037919062000700565b8282620000596200004d6200028860201b60201c565b6200029060201b60201c565b600180819055508051825114620000a7576040517f08c379a00000000000000000000000000000000000000000000000000000000081526004016200009e9062000920565b60405180910390fd5b6000825111620000ee576040517f08c379a0000000000000000000000000000000000000000000000000000000008152600401620000e590620009a8565b60405180910390fd5b60005b8251811015620001a5576200018f83828151811062000139577f4e487b7100000000000000000000000000000000000000000000000000000000600052603260045260246000fd5b60200260200101518383815181106200017b577f4e487b7100000000000000000000000000000000000000000000000000000000600052603260045260246000fd5b60200260200101516200035460201b60201c565b80806200019c9062000b55565b915050620000f1565b5050506000835111620001ef576040517f08c379a0000000000000000000000000000000000000000000000000000000008152600401620001e69062000964565b60405180910390fd5b815183511462000236576040517f08c379a00000000000000000000000000000000000000000000000000000000081526004016200022d9062000942565b60405180910390fd5b83600a60006101000a81548173ffffffffffffffffffffffffffffffffffffffff021916908373ffffffffffffffffffffffffffffffffffffffff160217905550806009819055505050505062000dfd565b600033905090565b60008060009054906101000a900473ffffffffffffffffffffffffffffffffffffffff169050816000806101000a81548173ffffffffffffffffffffffffffffffffffffffff021916908373ffffffffffffffffffffffffffffffffffffffff1602179055508173ffffffffffffffffffffffffffffffffffffffff168173ffffffffffffffffffffffffffffffffffffffff167f8be0079c531659141344cd1fd0a4f28419497f9722a3daafe3b4186f6b6457e060405160405180910390a35050565b600073ffffffffffffffffffffffffffffffffffffffff168273ffffffffffffffffffffffffffffffffffffffff161415620003c7576040517f08c379a0000000000000000000000000000000000000000000000000000000008152600401620003be90620008fe565b60405180910390fd5b600081116200040d576040517f08c379a00000000000000000000000000000000000000000000000000000000081526004016200040490620009ca565b60405180910390fd5b6000600460008473ffffffffffffffffffffffffffffffffffffffff1673ffffffffffffffffffffffffffffffffffffffff168152602001908152602001600020541462000492576040517f08c379a0000000000000000000000000000000000000000000000000000000008152600401620004899062000986565b60405180910390fd5b6006829080600181540180825580915050600190039060005260206000200160009091909190916101000a81548173ffffffffffffffffffffffffffffffffffffffff021916908373ffffffffffffffffffffffffffffffffffffffff16021790555080600460008473ffffffffffffffffffffffffffffffffffffffff1673ffffffffffffffffffffffffffffffffffffffff168152602001908152602001600020819055508060025462000549919062000a84565b6002819055507f40c340f65e17194d14ddddb073d3c9f888e3cb52b5aae0c6c7706b4fbc905fac828260405162000582929190620008d1565b60405180910390a15050565b6000620005a56200059f8462000a15565b620009ec565b90508083825260208201905082856020860282011115620005c557600080fd5b60005b85811015620005f95781620005de888262000678565b845260208401935060208301925050600181019050620005c8565b5050509392505050565b60006200061a620006148462000a44565b620009ec565b905080838252602082019050828560208602820111156200063a57600080fd5b60005b858110156200066e5781620006538882620006e9565b8452602084019350602083019250506001810190506200063d565b5050509392505050565b600081519050620006898162000dc9565b92915050565b600082601f830112620006a157600080fd5b8151620006b38482602086016200058e565b91505092915050565b600082601f830112620006ce57600080fd5b8151620006e084826020860162000603565b91505092915050565b600081519050620006fa8162000de3565b92915050565b600080600080608085870312156200071757600080fd5b6000620007278782880162000678565b945050602085015167ffffffffffffffff8111156200074557600080fd5b62000753878288016200068f565b935050604085015167ffffffffffffffff8111156200077157600080fd5b6200077f87828801620006bc565b92505060606200079287828801620006e9565b91505092959194509250565b620007a98162000ae1565b82525050565b6000620007be602c8362000a73565b9150620007cb8262000c12565b604082019050919050565b6000620007e560328362000a73565b9150620007f28262000c61565b604082019050919050565b60006200080c60238362000a73565b9150620008198262000cb0565b604082019050919050565b600062000833601e8362000a73565b9150620008408262000cff565b602082019050919050565b60006200085a602b8362000a73565b9150620008678262000d28565b604082019050919050565b600062000881601a8362000a73565b91506200088e8262000d77565b602082019050919050565b6000620008a8601d8362000a73565b9150620008b58262000da0565b602082019050919050565b620008cb8162000b15565b82525050565b6000604082019050620008e860008301856200079e565b620008f76020830184620008c0565b9392505050565b600060208201905081810360008301526200091981620007af565b9050919050565b600060208201905081810360008301526200093b81620007d6565b9050919050565b600060208201905081810360008301526200095d81620007fd565b9050919050565b600060208201905081810360008301526200097f8162000824565b9050919050565b60006020820190508181036000830152620009a1816200084b565b9050919050565b60006020820190508181036000830152620009c38162000872565b9050919050565b60006020820190508181036000830152620009e58162000899565b9050919050565b6000620009f862000a0b565b905062000a06828262000b1f565b919050565b6000604051905090565b600067ffffffffffffffff82111562000a335762000a3262000bd2565b5b602082029050602081019050919050565b600067ffffffffffffffff82111562000a625762000a6162000bd2565b5b602082029050602081019050919050565b600082825260208201905092915050565b600062000a918262000b15565b915062000a9e8362000b15565b9250827fffffffffffffffffffffffffffffffffffffffffffffffffffffffffffffffff0382111562000ad65762000ad562000ba3565b5b828201905092915050565b600062000aee8262000af5565b9050919050565b600073ffffffffffffffffffffffffffffffffffffffff82169050919050565b6000819050919050565b62000b2a8262000c01565b810181811067ffffffffffffffff8211171562000b4c5762000b4b62000bd2565b5b80604052505050565b600062000b628262000b15565b91507fffffffffffffffffffffffffffffffffffffffffffffffffffffffffffffffff82141562000b985762000b9762000ba3565b5b600182019050919050565b7f4e487b7100000000000000000000000000000000000000000000000000000000600052601160045260246000fd5b7f4e487b7100000000000000000000000000000000000000000000000000000000600052604160045260246000fd5b6000601f19601f8301169050919050565b7f5061796d656e7453706c69747465723a206163636f756e74206973207468652060008201527f7a65726f20616464726573730000000000000000000000000000000000000000602082015250565b7f5061796d656e7453706c69747465723a2070617965657320616e64207368617260008201527f6573206c656e677468206d69736d617463680000000000000000000000000000602082015250565b7f50617965657320616e6420736861726573206c656e677468206d757374206d6160008201527f7463680000000000000000000000000000000000000000000000000000000000602082015250565b7f4174206c65617374206f6e652070617965652069732072657175697265640000600082015250565b7f5061796d656e7453706c69747465723a206163636f756e7420616c726561647960008201527f2068617320736861726573000000000000000000000000000000000000000000602082015250565b7f5061796d656e7453706c69747465723a206e6f20706179656573000000000000600082015250565b7f5061796d656e7453706c69747465723a20736861726573206172652030000000600082015250565b62000dd48162000ae1565b811462000de057600080fd5b50565b62000dee8162000b15565b811462000dfa57600080fd5b50565b6156788062000e0d6000396000f3fe6080604052600436106101a05760003560e01c80639852595c116100ec578063ce7c2ac21161008a578063e33b7de311610064578063e33b7de31461069d578063f193a6cf146106c8578063f2fde38b14610705578063f4b483571461072e576101e7565b8063ce7c2ac2146105e6578063d79779b214610623578063d8cba25114610660576101e7565b8063a82ba76f116100c6578063a82ba76f14610522578063ad9f20a61461053e578063c18b8db414610569578063c45ac050146105a9576101e7565b80639852595c1461047f578063a17a7094146104bc578063a3f8eace146104e5576101e7565b80634d2f650311610159578063715018a611610133578063715018a6146103c35780637e5c0924146103da5780638b83209b146104175780638da5cb5b14610454576101e7565b80634d2f65031461030c5780635471b47a1461034957806357aad9db14610386576101e7565b806302998cf3146101ec57806314cadc701461021557806319165587146102525780633a98ef391461027b578063406072a9146102a657806348b75044146102e3576101e7565b366101e7577f6ef95f06320e7a25a04a175ca677b7052bdd97131872c2192525a629f51be7706101ce61076b565b346040516101dd929190614657565b60405180910390a1005b600080fd5b3480156101f857600080fd5b50610213600480360381019061020e9190613e98565b610773565b005b34801561022157600080fd5b5061023c60048036038101906102379190613e0a565b610dd4565b6040516102499190614680565b60405180910390f35b34801561025e57600080fd5b5061027960048036038101906102749190613c71565b611230565b005b34801561028757600080fd5b506102906113b0565b60405161029d9190614a52565b60405180910390f35b3480156102b257600080fd5b506102cd60048036038101906102c89190613dce565b6113ba565b6040516102da9190614a52565b60405180910390f35b3480156102ef57600080fd5b5061030a60048036038101906103059190613dce565b611441565b005b34801561031857600080fd5b50610333600480360381019061032e9190613e5c565b611655565b6040516103409190614a37565b60405180910390f35b34801561035557600080fd5b50610370600480360381019061036b9190613c9a565b6117f8565b60405161037d91906146c4565b60405180910390f35b34801561039257600080fd5b506103ad60048036038101906103a89190613c1f565b611877565b6040516103ba9190614680565b60405180910390f35b3480156103cf57600080fd5b506103d8611c2c565b005b3480156103e657600080fd5b5061040160048036038101906103fc9190613ee7565b611c40565b60405161040e91906146a2565b60405180910390f35b34801561042357600080fd5b5061043e60048036038101906104399190613e0a565b61204e565b60405161044b91906145b3565b60405180910390f35b34801561046057600080fd5b506104696120bc565b60405161047691906145b3565b60405180910390f35b34801561048b57600080fd5b506104a660048036038101906104a19190613c1f565b6120e5565b6040516104b39190614a52565b60405180910390f35b3480156104c857600080fd5b506104e360048036038101906104de9190613c9a565b61212e565b005b3480156104f157600080fd5b5061050c60048036038101906105079190613c1f565b6124b7565b6040516105199190614a52565b60405180910390f35b61053c60048036038101906105379190613c9a565b6124ea565b005b34801561054a57600080fd5b50610553612d8f565b6040516105609190614a52565b60405180910390f35b34801561057557600080fd5b50610590600480360381019061058b9190613d7c565b612d9a565b6040516105a09493929190614abf565b60405180910390f35b3480156105b557600080fd5b506105d060048036038101906105cb9190613dce565b612e0a565b6040516105dd9190614a52565b60405180910390f35b3480156105f257600080fd5b5061060d60048036038101906106089190613c1f565b612ec8565b60405161061a9190614a52565b60405180910390f35b34801561062f57600080fd5b5061064a60048036038101906106459190613da5565b612f11565b6040516106579190614a52565b60405180910390f35b34801561066c57600080fd5b5061068760048036038101906106829190613c1f565b612f5a565b6040516106949190614680565b60405180910390f35b3480156106a957600080fd5b506106b261330f565b6040516106bf9190614a52565b60405180910390f35b3480156106d457600080fd5b506106ef60048036038101906106ea9190613e0a565b613319565b6040516106fc91906146df565b60405180910390f35b34801561071157600080fd5b5061072c60048036038101906107279190613c1f565b61333d565b005b34801561073a57600080fd5b5061075560048036038101906107509190613c9a565b6133c1565b60405161076291906146df565b60405180910390f35b600033905090565b61077b6133f4565b600081905060008290508073ffffffffffffffffffffffffffffffffffffffff166301ffc9a77f80ac58cd000000000000000000000000000000000000000000000000000000006040518263ffffffff1660e01b81526004016107de91906146fa565b60206040518083038186803b1580156107f657600080fd5b505afa15801561080a573d6000803e3d6000fd5b505050506040513d601f19601f8201168201806040525081019061082e9190613d53565b61086d576040517f08c379a000000000000000000000000000000000000000000000000000000000815260040161086490614737565b60405180910390fd5b8073ffffffffffffffffffffffffffffffffffffffff166301ffc9a77f2a55205a000000000000000000000000000000000000000000000000000000006040518263ffffffff1660e01b81526004016108c691906146fa565b60206040518083038186803b1580156108de57600080fd5b505afa1580156108f2573d6000803e3d6000fd5b505050506040513d601f19601f820116820180604052508101906109169190613d53565b610955576040517f08c379a000000000000000000000000000000000000000000000000000000000815260040161094c90614897565b60405180910390fd5b3373ffffffffffffffffffffffffffffffffffffffff168273ffffffffffffffffffffffffffffffffffffffff16636352211e876040518263ffffffff1660e01b81526004016109a59190614a52565b60206040518083038186803b1580156109bd57600080fd5b505afa1580156109d1573d6000803e3d6000fd5b505050506040513d601f19601f820116820180604052508101906109f59190613c48565b73ffffffffffffffffffffffffffffffffffffffff1614610a4b576040517f08c379a0000000000000000000000000000000000000000000000000000000008152600401610a42906148b7565b60405180910390fd5b662386f26fc10000841015610a95576040517f08c379a0000000000000000000000000000000000000000000000000000000008152600401610a8c906148f7565b60405180910390fd5b610a9f83866117f8565b15610adf576040517f08c379a0000000000000000000000000000000000000000000000000000000008152600401610ad6906149b7565b60405180910390fd5b8173ffffffffffffffffffffffffffffffffffffffff1663e985e9c533306040518363ffffffff1660e01b8152600401610b1a9291906145f7565b60206040518083038186803b158015610b3257600080fd5b505afa158015610b46573d6000803e3d6000fd5b505050506040513d601f19601f82011682018060405250810190610b6a9190613d53565b610ba9576040517f08c379a0000000000000000000000000000000000000000000000000000000008152600401610ba0906147d7565b60405180910390fd5b6000610bb584876133c1565b90508273ffffffffffffffffffffffffffffffffffffffff166323b872dd3330896040518463ffffffff1660e01b8152600401610bf493929190614620565b600060405180830381600087803b158015610c0e57600080fd5b505af1158015610c22573d6000803e3d6000fd5b5050505060405180608001604052808781526020018681526020013373ffffffffffffffffffffffffffffffffffffffff1681526020018573ffffffffffffffffffffffffffffffffffffffff16815250600c6000838152602001908152602001600020600082015181600001556020820151816001015560408201518160020160006101000a81548173ffffffffffffffffffffffffffffffffffffffff021916908373ffffffffffffffffffffffffffffffffffffffff16021790555060608201518160030160006101000a81548173ffffffffffffffffffffffffffffffffffffffff021916908373ffffffffffffffffffffffffffffffffffffffff160217905550905050610d35600b613444565b600d8190806001815401808255809150506001900390600052602060002001600090919091909150558373ffffffffffffffffffffffffffffffffffffffff163373ffffffffffffffffffffffffffffffffffffffff16877fc65ba3c5b271b28dd9e42873d11ec274c241e89fe348618c03ac562170f754f788604051610dbc9190614a52565b60405180910390a4505050610dcf61345a565b505050565b606060008211610e19576040517f08c379a0000000000000000000000000000000000000000000000000000000008152600401610e10906148d7565b60405180910390fd5b6000610e25600b613463565b905060006064600185610e389190614d11565b610e429190614cb7565b9050600082606483610e549190614c30565b11610e6b57606482610e669190614c30565b610e6d565b825b905060008282610e7d9190614d11565b67ffffffffffffffff811115610ebc577f4e487b7100000000000000000000000000000000000000000000000000000000600052604160045260246000fd5b604051908082528060200260200182016040528015610ef557816020015b610ee2613a8d565b815260200190600190039081610eda5790505b5090506000808490505b838110156110ff576000600d8281548110610f43577f4e487b7100000000000000000000000000000000000000000000000000000000600052603260045260246000fd5b90600052602060002001549050600073ffffffffffffffffffffffffffffffffffffffff16600c600083815260200190815260200160002060020160009054906101000a900473ffffffffffffffffffffffffffffffffffffffff1673ffffffffffffffffffffffffffffffffffffffff16146110eb57600c600082815260200190815260200160002060405180608001604052908160008201548152602001600182015481526020016002820160009054906101000a900473ffffffffffffffffffffffffffffffffffffffff1673ffffffffffffffffffffffffffffffffffffffff1673ffffffffffffffffffffffffffffffffffffffff1681526020016003820160009054906101000a900473ffffffffffffffffffffffffffffffffffffffff1673ffffffffffffffffffffffffffffffffffffffff1673ffffffffffffffffffffffffffffffffffffffff16815250508484815181106110d1577f4e487b7100000000000000000000000000000000000000000000000000000000600052603260045260246000fd5b602002602001018190525082806110e790614e81565b9350505b5080806110f790614e81565b915050610eff565b5060008167ffffffffffffffff811115611142577f4e487b7100000000000000000000000000000000000000000000000000000000600052604160045260246000fd5b60405190808252806020026020018201604052801561117b57816020015b611168613a8d565b8152602001906001900390816111605790505b50905060005b82811015611221578381815181106111c2577f4e487b7100000000000000000000000000000000000000000000000000000000600052603260045260246000fd5b6020026020010151828281518110611203577f4e487b7100000000000000000000000000000000000000000000000000000000600052603260045260246000fd5b6020026020010181905250808061121990614e81565b915050611181565b50809650505050505050919050565b6000600460008373ffffffffffffffffffffffffffffffffffffffff1673ffffffffffffffffffffffffffffffffffffffff16815260200190815260200160002054116112b2576040517f08c379a00000000000000000000000000000000000000000000000000000000081526004016112a9906147f7565b60405180910390fd5b60006112bd826124b7565b90506000811415611303576040517f08c379a00000000000000000000000000000000000000000000000000000000081526004016112fa90614877565b60405180910390fd5b80600360008282546113159190614c30565b9250508190555080600560008473ffffffffffffffffffffffffffffffffffffffff1673ffffffffffffffffffffffffffffffffffffffff168152602001908152602001600020600082825401925050819055506113738282613471565b7fdf20fd1e76bc69d672e4814fafb2c449bba3a5369d8359adf9e05e6fde87b05682826040516113a49291906145ce565b60405180910390a15050565b6000600254905090565b6000600860008473ffffffffffffffffffffffffffffffffffffffff1673ffffffffffffffffffffffffffffffffffffffff16815260200190815260200160002060008373ffffffffffffffffffffffffffffffffffffffff1673ffffffffffffffffffffffffffffffffffffffff16815260200190815260200160002054905092915050565b6000600460008373ffffffffffffffffffffffffffffffffffffffff1673ffffffffffffffffffffffffffffffffffffffff16815260200190815260200160002054116114c3576040517f08c379a00000000000000000000000000000000000000000000000000000000081526004016114ba906147f7565b60405180910390fd5b60006114cf8383612e0a565b90506000811415611515576040517f08c379a000000000000000000000000000000000000000000000000000000000815260040161150c90614877565b60405180910390fd5b80600760008573ffffffffffffffffffffffffffffffffffffffff1673ffffffffffffffffffffffffffffffffffffffff16815260200190815260200160002060008282546115649190614c30565b9250508190555080600860008573ffffffffffffffffffffffffffffffffffffffff1673ffffffffffffffffffffffffffffffffffffffff16815260200190815260200160002060008473ffffffffffffffffffffffffffffffffffffffff1673ffffffffffffffffffffffffffffffffffffffff16815260200190815260200160002060008282540192505081905550611600838383613565565b8273ffffffffffffffffffffffffffffffffffffffff167f3be5b7a71e84ed12875d241991c70855ac5817d847039e17a9d895c1ceb0f18a8383604051611648929190614657565b60405180910390a2505050565b61165d613a8d565b600061166983856133c1565b9050600073ffffffffffffffffffffffffffffffffffffffff16600c600083815260200190815260200160002060020160009054906101000a900473ffffffffffffffffffffffffffffffffffffffff1673ffffffffffffffffffffffffffffffffffffffff161415611711576040517f08c379a0000000000000000000000000000000000000000000000000000000008152600401611708906147b7565b60405180910390fd5b600c600082815260200190815260200160002060405180608001604052908160008201548152602001600182015481526020016002820160009054906101000a900473ffffffffffffffffffffffffffffffffffffffff1673ffffffffffffffffffffffffffffffffffffffff1673ffffffffffffffffffffffffffffffffffffffff1681526020016003820160009054906101000a900473ffffffffffffffffffffffffffffffffffffffff1673ffffffffffffffffffffffffffffffffffffffff1673ffffffffffffffffffffffffffffffffffffffff168152505091505092915050565b60008061180584846133c1565b9050600073ffffffffffffffffffffffffffffffffffffffff16600c600083815260200190815260200160002060020160009054906101000a900473ffffffffffffffffffffffffffffffffffffffff1673ffffffffffffffffffffffffffffffffffffffff16141591505092915050565b60606000805b600d8054905081101561195a578373ffffffffffffffffffffffffffffffffffffffff16600c6000600d84815481106118df577f4e487b7100000000000000000000000000000000000000000000000000000000600052603260045260246000fd5b9060005260206000200154815260200190815260200160002060030160009054906101000a900473ffffffffffffffffffffffffffffffffffffffff1673ffffffffffffffffffffffffffffffffffffffff16141561194757818061194390614e81565b9250505b808061195290614e81565b91505061187d565b5060008167ffffffffffffffff81111561199d577f4e487b7100000000000000000000000000000000000000000000000000000000600052604160045260246000fd5b6040519080825280602002602001820160405280156119d657816020015b6119c3613a8d565b8152602001906001900390816119bb5790505b5090506000805b600d80549050811015611c20578573ffffffffffffffffffffffffffffffffffffffff16600c6000600d8481548110611a3f577f4e487b7100000000000000000000000000000000000000000000000000000000600052603260045260246000fd5b9060005260206000200154815260200190815260200160002060030160009054906101000a900473ffffffffffffffffffffffffffffffffffffffff1673ffffffffffffffffffffffffffffffffffffffff161415611c0d57600c6000600d8381548110611ad6577f4e487b7100000000000000000000000000000000000000000000000000000000600052603260045260246000fd5b9060005260206000200154815260200190815260200160002060405180608001604052908160008201548152602001600182015481526020016002820160009054906101000a900473ffffffffffffffffffffffffffffffffffffffff1673ffffffffffffffffffffffffffffffffffffffff1673ffffffffffffffffffffffffffffffffffffffff1681526020016003820160009054906101000a900473ffffffffffffffffffffffffffffffffffffffff1673ffffffffffffffffffffffffffffffffffffffff1673ffffffffffffffffffffffffffffffffffffffff1681525050838381518110611bf3577f4e487b7100000000000000000000000000000000000000000000000000000000600052603260045260246000fd5b60200260200101819052508180611c0990614e81565b9250505b8080611c1890614e81565b9150506119dd565b50819350505050919050565b611c346135eb565b611c3e6000613669565b565b606060008367ffffffffffffffff811115611c84577f4e487b7100000000000000000000000000000000000000000000000000000000600052604160045260246000fd5b604051908082528060200260200182016040528015611cb25781602001602082028036833780820191505090505b509050600080600a60009054906101000a900473ffffffffffffffffffffffffffffffffffffffff1673ffffffffffffffffffffffffffffffffffffffff1663d08b28ea8989896040518463ffffffff1660e01b8152600401611d1793929190614b04565b60006040518083038186803b158015611d2f57600080fd5b505afa158015611d43573d6000803e3d6000fd5b505050506040513d6000823e3d601f19601f82011682018060405250810190611d6c9190613d12565b9050600081511415611df257600067ffffffffffffffff811115611db9577f4e487b7100000000000000000000000000000000000000000000000000000000600052604160045260246000fd5b604051908082528060200260200182016040528015611de75781602001602082028036833780820191505090505b509350505050612046565b60005b8151811015611f25576000828281518110611e39577f4e487b7100000000000000000000000000000000000000000000000000000000600052603260045260246000fd5b602002602001015190506000611e4f88836133c1565b9050600073ffffffffffffffffffffffffffffffffffffffff16600c600083815260200190815260200160002060020160009054906101000a900473ffffffffffffffffffffffffffffffffffffffff1673ffffffffffffffffffffffffffffffffffffffff1614611f105781868681518110611ef5577f4e487b7100000000000000000000000000000000000000000000000000000000600052603260045260246000fd5b6020026020010181815250508480611f0c90614e81565b9550505b50508080611f1d90614e81565b915050611df5565b5060008267ffffffffffffffff811115611f68577f4e487b7100000000000000000000000000000000000000000000000000000000600052604160045260246000fd5b604051908082528060200260200182016040528015611f965781602001602082028036833780820191505090505b50905060005b8381101561203d57848181518110611fdd577f4e487b7100000000000000000000000000000000000000000000000000000000600052603260045260246000fd5b602002602001015182828151811061201e577f4e487b7100000000000000000000000000000000000000000000000000000000600052603260045260246000fd5b602002602001018181525050808061203590614e81565b915050611f9c565b50809450505050505b949350505050565b60006006828154811061208a577f4e487b7100000000000000000000000000000000000000000000000000000000600052603260045260246000fd5b9060005260206000200160009054906101000a900473ffffffffffffffffffffffffffffffffffffffff169050919050565b60008060009054906101000a900473ffffffffffffffffffffffffffffffffffffffff16905090565b6000600560008373ffffffffffffffffffffffffffffffffffffffff1673ffffffffffffffffffffffffffffffffffffffff168152602001908152602001600020549050919050565b6121366133f4565b600061214283836133c1565b90506000600c600083815260200190815260200160002090503373ffffffffffffffffffffffffffffffffffffffff168160020160009054906101000a900473ffffffffffffffffffffffffffffffffffffffff1673ffffffffffffffffffffffffffffffffffffffff16146121ed576040517f08c379a00000000000000000000000000000000000000000000000000000000081526004016121e4906148b7565b60405180910390fd5b60008160030160009054906101000a900473ffffffffffffffffffffffffffffffffffffffff169050600c600084815260200190815260200160002060008082016000905560018201600090556002820160006101000a81549073ffffffffffffffffffffffffffffffffffffffff02191690556003820160006101000a81549073ffffffffffffffffffffffffffffffffffffffff021916905550508073ffffffffffffffffffffffffffffffffffffffff166323b872dd3033876040518463ffffffff1660e01b81526004016122c793929190614620565b600060405180830381600087803b1580156122e157600080fd5b505af11580156122f5573d6000803e3d6000fd5b50505050612303600b61372d565b60005b600d805490508110156124635783600d828154811061234e577f4e487b7100000000000000000000000000000000000000000000000000000000600052603260045260246000fd5b9060005260206000200154141561245057600d6001600d805490506123739190614d11565b815481106123aa577f4e487b7100000000000000000000000000000000000000000000000000000000600052603260045260246000fd5b9060005260206000200154600d82815481106123ef577f4e487b7100000000000000000000000000000000000000000000000000000000600052603260045260246000fd5b9060005260206000200181905550600d805480612435577f4e487b7100000000000000000000000000000000000000000000000000000000600052603160045260246000fd5b60019003818190600052602060002001600090559055612463565b808061245b90614e81565b915050612306565b508473ffffffffffffffffffffffffffffffffffffffff16847fef1499b350e05776e60cd2ffcac001569a28e9d574e1f3adc1b3ab264f8ccffd60405160405180910390a35050506124b361345a565b5050565b6000806124c261330f565b476124cd9190614c30565b90506124e283826124dd866120e5565b613789565b915050919050565b6124f26133f4565b60006124fe83836133c1565b90506000600c600083815260200190815260200160002090508060010154341461255d576040517f08c379a000000000000000000000000000000000000000000000000000000000815260040161255490614957565b60405180910390fd5b3373ffffffffffffffffffffffffffffffffffffffff168160020160009054906101000a900473ffffffffffffffffffffffffffffffffffffffff1673ffffffffffffffffffffffffffffffffffffffff1614156125f0576040517f08c379a00000000000000000000000000000000000000000000000000000000081526004016125e790614917565b60405180910390fd5b60008490508073ffffffffffffffffffffffffffffffffffffffff166301ffc9a77f80ac58cd000000000000000000000000000000000000000000000000000000006040518263ffffffff1660e01b815260040161264e91906146fa565b60206040518083038186803b15801561266657600080fd5b505afa15801561267a573d6000803e3d6000fd5b505050506040513d601f19601f8201168201806040525081019061269e9190613d53565b6126dd576040517f08c379a00000000000000000000000000000000000000000000000000000000081526004016126d490614737565b60405180910390fd5b8073ffffffffffffffffffffffffffffffffffffffff166301ffc9a77f2a55205a000000000000000000000000000000000000000000000000000000006040518263ffffffff1660e01b815260040161273691906146fa565b60206040518083038186803b15801561274e57600080fd5b505afa158015612762573d6000803e3d6000fd5b505050506040513d601f19601f820116820180604052508101906127869190613d53565b6127c5576040517f08c379a00000000000000000000000000000000000000000000000000000000081526004016127bc90614897565b60405180910390fd5b600085905060008690506000808373ffffffffffffffffffffffffffffffffffffffff16632a55205a876000015488600101546040518363ffffffff1660e01b8152600401612815929190614a96565b604080518083038186803b15801561282c57600080fd5b505afa158015612840573d6000803e3d6000fd5b505050506040513d601f19601f820116820180604052508101906128649190613cd6565b9150915060006064600954886001015461287e9190614cb7565b6128889190614c86565b905081816128969190614c30565b8760010154116128db576040517f08c379a00000000000000000000000000000000000000000000000000000000081526004016128d290614937565b60405180910390fd5b600081836128e99190614c30565b88600101546128f89190614d11565b905060008860020160009054906101000a900473ffffffffffffffffffffffffffffffffffffffff1673ffffffffffffffffffffffffffffffffffffffff16826040516129449061459e565b60006040518083038185875af1925050503d8060008114612981576040519150601f19603f3d011682016040523d82523d6000602084013e612986565b606091505b50509050806129ca576040517f08c379a00000000000000000000000000000000000000000000000000000000081526004016129c190614997565b60405180910390fd5b60008573ffffffffffffffffffffffffffffffffffffffff16856040516129f09061459e565b60006040518083038185875af1925050503d8060008114612a2d576040519150601f19603f3d011682016040523d82523d6000602084013e612a32565b606091505b5050905080612a76576040517f08c379a0000000000000000000000000000000000000000000000000000000008152600401612a6d90614757565b60405180910390fd5b600c60008c815260200190815260200160002060008082016000905560018201600090556002820160006101000a81549073ffffffffffffffffffffffffffffffffffffffff02191690556003820160006101000a81549073ffffffffffffffffffffffffffffffffffffffff021916905550508673ffffffffffffffffffffffffffffffffffffffff166323b872dd30338f6040518463ffffffff1660e01b8152600401612b2793929190614620565b600060405180830381600087803b158015612b4157600080fd5b505af1158015612b55573d6000803e3d6000fd5b50505050612b63600b61372d565b60005b600d80549050811015612cc3578b600d8281548110612bae577f4e487b7100000000000000000000000000000000000000000000000000000000600052603260045260246000fd5b90600052602060002001541415612cb057600d6001600d80549050612bd39190614d11565b81548110612c0a577f4e487b7100000000000000000000000000000000000000000000000000000000600052603260045260246000fd5b9060005260206000200154600d8281548110612c4f577f4e487b7100000000000000000000000000000000000000000000000000000000600052603260045260246000fd5b9060005260206000200181905550600d805480612c95577f4e487b7100000000000000000000000000000000000000000000000000000000600052603160045260246000fd5b60019003818190600052602060002001600090559055612cc3565b8080612cbb90614e81565b915050612b66565b503373ffffffffffffffffffffffffffffffffffffffff168a60020160009054906101000a900473ffffffffffffffffffffffffffffffffffffffff1673ffffffffffffffffffffffffffffffffffffffff168d7f4d26e6707cfb0dd9d0e2aaaf04de4b0b4a388a1c760ed3b2976827015153a39e8d600101548e60030160009054906101000a900473ffffffffffffffffffffffffffffffffffffffff16604051612d70929190614a6d565b60405180910390a45050505050505050505050612d8b61345a565b5050565b662386f26fc1000081565b600c6020528060005260406000206000915090508060000154908060010154908060020160009054906101000a900473ffffffffffffffffffffffffffffffffffffffff16908060030160009054906101000a900473ffffffffffffffffffffffffffffffffffffffff16905084565b600080612e1684612f11565b8473ffffffffffffffffffffffffffffffffffffffff166370a08231306040518263ffffffff1660e01b8152600401612e4f91906145b3565b60206040518083038186803b158015612e6757600080fd5b505afa158015612e7b573d6000803e3d6000fd5b505050506040513d601f19601f82011682018060405250810190612e9f9190613e33565b612ea99190614c30565b9050612ebf8382612eba87876113ba565b613789565b91505092915050565b6000600460008373ffffffffffffffffffffffffffffffffffffffff1673ffffffffffffffffffffffffffffffffffffffff168152602001908152602001600020549050919050565b6000600760008373ffffffffffffffffffffffffffffffffffffffff1673ffffffffffffffffffffffffffffffffffffffff168152602001908152602001600020549050919050565b60606000805b600d8054905081101561303d578373ffffffffffffffffffffffffffffffffffffffff16600c6000600d8481548110612fc2577f4e487b7100000000000000000000000000000000000000000000000000000000600052603260045260246000fd5b9060005260206000200154815260200190815260200160002060020160009054906101000a900473ffffffffffffffffffffffffffffffffffffffff1673ffffffffffffffffffffffffffffffffffffffff16141561302a57818061302690614e81565b9250505b808061303590614e81565b915050612f60565b5060008167ffffffffffffffff811115613080577f4e487b7100000000000000000000000000000000000000000000000000000000600052604160045260246000fd5b6040519080825280602002602001820160405280156130b957816020015b6130a6613a8d565b81526020019060019003908161309e5790505b5090506000805b600d80549050811015613303578573ffffffffffffffffffffffffffffffffffffffff16600c6000600d8481548110613122577f4e487b7100000000000000000000000000000000000000000000000000000000600052603260045260246000fd5b9060005260206000200154815260200190815260200160002060020160009054906101000a900473ffffffffffffffffffffffffffffffffffffffff1673ffffffffffffffffffffffffffffffffffffffff1614156132f057600c6000600d83815481106131b9577f4e487b7100000000000000000000000000000000000000000000000000000000600052603260045260246000fd5b9060005260206000200154815260200190815260200160002060405180608001604052908160008201548152602001600182015481526020016002820160009054906101000a900473ffffffffffffffffffffffffffffffffffffffff1673ffffffffffffffffffffffffffffffffffffffff1673ffffffffffffffffffffffffffffffffffffffff1681526020016003820160009054906101000a900473ffffffffffffffffffffffffffffffffffffffff1673ffffffffffffffffffffffffffffffffffffffff1673ffffffffffffffffffffffffffffffffffffffff16815250508383815181106132d6577f4e487b7100000000000000000000000000000000000000000000000000000000600052603260045260246000fd5b602002602001018190525081806132ec90614e81565b9250505b80806132fb90614e81565b9150506130c0565b50819350505050919050565b6000600354905090565b600d818154811061332957600080fd5b906000526020600020016000915090505481565b6133456135eb565b600073ffffffffffffffffffffffffffffffffffffffff168173ffffffffffffffffffffffffffffffffffffffff1614156133b5576040517f08c379a00000000000000000000000000000000000000000000000000000000081526004016133ac90614797565b60405180910390fd5b6133be81613669565b50565b600082826040516020016133d692919061455b565b60405160208183030381529060405280519060200120905092915050565b6002600154141561343a576040517f08c379a000000000000000000000000000000000000000000000000000000000815260040161343190614a17565b60405180910390fd5b6002600181905550565b6001816000016000828254019250508190555050565b60018081905550565b600081600001549050919050565b804710156134b4576040517f08c379a00000000000000000000000000000000000000000000000000000000081526004016134ab90614837565b60405180910390fd5b60008273ffffffffffffffffffffffffffffffffffffffff16826040516134da9061459e565b60006040518083038185875af1925050503d8060008114613517576040519150601f19603f3d011682016040523d82523d6000602084013e61351c565b606091505b5050905080613560576040517f08c379a000000000000000000000000000000000000000000000000000000000815260040161355790614817565b60405180910390fd5b505050565b6135e68363a9059cbb60e01b8484604051602401613584929190614657565b604051602081830303815290604052907bffffffffffffffffffffffffffffffffffffffffffffffffffffffff19166020820180517bffffffffffffffffffffffffffffffffffffffffffffffffffffffff83818316178352505050506137f7565b505050565b6135f361076b565b73ffffffffffffffffffffffffffffffffffffffff166136116120bc565b73ffffffffffffffffffffffffffffffffffffffff1614613667576040517f08c379a000000000000000000000000000000000000000000000000000000000815260040161365e90614977565b60405180910390fd5b565b60008060009054906101000a900473ffffffffffffffffffffffffffffffffffffffff169050816000806101000a81548173ffffffffffffffffffffffffffffffffffffffff021916908373ffffffffffffffffffffffffffffffffffffffff1602179055508173ffffffffffffffffffffffffffffffffffffffff168173ffffffffffffffffffffffffffffffffffffffff167f8be0079c531659141344cd1fd0a4f28419497f9722a3daafe3b4186f6b6457e060405160405180910390a35050565b60008160000154905060008111613779576040517f08c379a000000000000000000000000000000000000000000000000000000000815260040161377090614777565b60405180910390fd5b6001810382600001819055505050565b600081600254600460008773ffffffffffffffffffffffffffffffffffffffff1673ffffffffffffffffffffffffffffffffffffffff16815260200190815260200160002054856137da9190614cb7565b6137e49190614c86565b6137ee9190614d11565b90509392505050565b6000613859826040518060400160405280602081526020017f5361666545524332303a206c6f772d6c6576656c2063616c6c206661696c65648152508573ffffffffffffffffffffffffffffffffffffffff166138bf9092919063ffffffff16565b905060008151148061387b57508080602001905181019061387a9190613d53565b5b6138ba576040517f08c379a00000000000000000000000000000000000000000000000000000000081526004016138b1906149f7565b60405180910390fd5b505050565b60606138ce84846000856138d7565b90509392505050565b60608247101561391c576040517f08c379a000000000000000000000000000000000000000000000000000000000815260040161391390614857565b60405180910390fd5b6000808673ffffffffffffffffffffffffffffffffffffffff1685876040516139459190614587565b60006040518083038185875af1925050503d8060008114613982576040519150601f19603f3d011682016040523d82523d6000602084013e613987565b606091505b5091509150613998878383876139a4565b92505050949350505050565b60608315613a07576000835114156139ff576139bf85613a1a565b6139fe576040517f08c379a00000000000000000000000000000000000000000000000000000000081526004016139f5906149d7565b60405180910390fd5b5b829050613a12565b613a118383613a3d565b5b949350505050565b6000808273ffffffffffffffffffffffffffffffffffffffff163b119050919050565b600082511115613a505781518083602001fd5b806040517f08c379a0000000000000000000000000000000000000000000000000000000008152600401613a849190614715565b60405180910390fd5b60405180608001604052806000815260200160008152602001600073ffffffffffffffffffffffffffffffffffffffff168152602001600073ffffffffffffffffffffffffffffffffffffffff1681525090565b6000613af4613aef84614b60565b614b3b565b90508083825260208201905082856020860282011115613b1357600080fd5b60005b85811015613b435781613b298882613c0a565b845260208401935060208301925050600181019050613b16565b5050509392505050565b600081359050613b5c816155b8565b92915050565b600081519050613b71816155b8565b92915050565b600081359050613b86816155cf565b92915050565b600082601f830112613b9d57600080fd5b8151613bad848260208601613ae1565b91505092915050565b600081519050613bc5816155e6565b92915050565b600081359050613bda816155fd565b92915050565b600081359050613bef81615614565b92915050565b600081359050613c048161562b565b92915050565b600081519050613c198161562b565b92915050565b600060208284031215613c3157600080fd5b6000613c3f84828501613b4d565b91505092915050565b600060208284031215613c5a57600080fd5b6000613c6884828501613b62565b91505092915050565b600060208284031215613c8357600080fd5b6000613c9184828501613b77565b91505092915050565b60008060408385031215613cad57600080fd5b6000613cbb85828601613b4d565b9250506020613ccc85828601613bf5565b9150509250929050565b60008060408385031215613ce957600080fd5b6000613cf785828601613b62565b9250506020613d0885828601613c0a565b9150509250929050565b600060208284031215613d2457600080fd5b600082015167ffffffffffffffff811115613d3e57600080fd5b613d4a84828501613b8c565b91505092915050565b600060208284031215613d6557600080fd5b6000613d7384828501613bb6565b91505092915050565b600060208284031215613d8e57600080fd5b6000613d9c84828501613bcb565b91505092915050565b600060208284031215613db757600080fd5b6000613dc584828501613be0565b91505092915050565b60008060408385031215613de157600080fd5b6000613def85828601613be0565b9250506020613e0085828601613b4d565b9150509250929050565b600060208284031215613e1c57600080fd5b6000613e2a84828501613bf5565b91505092915050565b600060208284031215613e4557600080fd5b6000613e5384828501613c0a565b91505092915050565b60008060408385031215613e6f57600080fd5b6000613e7d85828601613bf5565b9250506020613e8e85828601613b4d565b9150509250929050565b600080600060608486031215613ead57600080fd5b6000613ebb86828701613bf5565b9350506020613ecc86828701613bf5565b9250506040613edd86828701613b4d565b9150509250925092565b60008060008060808587031215613efd57600080fd5b6000613f0b87828801613bf5565b9450506020613f1c87828801613bf5565b9350506040613f2d87828801613bf5565b9250506060613f3e87828801613b4d565b91505092959194509250565b6000613f56838361447c565b60808301905092915050565b6000613f6e8383614526565b60208301905092915050565b613f8381614de7565b82525050565b613f9281614d45565b82525050565b613fa181614d45565b82525050565b613fb8613fb382614d45565b614eca565b82525050565b6000613fc982614bac565b613fd38185614bf2565b9350613fde83614b8c565b8060005b8381101561400f578151613ff68882613f4a565b975061400183614bd8565b925050600181019050613fe2565b5085935050505092915050565b600061402782614bb7565b6140318185614c03565b935061403c83614b9c565b8060005b8381101561406d5781516140548882613f62565b975061405f83614be5565b925050600181019050614040565b5085935050505092915050565b61408381614d69565b82525050565b61409281614d75565b82525050565b6140a181614d7f565b82525050565b60006140b282614bc2565b6140bc8185614c14565b93506140cc818560208601614e1d565b80840191505092915050565b60006140e382614bcd565b6140ed8185614c1f565b93506140fd818560208601614e1d565b61410681614f85565b840191505092915050565b600061411e603683614c1f565b915061412982614fa3565b604082019050919050565b6000614141602b83614c1f565b915061414c82614ff2565b604082019050919050565b6000614164601b83614c1f565b915061416f82615041565b602082019050919050565b6000614187602683614c1f565b91506141928261506a565b604082019050919050565b60006141aa603083614c1f565b91506141b5826150b9565b604082019050919050565b60006141cd602d83614c1f565b91506141d882615108565b604082019050919050565b60006141f0602683614c1f565b91506141fb82615157565b604082019050919050565b6000614213603a83614c1f565b915061421e826151a6565b604082019050919050565b6000614236601d83614c1f565b9150614241826151f5565b602082019050919050565b6000614259602683614c1f565b91506142648261521e565b604082019050919050565b600061427c602b83614c1f565b91506142878261526d565b604082019050919050565b600061429f603783614c1f565b91506142aa826152bc565b604082019050919050565b60006142c2601683614c1f565b91506142cd8261530b565b602082019050919050565b60006142e5602483614c1f565b91506142f082615334565b604082019050919050565b6000614308602483614c1f565b915061431382615383565b604082019050919050565b600061432b601e83614c1f565b9150614336826153d2565b602082019050919050565b600061434e602b83614c1f565b9150614359826153fb565b604082019050919050565b6000614371602783614c1f565b915061437c8261544a565b604082019050919050565b6000614394602083614c1f565b915061439f82615499565b602082019050919050565b60006143b7601d83614c1f565b91506143c2826154c2565b602082019050919050565b60006143da601783614c1f565b91506143e5826154eb565b602082019050919050565b60006143fd600083614c14565b915061440882615514565b600082019050919050565b6000614420601d83614c1f565b915061442b82615517565b602082019050919050565b6000614443602a83614c1f565b915061444e82615540565b604082019050919050565b6000614466601f83614c1f565b91506144718261558f565b602082019050919050565b6080820160008201516144926000850182614526565b5060208201516144a56020850182614526565b5060408201516144b86040850182613f89565b5060608201516144cb6060850182613f89565b50505050565b6080820160008201516144e76000850182614526565b5060208201516144fa6020850182614526565b50604082015161450d6040850182613f89565b5060608201516145206060850182613f89565b50505050565b61452f81614ddd565b82525050565b61453e81614ddd565b82525050565b61455561455082614ddd565b614eee565b82525050565b60006145678285613fa7565b6014820191506145778284614544565b6020820191508190509392505050565b600061459382846140a7565b915081905092915050565b60006145a9826143f0565b9150819050919050565b60006020820190506145c86000830184613f98565b92915050565b60006040820190506145e36000830185613f7a565b6145f06020830184614535565b9392505050565b600060408201905061460c6000830185613f98565b6146196020830184613f98565b9392505050565b60006060820190506146356000830186613f98565b6146426020830185613f98565b61464f6040830184614535565b949350505050565b600060408201905061466c6000830185613f98565b6146796020830184614535565b9392505050565b6000602082019050818103600083015261469a8184613fbe565b905092915050565b600060208201905081810360008301526146bc818461401c565b905092915050565b60006020820190506146d9600083018461407a565b92915050565b60006020820190506146f46000830184614089565b92915050565b600060208201905061470f6000830184614098565b92915050565b6000602082019050818103600083015261472f81846140d8565b905092915050565b6000602082019050818103600083015261475081614111565b9050919050565b6000602082019050818103600083015261477081614134565b9050919050565b6000602082019050818103600083015261479081614157565b9050919050565b600060208201905081810360008301526147b08161417a565b9050919050565b600060208201905081810360008301526147d08161419d565b9050919050565b600060208201905081810360008301526147f0816141c0565b9050919050565b60006020820190508181036000830152614810816141e3565b9050919050565b6000602082019050818103600083015261483081614206565b9050919050565b6000602082019050818103600083015261485081614229565b9050919050565b600060208201905081810360008301526148708161424c565b9050919050565b600060208201905081810360008301526148908161426f565b9050919050565b600060208201905081810360008301526148b081614292565b9050919050565b600060208201905081810360008301526148d0816142b5565b9050919050565b600060208201905081810360008301526148f0816142d8565b9050919050565b60006020820190508181036000830152614910816142fb565b9050919050565b600060208201905081810360008301526149308161431e565b9050919050565b6000602082019050818103600083015261495081614341565b9050919050565b6000602082019050818103600083015261497081614364565b9050919050565b6000602082019050818103600083015261499081614387565b9050919050565b600060208201905081810360008301526149b0816143aa565b9050919050565b600060208201905081810360008301526149d0816143cd565b9050919050565b600060208201905081810360008301526149f081614413565b9050919050565b60006020820190508181036000830152614a1081614436565b9050919050565b60006020820190508181036000830152614a3081614459565b9050919050565b6000608082019050614a4c60008301846144d1565b92915050565b6000602082019050614a676000830184614535565b92915050565b6000604082019050614a826000830185614535565b614a8f6020830184613f98565b9392505050565b6000604082019050614aab6000830185614535565b614ab86020830184614535565b9392505050565b6000608082019050614ad46000830187614535565b614ae16020830186614535565b614aee6040830185613f98565b614afb6060830184613f98565b95945050505050565b6000606082019050614b196000830186614535565b614b266020830185614535565b614b336040830184614535565b949350505050565b6000614b45614b56565b9050614b518282614e50565b919050565b6000604051905090565b600067ffffffffffffffff821115614b7b57614b7a614f56565b5b602082029050602081019050919050565b6000819050602082019050919050565b6000819050602082019050919050565b600081519050919050565b600081519050919050565b600081519050919050565b600081519050919050565b6000602082019050919050565b6000602082019050919050565b600082825260208201905092915050565b600082825260208201905092915050565b600081905092915050565b600082825260208201905092915050565b6000614c3b82614ddd565b9150614c4683614ddd565b9250827fffffffffffffffffffffffffffffffffffffffffffffffffffffffffffffffff03821115614c7b57614c7a614ef8565b5b828201905092915050565b6000614c9182614ddd565b9150614c9c83614ddd565b925082614cac57614cab614f27565b5b828204905092915050565b6000614cc282614ddd565b9150614ccd83614ddd565b9250817fffffffffffffffffffffffffffffffffffffffffffffffffffffffffffffffff0483118215151615614d0657614d05614ef8565b5b828202905092915050565b6000614d1c82614ddd565b9150614d2783614ddd565b925082821015614d3a57614d39614ef8565b5b828203905092915050565b6000614d5082614dbd565b9050919050565b6000614d6282614dbd565b9050919050565b60008115159050919050565b6000819050919050565b60007fffffffff0000000000000000000000000000000000000000000000000000000082169050919050565b6000614db682614d45565b9050919050565b600073ffffffffffffffffffffffffffffffffffffffff82169050919050565b6000819050919050565b6000614df282614df9565b9050919050565b6000614e0482614e0b565b9050919050565b6000614e1682614dbd565b9050919050565b60005b83811015614e3b578082015181840152602081019050614e20565b83811115614e4a576000848401525b50505050565b614e5982614f85565b810181811067ffffffffffffffff82111715614e7857614e77614f56565b5b80604052505050565b6000614e8c82614ddd565b91507fffffffffffffffffffffffffffffffffffffffffffffffffffffffffffffffff821415614ebf57614ebe614ef8565b5b600182019050919050565b6000614ed582614edc565b9050919050565b6000614ee782614f96565b9050919050565b6000819050919050565b7f4e487b7100000000000000000000000000000000000000000000000000000000600052601160045260246000fd5b7f4e487b7100000000000000000000000000000000000000000000000000000000600052601260045260246000fd5b7f4e487b7100000000000000000000000000000000000000000000000000000000600052604160045260246000fd5b6000601f19601f8301169050919050565b60008160601b9050919050565b7f546865204e465420636f6e747261637420646f6573206e6f7420737570706f7260008201527f74207468652045524337323120696e7465726661636500000000000000000000602082015250565b7f5472616e73666572206f6620726f79616c747920746f2074686520726563656960008201527f766572206661696c65642e000000000000000000000000000000000000000000602082015250565b7f436f756e7465723a2064656372656d656e74206f766572666c6f770000000000600082015250565b7f4f776e61626c653a206e6577206f776e657220697320746865207a65726f206160008201527f6464726573730000000000000000000000000000000000000000000000000000602082015250565b7f4e6f206c697374696e6720666f756e6420666f72207468697320746f6b656e4960008201527f6420616e64206e66744164647265737300000000000000000000000000000000602082015250565b7f4d61726b6574706c616365206e6f7420617070726f76656420746f207472616e60008201527f736665722074686973204e465400000000000000000000000000000000000000602082015250565b7f5061796d656e7453706c69747465723a206163636f756e7420686173206e6f2060008201527f7368617265730000000000000000000000000000000000000000000000000000602082015250565b7f416464726573733a20756e61626c6520746f2073656e642076616c75652c207260008201527f6563697069656e74206d61792068617665207265766572746564000000000000602082015250565b7f416464726573733a20696e73756666696369656e742062616c616e6365000000600082015250565b7f416464726573733a20696e73756666696369656e742062616c616e636520666f60008201527f722063616c6c0000000000000000000000000000000000000000000000000000602082015250565b7f5061796d656e7453706c69747465723a206163636f756e74206973206e6f742060008201527f647565207061796d656e74000000000000000000000000000000000000000000602082015250565b7f546865204e465420636f6e747261637420646f6573206e6f7420737570706f7260008201527f7420746865204552433239383120696e74657266616365000000000000000000602082015250565b7f596f7520646f6e2774206f776e2074686973204e465400000000000000000000600082015250565b7f50616765206e756d6265722073686f756c64206265206772656174657220746860008201527f616e203000000000000000000000000000000000000000000000000000000000602082015250565b7f5072696365206d7573742062652067726561746572207468616e204d494e5f5060008201527f5249434500000000000000000000000000000000000000000000000000000000602082015250565b7f4f776e65722063616e6e6f7420627579207468656972206f776e204e46540000600082015250565b7f50726963652073686f756c6420626520686967686572207468616e20746f746160008201527f6c20726f79616c74696573000000000000000000000000000000000000000000602082015250565b7f53656e742076616c756520646f6573206e6f74206d6174636820746865204e4660008201527f5420707269636500000000000000000000000000000000000000000000000000602082015250565b7f4f776e61626c653a2063616c6c6572206973206e6f7420746865206f776e6572600082015250565b7f5472616e7366657220746f204e4654206f776e6572206661696c65642e000000600082015250565b7f546f6b656e20697320616c7265616479206c6973746564000000000000000000600082015250565b50565b7f416464726573733a2063616c6c20746f206e6f6e2d636f6e7472616374000000600082015250565b7f5361666545524332303a204552433230206f7065726174696f6e20646964206e60008201527f6f74207375636365656400000000000000000000000000000000000000000000602082015250565b7f5265656e7472616e637947756172643a207265656e7472616e742063616c6c00600082015250565b6155c181614d45565b81146155cc57600080fd5b50565b6155d881614d57565b81146155e357600080fd5b50565b6155ef81614d69565b81146155fa57600080fd5b50565b61560681614d75565b811461561157600080fd5b50565b61561d81614dab565b811461562857600080fd5b50565b61563481614ddd565b811461563f57600080fd5b5056fea264697066735822122015a53d5306c7656148d25c42630f3c484ed7e5706c06193a77cc82637f9b760864736f6c63430008010033",
  "linkReferences": {},
  "deployedLinkReferences": {}
}