{
  "_format": "hh-sol-artifact-1",
  "contractName": "NFTMarketplace",
  "sourceName": "contracts/NFTMarketplace.sol",
  "abi": [
    {
      "inputs": [
        {
          "internalType": "address",
          "name": "nftContractAddress",
          "type": "address"
        }
      ],
      "stateMutability": "nonpayable",
      "type": "constructor"
    },
    {
      "anonymous": false,
      "inputs": [
        {
          "indexed": true,
          "internalType": "address",
          "name": "previousOwner",
          "type": "address"
        },
        {
          "indexed": true,
          "internalType": "address",
          "name": "newOwner",
          "type": "address"
        }
      ],
      "name": "OwnershipTransferred",
      "type": "event"
    },
    {
      "inputs": [
        {
          "internalType": "uint256",
          "name": "tokenId",
          "type": "uint256"
        }
      ],
      "name": "buyNFT",
      "outputs": [],
      "stateMutability": "payable",
      "type": "function"
    },
    {
      "inputs": [
        {
          "internalType": "uint256",
          "name": "tokenId",
          "type": "uint256"
        }
      ],
      "name": "delistNFT",
      "outputs": [],
      "stateMutability": "nonpayable",
      "type": "function"
    },
    {
      "inputs": [
        {
          "internalType": "uint256",
          "name": "tokenId",
          "type": "uint256"
        }
      ],
      "name": "listNFT",
      "outputs": [],
      "stateMutability": "nonpayable",
      "type": "function"
    },
    {
      "inputs": [],
      "name": "owner",
      "outputs": [
        {
          "internalType": "address",
          "name": "",
          "type": "address"
        }
      ],
      "stateMutability": "view",
      "type": "function"
    },
    {
      "inputs": [],
      "name": "renounceOwnership",
      "outputs": [],
      "stateMutability": "nonpayable",
      "type": "function"
    },
    {
      "inputs": [
        {
          "internalType": "address",
          "name": "newOwner",
          "type": "address"
        }
      ],
      "name": "transferOwnership",
      "outputs": [],
      "stateMutability": "nonpayable",
      "type": "function"
    }
  ],
  "bytecode": "0x60806040523480156200001157600080fd5b506040516200125838038062001258833981810160405281019062000037919062000182565b620000576200004b6200009f60201b60201c565b620000a760201b60201c565b80600160006101000a81548173ffffffffffffffffffffffffffffffffffffffff021916908373ffffffffffffffffffffffffffffffffffffffff16021790555050620001fc565b600033905090565b60008060009054906101000a900473ffffffffffffffffffffffffffffffffffffffff169050816000806101000a81548173ffffffffffffffffffffffffffffffffffffffff021916908373ffffffffffffffffffffffffffffffffffffffff1602179055508173ffffffffffffffffffffffffffffffffffffffff168173ffffffffffffffffffffffffffffffffffffffff167f8be0079c531659141344cd1fd0a4f28419497f9722a3daafe3b4186f6b6457e060405160405180910390a35050565b6000815190506200017c81620001e2565b92915050565b6000602082840312156200019557600080fd5b6000620001a5848285016200016b565b91505092915050565b6000620001bb82620001c2565b9050919050565b600073ffffffffffffffffffffffffffffffffffffffff82169050919050565b620001ed81620001ae565b8114620001f957600080fd5b50565b61104c806200020c6000396000f3fe6080604052600436106100555760003560e01c806351ed82881461005a578063715018a6146100765780638da5cb5b1461008d578063cb917b9c146100b8578063d076f13f146100e1578063f2fde38b1461010a575b600080fd5b610074600480360381019061006f9190610b55565b610133565b005b34801561008257600080fd5b5061008b610436565b005b34801561009957600080fd5b506100a261044a565b6040516100af9190610cba565b60405180910390f35b3480156100c457600080fd5b506100df60048036038101906100da9190610b55565b610473565b005b3480156100ed57600080fd5b5061010860048036038101906101039190610b55565b6106aa565b005b34801561011657600080fd5b50610131600480360381019061012c9190610b03565b6108e1565b005b6002600082815260200190815260200160002060009054906101000a900460ff16610193576040517f08c379a000000000000000000000000000000000000000000000000000000000815260040161018a90610dd5565b60405180910390fd5b600160009054906101000a900473ffffffffffffffffffffffffffffffffffffffff1673ffffffffffffffffffffffffffffffffffffffff1663e7572230826040518263ffffffff1660e01b81526004016101ee9190610e15565b60206040518083038186803b15801561020657600080fd5b505afa15801561021a573d6000803e3d6000fd5b505050506040513d601f19601f8201168201806040525081019061023e9190610b7e565b341461027f576040517f08c379a000000000000000000000000000000000000000000000000000000000815260040161027690610db5565b60405180910390fd5b6000600160009054906101000a900473ffffffffffffffffffffffffffffffffffffffff1673ffffffffffffffffffffffffffffffffffffffff16636352211e836040518263ffffffff1660e01b81526004016102dc9190610e15565b60206040518083038186803b1580156102f457600080fd5b505afa158015610308573d6000803e3d6000fd5b505050506040513d601f19601f8201168201806040525081019061032c9190610b2c565b90508073ffffffffffffffffffffffffffffffffffffffff166108fc349081150290604051600060405180830381858888f19350505050158015610374573d6000803e3d6000fd5b50600160009054906101000a900473ffffffffffffffffffffffffffffffffffffffff1673ffffffffffffffffffffffffffffffffffffffff166323b872dd8233856040518463ffffffff1660e01b81526004016103d493929190610cd5565b600060405180830381600087803b1580156103ee57600080fd5b505af1158015610402573d6000803e3d6000fd5b5050505060006002600084815260200190815260200160002060006101000a81548160ff0219169083151502179055505050565b61043e610965565b61044860006109e3565b565b60008060009054906101000a900473ffffffffffffffffffffffffffffffffffffffff16905090565b600160009054906101000a900473ffffffffffffffffffffffffffffffffffffffff1673ffffffffffffffffffffffffffffffffffffffff16636352211e826040518263ffffffff1660e01b81526004016104ce9190610e15565b60206040518083038186803b1580156104e657600080fd5b505afa1580156104fa573d6000803e3d6000fd5b505050506040513d601f19601f8201168201806040525081019061051e9190610b2c565b73ffffffffffffffffffffffffffffffffffffffff163373ffffffffffffffffffffffffffffffffffffffff161461058b576040517f08c379a000000000000000000000000000000000000000000000000000000000815260040161058290610d75565b60405180910390fd5b6002600082815260200190815260200160002060009054906101000a900460ff166105eb576040517f08c379a00000000000000000000000000000000000000000000000000000000081526004016105e290610d55565b60405180910390fd5b60006002600083815260200190815260200160002060006101000a81548160ff021916908315150217905550600160009054906101000a900473ffffffffffffffffffffffffffffffffffffffff1673ffffffffffffffffffffffffffffffffffffffff1663095ea7b36000836040518363ffffffff1660e01b8152600401610675929190610d0c565b600060405180830381600087803b15801561068f57600080fd5b505af11580156106a3573d6000803e3d6000fd5b5050505050565b600160009054906101000a900473ffffffffffffffffffffffffffffffffffffffff1673ffffffffffffffffffffffffffffffffffffffff16636352211e826040518263ffffffff1660e01b81526004016107059190610e15565b60206040518083038186803b15801561071d57600080fd5b505afa158015610731573d6000803e3d6000fd5b505050506040513d601f19601f820116820180604052508101906107559190610b2c565b73ffffffffffffffffffffffffffffffffffffffff163373ffffffffffffffffffffffffffffffffffffffff16146107c2576040517f08c379a00000000000000000000000000000000000000000000000000000000081526004016107b990610d75565b60405180910390fd5b6002600082815260200190815260200160002060009054906101000a900460ff1615610823576040517f08c379a000000000000000000000000000000000000000000000000000000000815260040161081a90610d95565b60405180910390fd5b60016002600083815260200190815260200160002060006101000a81548160ff021916908315150217905550600160009054906101000a900473ffffffffffffffffffffffffffffffffffffffff1673ffffffffffffffffffffffffffffffffffffffff1663095ea7b330836040518363ffffffff1660e01b81526004016108ac929190610d0c565b600060405180830381600087803b1580156108c657600080fd5b505af11580156108da573d6000803e3d6000fd5b5050505050565b6108e9610965565b600073ffffffffffffffffffffffffffffffffffffffff168173ffffffffffffffffffffffffffffffffffffffff161415610959576040517f08c379a000000000000000000000000000000000000000000000000000000000815260040161095090610d35565b60405180910390fd5b610962816109e3565b50565b61096d610aa7565b73ffffffffffffffffffffffffffffffffffffffff1661098b61044a565b73ffffffffffffffffffffffffffffffffffffffff16146109e1576040517f08c379a00000000000000000000000000000000000000000000000000000000081526004016109d890610df5565b60405180910390fd5b565b60008060009054906101000a900473ffffffffffffffffffffffffffffffffffffffff169050816000806101000a81548173ffffffffffffffffffffffffffffffffffffffff021916908373ffffffffffffffffffffffffffffffffffffffff1602179055508173ffffffffffffffffffffffffffffffffffffffff168173ffffffffffffffffffffffffffffffffffffffff167f8be0079c531659141344cd1fd0a4f28419497f9722a3daafe3b4186f6b6457e060405160405180910390a35050565b600033905090565b600081359050610abe81610fe8565b92915050565b600081519050610ad381610fe8565b92915050565b600081359050610ae881610fff565b92915050565b600081519050610afd81610fff565b92915050565b600060208284031215610b1557600080fd5b6000610b2384828501610aaf565b91505092915050565b600060208284031215610b3e57600080fd5b6000610b4c84828501610ac4565b91505092915050565b600060208284031215610b6757600080fd5b6000610b7584828501610ad9565b91505092915050565b600060208284031215610b9057600080fd5b6000610b9e84828501610aee565b91505092915050565b610bb081610e41565b82525050565b6000610bc3602683610e30565b9150610bce82610e7d565b604082019050919050565b6000610be6600e83610e30565b9150610bf182610ecc565b602082019050919050565b6000610c09601a83610e30565b9150610c1482610ef5565b602082019050919050565b6000610c2c601283610e30565b9150610c3782610f1e565b602082019050919050565b6000610c4f602783610e30565b9150610c5a82610f47565b604082019050919050565b6000610c72601783610e30565b9150610c7d82610f96565b602082019050919050565b6000610c95602083610e30565b9150610ca082610fbf565b602082019050919050565b610cb481610e73565b82525050565b6000602082019050610ccf6000830184610ba7565b92915050565b6000606082019050610cea6000830186610ba7565b610cf76020830185610ba7565b610d046040830184610cab565b949350505050565b6000604082019050610d216000830185610ba7565b610d2e6020830184610cab565b9392505050565b60006020820190508181036000830152610d4e81610bb6565b9050919050565b60006020820190508181036000830152610d6e81610bd9565b9050919050565b60006020820190508181036000830152610d8e81610bfc565b9050919050565b60006020820190508181036000830152610dae81610c1f565b9050919050565b60006020820190508181036000830152610dce81610c42565b9050919050565b60006020820190508181036000830152610dee81610c65565b9050919050565b60006020820190508181036000830152610e0e81610c88565b9050919050565b6000602082019050610e2a6000830184610cab565b92915050565b600082825260208201905092915050565b6000610e4c82610e53565b9050919050565b600073ffffffffffffffffffffffffffffffffffffffff82169050919050565b6000819050919050565b7f4f776e61626c653a206e6577206f776e657220697320746865207a65726f206160008201527f6464726573730000000000000000000000000000000000000000000000000000602082015250565b7f4e4654206e6f74206c6973746564000000000000000000000000000000000000600082015250565b7f43616c6c6572206973206e6f74206f776e6572206f66204e4654000000000000600082015250565b7f4e465420616c7265616479206c69737465640000000000000000000000000000600082015250565b7f53656e742076616c756520646f6573206e6f74206d6174636820746865204e4660008201527f5420707269636500000000000000000000000000000000000000000000000000602082015250565b7f4e4654206e6f74206c697374656420666f722073616c65000000000000000000600082015250565b7f4f776e61626c653a2063616c6c6572206973206e6f7420746865206f776e6572600082015250565b610ff181610e41565b8114610ffc57600080fd5b50565b61100881610e73565b811461101357600080fd5b5056fea2646970667358221220a40f800cec941331e57a6b26f14646121ee48160649fe4a4390ed00372b6264364736f6c63430008040033",
  "linkReferences": {},
  "deployedLinkReferences": {}
}